:0200000490006A
:1000000098950020A9770090BD760090BF7600906B
:10001000C1760090C3760090C57600900000000085
:10002000000000000000000000000000C776009003
:10003000C9760090000000008D4200907F3E009045
:10004000D5770090D9770090DD770090E177009028
:10005000E5770090E9770090ED770090F1770090D8
:10006000F5770090F9770090FD7700900178009087
:1000700005780090097800900D7800901178009034
:1000800015780090197800901D78009021780090E4
:1000900025780090297800902D7800903178009094
:1000A00035780090397800903D7800904178009044
:1000B00045780090497800904D78009051780090F4
:1000C00055780090597800905D78009061780090A4
:1000D00065780090697800906D7800907178009054
:1000E0007578009079780090000000007D7800908D
:1000F0008178009085780090897800908D780090C4
:100100009178009095780090997800909D78009073
:10011000A1780090A5780090A9780090CB76009007
:10012000AD780090B1780090B5780090B9780090E3
:10013000BD780090C1780090C5780090C978009093
:1001400000000000000000000000000000000000AF
:10015000CD780090D1780090D5780090D978009033
:10016000DD780090E1780090E5780090E9780090E3
:10017000ED780090F1780090F5780090F978009093
:10018000FD78009001790090057900900979009040
:100190000D790090117900901579009019790090EF
:1001A0001D7900902179009025790090297900909F
:1001B0002D7900903179009035790090397900904F
:1001C0003D790090417900904579009049790090FF
:1001D0004D790090517900905579009059790090AF
:1001E0005D7900906179009065790090697900905F
:1001F0006D7900907179009075790090797900900F
:100200007D790090817900908579009089790090BE
:100210008D7900909179009095790090997900906E
:100220009D790090A1790090A579009000000000D0
:10023000A9790090AD79009000000000B17900909C
:10024000B5790090B9790090BD790090C17900909E
:10025000C5790090C9790090CD790090D17900904E
:10026000D5790090D9790090DD790090E1790090FE
:10027000E5790090E9790090ED79009000000000A8
:10028000F1790090F5790090F97900900000000074
:1002900000000000FD7900902DE9F04104000026E7
:1002A00000252068000130D5606E002809D0B0F527
:1002B000801F0DD0B0F5001F10D0B0F5401F14D036
:1002C00014E0DFF8F009016851F4003101600EE03C
:1002D0000221201D00F026FF060008E0022114F193
:1002E000240000F0A6FF060001E000E00126300037
:1002F000C0B2002808D1DFF8C0190A6832F44012F1
:10030000606E02430A6000E035002068C0052ED50B
:10031000606D002806D0022811D00AD3042816D018
:1003200014D315E0DFF88C09016851F40031016045
:100330000FE00021201D00F0F5FE060009E000217D
:1003400014F1240000F075FF060002E001E000E077
:1003500001263000C0B2002808D1DFF85C190A6815
:10036000D208D200606D02430A6000E035002068C8
:10037000800531D5A06D002809D040280ED08028F6
:1003800012D0C02817D0B0F5807F15D015E0DFF867
:100390002409016851F4003101600FE00021201DA3
:1003A00000F0C0FE060009E0002114F1240000F076
:1003B00040FF060002E001E000E001263000C0B28C
:1003C000002808D1DFF8F0180A6832F4E072A06D56
:1003D00002430A6000E035002068400536D5D4F8B5
:1003E000A40000280CD0B0F5001F10D0B0F5800F8D
:1003F00013D0B0F5C00F17D0B0F5000F15D015E031
:10040000DFF8B008016851F4003101600FE000210D
:10041000201D00F087FE060009E0002114F12400F1
:1004200000F007FF060002E001E000E001263000D6
:10043000C0B2002809D1DFF884180A6832F46002DB
:10044000D4F8A40002430A6000E0350020680005EB
:1004500036D5D4F8A80000280CD0B0F1807F10D099
:10046000B0F1007F13D0B0F1407F17D0B0F1806FB2
:1004700015D015E0DFF83C08016851F40031016047
:100480000FE00021201D00F04DFE060009E00021D4
:1004900014F1240000F0CDFE060002E001E000E0CF
:1004A00001263000C0B2002809D1DFF810180A6810
:1004B00032F0E062D4F8A80002430A6000E03500A0
:1004C0002068800127D5A06C002814D0102804D003
:1004D000202809D030280DD00EE0DFF8D8070168B9
:1004E00051F40031016008E00221201D00F01AFEE5
:1004F000060002E001E000E001263000C0B2002862
:1005000008D1DFF8BC170A6832F03002A06C024351
:100510000A6000E035002068C00434D5E06D002892
:100520000CD0B0F5805F10D0B0F5005F13D0B0F5FF
:10053000405F17D0B0F5804F15D015E0DFF8740795
:10054000016851F4003101600FE00021201D00F02E
:10055000E9FD060009E0002114F1240000F069FE25
:10056000060002E001E000E001263000C0B20028F1
:1005700008D1DFF844170A6832F4E042E06D024324
:100580000A6000E035002068800432D5206E002823
:100590000FD0B0F5803F0DD0B0F5003F10D0B0F5D2
:1005A000403F14D0B0F5802F12D0B0F5A02F10D05E
:1005B00010E010E00121201D00F0B4FD06000AE06B
:1005C000012114F1240000F034FE060003E002E0F3
:1005D00001E000E001263000C0B2002808D1DFF8B9
:1005E000D8160A6832F4E022206E02430A6000E066
:1005F00035002068400434D5D4F8AC0000280FD072
:10060000B0F1805F0DD0B0F1005F10D0B0F1405F6D
:1006100014D0B0F1804F12D0B0F1A04F10D010E044
:1006200010E00121201D00F07DFD06000AE00121FF
:1006300014F1240000F0FDFD060003E002E001E0FB
:1006400000E001263000C0B2002809D1DFF86C16A6
:100650000A6832F0E042D4F8AC0002430A6000E0DD
:1006600035002068000426D5E06E002813D0B0F1D4
:10067000805F03D0B0F1005F07D00DE0DFF83406F3
:10068000016851F40031016007E00121201D00F0F4
:1006900049FD060001E000E001263000C0B200285C
:1006A00008D1DFF814160A6832F04052E06E0243B7
:1006B0000A6000E035002068C00126D5606C002883
:1006C00013D002280AD002D303280DD00EE0DFF8A1
:1006D000E405016851F40031016008E00221201DA9
:1006E00000F020FD060002E001E000E001263000FD
:1006F000C0B2002808D1DFF8C8150A689208920035
:10070000606C02430A6000E03500206840026DD54D
:10071000DFF8B085D8F8000050F48070C8F8000009
:1007200000F020FE0700D8F80000C00505D400F056
:1007300019FEC01B6528F6D303263000C0B200287E
:1007400053D1DFF88475386810F44070D4F8B010D5
:1007500011F4407188420BD0386830F44070396829
:1007600051F480313960396831F480313960386052
:10077000D4F8B000B0F5807F0ED100F0F3FD8046D4
:100780003868800708D400F0EDFDB0EB080041F2B6
:1007900089318842F4D303263000C0B2002822D128
:1007A000D4F8B00010F44070B0F5407F0DD1DFF800
:1007B0001C05016831F47C51D4F8B020DFF8103505
:1007C00013EA12131943016005E0DFF80005016820
:1007D00031F47C5101603868D4F8B0100905090D76
:1007E0000843386002E0350000E035002078C0079B
:1007F0002DD5A06F00280AD0082809D010280DD0C8
:10080000182812D0202811D0282810D010E010E08D
:100810000121201D00F086FC06000AE0012114F1F0
:10082000240000F006FD060003E002E001E000E025
:1008300001263000C0B2002808D1DFF898140A68F9
:1008400032F03802A06F02430A6000E035002078E1
:1008500080072BD5606F002808D002280DD006D362
:10086000042812D010D3052810D010E010E0012188
:10087000201D00F057FC06000AE0012114F12400BD
:1008800000F0D7FC060003E002E001E000E00126F2
:100890003000C0B2002808D1DFF838140A68D20846
:1008A000D200606F02430A6000E035002078400704
:1008B0002DD5D4F89000002808D002280DD006D3FA
:1008C000042812D010D3052810D010E010E0012128
:1008D000201D00F027FC06000AE0012114F124008D
:1008E00000F0A7FC060003E002E001E000E00126C2
:1008F0003000C0B2002809D1DFF8C0130A68D2085E
:10090000D200D4F8900002430A6000E0350020785D
:10091000800634D5D4F88C0000280FD0B0F1805F69
:100920000DD0B0F1005F10D0B0F1405F14D0B0F145
:10093000804F12D0B0F1A04F10D010E010E0002195
:10094000201D00F0EFFB06000AE0022114F1240054
:1009500000F06FFC060003E002E001E000E0012689
:100960003000C0B2002809D1DFF868130A6832F0FD
:10097000E042D4F88C0002430A6000E035002078A1
:10098000400634D5D4F8980000280FD0B0F5806F19
:100990000DD0B0F5006F10D0B0F5406F14D0B0F5A9
:1009A000805F12D0B0F5A05F10D010E010E0002101
:1009B000201D00F0B7FB06000AE0022114F124001C
:1009C00000F037FC060003E002E001E000E0012651
:1009D0003000C0B2002809D1DFF8E0120A6832F412
:1009E000E052D4F8980002430A6000E03500207815
:1009F000000634D5D4F89C0000280FD0B0F5005F75
:100A00000DD0B0F5804F10D0B0F5C04F14D0B0F578
:100A1000004F12D0B0F5204F10D010E010E00021B0
:100A2000201D00F07FFB06000AE0022114F12400E3
:100A300000F0FFFB060003E002E001E000E0012619
:100A40003000C0B2002809D1DFF870120A6832F411
:100A50006042D4F89C0002430A6000E03500207830
:100A6000000715D5D4F88000B0F5805F07D10221CA
:100A700014F1240000F0DDFB002800D00125DFF890
:100A800054120A6832F44052D4F8800002430A60DB
:100A90002078C00615D5D4F89400B0F5807F07D132
:100AA000022114F1240000F0C4FB002800D001252D
:100AB000DFF808120A6832F44072D4F89400024356
:100AC0000A602068000328D5D4F8A000002806D0CA
:100AD000B0F5803F09D0B0F5003F0DD00DE000210A
:100AE000201D00F01FFB060008E0022114F1240085
:100AF00000F09FFB060001E000E001263000C0B2DC
:100B0000002809D1DFF8B4110A6832F44032D4F871
:100B1000A00002430A6000E035002068400329D5A8
:100B2000D4F88400B0F5801F06D0B0F5001F09D0BE
:100B3000B0F5401F0DD00DE05E48016851F4003162
:100B4000016008E0012114F1240000F072FB0600AE
:100B500001E000E001263000C0B2002809D1DFF832
:100B600074110A6832F44012D4F8840002430A6017
:100B700000E035002068C00320D5E06C002803D0D9
:100B8000B0F5803F06D00BE04A48016851F40031CF
:100B9000016006E00221201D00F0C4FA060000E01A
:100BA00001263000C0B2002807D145490A6832F456
:100BB0008032E06C02430A6000E03500206880006B
:100BC00007D5022114F1240000F033FB002800D0E7
:100BD00001252068800323D5E06F002811D0B0F5EF
:100BE000807F06D0B0F5007F09D0B0F5407F07D0F8
:100BF00008E03048016851F40031016003E002E090
:100C000001E000E001263000C0B2002807D13149E0
:100C10000A6832F44072E06F02430A6000E0350077
:100C20002068C00206D524490A6822F00042206FDD
:100C300002430A602068C00007D524490A6832F4DC
:100C40008042D4F8B40002430A602068800206D5CE
:100C500019490A6832F08072A06E02430A60206867
:100C6000400009D51949086830F4004008600A6856
:100C7000D4F8B80002430A602068002806D510495D
:100C80000A6832F04052206D02430A602068000278
:100C900007D510490A6832F44002D4F888000243AC
:100CA0000A60EDB2002D01D1002000E00120BDE876
:100CB000F08100002C440258504402585844025815
:100CC0004C440258004802587044025810440258DC
:100CD000CFFFFF005444025880B500F084FDDFF8D8
:100CE0006016DFF860261268C2F30212895C11F008
:100CF0001F01C84002BD000010B481490B6813F009
:100D000003030968C1F305317F4A1268C2F3001476
:100D1000DFF834261268C2F3CC02544300EE104AC6
:100D2000B8EE400A002900F0DE80002B03D0022B31
:100D300068D049D384E0DFF8E82313689B0625D503
:100D4000DFF8D8331268C2F3C102D34000EE903A04
:100D5000F8EE600A01EE101AB8EE411AC0EE810AF0
:100D6000DFF8E8150968C905C90D01EE101AB8EEDB
:100D7000411ADFED611A80EE210A31EE000AB7EE6A
:100D8000001A30EE010A20EE800A1CE000EE901AF4
:100D9000F8EE600A9FED591AC1EE200ADFF8AC1593
:100DA0000968C905C90D01EE101AB8EE411ADFED48
:100DB000521A80EE210A31EE000AB7EE001A30EE28
:100DC000010A20EE800A58E000EE901AF8EE600A60
:100DD0009FED4C1AC1EE200ADFF870150968C905AD
:100DE000C90D01EE101AB8EE411ADFED431A80EE7C
:100DF000210A31EE000AB7EE001A30EE010A20EEA9
:100E0000800A3AE000EE901AF8EE600A9FEDBF1AF1
:100E1000C1EE200ADFF834150968C905C90D01EED5
:100E2000101AB8EE411ADFED341A80EE210A31EEC5
:100E3000000AB7EE001A30EE010A20EE800A1CE02C
:100E400000EE901AF8EE600A9FED2E1AC1EE200A0D
:100E5000DFF8F8140968C905C90D01EE101AB8EEDB
:100E6000411ADFED251A80EE210A31EE000AB7EEB5
:100E7000001A30EE010A20EE800ADFF8D0140A686A
:100E8000C2F3462200EE902AF8EE600AB7EE001A8E
:100E900070EE810AC0EE200AFCEEE00AC0ED000A06
:100EA0000A68C2F3064200EE902AF8EE600AB7EE36
:100EB000001A70EE810AC0EE200AFCEEE00AC0EDD6
:100EC000010A0968C1F3066100EE901AF8EE600AA3
:100ED000B7EE001A70EE810A80EE200ABCEEC00A5E
:100EE00080ED020A05E0002101600021416000213F
:100EF000816010BC70470000000000460024744C64
:100F0000284402580024744A2C44025810B4DFF8D4
:100F100040140B6813F003030968C1F30551DFF8AF
:100F200034241268C2F30024DFF82C241268C2F3C0
:100F3000CC02544300EE104AB8EE400A002900F0FB
:100F4000DD80002B03D0022B67D048D383E0DFF88D
:100F5000D02113689B0624D5704B1268C2F3C102DE
:100F6000D34000EE903AF8EE600A01EE101AB8EEA7
:100F7000411AC0EE810ADFF8E4130968C905C90DFA
:100F800001EE101AB8EE411ADFED611A80EE210A67
:100F900031EE000AB7EE001A30EE010A20EE800AA8
:100FA0001CE000EE901AF8EE600A9FED5A1AC1EEAE
:100FB000200ADFF8A8130968C905C90D01EE101A47
:100FC000B8EE411ADFED521A80EE210A31EE000A26
:100FD000B7EE001A30EE010A20EE800A58E000EE6B
:100FE000901AF8EE600A9FED4C1AC1EE200ADFF865
:100FF0006C130968C905C90D01EE101AB8EE411A43
:10100000DFED431A80EE210A31EE000AB7EE001A36
:1010100030EE010A20EE800A3AE000EE901AF8EE77
:10102000600A9FED3A1AC1EE200ADFF83013096812
:10103000C905C90D01EE101AB8EE411ADFED341AD8
:1010400080EE210A31EE000AB7EE001A30EE010AF6
:1010500020EE800A1CE000EE901AF8EE600A9FED88
:101060002E1AC1EE200ADFF8F4120968C905C90D6D
:1010700001EE101AB8EE411ADFED251A80EE210AB2
:1010800031EE000AB7EE001A30EE010A20EE800AB7
:10109000DFF8C8120A68C2F3462200EE902AF8EE82
:1010A000600AB7EE001A70EE810AC0EE200AFCEE6C
:1010B000E00AC0ED000A0A68C2F3064200EE902A78
:1010C000F8EE600AB7EE001A70EE810AC0EE200A50
:1010D000FCEEE00AC0ED010A0968C1F3066100EE0A
:1010E000901AF8EE600AB7EE001A70EE810A80EEF0
:1010F000200ABCEEC00A80ED020A05E00021016072
:10110000002141600021816010BC704720BCBE4BB3
:10111000000000460024744C0024744A0090D00360
:10112000004402582DE9F84305000C000026DFF8C2
:101130002082D8F8000010F00300032801D101201C
:1011400075E0874F386830F08060386000F00AF949
:1011500081463868000107D500F004F9B0EB0900BA
:101160000328F6D3032062E0D8F8000030F47C3086
:10117000296850EA0130C8F800006868401EC005C0
:10118000C00DA968491E490211F47E410843E9686F
:10119000491E090411F4FE0108432969491E090684
:1011A00011F0FE410843694908606A490A6832F053
:1011B000C002686902430A600A6832F02002A86926
:1011C00002430A60086830F0100008605E48026858
:1011D0006FF3CF02EB6952EAC3020260086850F075
:1011E00010000860002C04D1086850F4002008604A
:1011F0000AE0012C04D1086850F48010086003E074
:10120000086850F400100860386850F0806038605A
:1012100000F0A8F804003868000106D400F0A2F835
:10122000001B0328F7D3032001E03000C0B2BDE863
:10123000F2832DE9F84305000C000026DFF8108149
:10124000D8F8000010F00300032801D1012075E058
:10125000434F386830F08050386000F083F88146A2
:101260003868800007D500F07DF8B0EB090003284E
:10127000F6D3032062E0D8F8000030F07C702968D3
:1012800050EA0150C8F800006868401EC005C00D53
:10129000A968491E490211F47E410843E968491EC4
:1012A000090411F4FE0108432969491E090611F0D9
:1012B000FE4108432949086026490A6832F4406221
:1012C000686902430A600A6832F40072A86902433E
:1012D0000A60086830F4807008601F4802686FF385
:1012E000CF02EB6952EAC3020260086850F48070D2
:1012F0000860002C04D1086850F4800008600AE0FF
:10130000012C04D1086850F40000086003E008686C
:1013100050F080700860386850F08050386000F0FD
:1013200021F804003868800006D400F01BF8001B88
:101330000328F7D3032001E03000C0B2BDE8F283F8
:1013400028770090204402583C4402583844025800
:10135000284402582C44025844440258404402583D
:101360000044025801480068704700BFE454002060
:101370002DE9F04104000E00002C01D101203AE1DA
:10138000DFF82C55286810F00F00B0420BD2286807
:101390000009000130432860286810F00F00B042B7
:1013A00001D0012027E1207840070DD5DFF81C157A
:1013B000086810F070002269904205D20A6832F085
:1013C0007002206902430A60207800070DD5DFF81B
:1013D0000015086810F070006269904205D20A6832
:1013E00032F07002606902430A602078C0060DD5B1
:1013F000DFF8DC14086810F4E060A269904205D2BE
:101400000A6832F4E062A06902430A60207880062C
:101410000DD5DFF8C014086810F07000E269904242
:1014200005D20A6832F07002E06902430A6020784F
:1014300080070DD5DFF89414086810F00F00E268FB
:10144000904205D20A6812091201E06802430A605C
:101450002078C00748D5DFF874140A6832F4706247
:10146000A06802430A606068022806D1DFF84404DD
:10147000006880031CD40120BDE06068032806D109
:10148000DFF830040068800112D40120B3E0606806
:10149000012806D1DFF81C040068C00508D401202B
:1014A000A9E0DFF810040068400701D40120A2E0A1
:1014B000DFF804743968C908C900606801433960FD
:1014C000FFF750FF8046386810F038006168B0EBD5
:1014D000C10F09D0FFF746FFB0EB080041F2893198
:1014E0008842F0D3032086E0207880070DD5DFF80E
:1014F000DC13E0680A6812F00F02904205D20A6815
:1015000012091201E06802430A60286810F00F0017
:1015100086420BD228680009000130432860286801
:1015200010F00F00B04201D0012064E020784007A5
:101530000DD5DFF8981320690A6812F07002904206
:1015400005D20A6832F07002206902430A602078EE
:1015500000070DD5DFF8781360690A6812F0700291
:10156000904205D20A6832F07002606902430A6054
:101570002078C0060DD5DFF85813A0690A6812F468
:10158000E062904205D20A6832F4E062A069024348
:101590000A60207880060DD5DFF83813E0690A6804
:1015A00012F07002904205D20A6832F07002E069CF
:1015B00002430A6000F022F8DFF82C23DFF80C1356
:1015C0000B68C3F30323D35C13F01F03D8400968EF
:1015D00011F00F01515C11F01F010200CA40DFF849
:1015E000E4120A60DFF8D8120860DFF8DC02006855
:1015F00000F0A6FCC0B2BDE8F0810000DFF8B80240
:10160000006810F03800002806D0082813D01028F1
:1016100014D0182815D0E4E0DFF898120868800686
:1016200006D5DFF898020968C1F3C101C84001E09E
:10163000DFF88802D6E0DFF8B402D3E0DFF8B002CA
:10164000D0E0DFF89402026812F003020068C0F3F1
:101650000510DFF888120B6813F00103DFF884121D
:101660000968C1F3CC014B4300EE103AB8EE400AD2
:10167000002800F0B480002A03D0022A66D048D3A4
:1016800081E0DFF830120A68920625D5DFF82C22B7
:101690000968C1F3C101CA4000EE902AF8EE600A61
:1016A00001EE100AB8EE411AC0EE810ADFF83002EE
:1016B0000068C005C00D01EE100AB8EE411ADFED5A
:1016C000641A80EE210A31EE000AB7EE001A30EEFD
:1016D000010A60EE800A1BE000EE900AF8EE600A54
:1016E0009FED5C1AC1EE200A7D480068C005C00D60
:1016F00001EE100AB8EE411ADFED551A80EE210A0C
:1017000031EE000AB7EE001A30EE010A60EE800AF0
:1017100055E000EE900AF8EE600A9FED4F1AC1EE18
:10172000200A6F480068C005C00D01EE100AB8EE2F
:10173000411ADFED471A80EE210A31EE000AB7EEBA
:10174000001A30EE010A60EE800A38E000EE900ADE
:10175000F8EE600A9FED411AC1EE200A6048006869
:10176000C005C00D01EE100AB8EE411ADFED381ABF
:1017700080EE210A31EE000AB7EE001A30EE010ABF
:1017800060EE800A1BE000EE900AF8EE600A9FED22
:10179000321AC1EE200A52480068C005C00D01EEA1
:1017A000100AB8EE411ADFED2A1A80EE210A31EE56
:1017B000000AB7EE001A30EE010A60EE800A4848CF
:1017C0000068C0F34620401C00EE100AB8EE400A44
:1017D00080EE800ABCEEC00A10EE100A00E0002085
:1017E00000E04248704780B5FFF708FF3E49374A9E
:1017F0001368C3F30323CB5C13F01F03D840314BB2
:10180000126812F00F02895C11F01F010200CA4039
:101810001A602B490860186802BD80B5FFF7E3FF26
:1018200031492B4A1268C2F30212895C11F01F0180
:10183000C84002BD80B5FFF7D6FF2B49244A126885
:10184000C2F30222895C11F01F01C84002BD0000F2
:10185000000000460024744C0024744A20BCBE4B97
:101860003F220260144A126812F007024260174ACF
:10187000136813F470638360136813F00F03C3607D
:10188000126812F070020261114A136813F07003BB
:101890004361126812F4E06282610E4A126812F02B
:1018A0007002C2610248006810F00F0008607047C3
:1018B0000020005200440258104402580090D00307
:1018C00004000020080000200000002018440258F6
:1018D0001C44025820440258284402582C44025800
:1018E00030440258344402582877009000093D00E3
:1018F00040787D0170B50400002C01D1012005E382
:101900002078C0076CD5DFF80806006810F03800B2
:10191000DFF800160968102805D018280DD111F03D
:101920000301022909D1DFF8F0050068800357D5CB
:101930006068002854D10120E8E26068B0F5803F7B
:1019400006D1DFF8D405016851F48031016026E04A
:10195000606800280AD1DFF8C005016831F48031E1
:101960000160016831F48021016018E06068B0F521
:10197000A02F0AD1DFF8A005016851F48021016091
:10198000016851F48031016009E0DFF88C050168DD
:1019900031F480310160016831F4802101606068B8
:1019A00000280ED0FFF7DEFC0500DFF86C050068AC
:1019B000800315D4FFF7D6FC401B6528F5D3032020
:1019C000A4E2FFF7CFFC0500DFF84C0500688003B8
:1019D00006D5FFF7C7FC401B6528F5D3032095E229
:1019E000207880073DD5DFF82805006810F0380022
:1019F000DFF820150968002804D0182851D111F00B
:101A0000030F4ED1DFF810050068400704D5E068E9
:101A1000002801D1012079E200F012FB41F204011B
:101A2000884215D22069402808D1DFF8F004016807
:101A300031F47C3151F40031016012E0DFF8DC0454
:101A4000016831F47C31226951EA0231016008E019
:101A5000DFF8C804016831F0FE41226951EA0261F1
:101A600001602078C00640F19280DFF8A40400688D
:101A700010F03800DFF89C140968082807D01828EF
:101A800040F09E8011F00301012940F09980DFF8B9
:101A900088040068C00555D5E069802852D001202F
:101AA00034E2E06800283AD0DFF86C64316831F045
:101AB0001901E06801433160FFF754FC050030680C
:101AC000400706D4FFF74EFC401B0328F7D3032042
:101AD0001CE200F0B5FA41F20401884215D22069F7
:101AE000402808D1DFF83404016831F47C3151F426
:101AF0000031016012E0DFF82404016831F47C3128
:101B0000226951EA0231016008E0DFF8100401683F
:101B100031F0FE41226951EA02610160A1E7DFF87C
:101B2000F8633068400840003060FFF71BFC050098
:101B30003068400795D5FFF715FC401B0328F7D305
:101B40000320E3E100F07CFA41F20401884215D25F
:101B5000206A202808D1DFF8C403016831F0F84179
:101B600051F08041016012E0DFF8B003016831F00C
:101B7000F841226A51EA8261016008E0DFF8A003BF
:101B8000016831F07C51226A51EA026101602078DB
:101B9000000773D5606900285ED0DFF8886330687D
:101BA00050F001003060FFF7DDFB05003068800772
:101BB00064D4FFF7D7FB401B0328F7D30320A5E12C
:101BC000E069002836D0DFF85063306850F08000BC
:101BD0003060FFF7C7FB05003068C00506D4FFF78B
:101BE000C1FB401B0328F7D303208FE100F028FA44
:101BF00041F20401884214D2206A202808D1DFF87B
:101C00001C03016831F0F84151F08041016010E09F
:101C1000C248016831F0F841226A51EA82610160EC
:101C200007E0BF48016831F07C51226A51EA026145
:101C30000160ACE7B84E306830F080003060FFF7EC
:101C400091FB05003068C005A1D5FFF78BFB401B59
:101C50000328F7D3032059E1B24E30684008400012
:101C60003060FFF77FFB05003068800706D5FFF77F
:101C700079FB401B0328F7D3032047E12078800637
:101C800026D5A069002811D0A34E306850F48050AA
:101C90003060FFF767FB05003068800418D4FFF759
:101CA00061FB401B0328F7D303202FE19A4E3068D5
:101CB00030F480503060FFF755FB05003068800439
:101CC00006D5FFF74FFB401B0328F7D303201DE188
:101CD0002078400760D5944E306850F480703060B2
:101CE000FFF740FB05003068C00506D4FFF73AFB5C
:101CF000401B6528F7D3032008E1A068012805D11F
:101D00008A48016851F00101016022E0A0680028C2
:101D100009D186480168490849000160016831F02D
:101D20000401016015E0A068052809D17F48016819
:101D300051F004010160016851F00101016008E007
:101D40007A480168490849000160016831F00401DE
:101D50000160A06800280FD0FFF704FB050073485E
:101D60000068800718D4FFF7FDFA401B41F2893163
:101D70008842F4D30320C9E0FFF7F4FA05006B486A
:101D80000068800708D5FFF7EDFA401B41F2893162
:101D90008842F4D30320B9E0606A002800F0B580DF
:101DA0005B48006810F03800182800F08380606AF3
:101DB00002286DD1584D286830F080702860FFF7F8
:101DC000D1FA06002868800106D5FFF7CBFA801B00
:101DD0000328F7D3032099E04E490A68544802408B
:101DE000A06A0243E06A52EA00120A60206B401EB9
:101DF000C005C00D616B491E490211F47E410843C4
:101E0000A16B491E090411F4FE010843E16B491E50
:101E1000090611F0FE410843464908604649086832
:101E2000400840000860454802686FF3CF02A36C89
:101E300052EAC30202600A6832F00C02206C0243CC
:101E40000A600A6832F00202606C02430A600868A5
:101E500050F480300860086850F40030086008686A
:101E600050F480200860086850F00100086028687D
:101E700050F080702860FFF775FA04002868800130
:101E800043D4FFF76FFA001B0328F7D303203DE08C
:101E9000214D286830F080702860FFF763FA040055
:101EA0002868800131D5FFF75DFA001B0328F7D3BE
:101EB00003202BE0174800681E490968626A012A5E
:101EC00021D010F00302A36A9A421CD1C0F305107E
:101ED000E26A904217D1C805C00D226B521E904293
:101EE00011D1C1F34620626B521E90420BD1C1F357
:101EF0000640A26B521E904205D1C1F30660E16B11
:101F0000491E884201D0012000E0002070BD00BFC2
:101F1000104402582844025800440258044402580D
:101F20000C44025874440258004802587044025845
:101F30000CFCFFFF304402582C4402583444025831
:101F400010B58AB00400102C1DD2002221003720C9
:101F500000F0DAF8372000F0E7F81F4804601F4867
:101F6000016851F020010160006810F0200000902D
:101F7000009801A902A8FFF773FC0798002804D174
:101F8000FFF74BFC04E001201BE0FFF746FC40009C
:101F90001349B0FBF1F0401E124C1349216040F28E
:101FA000E731E1606060002020610020A060200037
:101FB00000F018F9002803D1200000F050F900E0EB
:101FC00001200AB010BD07480168C96851F001013D
:101FD0000068C1607047000000000020E84402581B
:101FE00040420F00545400200014004080B50320EC
:101FF00000F086F8FFF702FBDFF85010DFF8502002
:102000001368C3F30323CB5C13F01F03D84012689B
:1020100012F00F02895C11F01F010200CA40DFF8C4
:1020200034100A60DFF8301008600F20FFF788FFD7
:10203000002801D0012002E000F0C6FA002002BD15
:10204000DFF818000068000C704700002877009047
:102050001844025808000020040000200010005C12
:1020600010F00700554B1A684FF6FF010A4054491B
:1020700051EA00210A431A60704750480068C0F3D3
:1020800002207047010009B2002908D4012210F093
:102090001F018A404B4900B2400941F82020704797
:1020A000020012B2002A04D40901474A00B21154B6
:1020B00007E00901454A00B210F00F00104400F893
:1020C000041C704710B410F00700D0F10703052B73
:1020D00001D3042301E0D0F10703041D072C01D232
:1020E000002000E0C01E012414FA03F35B1E194017
:1020F000814014FA00F0401E1040084310BC7047A5
:1021000080B5FFF7ADFF01BD70B504000D001600EE
:10211000FFF7B3FF32002900FFF7D4FF01002000D2
:1021200000B2FFF7BDFF70BD80B500B2FFF7AAFF98
:1021300001BDBFF35F8F2648016831F48031016033
:10214000002024490860704750F0010021490860D0
:102150001F48016851F480310160BFF34F8FBFF316
:102160006F8F704741781C4A1160017800291ED09A
:1021700041681A4A1160017BC27A120652EA017262
:10218000817A52EAC142417B52EA8142817B52EA22
:102190004142C17B52EA0142417A52EA0122017A6C
:1021A00052EA4102007802430D48026005E0002037
:1021B0000A49086000200A49086070470CED00E0F9
:1021C0000000FA0500E100E000E400E018ED00E0A6
:1021D00024ED00E094ED00E098ED00E09CED00E0DF
:1021E000A0ED00E010B50400002C01D1012035E085
:1021F00094F83D00002805D1002084F83C00200020
:1022000000F0C4F9022084F83D00211D206800F090
:1022100049F9012084F84800012084F83E0001209B
:1022200084F83F00012084F84000012084F8410038
:10223000012084F84200012084F84300012084F842
:102240004400012084F84500012084F84600012064
:1022500084F84700012084F83D00002010BD90F86C
:102260003D10012901D0012042E0022180F83D10FB
:102270000168C96851F001010268D1600168DFF8A6
:10228000742091421CD00168B1F1804F18D00168D0
:10229000DFF86420914213D00168DFF8602091429A
:1022A0000ED00168DFF85820914209D00168DFF8AC
:1022B0005420914204D00168DFF84C20914210D1A3
:1022C00001688A68DFF844100A40062A0FD0B2F588
:1022D000803F0CD00168096851F00101006801607D
:1022E00005E00168096851F0010100680160002003
:1022F000704700000000014000040040000800405A
:10230000000C0040000401400018004007000100DC
:1023100010B504002068006980071AD52068C068DD
:10232000800716D57FF00200216808610120207720
:102330002068806910F0030F03D0200000F054F9EA
:1023400005E0200000F051F9200000F04FF90020D6
:1023500020772068006940071AD52068C0684007C8
:1023600016D57FF0040021680861022020772068DC
:10237000806910F4407F03D0200000F035F905E0BB
:10238000200000F032F9200000F030F90020207722
:102390002068006900071AD52068C068000716D5B4
:1023A0007FF0080021680861042020772068C06958
:1023B00010F0030F03D0200000F016F905E0200014
:1023C00000F013F9200000F011F9002020772068B8
:1023D0000069C0061AD52068C068C00616D57FF00F
:1023E000100021680861082020772068C06910F477
:1023F000407F03D0200000F0F7F805E0200000F057
:10240000F4F8200000F0F2F800202077206800693E
:10241000C0070AD52068C068C00706D57FF0010054
:1024200021680861200000F0FDF9206800690006BD
:102430000AD52068C068000606D57FF080002168B4
:102440000861200000F00AFA20680069C0050AD57A
:102450002068C068000606D57FF480702168086196
:10246000200000F0FCF92068006940060AD52068C9
:10247000C068400606D57FF0400021680861200052
:1024800000F0EEF92068006980060AD52068C0686F
:10249000800606D57FF0200021680861200000F04A
:1024A000E0F910BD10B40468DFF8C030984212D0D3
:1024B000B0F1804F0FD0DFF8B82090420BD0DFF89A
:1024C000B420904207D0DFF8B020904203D0DFF86C
:1024D000AC20904203D134F070044A68144398420F
:1024E0001ED0B0F1804F1BD0DFF88420904217D06F
:1024F000DFF88020904213D0DFF87C2090420FD08C
:10250000DFF8782090420BD0DFF87420904207D09B
:10251000DFF87020904203D0DFF86C20904203D1A6
:1025200034F44074CA68144334F080044A69144394
:1025300004608A68C2620A68826298420FD0DFF83B
:102540003C2090420BD0DFF83820904207D0DFF8D3
:102550003420904203D0DFF83020904201D1096945
:1025600001630121416110BC70470000000001407F
:102570000004004000080040000C0040000401403E
:10258000004001400044014000480140704730B421
:10259000002513E050F8042BD30744BFA9F1010331
:1025A0009A18091F042942F8045BFAD213468C07D3
:1025B00044BF15809B1CC90748BF1D7050F8041B01
:1025C0000029E7D130BC704781B00648016851F05E
:1025D00002010160006810F002000090009801B054
:1025E000704700BFF4440258704770477047B1F518
:1025F000807F02D34FF0FF30704701700120704799
:102600000078401E8041C043C00F704738B500F0CD
:10261000B7F888490868800312D4BFF34F8FBFF31F
:102620006F8F0020844A1060BFF34F8FBFF36F8F0E
:10263000086850F400300860BFF34F8FBFF36F8F0E
:102640000868C00324D400207C4A1060BFF34F8F79
:102650007B480268C2F34E33C2F3C90443F6E0700C
:1026600010EA431050EA8470764D28602000441E22
:102670000028F3D11800431E0028EDD1BFF34F8F7F
:10268000086850F480300860BFF34F8FBFF36F8F3E
:10269000FFF7ACFC00F009F800F0E4F800F04EF9A8
:1026A00000F080FA00F00CFBFEE710B59CB04C2166
:1026B000002209AC200000F027FB2021002201AC01
:1026C000200000F021FB022000F05EFB00200090C3
:1026D0005D48016851F440410160016811F44041D6
:1026E00000915A490A6852F001020A60096811F023
:1026F00001010091009901688904FCD554480168E2
:102700008908890051F002010160012009905FF4FD
:1027100080300A900220129002201390052014901D
:10272000C0201590022016900220179002201890C9
:102730000820199000201A9000201B9009A8FFF78C
:10274000D9F8002801D000F087F83F20019003203D
:102750000290002003900820049040200590402023
:1027600006904FF48060079040200890042101A853
:10277000FEF7FEFD002801D000F06EF81CB010BD81
:102780001FB5102100226C46200000F0BDFAFFF7B3
:10279000D0FC01208DF8000000208DF801005FF0D2
:1027A0000050019010208DF8080000208DF80900DD
:1027B00000208DF80A0003208DF80B0000208DF812
:1027C0000C0000208DF80D0001208DF80E00012076
:1027D0008DF80F006846FFF7C5FC01208DF8010059
:1027E0005FF01050019012208DF808006846FFF746
:1027F000B9FC02208DF801005FF04050019068465E
:10280000FFF7B0FC03208DF801005FF060500190ED
:102810000F208DF808006846FFF7A4FC0420FFF79E
:1028200093FC1FBD80B500680A49884201D100F0C1
:10283000D7FA01BD14ED00E050EF00E084ED00E0B8
:1028400080ED00E060EF00E0184802582C040058CA
:10285000284402580014004072B6FEE770477047E3
:102860007047704738B586B01422002101A800F0E7
:10287000C3FA2F48016851F004010160016811F0AA
:10288000040100910099016851F080010160016824
:1028900011F0800100910099016851F0010101607F
:1028A000016811F0010100910099016851F00201E5
:1028B0000160016811F0020100910099016851F076
:1028C00010010160016811F0100100910099016888
:1028D00051F008010160006810F0080000900098B5
:1028E000144D01228221280000F09DFB124C012290
:1028F0004FF40051200000F096FB8220019001204F
:102900000290002003900020049001A9280000F00C
:102910007DFA4FF4005001900120029000200390B6
:102920000020049001A9200000F070FA07B030BD2B
:10293000E0440258000002580004025830B58DB03F
:1029400034220021684600F057FA8D4C8D482060F3
:10295000002060600020A0600020E0600020206176
:10296000032060610320A0612E20E0610F2020621F
:102970004FF4B7706062FF25A5624FF4BB70E06250
:1029800040F207102063002084F83400002084F80F
:102990003500002084F83600200000F06BFB002892
:1029A00001D0FFF759FF002000904FF4A070019074
:1029B00000210291F021039102210491059500214B
:1029C00006914FF4C0610791072108915FF0105103
:1029D00009910A90F0200B9000208DF83000002023
:1029E0008DF8310000208DF8320000226946200069
:1029F00000F0C8FB002801D0FFF72EFF0DB030BD5E
:102A000018B5B5B0040014220021684600F0F4F9AE
:102A1000BC22002106A800F0EFF92068594988423D
:102A200040F0AB805FF00050069005200F903C20F6
:102A300010900220119002201290322013904FF437
:102A400000601490002015900020169006A8FDF755
:102A500023FC002801D0FFF7FFFE4B48016851F02E
:102A600008010160006810F00800059005984748CB
:102A7000016851F004010160016811F00401059141
:102A80000599016851F001010160016811F001012F
:102A900005910599016851F002010160016811F08A
:102AA000020105910599016851F01001016001686A
:102AB00011F0100105910599016851F008010160BC
:102AC000006810F0080005900598C12000900220D1
:102AD000019000200290032003900E20049069468C
:102AE0002B4800F093F978200090022001900020FC
:102AF0000290032003900E2004906946254800F0C0
:102B000085F903200090022001900020029003200C
:102B1000039009200490204C6946200000F076F9CB
:102B20004FF4784000900220019000200290032092
:102B300003900E2004906946184800F067F94FF49E
:102B4000706000900220019000200290032003900A
:102B50000E2004906946200000F058F94FF481607F
:102B600000900220019000200290032003900E208C
:102B7000049069460A4800F049F936B010BD0000DB
:102B8000CC51002000100050E4440258E0440258A8
:102B900000080258000002580004025800100258B1
:102BA000000C025810B5414C414820605FF4E13000
:102BB00060600020A0600020E060002020610C2008
:102BC00060610020A0610020E06100202062002000
:102BD00060620020A062200000F01CFC002801D0F0
:102BE000FFF73AFE0021200001F09EF8002801D0F6
:102BF000FFF732FE0021200001F0C0F8002801D0CC
:102C0000FFF72AFE200001F06DF8002801D0FFF741
:102C100023FE10BD18B5B5B004001422002101A890
:102C200000F0EAF8BC22002106A800F0E5F82068D0
:102C30001F4988422DD1022006900020239006A82B
:102C4000FDF72AFB002801D0FFF706FE19480168AE
:102C500051F400210160006810F4002000900098F9
:102C60001548016851F001010160006810F0010091
:102C7000009000984FF4C050019002200290002074
:102C80000390002004900620059001A90B4800F055
:102C9000BDF836B010BD01B54FF47A730122694614
:102CA000024800F0F6FB009802BD000074520020BC
:102CB000004C0040E8440258E0440258000002582A
:102CC00010B50E4C206810F10F3F0AD05FF0F030C5
:102CD000206001F0B1F801F0E9F809480168491CE9
:102CE00001605FF0F03020600648006801F020F9D4
:102CF0000020206001F0B4FA10BD00BF0C000020DD
:102D00004C5500202855002062F30F2262F31F4229
:102D1000401810F0030308D0C91A1FD3DB0748BFBF
:102D200000F8012D28BF20F8022D130030B41446FE
:102D30001546103928BF20E93C00FAD8490728BFBA
:102D400020E90C0048BF40F8042D890028BF20F876
:102D5000022D48BF00F8012D30BC7047C91818BFBC
:102D600000F8012DCB0728BF00F8012D70478268BD
:102D7000521C8260426832B10268531C03601170B9
:102D80004168491E4160704710B5DFF84C100A6871
:102D9000520708D4096811F00701814201D00120CF
:102DA00018E0002016E00A68D208D200104308603C
:102DB000FEF7D8FA0400DFF824000068800408D485
:102DC000FEF7D0FA001B40F2E9318842F3D301202C
:102DD00000E0002010BD00000C48025804480258D2
:102DE00003480168034A127889180160704700BFE0
:102DF000E4540020D800002010B5044610460A46CE
:102E000001462046FFF780FF204610BDF8B40200BF
:102E10000025DFF8284236E05FF00A0C05E0DFF815
:102E200020329A42F8D15FF0090C15F00303DBB2AF
:102E30009B001CFA03FC5CEA07072B009B0846F882
:102E40002370236883434E68F60300D50343236051
:102E5000636883434E68B60300D5034363605FF045
:102E6000B046336883434F68FF0200D503433360A5
:102E7000DFF8D061336883434F68BF0201D5184340
:102E8000030033606D1C0868E840002800F0C9802A
:102E90000126086816FA05F318400028F2D04B689E
:102EA000012B08D04B68022B05D04B68112B02D0A8
:102EB0004B68122B1CD197685FF0030C2B00DBB220
:102EC0005B001CFA03FC37EA0C07D1F80CC02B009E
:102ED000DBB25B001CFA03FC5CEA070797605368EF
:102EE000AE40B3434E68C6F30016AE403343536062
:102EF000D76803262B00DBB25B0016FA03F39F436F
:102F0000D1F808C02B00DBB25B001CFA03FC5CEAC2
:102F10000707D7604B68022B02D04B68122B1DD1DC
:102F20002B00DB0802EB83031F6A5FF00F0C15F028
:102F30000703DBB29B001CFA03FC37EA0C07D1F84D
:102F400010C015F00703DBB29B001CFA03FC5CEA1F
:102F500007072B00DB0802EB83031F6217682B00B7
:102F6000DBB25B009E40B7430E7916F003062B00E0
:102F7000DBB25B009E40374317604B68DB007FF598
:102F800081AF314B1E6856F002061E601B6813F0BD
:102F900002030093009B2D4E2B009B0856F82370D4
:102FA0005FF00F0C15F00303DBB29B001CFA03FC6F
:102FB00037EA0C07264B9A4202D15FF0000C34E747
:102FC000244B9A4202D15FF0010C2EE7224B9A4229
:102FD00002D15FF0020C28E7204B9A4202D15FF049
:102FE000030C22E71E4B9A4202D15FF0040C1CE74F
:102FF0001C4B9A4202D15FF0050C16E71A4B9A421D
:1030000002D15FF0060C10E7184B9A4202D15FF034
:10301000070C0AE7164B9A427FF401AF5FF0080CE9
:1030200003E7F1BC7047D2B2002A02D089B28161B5
:1030300002E089B2090481617047000080000058F5
:103040000024025804000058F444025808040058B0
:10305000000002580004025800080258000C0258F0
:10306000001002580014025800180258001C0258A0
:103070000020025810B50400002C01D1012080E08E
:1030800094F8A100002805D1002084F8A0002000B9
:10309000FFF7B6FC022084F8A1002068806920F0C8
:1030A000704021688861206881696268A068024375
:1030B000E068024320690243114320688161DFF820
:1030C0004C1320688068084022689060626912048E
:1030D00020688368A06902431A43206882602068E0
:1030E000C06808402268D060E26912042068C368A2
:1030F000206A02431A432068C260206800690840C1
:1031000022681061626A120420680369A06A02439F
:103110001A432068026120684069014020684161CB
:10312000E16A090420684269206B01431143206869
:10313000416194F83510090294F8360000042268C1
:10314000D26A12F07F422368DA622268D26A0143AF
:1031500094F83400014311432068C1622068406B39
:1031600050F00600216848632068806950F0010033
:10317000216888610020C4F8A400012084F8A1001F
:10318000002010BD70B504000D00160094F8A000DA
:10319000012801D102201DE0012084F8A0000220B6
:1031A00084F8A100342000FB06F0204438302900C8
:1031B000342201F0C5F832002900200000F00BF89D
:1031C000012021684862012084F8A100002084F8D1
:1031D000A000002070BDF0B403004C681868C068FF
:1031E000C0F30B40041924041D68802000FB025525
:1031F00084351E68802000FB02668436706810F4F7
:10320000704068601D68802000FB025584350E68A0
:103210001868C068C0F30B408619761C34436C6094
:10322000CC681868C0684005400D041924041D6866
:10323000802000FB025584351E68802000FB02665A
:103240008436B06810F47040A8601D68802000FBD0
:103250000255843588681E68F6687605760D301844
:10326000401C0443AC601C68802000FB0244843492
:103270001D68802000FB025584352869C008C00005
:1032800020611C68802000FB0244843408692061AE
:1032900091F83140240291F832502D048E6936069F
:1032A0001F68802000FB02778437B8691F68802080
:1032B00000FB027784370020B8611F68802000FB84
:1032C0000277843791F8300004432C433443BC61C7
:1032D0001C68802000FB024484341D68802000FBB1
:1032E000025584356869000A000260611C6880200C
:1032F00000FB02448434486960611C68802000FB44
:10330000024484341D68802000FB02558435ED6939
:103310003F480540E5611C68802000FB024484347E
:10332000CD69086A0543E5611C68802000FB024402
:103330008434A06A1C68802000FB0244843400208E
:10334000A0621C68802000FB02448434486AA062AA
:103350000869002801D1042413E00869012801D17B
:1033600003240EE00869042808D00869022805D063
:103370000869032802D00869072801D1022400E067
:1033800001241D68802000FB025584351E688020C2
:1033900000FB02668436F06A10F0E020E8621D68E7
:1033A000802000FB025584358E6A66434F680868AA
:1033B0003F1A04FB07F4E41D54EA0644EC621C685F
:1033C000802000FB024484341D68802000FB0255ED
:1033D0008435286BC00AC00220631C68802000FB73
:1033E00002448434C86A20631968802000FB0211FB
:1033F0008431096851F001011B68802000FB023212
:1034000084321160F0BC70470000000000F800F04A
:10341000F8F8FFFF10B50400002C01D1012037E0BF
:10342000A0690028FFD1D4F88400002805D100202D
:1034300084F880002000FFF7EDFB2420C4F884000E
:10344000206800684008400021680860200000F003
:103450008BF8012801D101201AE0A06A002802D0CF
:10346000200000F018FB2068406830F4904021688C
:1034700048602068806830F02A00216888602068F1
:10348000006850F0010021680860200000F070FB27
:1034900010BD2DE9FC4106000D0014001F00D6F8F8
:1034A000840020285DD1002D03D0200080B20028A8
:1034B00001D1012056E096F88000012801D10220B8
:1034C00050E0012086F880000020C6F88C00212002
:1034D000C6F88400FDF746FF8046A6F85440A6F8DB
:1034E0005640B068B0F5805F04D13069002801D142
:1034F000002401E02C000025002086F8800011E067
:10350000207831688862641C07E0002CF8D1288894
:10351000C005C00D31688862AD1CB6F85600401E6B
:10352000A6F85600B6F8560000280AD00097434681
:1035300000228021300000F054FB0028E5D0032059
:1035400010E00097434600224021300000F049FB84
:10355000002801D0032005E02020C6F884000020C8
:1035600000E00220BDE8F68170B586B004000025B9
:10357000DFF8281720688842FFD0A268206902433C
:1035800060690243E069024320680368DFF81007BE
:1035900003401A43206802602068426832F44052B7
:1035A000E068024320684260A2692068884201D036
:1035B000206A024320688368DFF8E80603401A4364
:1035C000206882602068C26A12091201606A0243A0
:1035D0002068C2622068DFF8D02690421FD1DFF851
:1035E000CC06006810F0380000280AD008280AD05D
:1035F00010280AD018280AD020280AD028280AD053
:103600000BE0012024E1042022E1082020E1102029
:103610001EE120201CE140201AE1802018E12068F2
:10362000DFF88C2690421DD1DFF88006006810F08C
:103630000700002808D002280AD007D304280BD09E
:1036400008D305280AD00BE0002001E10420FFE0A8
:103650000820FDE01020FBE02020F9E04020F7E00A
:103660008020F5E02068DFF84C2690421DD1DFF87D
:103670003C06006810F00700002808D002280AD095
:1036800007D304280BD008D305280AD00BE000206C
:10369000DEE00420DCE00820DAE01020D8E0202082
:1036A000D6E04020D4E08020D2E02068DFF8082671
:1036B00090421DD1DFF8F405006810F007000028E3
:1036C00008D002280AD007D304280BD008D3052835
:1036D0000AD00BE00020BBE00420B9E00820B7E0EE
:1036E0001020B5E02020B3E04020B1E08020AFE022
:1036F0002068DFF8C82590421DD1DFF8B0050068CA
:1037000010F00700002808D002280AD007D30428A8
:103710000BD008D305280AD00BE0002098E0042045
:1037200096E0082094E0102092E0202090E04020D5
:103730008EE080208CE02068DFF8842590421FD145
:10374000DFF86805006810F0380000280AD0082863
:103750000AD010280AD018280AD020280AD02828F1
:103760000AD00BE0012073E0042071E008206FE034
:1037700010206DE020206BE0402069E0802067E0B1
:103780002068DFF8402590421DD1DFF82005006851
:1037900010F00700002808D002280AD007D3042818
:1037A0000BD008D305280AD00BE0002050E00420FD
:1037B0004EE008204CE010204AE0202048E0402065
:1037C00046E0802044E02068DFF8FC2490421DD1D0
:1037D000DFF8D804006810F00700002808D002289D
:1037E0000AD007D304280BD008D305280AD00BE051
:1037F00000202DE004202BE0082029E0102027E005
:10380000202025E0402023E0802021E0206888421D
:103810001DD1DFF8B804006810F00700002808D0B8
:1038200002280AD007D304280BD008D305280AD0D1
:103830000BE002200CE004200AE0082008E0102041
:1038400006E0202004E0402002E0802000E080200C
:1038500022688A4263D1C0B202280AD004280BD061
:1038600008280ED0102811D020281ED040281FD0A4
:1038700021E0FDF731FA20E003A8FDF73DFA0498B6
:103880001BE06846FDF742FB019816E0DFF84014A4
:103890000868800606D5DFF83C040968C1F3C10159
:1038A000C84001E0DFF82C0407E0DFF82C0404E056
:1038B0004FF4004001E000200125002800F0DC80EA
:1038C000DFF81834616A33F81110B0FBF1F2666862
:1038D00003214E43B24205D366684FF480514E43F4
:1038E000964201D20125C7E0616A33F81110B0FB9E
:1038F000F1F24FF48073606840080021E3FB02019D
:103900006268002300F060FDB0F54071DFF8D0235D
:10391000914202D22168C860AEE00125ACE0E169C5
:10392000B1F5004F57D1C0B200280CD001280DD0FE
:1039300004280ED0082811D0102814D0202821D017
:10394000402822D024E0FDF768FF23E0FDF772FF56
:1039500020E003A8FDF7D0F904981BE06846FDF7C6
:10396000D5FA019816E0DFF868130868800606D5D6
:10397000DFF860030968C1F3C101C84001E0DFF866
:10398000540307E0DFF8500304E04FF4004001E087
:103990000020012500286FD0DFF84013626A31F85B
:1039A0001210B0FBF1F06168490811EB400160684A
:1039B000B1FBF0F080B24FF6F071B0F110028A4224
:1039C00007D20140C0F34200014389B22068C160C0
:1039D00052E0012550E0C0B200280CD001280DD0E3
:1039E00004280ED0082811D0102814D0202821D067
:1039F000402822D024E0FDF710FF23E0FDF71AFF56
:103A000020E003A8FDF778F904981BE06846FDF76D
:103A10007DFA019816E0DFF8B8120868800606D52E
:103A2000DFF8B0020968C1F3C101C84001E0DFF866
:103A3000A40207E0DFF8A00204E04FF4004001E038
:103A400000200125002817D0DFF89012626A31F8B3
:103A50001210B0FBF1F0616810EB51006168B0FB2F
:103A6000F1F080B2B0F110014FF6F072914202D243
:103A70002168C86000E001250120A4F86A00012047
:103A8000A4F8680000202067002060672800C0B20A
:103A900006B070BD000090F82810C90707D501686E
:103AA0004A6832F40032C16A0A4301684A6090F8F9
:103AB0002810890707D501684A6832F48032016B03
:103AC0000A4301684A6090F82810490707D5016841
:103AD0004A6832F48022416B0A4301684A6090F8D8
:103AE0002810090707D501684A6832F40042816B43
:103AF0000A4301684A6090F82810C90607D5016892
:103B00008A6832F48052C16B0A4301688A6090F877
:103B10002810890607D501688A6832F40052016CC2
:103B20000A4301688A6090F82810490613D5016895
:103B30004A6832F48012416C0A4301684A60416C61
:103B4000B1F5801F07D101684A6832F4C002816C68
:103B50000A4301684A6090F82810090607D50168F1
:103B60004A6832F40022C16C0A4300684260704720
:103B700038B504000020C4F88C00FDF7F3FB050005
:103B80002068006800070DD57FF07E4000902B0074
:103B900000225FF40011200000F023F8002801D07B
:103BA00003201DE02068006840070DD57FF07E40AF
:103BB00000902B0000225FF48001200000F011F83B
:103BC000002801D003200BE02020C4F8840020202E
:103BD000C4F888000020E066002084F880000020FF
:103BE00032BD2DE9F04105000E0090461F00069CF5
:103BF0002868C0693040B04201D1012000E00020B7
:103C00004146C9B2884246D114F1010FF0D0FDF708
:103C1000A9FBC01B844201D3002C16D12868006880
:103C200030F4D07029680860286880684008400037
:103C3000296888602020C5F884002020C5F8880005
:103C4000002085F88000032026E0286800684007EF
:103C5000CED52868C0690005CAD54FF40060296830
:103C600008622868006830F4D07029680860286805
:103C7000806840084000296888602020C5F88400DA
:103C80002020C5F888002020C5F88C00002085F889
:103C90008000032000E00020BDE8F081000C005807
:103CA000F369FFCFFFF4FF110010014054440258A4
:103CB0000044004000480040004C004000500040DC
:103CC0000014014000780040007C00405844025835
:103CD000004402580090D00300093D00D8760090BF
:103CE00000FD0F0090F88010012901D102201AE098
:103CF000012180F880102421C0F88410016809682F
:103D0000026812685208520003681A6031F00051CC
:103D100000224266026811602021C0F88410002150
:103D200080F880100020704738B5040094F88000B7
:103D3000012801D1022020E0012084F88000242005
:103D4000C4F88400206805682068006840084000C6
:103D5000226810602068806820F06040014320687D
:103D60008160200000F034F8206805602020C4F84D
:103D70008400002084F88000002032BD38B50400A3
:103D800094F88000012801D1022020E0012084F86D
:103D900080002420C4F8840020680568206800683A
:103DA00040084000226810602068806830F0606041
:103DB000014320688160200000F00AF82068056057
:103DC0002020C4F88400002084F88000002032BD48
:103DD000F0B4416E002906D10121A0F86A1001213A
:103DE000A0F8681021E01022102301688C68640E8E
:103DF00014F0070401688D686D0F0D4E0D4FDBB296
:103E00002900C9B2795C4B43EDB2715D93FBF1F1CE
:103E1000A0F86A10D2B22100C9B2795C4A43E4B278
:103E2000315D92FBF1F1A0F86810F0BC7047000022
:103E3000CC770090C477009072B61448144A106092
:103E40001448016841F0010101604FF0E02012497F
:103E5000C0F8081D11481049096801604FF0E020C2
:103E60000F4941614FF0070101610021C0F8181DA1
:103E70000C49C0F81C1D0C49C0F8201D704701B545
:103E800000F0BAFBBDE8014070470000D4540020A8
:103E900028550020001000E0000000902C55002064
:103EA000FF520700000000FF0000FF4080B500F057
:103EB000FFFB00F047FC0020114908600020114979
:103EC00008600020104908600020104908600020A8
:103ED0000F49086000200F49086000200E49086063
:103EE00000200E49086000200D49086000200D499F
:103EF000086000200C49086000200C49086001BDE2
:103F0000F8540020FC5400200055002004550020E7
:103F1000085500200C550020185500201C55002085
:103F20002055002024550020105500201455002055
:103F300000B587B0B42006900120059000200490C1
:103F400002200390022002904FF480500190A34879
:103F5000009000230FF26502A149A24800F062FC24
:103F6000B420069001200590002004901E200390AC
:103F70001E2002904FF4806001909B480090002327
:103F80000FF2A90299499A4800F04CFCB42006901F
:103F900001200590002004901F2003901F20029014
:103FA0004FF4806001909348009000230FF2E502E7
:103FB0009149924800F036FC07B000BD80B500F092
:103FC00021F8FEF700F800F0DBFC00F06DF800F0DF
:103FD000AEF800F0D9FC012000F0D8FCF9E780B57C
:103FE0004FF4FA7000F0D2FCFAE780B5142000F02C
:103FF000CDFCFBE780B500F0BCF841F2883000F062
:10400000C5FCF8E738B57E4C00202070022000F097
:10401000BDFC7C4D00202860642000F0B7FC2868BF
:10402000794908600120207031BD000038B502E0F8
:10403000C82000F0ABFC724800780028F8D0724C21
:1040400020686421B0FBF1F020602068002802D1D4
:104050006E48002101606B4D216864204143296056
:104060006B48296801600021296090ED000AB8EED4
:10407000400AD4ED000AF8EE600A80EE200ADFED77
:10408000550A30EEC00A614880ED000A642000F055
:104090007DFCE5E7EFF3108072B65A490A68521CBE
:1040A0000A6080F31088F5E700B587B0B420069069
:1040B000012005900020049003200390032002902B
:1040C0004FF480500190534800900023524A5349C6
:1040D000534800F0A7FBB420069001200590002073
:1040E000049004200390042002904FF4805001902B
:1040F0004C48009000234C4A4C494D4800F092FB3C
:10410000B420069001200590002004900520039023
:10411000052002904FF48050019046480090002303
:10412000454A4649464800F07DFB07B000BD80B5D2
:10413000342300224349444800F070FC01BD0EB412
:1041400010B5B3B0020035ABC921684600F0CCFC15
:104150003D4C5FF0FF31200000F0E4FC69461EA0FA
:1041600000F01EFD200000F02FFD33B010BC5DF804
:1041700010FB7CB51B4D2C00344E3000FFF7DFFFE9
:10418000224890ED000AB7EEC00A53EC102B3048DD
:10419000FFF7D5FF3000FFF7D2FF2E48FFF7CFFF24
:1041A0002D48FFF7CCFF002C12D0A06A01902169A6
:1041B000D4F8A800091A00912369A0681B1A626943
:1041C000E16A2648FFF7BBFFD4F88840AC42EAD149
:1041D00073BD00000000C84225730000E00000200D
:1041E00038770090E04C0020E044002048770090B1
:1041F00064500020E040002058770090B04F00202D
:1042000094550020E8540020F0540020EC54002085
:10421000F4540020E0100020DF3F00906877009009
:10422000944D0020E0300020EB3F00907877009024
:10423000FC4E0020E0200020F53F009088770090A1
:10424000484E002098770090A054002018750090E8
:10425000A0760090C47400905C750090D0750090BA
:104260004FF000002A4A1060EFF3148020F00400A1
:1042700080F3148862B64FF080504FF0E021C1F80F
:10428000040DBFF34F8FBFF36F8FFEE72148224A23
:104290004FF00003016891B10360EFF3098C2CE942
:1042A000F00F1EF0100F01D12CED108A1B4C4CF8B2
:1042B00004ED2568C1F808C00DB18D61236072B6A8
:1042C0001168B1B1016062B64F68144C8D6907F195
:1042D00001074F602560D1F808C05CF804EB1EF0C0
:1042E000100F01D1BCEC108ABCE8F00F8CF30988E8
:1042F000704772B61168016009B962B6F9E74FF00C
:1043000000674FF0E028C8F8047D62B6DCE770472C
:104310004C55002030550020345500208C5500208D
:1043200062B38B0708D0521E11F8013B00F8013B25
:1043300000F024808B07F6D1830740F0208000BF77
:10434000103A07D330B4B1E83810103AA0E838106A
:10435000F9D230BC530724BFB1E80810A0E8081018
:1043600044BF51F8043B40F8043BD20724BF31F866
:10437000022B20F8022B44BF0B7803707047121FEA
:1043800017D35B0009D151F8043B20F8023B1B0C0A
:10439000121F20F8023BF6D20BE051F8043B00F864
:1043A000013B1B0A20F8023B1B0C121F00F8013BCB
:1043B000F3D238BF121D521E24BF11F8013B00F882
:1043C000013BF8D870472E00BBBBE1B1B2F5803F8E
:1043D00080F07E80022A1ED98C46B1FBF2F102FBEE
:1043E00011C31B0443EA1043B3FBF2FC02FB1C3372
:1043F00080B240EA0343B3FBF2F002FB103240EA22
:104400000C4000237047022A05D98446B0FBF2F025
:1044100002FB10C270474AB105D100F00102490801
:104420005FEA3000704700220023704700F0F2BBC3
:104430000B000200002100207047904271EB030C3A
:10444000F6D3B3F5803F2FD2F0B5B3FA83F7B1FAC4
:1044500081F4A7F10F0E3D1B5340CEF1200602FA66
:104460000EF2F3415340B5F10F0746D80F3C2C44F0
:104470004140C4F12006A040F1414140B1FBF3F6B8
:1044800003FB1611A2FB0645001BA94102D2761EB2
:104490008018594180EA010221FA0EF362FA0EF205
:1044A00000215A403046F0BD30B4B1FBF3FC03FBB1
:1044B0001C11A2FB0C45001BA94103D2ACF1010C5D
:1044C0008018594130BC02460B46604600217047B7
:1044D000B2F1807F65D3F0B5B2FA82F7B1FA81F418
:1044E000C7F10F063D1B22FA06F307F1110EF24148
:1044F00020355A40B5F10F07B8D94140C4F1200624
:10450000A040F1414140B1FBF3FC03FB1C11A2FBB5
:104510000C45001BA94103D2BCF1010C8018594184
:104520000F2F12D30F3FC90341EA5041B1FBF3F6FD
:1045300003FB1611A2FB0645D4EBC030A94102D201
:10454000761E8018594146EACC3C07B34140C7F17A
:104550002006B840F1414140B1FBF3F603FB1611D0
:10456000A2FB0645001BA94102D2761E80185941C4
:1045700080EA010221FA0EF3C7F1200462FA0EF27A
:104580000CFA07F05A402CFA04F13043F0BD80EAEF
:10459000010221FA0EF3002162FA0EF260465A403F
:1045A000F0BD8C46B1FBF2F102FB11C31B0243EAE2
:1045B0001063B3FBF2FC02FB1C331B024CEA00202D
:1045C00043EA1063B3FBF2FC02FB1C331B024CEA10
:1045D000002043EA1063B3FBF2FC02FB1C331B0216
:1045E0004CEA002043EA1063B3FBF2FC02FB1C32EE
:1045F0004CEA0020002370472149086800F10100BF
:104600000860204B1A683AB1A2F101021A601AB987
:104610001D4B4FF0010018601C490868026822B168
:104620001B4B4FF001021A6008E000F10400194B27
:104630001A68904201D1184B18680860124B1A682A
:1046400012B913490868C0B101B51149086808B129
:1046500000F0E2FA0C4B1A686AB100F0EFFA0F486A
:10466000016841B90E4801680E4A13680E480F4AA6
:10467000994200D00260BDE80140BFF34F8F704700
:104680005C5500208C550020605500206C550020A2
:104690007055002068550020645500204C550020BE
:1046A000305500203455002004ED00E000000010DB
:1046B00010B5002017490860002017490860042140
:1046C0000022164C2000FEF71FFB04210022144C90
:1046D0002000FEF719FB20201249086080210022EB
:1046E000114C2000FEF710FB00201049086000204C
:1046F0000F49086000200F49086000200E4908603B
:1047000000200E4908600E48016851F08871016070
:1047100010BD00BF3055002034550020405500200A
:1047200044550020485500200453002038550020EF
:104730003C5500204C550020505500205855002075
:104740005455002070B586B0002023490860002031
:1047500022490860002022490860002021490860A1
:1047600000202149086080210022204C25002800DB
:10477000FEF7CAFA1E4804601E4804601E4814F181
:104780007C0101600168091D01601C4C1C4820600F
:104790001C4D4FF4806028601B4E002030600020CC
:1047A00005900020049030680390306802902868DB
:1047B000019020680090154B154A1649164800F0E4
:1047C000EBFA0028EBD100201449086000201449BE
:1047D000086006B070BD00BF5C5500208C550020FD
:1047E00060550020705500207C5500208453002027
:1047F000645500206C55002068550020805500202D
:10480000E048002084550020885500204D4954413F
:10481000AD7000901477009018510020745500205E
:10482000785500202DE9F44F86B004000F009A4619
:10483000109DDDF84480DDF848900026002C01D161
:104840000E2678E01698B42801D00E2673E0EFF318
:10485000108172B644480268521C026081F31088CD
:104860000021424AD2F800B02A004244521E0023DE
:1048700016E0DBF80CC0654505D3DBF810C06545D4
:1048800001D200250121DBF80CC0624505D3DBF81D
:1048900010C0624501D200250121DBF888B05B1C05
:1048A000DFF8CCC0DCF800C0634504D25C4500D121
:1048B00001210129DDD1EFF3108172B60268521E89
:1048C000026081F3108800F025FB5C4501D10E26C3
:1048D00031E0002D01D103262DE00698002801D1FA
:1048E000032628E0B8F1C80F01D2052623E0B9F16C
:1048F000200F01D30F261EE01398814501D2182600
:1049000019E01598022801D3102614E01948006810
:104910001949884200D11326184A1068EFF305811F
:104920000843002807D01168EFF305800143B1F177
:10493000F03F00D21326002E11D1534639001598AE
:1049400005901498049013980390CDF80890CDF832
:1049500004800095069A200000F01EFA0600300040
:1049600007B0BDE8F08F00BF4C550020385500203F
:104970003C55002030550020185100200C0000202C
:1049800080B500F025FB01BD7047430010B5EFF383
:10499000108372B61D490C68002C03D183F3108874
:1049A000132031E01A490968EFF305821143002909
:1049B00003D083F31088132026E016498C4203D1DC
:1049C00083F3108813201FE0002803D183F310889D
:1049D000002019E0104A1168002903D083F31088E1
:1049E000132011E0042121630121A1630021C4F8F7
:1049F0008410E0641068401C106083F3108820006D
:104A000000F0FAFAD4F8840010BD00BF3055002041
:104A10000C000020185100204C5500202DE9F041D9
:104A200005000F0016000024002D01D11C242DE0EC
:104A3000342B01D01C2429E0EFF3108072B62449F6
:104A40000A68521C0A6080F310882248D0F800805F
:104A5000002002E0D8F82080401C1F4A12689042D3
:104A600001D24545F6D1EFF3108072B60A68521EA6
:104A70000A6080F3108800F04DFA454501D11C24EE
:104A800004E0012E02D0002E00D01F24002C14D1EF
:104A9000124800681249884200D11324114A106854
:104AA000EFF305810843002807D01168EFF3058074
:104AB0000143B1F1F03F00D21324002C05D13200A4
:104AC0003900280000F0F4FB04002000BDE8F0816C
:104AD0004C55002010550020145500203055002062
:104AE000185100200C00002008B584B00023039367
:104AF00000290EBF01930190491E0291009301A964
:104B000004AB07487844183000F008FC019909B15B
:104B100000220A70002858BF039805B000BD00BFEE
:104B20004FE2FFFF38B502000020002A01D11C200F
:104B300016E01368164CA34201D01C2010E0002997
:104B40000ED0144B1B68EFF305842343002B01D0D8
:104B5000042005E0104B1B68104CA34200D1042038
:104B600000280ED10B4D2B68EFF305842343002B57
:104B700007D02C68EFF305831C43B4F1F03F00D25B
:104B80001320002802D1100001F02CFC32BD00BF20
:104B90004554554D0C000020305500201851002080
:104BA0000EB4C0B5024603A800210190009101ABEC
:104BB0000121044878440C3000F0B0FB06BC5DF8DD
:104BC00010FB00BF2D2B000010B50021002801D1E3
:104BD0001C2114E002680D4B9A4201D01C210EE00A
:104BE0000B4C2268EFF305831A43002A07D0236891
:104BF000EFF305821343B3F1F03F00D213210029F4
:104C000002D101F07BFC0100080010BD4554554D58
:104C10000C0000207047000080B5EFF3108072B6E2
:104C200004490A68521C0A6080F31088024801F0A7
:104C300075FD01BD4C5500201851002038B54F4876
:104C40000468EFF3108072B6002C32D021684C4A11
:104C500091422ED1A168D4F8A820914202D2A16835
:104C6000C4F8A810E1680968B1F1EF3F0AD12169E1
:104C7000D1F80110B1F1EF3F04D1D4F8A810E268E7
:104C8000914207D280F31088200001F09FFEEFF3DD
:104C9000108072B6D4F8A81051F8041CB1F1EF3F9F
:104CA00007D080F31088200001F0A0FEEFF3108001
:104CB00072B680F310880025EFF3108172B60020E1
:104CC000304A1060002C1AD0206B002817D1E06900
:104CD000A061A0692C4A1060206AA0420FD0E06A4F
:104CE000E26B90420BD12948226AE36A40F8232004
:104CF000274A284B1B6850F823001060156881F381
:104D00001088002D39D0EFF3108072B6002D32D00C
:104D100029681B4A91422ED1A968D5F8A820914252
:104D200002D2A968C5F8A810E9680968B1F1EF3F97
:104D30000AD12969D1F80110B1F1EF3F04D1D5F8BA
:104D4000A810EA68914207D280F31088280001F089
:104D50003DFEEFF3108072B6D5F8A81051F8041C90
:104D6000B1F1EF3F07D080F31088280001F03EFE3C
:104D7000EFF3108072B680F3108831BD30550020FB
:104D800044524854605500208C55002004530020A4
:104D900034550020485500202DE9F14F84B0894654
:104DA00092469B460E9E0F9C00252100EF22370065
:104DB0003800FDF7A9FFA408A400241FF01C8008F8
:104DC0008000864200D0241F129E119FDDF8408093
:104DD000CDF800B0CDF804A0CDF80890DDF8109023
:104DE0008246B4210022CB465846FDF78DFF02983B
:104DF000C9F828000198C9F844000098C9F848008B
:104E0000C9F80CA0C9F81440C9F82C80C9F89480DE
:104E1000C9F81860C9F81C602020C9F89C000AEB8A
:104E20000400401EC9F81000C9F83C70C9F8987019
:104E30000320C9F830002F48C9F85400C9F8589029
:104E40002D49484601F012FED9F80800C9F8A8001B
:104E5000EFF3108172B62948C9F80000284B186892
:104E6000002807D12748C0F80090C9F88890C9F8F1
:104E70008C900BE023480068D0F88C20C0F88C9010
:104E8000C2F88890C9F88C20C9F8880013981A686D
:104E9000521C1A601C4A13685B1C1360012819D14C
:104EA0001A480268EFF305800243B2F1F03F07D3DE
:104EB00017480468002C04D0E56BE06AE06300E06A
:104EC000002481F31088484601F028FC002C0DD006
:104ED000E5630BE081F31088EFF3108072B6116880
:104EE000491E116080F3108800F014F8002005B00E
:104EF000BDE8F08F99750090C973009044524854F2
:104F00003C550020385500204C5500200C00002056
:104F10003455002010B52948006800284CD1284895
:104F2000006828490C68A04246D0EFF3108072B6A2
:104F3000002C32D02168244A91422ED1A168D4F8A5
:104F4000A820914202D2A168C4F8A810E1680968BB
:104F5000B1F1EF3F0AD12169D1F80110B1F1EF3F72
:104F600004D1D4F8A810E268914207D280F31088E7
:104F7000200001F02BFDEFF3108072B6D4F8A810DA
:104F800051F8041CB1F1EF3F07D080F310882000E6
:104F900001F02CFDEFF3108072B680F310885FF003
:104FA00080500A490860EFF30580002804D1EFF330
:104FB000108062B680F3108810BD00BF4C550020F1
:104FC00030550020345500204452485404ED00E090
:104FD0000648016851F080710160002004490860B2
:104FE0000448016851F0010101607047FCED00E0E8
:104FF000041000E0001000E0F8B50400A2480768C3
:10500000EFF3108072B6002C32D021689F4A914293
:105010002ED1A168D4F8A820914202D2A168C4F888
:10502000A810E1680968B1F1EF3F0AD12169D1F810
:105030000110B1F1EF3F04D1D4F8A810E268914219
:1050400007D280F31088200001F0C0FCEFF310803D
:1050500072B6D4F8A81051F8041CB1F1EF3F07D094
:1050600080F31088200001F0C1FCEFF3108072B6CD
:1050700080F31088EFF3108572B6BC420CD1E06C5F
:10508000002806D010F1010F03D014F14C0001F0FC
:105090000FFDE0697E4908607E4E3068401E30603A
:1050A000A06B012840F09D800020A063E16A206A87
:1050B000A04215D0626A42621062774A52F82130EB
:1050C000A3424BD142F82100744A1068002845D011
:1050D000012010FA01F1106830EA010111603DE091
:1050E00000206D4A42F82100012313FA01F0DFF895
:1050F000B0C1DCF8002032EA0000CCF80000674ABA
:105100001068002805D013FA01F1106830EA010197
:1051100011600021DCF80000002818D1202061492E
:10512000086000206049086085F310883068002816
:105130000CD15FF080505D490860EFF305800028D6
:1051400004D1EFF3108062B680F310889AE090FAF1
:10515000A0F0B0FA80F04118524801605249086846
:1051600084423ED14F4A4C4B106853F820000860EF
:105170004A4C2068002821D03068401C306085F3FC
:105180001088EFF3108572B63068401E3060002042
:10519000276897FAA7F7B7FA87F73818126853F80D
:1051A0002070FF6BBA4209D353F820200A60012116
:1051B00011FA00F0216831EA0000206085F31088C0
:1051C000306800280CD15FF0805038490860EFF358
:1051D0000580002804D1EFF3108062B680F31088B8
:1051E00050E085F31088304801688F424AD0046847
:1051F000EFF3108072B6002C32D02168234A91421E
:105200002ED1A168D4F8A820914202D2A168C4F896
:10521000A810E1680968B1F1EF3F0AD12169D1F81E
:105220000110B1F1EF3F04D1D4F8A810E268914227
:1052300007D280F31088200001F0C8FBEFF3108044
:1052400072B6D4F8A81051F8041CB1F1EF3F07D0A2
:1052500080F31088200001F0C9FBEFF3108072B6D4
:1052600080F31088306800280CD15FF080500F491F
:105270000860EFF30580002804D1EFF3108062B6D8
:1052800080F31088F1BD00BF3055002044524854CF
:105290008C5500204C55002004530020445500201C
:1052A00040550020485500203455002004ED00E012
:1052B000F8B504000D001600342100222700380044
:1052C000FDF722FD65602661EFF3108172B60E488E
:1052D00020600E480E4A10600E4B1868002804D15A
:1052E0000D4804602462646206E00B480068426A6C
:1052F00044621462626220621868401C186081F384
:1053000010880020F2BD00BF4554554D7D730090BC
:105310005055002014550020105500202DE9F14F64
:10532000B2B09946924600230691CDE900333C9AEB
:105330000F930DF14A0114914A7011E0329E5746C5
:105340002C4617F8011B0698B0470028069000F07D
:1053500026810F98401C641E0F90F2D13296AA4409
:105360009AF80000252808D10021002209910A920C
:105370000B910C920D910E920FE06A464FF0FF31A7
:10538000504601F0FBFB050002D10F9800F066BE0D
:10539000D4D50125E3E741F001011AF8010F2028D7
:1053A000F9D023280CD02B2804D02D2805D0302864
:1053B00009D00BE041F00201EFE741F00401ECE716
:1053C00041F00801E9E741F01001E6E72A280FD192
:1053D000D9F8002052F8040BC9F8002000281190D9
:1053E00003D54042119041F004010AF1010A14E092
:1053F0001192DFF8EC3B0AE01198984205DA00EBD5
:10540000800402EB4402303A11920AF1010A9AF840
:105410000020A2F130000A28EED39AF800002E28CE
:1054200003D04FF0FF32109229E01AF8010F2A281A
:1054300009D1D9F8000050F8042BC9F800001092E7
:105440000AF1010A1BE02D280CBF0AF1010A002015
:1054500000221092DFF8882B0BE040B9109B93429A
:1054600005DA03EB830504EB4504303C10940AF1A4
:10547000010A9AF80040A4F130030A2BEDD3ADF8ED
:1054800048100FF660309AF8001001F081FB08B167
:105490001AF8010B8DF84A009DF84A00682805D1DA
:1054A0009AF8000068280CD1622106E06C2804BF3D
:1054B0009AF800006C2804D171218DF84A100AF185
:1054C000010A1FA808901AF801BBBBF125012DD0D5
:1054D0001C3900F06181091F022940F25D810E39FB
:1054E0002AD0491F00F0B384093900F05581891E84
:1054F00000F04985491E00F0F584491E022940F25A
:105500004B81091F00F0EE84491F00F0BA80491E4C
:1055100000F09D84491E65D0C91E21D0891E00F06F
:105520009684C91E00F0938400F04CBD25238DF8AD
:105530007C30012109912AE06C208DF84A00D9F8CD
:10554000000050F8042BC9F80000002A43D1149938
:10555000487800283DD04FF0FF340FF6902012E03D
:105560009DF84A006C28EAD0D9F8000050F8044BA6
:10557000C9F800000794D4B91499487898B14FF04D
:10558000FF340FF6842001F00FFB201A07D1329868
:105590001FAA04A900F065FD00287FF5E1AE4FF0D9
:1055A000FF3000F05BBD0FF67C200790EFE7109D09
:1055B000002D04D5204601F017FB044607E02A46DB
:1055C000204601F02DFB002814BF041B2C460A9432
:1055D000DDE70FF65422329804A900F0C8FD002838
:1055E000D5D5DCE7D9F8001051F8040BC9F8001044
:1055F00020F00004002121F0FF351FABCDE9044568
:105600000793DDE9042308993C2413B90AB91098DB
:1056100098B102F00F053035641EEEB23A2EA8BFE5
:105620002735120942EA03721B090D5508BF002AEB
:1056300003D007980D19A842EBD308190790C4F1BD
:105640003C0210980A92824209DABDF84810821A88
:105650004FF6EF7001400C92ADF8481097E7002824
:1056600095D59DF8480000F0140010288FD1119BAB
:1056700009990C985B1A1B1A9A1A002A87DD0C925A
:1056800085E71499487820B14FF0FF340FF69C104D
:1056900079E79DF84A00622862D0682819D06A2804
:1056A00040D06C2806D071284DD074282DD07A288F
:1056B0001ED064E0D9F8001051F8040BC9F80010AE
:1056C00020B94FF0FF340FF67C105CE70F990160B2
:1056D0005DE7D9F8001051F8040BC9F8001020B9A3
:1056E0004FF0FF340FF65C104DE70F9901804EE745
:1056F000D9F8001051F8040BC9F800100028E5D1C2
:105700004FF0FF340FF63C103DE7D9F8001051F888
:10571000040BC9F800100028D8D14FF0FF340FF661
:10572000241030E7D9F8001051F8040BC9F8001024
:1057300020B94FF0FF340FF60C1024E70F9AD3175F
:10574000C0E9002323E7D9F8001051F8040BC9F889
:1057500000100028F2D14FF0FF340FF6E80012E7F6
:10576000D9F8001051F8040BC9F8001020B94FF017
:10577000FF340FF6D00006E70F99017007E7D9F85C
:10578000001051F8040BC9F8001000289ED14FF00A
:10579000FF340FF6B000F6E6D9F80020D21D22F053
:1057A0000702C9F80020D2E900010832C9F8002038
:1057B000CDE90401C80F02D009982D210AE0BDF8F7
:1057C0004800810702D509982B2103E0C00705D5C1
:1057D000099820211FAA1154401C0990DDE90423D7
:1057E00009991FA8CDE92E2308444BF02001612917
:1057F000079015AC0BD01099002902D50621109105
:1058000005E001BF4BF02001672901221092DDE97C
:10581000042359004915491C10D11A030ED0ABF1CD
:10582000610503211A2D0A9102D20FF6A43101E07D
:105830000FF6A0310322FEF773FDA8E659004915C3
:10584000491C0AD11A0308D1ABF1610503211A2DB5
:105850000A9116D30FF68431ECE7DDE90401CDE9B6
:105860003001DDE9302323F00047B7F5801F22F037
:1058700000060DD20022002F08BF002E029203D195
:1058800016E00FF65431D5E702AA01F0F5F90FE062
:10589000DFF8EC0ADFF8EC1A00EB17500290DDE9B4
:1058A00030234FF0FF301940DFF8DC7A10403943E5
:1058B000CDE904014BF0200061280DD1079830217B
:1058C0000170821CBBF1610F07920CBF7821582137
:1058D00041700998801C0990DDE9040120F0000264
:1058E00031F0004308BF002A02D10026002571E1F3
:1058F0004BF02008B8F1610F40F0BE8010980028EE
:1059000047BF21210391401C0390039FDDE92E0135
:105910007F1C00220023DDE9044501F0E5F902992E
:105920008DF8542038BF85F00045091F002F0291E3
:105930000DF155065DDDDFF8541ACDE9302140F256
:10594000FF732E93204629460022002301F0E4F93C
:105950004FD24800400D00F11C0215D0002A13DD83
:105960002E9B9A420ADBDDE9300121F0004205F06E
:1059700000400243DDE93001114611E06FF31E5192
:1059800041EA025120460BE024F0000035F00041CE
:1059900008BF00280FBF29461C22294601F0D4F970
:1059A00004460D4601F052FAFF1F002F804609DD24
:1059B00001F053FA02460B462046294601F054FAFC
:1059C00004460D46F01D0721B8F1000F0CDD491EFD
:1059D0005EBF08F00F0200F8012D4FEA2818F3D53A
:1059E00002E0002200F8012D491EFAD5C61D002F45
:1059F000A8DC0DF15500361A03988642D8BF304610
:105A000000280DF1550430D4B04206DA0DF15501ED
:105A10000A5C082AA8BF0F2100DA0021024615AB54
:105A2000134400E0401E13F80159521E8D42F9D074
:105A30000F2904D10DF155018B5C5B1C8B54002A9E
:105A400004D50299091D15AC401C0291411E0CD4CD
:105A50006218ABF13A0613783033DDB23A2DA8BFA5
:105A6000F318491E02F80139F5D51099002940F1C3
:105A7000AF80421E1092ABE00299DFF8142947F282
:105A80009750414391FBF2F2DDE92E45029225F059
:105A90000045D2F1070204DD2046294600F04CFC07
:105AA0000BE052420020DFF8EC1800F045FC024603
:105AB0000B462046294601F0E0F90446B8F1660F8E
:105AC000109806BF029F0A3706273F18142FC8BF39
:105AD000142730208DF854000D460020DFF8B81848
