:0200000490006A
:1000000018210020F93A0090053A0090073A009034
:10001000093A00900B3A00900D3A00900000000061
:100020000000000000000000000000000F3A0090F7
:10003000113A009000000000133A0090153A009029
:10004000153B0090193B00901D3B0090213B009018
:10005000253B0090293B00902D3B0090313B0090C8
:10006000353B0090393B00903D3B0090413B009078
:10007000453B0090493B00904D3B0090513B009028
:10008000553B0090593B00905D3B0090613B0090D8
:10009000653B0090693B00906D3B0090713B009088
:1000A000753B0090793B00907D3B0090813B009038
:1000B000853B0090893B00908D3B0090913B0090E8
:1000C000953B0090993B00909D3B0090A13B009098
:1000D000A53B0090A93B0090AD3B0090173A0090E3
:1000E000B13B0090B53B009000000000B93B009090
:1000F000BD3B0090C13B0090C53B0090C93B0090C8
:10010000CD3B0090D13B0090D53B0090D93B009077
:10011000DD3B0090E13B0090E53B00901D3A0090F4
:10012000E93B0090ED3B0090F13B0090F53B0090E7
:10013000F93B0090FD3B0090013C0090053C009095
:1001400000000000000000000000000000000000AF
:10015000093C00900D3C0090113C0090153C009033
:10016000193C00901D3C0090213C0090253C0090E3
:10017000293C00902D3C0090313C0090353C009093
:10018000393C00903D3C0090413C0090453C009043
:10019000493C00904D3C0090513C0090553C0090F3
:1001A000593C00905D3C0090613C0090653C0090A3
:1001B000693C00906D3C0090713C0090753C009053
:1001C000793C00907D3C0090813C0090853C009003
:1001D000893C00908D3C0090913C0090953C0090B3
:1001E000993C00909D3C0090A13C0090A53C009063
:1001F000A93C0090AD3C0090B13C0090B53C009013
:10020000B93C0090BD3C0090C13C0090C53C0090C2
:10021000C93C0090CD3C0090D13C0090D53C009072
:10022000D93C0090DD3C0090E13C009000000000D3
:10023000E53C0090E93C009000000000ED3C00909F
:10024000F13C0090F53C0090F93C0090FD3C0090A2
:10025000013D0090053D0090093D00900D3D00904E
:10026000113D0090153D0090193D00901D3D0090FE
:10027000213D0090253D0090293D009000000000A8
:100280002D3D0090313D0090353D00900000000074
:1002900000000000393D00902DE9F047044600269B
:1002A0002068B046DFF84857010122D5626E4AB196
:1002B000B2F5801F0BD0B2F5001F15D0B2F5401F6C
:1002C00009D014E0EB6943F40033EB6105E002214F
:1002D00000F085FB064630000AD1296C606E21F4DF
:1002E00040110143296404E000F07CFBF2E70126A1
:1002F000B0462068C1051CD5626D042A17D8DFE816
:1003000002F0030E1205050000F05EFB30000FD175
:10031000296C606DC90840EAC101296409E000F058
:100320005DFB0646F2E7002100F054FBF9E70126E9
:10033000B0462068810520D5A26D4AB1402A12D06E
:10034000802A14D0C02A18BFB2F5807F02D012E0F4
:1003500000F03AFB30000FD1296CA06D21F4E07160
:100360000143296409E000F039FB0646F2E7002169
:1003700000F030FBF9E70126B046206804F184075D
:10038000410523D53A6A62B1B2F5001F14D0B2F527
:10039000800F15D0B2F5C00F18BFB2F5000F02D014
:1003A00012E000F011FB30000FD1A96C386A21F483
:1003B00060010143A96409E000F010FB0646F2E782
:1003C000002100F007FBF9E70126B046206801058F
:1003D00023D57A6A62B1B2F1807F14D0B2F1007F86
:1003E00015D0B2F1407F18BFB2F1806F02D012E099
:1003F00000F0EAFA30000FD1A96C786A21F0E061D0
:100400000143A96409E000F0E9FA0646F2E7002199
:1004100000F0E0FAF9E70126B046206881011AD51C
:10042000A26C42B1102A04D0202A0DD0302A02D06A
:100430000FE000F0C9FA30000CD1E96BA06C21F09C
:1004400030010143E96306E0022100F0C8FA0646E4
:10045000F1E70126B0462068C10423D5E26D62B100
:10046000B2F5805F14D0B2F5005F15D0B2F5405FF1
:1004700018BFB2F5804F02D012E000F0A5FA3000AC
:100480000FD1296CE06D21F4E0410143296409E0BA
:1004900000F0A4FA0646F2E7002100F09BFAF9E723
:1004A0000126B0462068810422D5226E92B1B2F5B1
:1004B000803F0BD0B2F5003F15D0B2F5403F1CBFD6
:1004C000B2F5802FB2F5A02F04D00FE0012100F08B
:1004D00086FA064630000AD1296C206E21F4E0210C
:1004E0000143296404E000F074FAF2E70126B04603
:1004F0002068410422D5BA6A92B1B2F1805F0BD074
:10050000B2F1005F15D0B2F1405F1CBFB2F1804F75
:10051000B2F1A04F04D00FE0012100F060FA0646CE
:1005200030000AD1A96CB86A21F0E0410143A96406
:1005300004E000F04EFAF2E70126B046206801041C
:100540001AD5E26E42B1B2F1805F03D0B2F1005F22
:100550000BD00FE000F038FA30000CD1296CE06EBF
:1005600021F040510143296406E0012100F037FAEF
:100570000646F1E70126B0462068C10118D5626C35
:10058000032A13D8DFE802F004020D0400F01CFA7D
:1005900030000CD1E96B606C890840EA8101E963A5
:1005A00006E0022100F01BFA0646F1E70126B046FC
:1005B000206841023FD5DFF82496D9F8002042F4A4
:1005C0008072C9F8002000F0F7FB8246D9F80000DD
:1005D000C10506D400F0F0FBA0EB0A006528F5D3B6
:1005E00027E0300026D1286EF96A00F4407001F44B
:1005F000407188420BD0286E296E41F48031296603
:100600002A6E20F4407022F480322A662866F86A46
:10061000B0F5807F2BD100F0CFFB8146286E81079B
:1006200025D400F0C9FBA0EB090041F289329042C9
:10063000F4D30326B0462178CA0738D5A06F68B135
:10064000082807D010282DD018281CBF20282828BB
:1006500004D02AE0012100F0C2F90646300025D17D
:10066000696CA06F21F03801014369641FE0F86AEA
:1006700000F44071B1F5407F09D12A68DFF86C15AC
:1006800001EA101122F47C520A432A6003E0286830
:1006900020F47C502860296EF86AC0F30B000143F7
:1006A0002966C8E700F095F9D7E70126B04621781A
:1006B0008A0719D5606F052814D8DFE800F0070312
:1006C00010070707012100F08AF9064630000AD119
:1006D000696C606FC90840EAC101696404E000F018
:1006E00078F9F2E70126B04621784A0719D5F8686B
:1006F000052814D8DFE800F00703100707070121D9
:1007000000F06DF9064630000AD1A96CF868C908F6
:1007100040EAC101A96404E000F05BF9F2E70126B8
:10072000B04621788A0621D5B86888B1B0F1805FDB
:100730000BD0B0F1005F14D0B0F1405F1CBFB0F13E
:10074000804FB0F1A04F03D00EE000F047F906460D
:1007500030000AD1696CB86821F0E0410143696456
:1007600004E000F03FF9F2E70126B04621784A069E
:1007700021D5786988B1B0F5806F0BD0B0F5006FE6
:1007800014D0B0F5406F1CBFB0F5805FB0F5A05F2E
:1007900003D00EE000F022F9064630000AD1A96C21
:1007A000786921F4E0510143A96404E000F01AF9EA
:1007B000F2E70126B04621780A0621D5B86988B14A
:1007C000B0F5005F0BD0B0F5804F14D0B0F5C04F3E
:1007D0001CBFB0F5004FB0F5204F03D00EE000F085
:1007E000FDF8064630000AD1A96CB86921F46041D1
:1007F0000143A96404E000F0F5F8F2E70126B046F1
:1008000021780A0710D5D4F88000B0F5805F04D1B4
:1008100000F0E8F808B14FF00108696CD4F88000E6
:1008200021F44051014369642178CA060ED5386924
:10083000B0F5807F04D100F0D5F808B14FF0010881
:10084000A96C386921F440710143A96421680A0345
:1008500019D5F86930B1B0F5803F0FD0B0F5003F41
:1008600003D00EE000F0BAF8064630000AD1A96CB9
:10087000F86921F440310143A96404E000F0B2F8C2
:10088000F2E70126B04621684A031BD53868B0F567
:10089000801F06D0B0F5001F0ED0B0F5401F02D06B
:1008A0000EE000F08CF830000BD1696C386821F450
:1008B00040110143696405E000F08BF80646F2E759
:1008C0000126B0462168CA0317D5E06C18B1B0F50F
:1008D000803F0BD00FE000F072F830000CD1E96BD4
:1008E000E06C21F480310143E96306E0022100F06D
:1008F00076F80646F1E70126B04621688A0004D55D
:1009000000F070F808B14FF0010821688A0318D58B
:10091000E06F58B1B0F5807F06D0B0F5007F18BF0A
:10092000B0F5407F02D00AE000F049F8300007D16E
:10093000696CE06F21F440710143696401E00126B4
:10094000B0462268D00205D5296C206F21F0004105
:10095000014329642168CA0005D52B68386B23F44C
:10096000804303432B6021688A0205D52B6CA06E5F
:1009700023F0807303432B6421684A0007D52B685A
:1009800023F400432B602968786B014329602268B7
:10099000002A05D5EB6B206D23F040530343EB6336
:1009A00021680A0205D56B6C786823F44003034381
:1009B0006B645FEA080018BF0120BDE8F087E969B1
:1009C00041F40031E9617047E86940F40030E861C2
:1009D0007047012104F1240000F062B90021201DBC
:1009E00000F008B9022104F1240000F059B9000018
:1009F0001044025880B500F068FBDFF8B423DFF83C
:100A0000B4131368C3F30212895C01F01F01C840DC
:100A100002BD000030B500F082F8C2F30015DA6BB9
:100A2000C1F3053100F088F81DD000F07EF802D047
:100A3000022C06D008E000F0B5F8996B00F04CF8F5
:100A400007E09FED652A01E09FED652A996B00F0B4
:100A500053F8996B00F095F8996B00F083F8996B57
:100A600000F073F801E000F031F82BE030B500F051
:100A700056F8C2F300255A6CC1F3055100F05CF83A
:100A80001DD000F052F802D0022C06D008E000F091
:100A900089F8196C00F020F807E09FED4F2A01E07B
:100AA0009FED4F2A196C00F027F8196C00F069F8D7
:100AB000196C00F057F8196C00F047F801E000F0ED
:100AC00005F800BF80ED020A30BD000000229FED56
:100AD000450A026042607047F7EE001AC1F3080150
:100AE00001EE101AB8EE411A31EE000A70EE211A2A
:100AF00020EEA10A70470000DFED3B1AC2EE200A8B
:100B0000C1F3080101EE101AB8EE411A00EE211AE5
:100B1000B7EE000A31EE000A20EE800A7047DFF8D7
:100B20008C329C6A996ADA6A704714F0030400EE0A
:100B3000901AF8EE600A7047C2F3CC0255430029C0
:100B400000EE105AB8EE400A7047C1F3066100EE9D
:100B5000901AF8EE600A70EE810A80EE200ABCEE70
:100B6000C00A7047C1F3064100EE901AF8EE600A21
:100B700070EE810AC0EE200AFCEEE00AC0ED010A28
:100B80007047B7EE001AC1F3462100EE901AF8EE56
:100B9000600A70EE810AC0EE200AFCEEE00AC0EDA9
:100BA000000A704719689FED101A20EE010A8A06A4
:100BB0000CD51968DFF8F041C1F3C101CC4001EE5A
:100BC000104AB8EE411AC1EE200A70479FED082A7C
:100BD000C2EE200A7047000020BCBE4B00480258FD
:100BE0000024744A0000000000000039CFFFFF001D
:100BF0000024744CF8B500F0CEF801D10120F2BD0C
:100C0000286820F0806000F0BFF8074629680801D6
:100C100006D500F0D1F8C01B0328F7D30320F2BD9E
:100C2000A86A316820F47C3040EA013000F094F882
:100C3000A863E96A706921F0C00100F0A8F8B06902
:100C400021F0200100F0A3F821F01001E962E86B27
:100C500000F07CF8E863E86A40F01000E8621CB934
:100C6000E86A40F4002004E0012C04D1E86A40F472
:100C70008010E86203E0E96A41F40011E962286843
:100C800040F0806000F080F804462968080105D42F
:100C900000F092F8001B0328F7D3BFE70020F2BD55
:100CA000F8B500F078F801D10120F2BD286820F0F5
:100CB000805000F069F807462968880006D500F0E2
:100CC0007BF8C01B0328F7D30320F2BDA86A316864
:100CD00020F07C7040EA015000F03EF82864E96A98
:100CE000706921F4406100F052F8B06921F400719C
:100CF00000F04DF821F48071E962686C00F026F88C
:100D00006864E86A40F48070E8621CB9E86A40F4FC
:100D1000800004E0012C04D1E86A40F40000E8629D
:100D200003E0E96A41F08071E962286840F0805090
:100D300000F02AF804462968880005D400F03CF841
:100D4000001B0328F7D3BFE70020F2BDF1696FF362
:100D5000CF0040EAC1007047A862B1687068F268CD
:100D6000491E4902401EC0F30800521E01F47E4194
:100D700012040843316902F4FE021043491E0906B9
:100D800001F0FE4108437047286000F015B80143A8
:100D9000E962E96A70470646044DA86A0C4600F00D
:100DA00003000328704700000090D003004402585D
:100DB00020440258F439009001484068704700BF51
:100DC000000000202DE9F0410400884656D0DFF8ED
:100DD000BC63306800F00F00404502D200F0EBF831
:100DE0007AD12078DFF8A853410706D52069AA698F
:100DF00002F07002824200F0D7F82078010706D591
:100E00006069EA6902F07002824200F0C6F8207858
:100E1000C10606D5A069EA6902F4E062824200F0E8
:100E2000B5F82078810606D5E0692A6A02F07002DA
:100E3000824200F0A4F82078810706D5E068AA690C
:100E400002F00F02824200F093F82078C10731D5FA
:100E5000AA69A06822F470620243AA61606802284D
:100E600002D129688A0308E0032802D129688A018F
:100E700003E0012803D12968CA0503D42CE02B68BC
:100E8000590729D52A69D20840EAC2002861FFF72C
:100E900093FF07462869616800F03800B0EBC10F86
:100EA00008D0FFF789FFC01B41F289329042F1D38D
:100EB00003205BE02078810706D5E068AA6902F08C
:100EC0000F02904200F054F8306800F00F008045A7
:100ED00004D200F070F801D0012047E020784107EB
:100EE00006D52069AA6902F07002904200F05CF811
:100EF0002078010706D56069EA6902F07002904225
:100F000000F04BF82078C10606D5A069EA6902F422
:100F1000E062904200F03AF82078810606D5E06958
:100F20002A6A02F07002904200F029F800F04EF8B0
:100F3000AA69DFF87012C2F303228B5CAC69DFF898
:100F4000545204F00F04095D03F01F03D840DFF88A
:100F5000483201F01F0120FA01F21A602860DFF820
:100F600040020068BDE8F04100F086BBBDE8F081BA
:100F700004D2A969090940EA0110A861704704D2A6
:100F8000296A21F0700108432862704704D2E96998
:100F900021F4E0610843E861704704D2E96921F077
:100FA00070010843E861704704D2A96921F070011B
:100FB0000843A86170473168090948EA01113160A6
:100FC000326802F00F0242457047000030B5704BA6
:100FD0007248196911F0380104D010290AD0182973
:100FE0000AD069E01A68940667D51968C1F3C1018F
:100FF000C84030BD6D4830BD9C6A996ADD6A5A6B45
:1010000005F00105C1F30511C2F3CC0255430029D7
:1010100000EE105AB8EE400A4CD014F0030400EE73
:10102000901AF8EE600A02D0022C20D022E0196853
:101030009FED521A20EE010A8A0608D51968C1F3FD
:10104000C101C84000F03CF8C1EE200A03E09FED6A
:101050004C2AC2EE200A186BF7EE001A00F02EF8A8
:1010600031EE000A70EE211A20EEA10A13E09FED86
:10107000452A01E09FED442A186BDFED401AC2EECD
:10108000200A00F01BF800EE211AB7EE000A31EE3C
:10109000000A20EE800A186BC0F34620401C00EEC8
:1010A000900AF8EE600A80EE200ABCEEC00A10EE4C
:1010B000100A30BD002030BD3D4830BDC0F30800EF
:1010C00001EE100AB8EE411A704738B5FFF77EFFFF
:1010D000384A0146136833482E4DC3F30323C45CDA
:1010E000126802F00F02835C04F01F04E1402A4CF6
:1010F00003F01F0321FA03F02060296032BD80B5A0
:10110000FFF7E3FF00F00FF8C3F3021206E080B52B
:10111000FFF7DBFF00F007F8C3F30222895C01F060
:101120001F01C84002BD244A1E491368704710B50C
:101130003F2202601C4A136803F00703436094686F
:1011400004F470648460936803F00F03C3609468D0
:1011500004F070040461D36803F070034361D46841
:1011600004F4E0648461126902F07002C26107480D
:10117000036803F00F030B6010BD0000000000398E
:101180000024744C20BCBE4B0024744A0020005242
:10119000004402580C000020100000200090D003F2
:1011A00008000020F43900901044025840787D0176
:1011B00000093D00184402581C440258F8B50400C8
:1011C0002BD02078DFF8A454C10711D52869A96A6B
:1011D00000F03800102805D0182804BF01F00301E2
:1011E00002296BD129688A0302D56068002814D0CF
:1011F000217841F20406880720D52869A96A10F0F1
:10120000380005D0182808BF11F0030F40F0A18066
:1012100029684A0703D5E068002800F0238200F01F
:1012200098FAB04280F08E802069402840F0838098
:10123000686820F47C3040F4003068602178C8068B
:1012400022D52869A96A00F03800082806D0182895
:1012500004BF01F00301012940F0B5802868C105F1
:1012600003D5E269802A40F0FD8100F072FAB042B5
:1012700080F0A180206A202840F09680686820F0E5
:10128000F84040F08040686021780A0740F1D5803E
:101290006069002800F0C180696F41F00101696751
:1012A000FFF78AFD0646686F810700F1C680FFF7E9
:1012B00083FD801B0328F6D30320F2BD6068B0F5E0
:1012C000803F0FD038B9296821F48031296028681F
:1012D00020F4802009E0B0F5A02F08D1296841F45E
:1012E00080212960286840F48030286007E02A685F
:1012F00022F480322A60296821F480212960606804
:1013000060B1FFF759FD0646296888033FF570AFC5
:10131000FFF752FD801B6528F6D3CDE7FFF74CFDA4
:101320000646286881037FF563AFFFF745FD801B04
:101330006528F6D3C0E7696821F47C3141EA0031C1
:1013400069607BE76868216920F0FE4040EA01603F
:1013500073E7E068C0B1296821F0190108432860EB
:10136000FFF72AFD07462868410705D4FFF724FD4B
:10137000C01B0328F7D39FE700F0EBF9B042E1D29E
:1013800020694028D7D153E72868400840002860EA
:10139000FFF712FD074629684807D2D5FFF70CFD75
:1013A000C01B0328F7D387E7696821F0F84141EAB9
:1013B0008061696068E7E868216A20F07C5040EA53
:1013C0000160E86060E7E069B8B1296841F0800138
:1013D0002960FFF7F1FC07462868C10505D4FFF72F
:1013E000EBFCC01B0328F7D366E700F0B2F9B0426C
:1013F000E1D2206A2028D7D140E7286820F0800079
:101400002860FFF7D9FC06462968C805DAD5FFF73A
:10141000D3FC801B0328F7D34EE7686F40084000D9
:101420006867FFF7C9FC0646686F810705D5FFF7B7
:10143000C3FC801B0328F7D33EE721788A0621D519
:10144000A06978B1296841F480512960FFF7B4FCA4
:1014500006462868810415D4FFF7AEFC801B0328DC
:10146000F7D329E7286820F480502860FFF7A4FC10
:1014700006462968880405D5FFF79EFC801B0328D3
:10148000F7D319E72078410748D5794F3A6842F4F5
:1014900080723A60FFF790FC06463868C10505D4B3
:1014A000FFF78AFC801B6528F7D305E7A0680128B1
:1014B00004D1286F40F00100286713E008B9286FB5
:1014C00009E00528286F06D140F004002867296F3D
:1014D00041F0010105E0400840002867296F21F034
:1014E00004012967A06841F2893658B1FFF764FC0E
:1014F0000746286F810711D4FFF75EFCC01BB0427E
:10150000F7D3D9E6FFF758FC0746286F810705D5C2
:10151000FFF752FCC01BB042F7D3CDE6606A00284B
:1015200000F0A280296901F03801182974D002283E
:10153000286820F08070286062D1FFF73DFC0646E5
:101540002968880105D5FFF737FC801B0328F7D3EE
:10155000B2E6A86AA26A4749E36A0840104340EA33
:101560000310A862616B206BA26B491E4902401EEA
:10157000C0F30800521E01F47E4112040843E16BDF
:1015800002F4FE021043491E090601F0FE41084321
:101590002863E86A40084000E862696BA06C6FF35A
:1015A000CF0141EAC0016963E96A206C21F00C01B6
:1015B0000143E962E96A606C21F002010143E962DA
:1015C000E96A41F48031E962E86A40F40030E86297
:1015D000E96A41F48021E962E86A40F00100E862CA
:1015E000296841F080712960FFF7E6FB044628680E
:1015F000810139D4FFF7E0FB001B0328F7D35BE63A
:10160000FFF7DAFB0446296888012DD5FFF7D4FBE4
:10161000001B0328F7D34FE60128A96A2A6B21D0C3
:10162000A36A01F00300984202BFC1F30510E16A0A
:10163000884217D1236BC2F308005B1E984201BF9A
:10164000C2F34620616B491E88420BD1A16BC2F3E5
:101650000640491E884201BFC2F30660E16B491E85
:10166000884201D00120F2BD0020F2BD00440258A2
:10167000004802580CFCFFFF10B50446102C8AB03D
:1016800035D200222146372000F08CF8372000F0B8
:10169000A7F8184804601848016841F0200101606B
:1016A000026801A902F020020092009802A8FFF748
:1016B0003EFD079810B9FFF722FD02E0FFF71FFD7E
:1016C00040000E4B0E4C0F4940F2E732B0FBF3F0F6
:1016D0002160401E60600021E26020462161A1601F
:1016E00000F0D4F818B9204600F0DDF800E0012041
:1016F0000AB010BD08000020E844025840420F0024
:10170000A40000200014004038B50320134D00F061
:101710003CF8FFF75BFC124A12491368C3F303233A
:10172000CC5C126802F00F02895C04F01F04E040F8
:101730000D4C01F01F0120FA01F3236028600F20F7
:10174000FFF79AFF08B1012032BD00F05DFA0020DA
:1017500032BD06480068000C704700000C000020F5
:1017600018440258F4390090100000200010005C6A
:101770000901020002D43E48815470473D4B02F0FB
:101780000F021A4402F8041C70473B4B4FF6FF024D
:101790001968000200F4E06011400843374908432B
:1017A0001860704770B5344B1C68C4F302230124E1
:1017B000C3F10705052D2EBF0F2504FA05F56D1E93
:1017C0001E1D072E34BF0023DB1E2940994004FA5A
:1017D00003F35B1E1A401143BDE87040C8E70000E8
:1017E000010007D4012200F01F018A40244B400968
:1017F00043F820207047BFF35F8F22480022016822
:1018000021F480310160026770471E4940F00100F9
:101810000867086840F480300860BFF34F8FBFF35B
:101820006F8F704710B54378174A13600178D9B1AC
:1018300044685460C37A017B447B1B0643EA01730E
:10184000817A43EAC143817B43EA8443C47B43EA10
:101850004143417A43EA0443047A007843EA01238E
:1018600043EA4403034301E051600023936010BD49
:1018700000E400E018ED00E00CED00E00000FA05E7
:1018800000E100E024ED00E098ED00E038B5040050
:1018900001D1012032BD00F061F818B900F05AF80A
:1018A00000F094F938E010B590F83D10012901D00E
:1018B000012010BD022280F83D200168CB6843F072
:1018C0000103CB60016800F023F818BFB1F1804F2D
:1018D00010D000F055F81CBFDFF86800814209D035
:1018E00000F04AF81FBFDFF860209142DFF85C404B
:1018F000A14208D100F048F818BFB2F5803F04D0EB
:1019000000F035F801E000F02DF8002010BD21684E
:10191000DFF83C00814270470220211D687020687A
:1019200000F0EFF801202873A870E8702871687142
:10193000A871E87128726872A872E8726870002055
:1019400032BD0000000800400004014000180040C3
:1019500000000140002120462970704704F13C0539
:1019600068787047086840F00100086070470A68AE
:1019700042F001020A607047DFF818309942704760
:10198000DFF81420914270478A68DFF810000240A7
:10199000062A7047000C00400004004007000100C8
:1019A00010B50446206801698A0715D5C3689907F0
:1019B00012D56FF00202012302612377806910F0D3
:1019C000030F204602D000F02FF903E000F02DF9BC
:1019D00000F094F800202077206801694A0715D5A7
:1019E000C368590712D56FF00402022302612377FE
:1019F000806910F4407F204602D000F015F903E022
:101A000000F013F900F07AF80020207720680169CF
:101A10000A0715D5C368190712D56FF00802042309
:101A200002612377C06910F0030F204602D000F056
:101A3000FBF803E000F0F9F800F060F800202077F0
:101A400020680169CA0615D5C368D90612D56FF09A
:101A50001002082302612377C06910F4407F2046FA
:101A600002D000F0E1F803E000F0DFF800F046F803
:101A70000020207720680169CA0708D5C368D90704
:101A800005D56FF001020261204600F0C9F9206817
:101A900001690A0608D5C368190605D56FF08002EA
:101AA0000261204600F0D2F920680169CA0508D514
:101AB000C368190605D56FF480720261204600F0F4
:101AC000C6F9206801694A0608D5C368590605D5D4
:101AD0006FF040020261204600F0BAF92068016907
:101AE0008A060AD5C368990607D56FF020020261FD
:101AF0002046BDE8104000F0ACB910BD204600F013
:101B0000A9B9DFF8A8C0DFF8A83060452DE9F04397
:101B1000D0F800E0DFF89C4018BFB0F1804FDFF84C
:101B20009850DFF89860DFF89870DFF89880DFF859
:101B3000989007D0484518BF404503D0984218BF39
:101B4000B8420ED160454A682EF0700E18BFB0F151
:101B5000804F42EA0E0E0CD048451CBF40459842CB
:101B600007D0B84218BFB04203D0A84218BFA04265
:101B700004D1CB682EF4407243EA020E4A692EF07B
:101B800080031A43604502608B68C3620A6818BF0D
:101B9000B842826204D0B0421CBFA842A04201D128
:101BA0000969016301224261BDE8F0830000014040
:101BB000000C00400048014000440140004001404A
:101BC000000401400008004000040040704730B4A9
:101BD000002513E050F8042BD30744BFA9F10103FB
:101BE0009A18091F042942F8045BFAD213468C079D
:101BF00044BF15809B1CC90748BF1D7050F8041BCB
:101C00000029E7D130BC704781B00648016841F037
:101C100002010160006800F002000090009901B02C
:101C2000704700BFF44402587047704738B584B01D
:101C300010220021684600F00EF9FFF7DCFD0121BB
:101C400000228DF8001018218DF8081000218DF861
:101C500001204FF010438DF8092003228DF80A105F
:101C60006846ADF80C10012101938DF80B208DF81A
:101C70000E108DF80F10FFF7D5FD01214FF0005227
:101C80008DF80110102100F05FF802214FF0105282
:101C90008DF80110122100F057F803214FF0405247
:101CA0008DF8011068460192FFF7BCFD04214FF04A
:101CB00060528DF801100F2100F046F80420FFF764
:101CC000A4FD5B4A5B49106883030AD400F037F82F
:101CD00000240C6000F033F8106840F4003000F08D
:101CE0002DF81368DC031ED400201067BFF34F8F5C
:101CF000D36EC3F34E34C3F3C90543F6E07000EA74
:101D0000441040EA857008612846451E0028F4D139
:101D10002046441E0028EED1BFF34F8F106840F4D8
:101D2000803000F00BF8FFF7EFFC00F013F800F044
:101D3000B3F800F0FDF800F071F9FEE71060BFF3B2
:101D40004F8FBFF36F8F7047019268468DF8081070
:101D5000FFF768BD80B59CB04C22002109A800F0B7
:101D60007AF82022002101A800F075F8022000F086
:101D7000D3F9002000903048016841F440410160EF
:101D800002682E4902F4404200920B6843F00103BE
:101D90000B60096801F001010091009A01688B0451
:101DA000FCD500F0DDF9FFF7D4FC254805220168D9
:101DB0004FF4803321F018010160012109920222C1
:101DC000129209A8139205220B91C02114920222AB
:101DD0001591082116921792189200220A931991D0
:101DE0001A921B92FFF7EAF908B172B6FEE73F219B
:101DF0000322019108210292402204914021059280
:101E0000002306914FF4806208910421039301A8F6
:101E10000792FEF7D7FF08B172B6FEE71DB000BD0E
:101E200000680849884208BF00F0A2B97047000066
:101E300014ED00E050EF00E0184802582C04005860
:101E4000704402580014004072B6FEE770477047B5
:101E500070477047704710B5044610460A46014661
:101E6000204600F08DF9204610BD30B40EE0026827
:101E7000436802440830DC0744BFA9F10104E318B9
:101E800052F8045B43F8045B091FF9D150F8041BB6
:101E90000029ECD130BC704710B586B01422002167
:101EA00001A8FFF7D8FF2048204C026842F0040246
:101EB0000260016801F004010091009A036843F098
:101EC00080030360016801F080010091009A0368BB
:101ED00043F001030360016801F001010091009AE1
:101EE0000368012243F008030360006800F0080063
:101EF000009000992046022100F05FFA01210022A3
:101F000001912046039101A9029200F06DF902218E
:101F1000012201910023029201A903932046049318
:101F200000F062F906B010BDE0440258000002580B
:101F300038B586B01422002101A8FFF78CFF0422D7
:101F400000216846324CFFF786FF324800212060AE
:101F50007F22FF236160A2602046E3602161A161CE
:101F6000E161616100F048FA08B1FFF76DFF0121FE
:101F7000204645F2510500F0B6FBA84226D02A467D
:101F80000121204600F0A8FB00210022ADF804103A
:101F900020468DF80610049101A9059200F077FA09
:101FA00008B1FFF751FF052101228DF8001015211E
:101FB0008DF8012020468DF8022000228DF80310B4
:101FC000694600F0C8FA08B1FFF73EFF07B030BD20
:101FD00018B5AFB00446BC2200216846FFF73BFFAE
:101FE00023680C4A934210D14FF480014FF480745F
:101FF000009168462C94FEF74FF908B1FFF724FFD3
:102000000548016841F40041016030B010BD000096
:10201000F0000020004000587044025810B54FF402
:10202000E131394C39486160206000220C21A26006
:10203000E260204622616161A261E2612262626225
:10204000A26200F057FB08B1FFF7FEFE0021204618
:1020500001F04DF808B1FFF7F7FE0021204601F02E
:1020600051F808B1FFF7F0FE204601F023F818B14F
:10207000BDE81040FFF7E8BE10BD18B5B5B0044686
:102080001422002101A8FFF7E6FEBC22002106A8C9
:10209000FFF7E1FE21681D4A914232D1022300245C
:1020A000069306A82394FEF7F7F808B1FFF7CCFED5
:1020B0001748816841F480218160826802F480229F
:1020C00000920099036843F00803036002684FF42C
:1020D0004073104802F00802009200990222019316
:1020E0000292072101220591039401A9049200F0B4
:1020F0007BF8002200212720FFF754FB2720FFF761
:102100006FFB36B010BD00001400002000480040F6
:10211000E0440258000C025838B5DFF84040A1688E
:102120004A0708D4A36803F00703834201D00120C3
:1021300032BD002032BDA168C90840EAC100A060DC
:10214000FEF73AFE054620688104F2D4FEF734FE1D
:10215000401B40F2E9329042F5D3E8E704480258C8
:102160000248016841F480710160704700480258DC
:102170000248416802788A184260704700000020D7
:1021800062F30F2262F31F42401810F0030308D0DD
:10219000C91A1FD3DB0748BF00F8012D28BF20F85C
:1021A000022D130030B414461546103928BF20E91B
:1021B0003C00FAD8490728BF20E90C0048BF40F886
:1021C000042D890028BF20F8022D48BF00F8012DFA
:1021D00030BC7047C91818BF00F8012DCB0728BFC5
:1021E00000F8012D704700002DE9F84F00274FF04F
:1021F000B042DFF8D031DFF8D08105460E4635E039
:10220000DFF8C841A54214BF0A2409248C4044EADF
:102210000E046F4941F82C401C68C14301EA040CCC
:102220007468E40348BF40EA0C0CC3F800C05C6863
:1022300001EA040C7468A40348BF40EA0C0CC3F81C
:1022400004C0146801EA040C7468E40248BF40EA60
:102250000C0CC2F800C0546801EA040C71688902D1
:1022600048BF40EA0C0CC2F804C07F1C316831FA48
:1022700007F000F0A0800124BC4014EA0100F4D073
:102280004FEA470C032101FA0CF16FEA010E716865
:10229000012918BF022903D0112918BF122912D110
:1022A000A968D6F80C900EEA010109FA0CF949EA7E
:1022B0000101A960696821EA04047168C1F3001191
:1022C000B9400C436C60E968B4680EEA010104FA95
:1022D0000CF42143E9607468B900022C18BF122C79
:1022E00014D1FC0801F01C0905EB84044FF00F0B1E
:1022F0000BFA09FBD4F820A02AEA0B0AD6F810B092
:102300000BFA09F949EA0A09C4F820902C680EEA88
:10231000040E347904F0030404FA0CF444EA0E04C5
:102320002C607468E400A0D5D8F800404FEA970C00
:1023300001F00C014FF00F0E0EFA01FE44F0020402
:10234000C8F80040D8F8004004F002040094009C53
:102350001F4C54F82C4024EA0E0E1E4CA54208BF18
:10236000002427D01C4CA54208BF012422D01B4CBE
:10237000A54208BF02241DD0194CA54208BF032462
:1023800018D0184CA54208BF042413D0164CA542FF
:1023900008BF05240ED0154CA54208BF062409D05D
:1023A000134CA54208BF072404D0124CA5427FF469
:1023B00027AF08242AE7BDE8F18F02B9090481613B
:1023C0007047000080000058F4440258002402586E
:1023D000080400580000025800040258000802587F
:1023E000000C02580010025800140258001802583D
:1023F000001C02580020025838B504460120002C69
:1024000044D094F8211029B90022204684F82020D5
:10241000FFF7DEFD0221CA2284F821102068532331
:102420004262216820464B6200F0FDF8010025D190
:102430002168DFF87C028A6802408A60226893681B
:1024400065682169A0690D4305432B439360E068EB
:102450002168A26840EA02400861204600F001F9C4
:1024600001000BD12168CA6C92089200CA642268EC
:10247000D36CE56961690D432B43D3642368FF2264
:1024800005005A6204BF012184F8211032BDF8B55D
:1024900005460E4695F820001446012801D1022079
:1024A000F2BD0121022085F82010CA2285F8210002
:1024B0002B6853215A6228684162284600F0B3F81D
:1024C000010039D12868A4B9806841065CBF0022A8
:1024D000F270307800F0F4F800F03AF80402B078C6
:1024E00044EA074400F0ECF80443F07844EA8054EE
:1024F0000EE0816848065CBF0022F2707478317883
:10250000F278240244EA0144B1780C4344EA82544C
:102510002968DFF8A00104400C602868826822F472
:102520008022826029688B68F26830690243134315
:102530008B60284600F095F82A68FF21030051625D
:1025400004BF012485F82140002185F82010F2BD48
:1025500007467078B4E0F8B504460E4694F82000BB
:10256000012801D10220F2BD0121022084F82010AF
:1025700084F8210075789ABBE80603D505F0EF05CD
:102580000A357570F07800F09BF8FFF7E1FF05025F
:10259000B07845EA074500F093F80543307845EAFE
:1025A00040352268CA215320516223685862204670
:1025B00000F039F8010007D12168DFF8FC00054080
:1025C00020464D6000F04DF82368FF2201005A625A
:1025D00004BF012584F82150002184F82010F2BDA9
:1025E000F2782D02B07845EA02453178054345EA94
:1025F0004135D6E738B504462068C16821F0A0010E
:10260000C160FEF7D9FB05462068C1688A0608D478
:10261000FEF7D2FB401B40F2E9318842F4D303209D
:1026200032BD002032BD70B5044600252068C16867
:102630004A0614D44FF0FF33C360FEF7BDFB0646D5
:1026400009E0FEF7B9FB801B40F2E931884224BF64
:10265000032584F821502168CA685006F1D5284620
:1026600070BD70B50446154D6868002620F0400026
:10267000686029688A0608D42046FFF7BBFFA0B12E
:102680000320032684F821000FE02968204621F06A
:1026900020012960FFF7AEFF18B10320032684F85C
:1026A0002100296841F020012960304670BD0000FA
:1026B000BFFF8FFF7F7F7F003FFFFF000840005874
:1026C000002101E0491C0A38C2B20A2AFAD240EAC3
:1026D0000110C0B270470000006800F1500303EB26
:1026E00081031A607047006800F1500202EB81021A
:1026F0001068704738B5040009D004F18005696896
:1027000009B900F01FF800F022F8012801D10120DA
:1027100032BDA06A08B100F02AF800F00BF822F0F0
:102720002A02826000F01DF8FFE72046BDE8324033
:1027300000F0D6BB2068416821F4904141602068D8
:1027400082687047002028702046FFF796BC24213D
:10275000696020680268520852000260204600F05A
:1027600079B92068016841F0010101607047204695
:1027700000F052BB206881684A06704720680268F2
:1027800022F0100202607047836823F040038360E8
:102790007047F8B5044640F60F00266804F15C0562
:1027A000F1693268B36808400ED1880602D59706F1
:1027B00002D4D80040F180806969002900F0498185
:1027C0002046BDE8F4400847DFF84008034204BF54
:1027D000DFF83C783A426FD0CF0707D5D70505D54B
:1027E000012737622E6B46F001062E638F0708D54E
:1027F000DE0706D5276802263E622E6B46F00406E9
:102800002E634F0708D5DE0706D5276804263E62EB
:102810002E6B46F002062E630F070AD5960601D4EA
:10282000034206D02768082038622E6B46F008065F
:102830002E63080509D5560107D520684FF40067B7
:1028400007622E6B46F020062E63286B002832D0DC
:10285000890607D5900601D4D90003D5696909B165
:1028600020468847286B21688A68530602D410F0F6
:10287000280F1BD0204600F0AEFBFFF77BFF10D5E2
:10288000FFF782FF286A60B10FF2C1710165286A03
:1028900000F038FE00280ED0286A016DBDE8F44033
:1028A00008472046BDE8F24000F0B0BF204600F0E7
:1028B000ADFF00202863F1BD2F69012F40F08E800D
:1028C000C80600D5D70640F1898010213162226800
:1028D0009068410662D5286ADFF838370168994266
:1028E0001CBFDFF83467B1422ED0DFF83077B94231
:1028F0001CBFDFF82C37994226D0DFF82867B14299
:102900001CBFDFF82477B9421ED0DFF82037994288
:102910001CBFDFF81C67B14216D0DFF81877B94248
:102920001CBFDFF8143799420ED0DFF81067B142B0
:102930001CBFDFF80C77B94206D0DFF808379942A0
:102940001CBFDFF80467B14249688BB2002BB2D0DC
:102950002E88B3427DD26980C069B0F5807F19D0DE
:10296000116821F480711160206882685208520059
:10297000826020680022816821F04001816020206F
:10298000E8622A612068016821F010010160286A6C
:1029900000F00CFC29886888091A19E02B886988DE
:1029A0006888591A00281CBF88B2002851D01368C3
:1029B000DFF8480423F490731360226800239668BC
:1029C000064096602022EA622B616B61FFF7D6FE1B
:1029D000204689B2BDE8F44000F019BFC80209D50D
:1029E0005F0207D54FF4801120463162BDE8F24006
:1029F00000F0DABB080609D5170601D4180205D580
:102A0000A96931B32046BDE8F440084748060ED511
:102A100053060CD531682020002221F0400131609E
:102A2000A8622046AA61BDE8F24000F0F1BE0802AB
:102A300006D5530004D52046BDE8F24000F0E9BEBB
:102A4000C80148BF002A04D52046BDE8F24000F086
:102A5000E1BEF1BD2DE9F04186B004462168DFF802
:102A6000140600250E68A2682369064060691643B3
:102A7000E2691E4306431643DFF8FC250E604B68EF
:102A8000E06823F44053034391424B60A669DFF8AA
:102A9000EC051CBF236A1E438F6807403E438E60CF
:102AA000CB6A606ADFF8D8750FF2B0561B09B942DD
:102AB00040EA0313CB62DFF8CC3548D1586D10F0F3
:102AC000380000F09D80082800F0D38010284BD0FB
:102AD00018285AD0202800F06A80282800F07A8030
:102AE0004FF0800C9142DFF8A005DFF8A0E54FF42D
:102AF000004840F0E980BCF1020F14D0BCF1040F93
:102B000000F0BA80BCF1080F00F0BB80BCF1100FE0
:102B100000F0BC80BCF1200F00F0C080BCF1400F81
:102B200000F0BE805CE1FDF765FF002800F05981F0
:102B3000616A36F81120B0FBF2F6626802EB4203DC
:102B40009E4203D31103B14280F0AC8048E1DFF82C
:102B5000400581420BD100F05AF9C1D8DFE807F0F7
:102B600075890415273ABBE74FF0080CBAE7DFF880
:102B7000240581420CD100F04AF9B1D8DFE807F012
:102B800065790405172AABE7EEE74FF0100CA9E7CB
:102B9000DFF8040581420DD100F039F9A0D8DFE853
:102BA00007F05468050406199AE7EEE7DCE74FF0F2
:102BB000200C97E7DFF8E40481420ED100F027F9FA
:102BC000F2D8DFE807F042560605040788E7EEE78B
:102BD000DBE7C9E74FF0400C84E7DFF8C40481422B
:102BE00011D15F6D17F038070AD0082F41D0102F90
:102BF000BAD0182FC9D0202FD9D0282FEAD06FE70C
:102C00004FF0010C6EE7DFF89C0481420CD100F01C
:102C1000FEF8F4D8DFE807F0192D070605045FE792
:102C2000D8E7C4E7B1E79FE7DFF87C0481420ED123
:102C300000F0EDF8F3D8DFE807F0081C07060504FC
:102C40004EE7C7E7B3E7A0E78EE7AC464AE7914215
:102C5000F6D1986D00F00700052804D8DFE800F0F1
:102C60000809070605043BE7B4E7A0E78DE77BE723
:102C700059E74FF0040C35E703A8FDF7CBFE0498A5
:102C800053E76846FDF7F2FE01984EE719688A0699
:102C900005D51F68C7F3C101C84046E7704647E73E
:102CA000404645E75008002110EB062051EB166125
:102CB000002300F0B1FDA0F54076DFF8F0138E425E
:102CC0001DD22768F8608CE0E1694FF6F077B1F526
:102CD000004F45D1BCF1000F12D0BCF1010F26D03E
:102CE000BCF1040F26D0BCF1080F28D0BCF1100FA6
:102CF0002AD0BCF1200F2FD0BCF1400F2ED06FE0B6
:102D0000FEF7FDF900286CD000F07AF84E0806EBCB
:102D10004006B6FBF1F080B2A0F11001B9425FD2DB
:102D20000740C0F3420007432068C76059E0FEF740
:102D3000EEF9E7E703A8FDF76DFE0498E2E76846C1
:102D4000FDF794FE0198DDE719688A06DCD519685D
:102D5000C1F3C101C840D5E77046D5E74046D3E787
:102D6000BCF1000F12D0BCF1010F20D0BCF1040F58
:102D700020D0BCF1080F22D0BCF1100F24D0BCF140
:102D8000200F29D0BCF1400F28D029E0FEF7B7F979
:102D900038B300F035F800EB5100B0FBF1F080B231
:102DA000A0F11001B9421BD22268D06019E0FEF7F1
:102DB000AEF9EDE703A8FDF72DFE0498E8E76846B5
:102DC000FDF754FE0198E3E719688A06E1D5196812
:102DD000C1F3C101C840DBE77046DAE74046D8E7F7
:102DE000012504F1680001210023418001808360F6
:102DF000C360284606B0BDE8F0810000FEFFFFEF8B
:102E0000626A616836F81230B0FBF3F070475F6DAC
:102E100007F00707052F704710B590F82810CA076C
:102E200006D502685368C16A23F400330B4353602C
:102E300090F82820910706D502685368016B23F4A7
:102E400080330B43536090F82820510706D5026861
:102E50005368416B23F480230B43536090F8282080
:102E6000110706D502685368816B23F400430B43B6
:102E7000536090F82820D10606D502689368C16B8C
:102E800023F480530B43936090F82820910606D5D5
:102E900002689368016C23F400530B43936090F82D
:102EA0002820510610D502685368416C23F4801322
:102EB0000B435360436CB3F5801F05D15468816C9C
:102EC00024F4C0040C43546090F82820110606D561
:102ED00001684A68C06C22F4002202434A6010BDB7
:102EE000F8B5044604F1800500206FF07E47E860E5
:102EF000FDF762FF216806460868020708D50097BB
:102F0000334600224FF40011204600F018F860B953
:102F1000206801684A070AD50097334600224FF41B
:102F20008001204600F00BF808B10320F2BD2020FC
:102F300000226860A8600020E2662870F2BD2DE9DA
:102F4000F04105460E4690461F46069C2868C1691A
:102F50003140B1420CBF01200020404539D114F16D
:102F6000010FF3D0FDF728FFC01B844200D39CB9AA
:102F700028680023016821F4D071016028682021AD
:102F8000826852085200826005F1800041608160D1
:102F900003700320BDE8F081286801684A07D5D591
:102FA000C3691905D2D54FF4006202622868202255
:102FB000036823F4D07303602868816849084900D6
:102FC000816005F1800042608260C2600022027070
:102FD000DFE70020DEE701680A6822F490720A60E9
:102FE0000268DFF8CC1093680B409360C26E012A30
:102FF00004D101680B6823F010030B60202100222C
:10300000C0F88810C2660267704700000100001017
:10301000200100041000024028000240400002404D
:10302000580002407000024088000240A0000240A8
:10303000B80002401004024028040240400402404C
:10304000580402407004024088040240806B002251
:1030500000F156010A810A8000F0D8BB010002008D
:103060000400060008000A000C00100020004000C8
:1030700080000001F369FFCF000C0058FFF4FF113E
:1030800000100140004402580090D00300093D00A8
:103090000044004000480040004C00400050004008
:1030A0000014014000780040007C004000FD0F004B
:1030B000FEFFFFEF10B500F180010A78012A01D16F
:1030C000022010BD012324220B704A60026813689D
:1030D000146864086400146000224266006823F0EB
:1030E0000053036020234B6000200A7010BD70B5B0
:1030F00000F01FF801D1022070BD00F020F822F08E
:10310000604209E070B500F014F801D1022070BDF2
:1031100000F015F822F0606211438160204600F053
:103120001BF82068202100220660002069602A70B8
:1031300070BD044604F180052878012870470122FB
:1031400024202A7068602068066803685B085B00BA
:10315000036020688268704730B5416E11B9012163
:10316000012214E0016800BF0FF22C040CA38A684E
:103170008968520E02F00702490F655CA45C595C35
:103180009A5C2D01240195FBF1F194FBF2F2683079
:103190004180028030BD00000101010307010000F1
:1031A0000804020408010101704700002DE9F84FEE
:1031B0000546FDF701FE002D044608D005F1340652
:1031C0007078022804D08021002231623270E3E05E
:1031D0002868DFF874A500F0FBFA504518BF484591
:1031E0002DD0404518BF584529D000F0E1FA1CBF4A
:1031F000DFF85825904222D000F0E6FA1CBFDFF835
:10320000501588421BD000F0EAFA1CBFDFF84435A5
:10321000984214D000F0C8FA1CBFDFF83C25904259
:103220000DD000F0CDFA1CBFDFF83015884206D073
:1032300000F0C2FA1CBFDFF80C35984209D10168D2
:1032400021F01E0101602868426922F0800242617B
:1032500003E0016821F00E01016028682F685045E5
:1032600018BF48454DD0404518BF584549D000F0DB
:103270009FFA1CBFDFF8D424904242D000F0A4FA99
:103280001CBFDFF8CC1488423BD000F0A8FA1CBF6A
:10329000DFF8C034984234D000F086FA1CBFDFF863
:1032A000B82490422DD000F08BFA1CBFDFF8AC148C
:1032B000884226D000F080FA1CBFDFF8883498429C
:1032C0001FD0DFF89C1488421CBFDFF8982490427E
:1032D00017D0DFF8943498421CBFDFF8901488426E
:1032E0000FD0DFF88C2490421CBFDFF8883498425E
:1032F00007D0DFF8841488421CBFDFF844249042D2
:1033000004D1F06A016821F4807101602868504599
:1033100018BF48452ED0404518BF58452AD0DFF881
:103320005C2490421CBFDFF82414884222D000F0B5
:103330004BFA1CBFDFF8182490421BD06F4988421B
:103340001CBFDFF81034984214D000F0D3F81CBF33
:10335000DFF8041488420DD000F032FA1CBFDFF809
:10336000FC23904206D0664988421CBFDFF8D43364
:10337000984213D102685208520002603868C107AF
:1033800011D5FDF719FD001B0628F7D320200021D9
:1033900030620322317072700120A9E003685B087B
:1033A0005B000360EAE72868504518BF48452DD008
:1033B000404518BF584529D000F0FAF91CBFDFF886
:1033C0008C23904222D000F0FFF91CBFDFF880135D
:1033D00088421BD000F003FA1CBFDFF87833984214
:1033E00014D000F0E1F91CBFDFF86C2390420DD03F
:1033F00000F0E6F91CBFDFF86413884206D000F045
:10340000DBF91CBFDFF83C33984207D196F828104F
:10341000726A3F2000F0C4F9906006E096F8281028
:10342000726A012000F0BCF950602868504518BF4E
:1034300048454CD0404518BF584548D000F0B8F931
:103440001CBFDFF80823904241D000F0BDF91CBF3B
:10345000DFF8FC1288423AD000F0C1F91CBFDFF857
:10346000F432984233D000F09FF91CBFDFF8E82215
:1034700090422CD000F0A4F91CBFDFF8E012884283
:1034800025D000F099F91CBFDFF8B83298421ED061
:10349000DFF8CC1288421CBFDFF8C822904216D059
:1034A000DFF8C43298421CBFDFF8C01288420ED049
:1034B000DFF8BC2290421CBFDFF8B832984206D039
:1034C000DFF8B41288421CBF9D4A90420BD1316B89
:1034D000706B4860B06B30B1016821F4807101609D
:1034E000F26B306C50600021012031707070002050
:1034F000BDE8F28FDFF88822904270471004024046
:10350000A00402402DE9F14F30B100F134014A78B6
:10351000022A03D08020086201200FE1DFF8289200
:10352000DFF860820668DFF85802DFF82822DFF84B
:103530005832DFF81C42DFF854524E45DFF80CA237
:10354000DFF838B2DFF848C2DFF848E218BF464576
:1035500025D0764518BF664521D05E4518BF564533
:103560001DD0AE4218BFA64219D09E4218BF964247
:1035700015D086421CBFDFF8E071BE420FD0DFF8E5
:103580001872BE421CBFDFF8D471BE4207D0DFF80C
:103590000C72BE421CBFDFF8AC71BE4230D10427B2
:1035A0004E454F7018BF464525D0764518BF664535
:1035B00021D05E4518BF56451DD0AE4218BFA64269
:1035C00019D09E4218BF964215D086421CBFDFF824
:1035D000880186420FD0DFF8C0118E421CBFDFF891
:1035E0007C21964207D0DFF8B40186421CBFDFF889
:1035F00054118E422CD132685208520032609CE045
:10360000376827F00E073760009E36684E4518BFB2
:10361000464522D0764518BF66451ED05E4518BF88
:1036200056451AD0AE4218BFA64216D09E4218BFC9
:10363000964212D086421CBFDFF81C71BE420CD0ED
:10364000DFF85471BE421CBFDFF81071BE4204E0C7
:1036500030684008400030606FE037687F087F00C6
:103660003760009E36684E4518BF464544D07645C3
:1036700018BF664540D05E4518BF56453CD0AE42A7
:1036800018BFA64238D09E4218BF964234D0864218
:103690001CBFDFF8C40086422ED0DFF8FC20964223
:1036A0001CBFDFF8B8309E4226D0DFF8F00086421B
:1036B0001CBFDFF8902096421ED0DFF8A4309E4257
:1036C0001CBFDFF8A000864216D0DFF89C2096428F
:1036D0001CBFDFF898309E420ED0DFF8940086427F
:1036E0001CBFDFF89020964206D0DFF88C309E4257
:1036F0001CBF1348864218D1C86A026822F480723F
:10370000026091F828304A6A012003F01F039840B4
:1037100050600B6B486B5860886B30B1026822F4C4
:1037200080720260CB6B086C5860002201200A7026
:103730004870C96909B1009888470020BDE8F28F38
:1037400094540258B804024010000240880002401D
:10375000B800024028040240580402408804024095
:10376000085402581C540258305402584454025809
:10377000585402586C540258805402587000024049
:10378000400402402800024010040240A000024011
:10379000580002404000024070040240A004024071
:1037A00001F01F0188407047DFF8481088427047D9
:1037B000DFF8341088427047DFF8402090427047AD
:1037C000DFF8343098427047DFF820309842704775
:1037D000DFF82C90DFF82CB0DFF82C807047DFF892
:1037E000102090427047000070000240A00002408C
:1037F000100402404004024070040240A004024051
:1038000028000240580002404000024070477047C4
:103810007047704770470000D3BBD9B1B2F5803F05
:103820005BD2022A1ED98C46B1FBF2F102FB11C316
:103830001B0443EA1043B3FBF2FC02FB1C3380B2CF
:1038400040EA0343B3FBF2F002FB103240EA0C40C3
:1038500000237047022A05D98446B0FBF2F002FB30
:1038600010C270474AB105D100F0010249085FEA71
:103870003000704700220023704700F051B80B0061
:103880000200002100207047F7D300220023704778
:10389000904271EB030CF2D370B5B1FA81F4B3FA34
:1038A00083F52C1BA340C4F1200532FA05F63343FF
:1038B000A2405FF00046E64002E05B085FEA3202A9
:1038C000841A71EB030524BF204629467641F4D3C0
:1038D00002000B003000002170BD70B5B1FA81F418
:1038E000B2FA82F5C4F120046419B4F12006DAD3E7
:1038F000B2405FF00044F440002502E052085FEA65
:103900003303C61A71EB020E24BF30467146644180
:103910006D41F3D302000B002000290070BD0000B0
:103920007047000030B52848284A016841F470010A
:103930000160106800F00F00072805D2116809091E
:10394000090141F007011160214900240B68214859
:1039500043F001030B600C610D6805400D601368B6
:1039600003F00F03072B05D914682409240144F040
:1039700007041460002000238861174AC8611748B3
:103980000B6288621648CA62002208634B63886330
:10399000CA63086413484A640B6823F480230B60ED
:1039A0000A660168090C0904B1F1005F02D2012224
:1039B0000D48026043F2D2010C4B19604FF01044E5
:1039C0000B4A146030BD000088ED00E0002000527A
:1039D000004402587FEDF6EA0000FF0100020202F7
:1039E000800201010010005C08810051004000527B
:1039F00008ED00E0000000000102030401020304DE
:103A000006070809FEE7FEE7FEE7FEE7FEE7704768
:103A10007047704770470348FEF7BBBE0248FDF78A
:103A2000BFBF000014000020A400002010B507490B
:103A300079441831064C7C44163404E00A68081DA9
:103A4000114488470146A142F8D110BD2C00000066
:103A50004C0000004EF68851CEF20001086840F498
:103A600070000860BFF34F8FBFF36F8F4FF000708F
:103A7000E1EE100A7047000057E1FFFF000100006F
:103A80001400002000000000E3E3FFFF140000002A
:103A900054000000000000200000000000F00DF8BD
:103AA000002801D0FFF7C2FFAFF300800020AFF382
:103AB0000080FEF7BBF800F002F80120704700F02C
:103AC00001B800000746384600F002F8FBE70000A6
:103AD00080B5AFF30080024A11001820ABBEFBE7AF
:103AE000260002000100000000000000100000009D
:103AF0000090D0030090D003014880470148004760
:103B000025390090093B0090AFF30080FFF7A2FF3A
:103B1000FFF7C4FFFFF7FEBFFFF7FEBFFFF7FEBFD3
:103B2000FFF7FEBFFFF7FEBFFFF7FEBFFFF7FEBFC9
:103B3000FFF7FEBFFFF7FEBFFFF7FEBFFFF7FEBFB9
:103B4000FFF7FEBFFFF7FEBFFFF7FEBFFFF7FEBFA9
:103B5000FFF7FEBFFFF7FEBFFFF7FEBFFFF7FEBF99
:0400000590003B0923
:00000001FF
