:0200000490006A
:10000000E0390020C55F0090195F00901B5F0090F1
:100010001D5F00901F5F0090215F009000000000B6
:10002000000000000000000000000000235F0090BE
:10003000255F009000000000E14000904B3E0090E2
:10004000F15F0090F55F0090F95F0090FD5F009018
:100050000160009005600090096000900D600090C4
:100060001160009015600090196000901D60009074
:100070002160009025600090296000902D60009024
:100080003160009035600090396000903D600090D4
:100090004160009045600090496000904D60009084
:1000A0005160009055600090596000905D60009034
:1000B0006160009065600090696000906D600090E4
:1000C0007160009075600090796000907D60009094
:1000D0008160009085600090896000908D60009044
:1000E0009160009095600090000000009960009081
:1000F0009D600090A1600090A5600090A9600090B4
:10010000AD600090B1600090B5600090B960009063
:10011000BD600090C1600090C5600090275F0090B6
:10012000C9600090CD600090D1600090D5600090D3
:10013000D9600090DD600090E1600090E560009083
:1001400000000000000000000000000000000000AF
:10015000E9600090ED600090F1600090F560009023
:10016000F9600090FD6000900161009005610090D1
:10017000096100900D61009011610090156100907F
:10018000196100901D61009021610090256100902F
:10019000296100902D6100903161009035610090DF
:1001A000396100903D61009041610090456100908F
:1001B000496100904D61009051610090556100903F
:1001C000596100905D6100906161009065610090EF
:1001D000696100906D61009071610090756100909F
:1001E000796100907D61009081610090856100904F
:1001F000896100908D6100909161009095610090FF
:10020000996100909D610090A1610090A5610090AE
:10021000A9610090AD610090B1610090B56100905E
:10022000B9610090BD610090C161009000000000C4
:10023000C5610090C961009000000000CD61009090
:10024000D1610090D5610090D9610090DD6100908E
:10025000E1610090E5610090E9610090ED6100903E
:10026000F1610090F5610090F9610090FD610090EE
:100270000162009005620090096200900000000099
:100280000D62009011620090156200900000000065
:1002900000000000196200902DE9F84304000027D7
:1002A0005FF000082068000131D5606E002809D099
:1002B000B0F5801F0DD0B0F5001F10D0B0F5401F75
:1002C00014D014E0DFF8380A016851F400310160FD
:1002D0000FE00221201D00F065FF070009E0022168
:1002E00014F1240000F0ECFF070002E001E001201F
:1002F00007003800C0B2002808D1DFF8081A0A68E1
:1003000032F44012606E02430A6000E0B846206892
:10031000C0052FD5606D002806D0022811D00AD361
:10032000042816D014D315E0DFF8D409016851F47D
:100330000031016010E00021201D00F033FF0700B4
:100340000AE0002114F1240000F0BAFF070003E0E6
:1003500002E001E0012007003800C0B2002808D107
:10036000DFF8A0190A68D208D200606D02430A6063
:1003700000E0B8462068800532D5A06D002809D07D
:1003800040280ED0802812D0C02817D0B0F5807F2A
:1003900015D015E0DFF86809016851F400310160FB
:1003A00010E00021201D00F0FDFE07000AE0002102
:1003B00014F1240000F084FF070003E002E001E0F4
:1003C000012007003800C0B2002808D1DFF8341936
:1003D0000A6832F4E072A06D02430A6000E0B84699
:1003E0002068400537D5D4F8A40000280CD0B0F51B
:1003F000001F10D0B0F5800F13D0B0F5C00F17D08C
:10040000B0F5000F15D015E0DFF8F408016851F4DD
:100410000031016010E00021201D00F0C3FE070044
:100420000AE0002114F1240000F04AFF070003E075
:1004300002E001E0012007003800C0B2002809D125
:10044000DFF8C4180A6832F46002D4F8A40002434A
:100450000A6000E0B8462068000537D5D4F8A80047
:1004600000280CD0B0F1807F10D0B0F1007F13D005
:10047000B0F1407F17D0B0F1806F15D015E0DFF8F4
:100480008008016851F40031016010E00021201D56
:1004900000F088FE07000AE0002114F1240000F0BB
:1004A0000FFF070003E002E001E001200700380031
:1004B000C0B2002809D1DFF850180A6832F0E062B3
:1004C000D4F8A80002430A6000E0B8462068800122
:1004D00028D5A06C002814D0102804D0202809D0DA
:1004E00030280DD00EE0DFF81808016851F4003113
:1004F000016009E00221201D00F054FE070003E026
:1005000002E001E0012007003800C0B2002808D155
:10051000DFF8F8170A6832F03002A06C02430A6074
:1005200000E0B8462068C00435D5E06D00280CD046
:10053000B0F5805F10D0B0F5005F13D0B0F5405F2C
:1005400017D0B0F5804F15D015E0DFF8B40701687B
:1005500051F40031016010E00021201D00F022FE66
:1005600007000AE0002114F1240000F0A9FE0700B2
:1005700003E002E001E0012007003800C0B20028DB
:1005800008D1DFF880170A6832F4E042E06D0243D8
:100590000A6000E0B8462068800433D5206E002849
:1005A0000FD0B0F5803F0DD0B0F5003F10D0B0F5C2
:1005B000403F14D0B0F5802F12D0B0F5A02F10D04E
:1005C00010E011E00121201D00F0ECFD07000BE020
:1005D000012114F1240000F073FE070004E003E0A1
:1005E00002E001E0012007003800C0B2002808D175
:1005F000DFF810170A6832F4E022206E02430A6026
:1006000000E0B8462068400435D5D4F8AC00002896
:100610000FD0B0F1805F0DD0B0F1005F10D0B0F11D
:10062000405F14D0B0F1804F12D0B0F1A04F10D085
:1006300010E011E00121201D00F0B4FD07000BE0E7
:10064000012114F1240000F03BFE070004E003E068
:1006500002E001E0012007003800C0B2002809D103
:10066000DFF8A4160A6832F0E042D4F8AC00024386
:100670000A6000E0B8462068000427D5E06E002834
:1006800013D0B0F1805F03D0B0F1005F07D00DE070
:10069000DFF86C06016851F40031016008E00121C7
:1006A000201D00F07FFD070002E001E001200700AF
:1006B0003800C0B2002808D1DFF848160A6832F0C6
:1006C0004052E06E02430A6000E0B8462068C00174
:1006D00027D5606C002813D002280AD002D3032843
:1006E0000DD00EE0DFF81806016851F4003101600A
:1006F00009E00221201D00F055FD070003E002E0A3
:1007000001E0012007003800C0B2002808D1DFF85E
:10071000FC150A6892089200606C02430A6000E0CF
:10072000B8462068400279D5DFF8E495D9F8000092
:1007300050F48070C9F8000000F062FE0600D9F89D
:100740000000C00506D400F05BFE801B6528F6D3D0
:10075000032007003800C0B200285ED1DFF8B4954E
:10076000D9F8000010F44070D4F8B01011F44071C2
:10077000884212D0D9F8000030F440700500D9F852
:10078000000050F48030C9F80000D9F8000030F4BF
:100790008030C9F80000C9F80050D4F8B000B0F5B6
:1007A000807F0FD100F02CFE0600D9F800008007F2
:1007B00008D400F025FE801B41F289318842F4D331
:1007C000032007003800C0B2002824D1D4F8B000BC
:1007D00010F44070B0F5407F0DD1DFF83C050168A2
:1007E00031F47C51D4F8B020DFF8303513EA12131D
:1007F0001943016005E0DFF82005016831F47C5100
:100800000160D9F80000D4F8B0100905090D0843BB
:10081000C9F8000002E0B84600E0B8462078C007FA
:100820002ED5A06F00280AD0082809D010280DD096
:10083000182812D0202811D0282810D010E011E05C
:100840000121201D00F0AEFC07000BE0012114F196
:10085000240000F035FD070004E003E002E001E0C1
:10086000012007003800C0B2002808D1DFF8B0141A
:100870000A6832F03802A06F02430A6000E0B8460E
:10088000207880072CD5606F002808D002280DD072
:1008900006D3042812D010D3052810D010E011E0A0
:1008A0000121201D00F07EFC07000BE0012114F166
:1008B000240000F005FD070004E003E002E001E091
:1008C000012007003800C0B2002808D1DFF850141A
:1008D0000A68D208D200606F02430A6000E0B8469E
:1008E000207840072ED5D4F89000002808D00228A0
:1008F0000DD006D3042812D010D3052810D010E054
:1009000011E00121201D00F04DFC07000BE001214A
:1009100014F1240000F0D4FC070004E003E002E03E
:1009200001E0012007003800C0B2002809D1DFF83B
:10093000D8130A68D208D200D4F8900002430A60A3
:1009400000E0B8462078800635D5D4F88C00002821
:100950000FD0B0F1805F0DD0B0F1005F10D0B0F1DA
:10096000405F14D0B0F1804F12D0B0F1A04F10D042
:1009700010E011E00021201D00F014FC07000BE046
:10098000022114F1240000F09BFC070004E003E0C6
:1009900002E001E0012007003800C0B2002809D1C0
:1009A000DFF87C130A6832F0E042D4F88C0002438E
:1009B0000A6000E0B8462078400635D5D4F89800A3
:1009C00000280FD0B0F5806F0DD0B0F5006F10D0BB
:1009D000B0F5406F14D0B0F5805F12D0B0F5A05FD5
:1009E00010D010E011E00021201D00F0DBFB07001B
:1009F0000BE0022114F1240000F062FC070004E087
:100A000003E002E001E0012007003800C0B2002846
:100A100009D1DFF8F4120A6832F4E052D4F89800F1
:100A200002430A6000E0B8462078000635D5D4F8C5
:100A30009C0000280FD0B0F5005F0DD0B0F5804FBE
:100A400010D0B0F5C04F14D0B0F5004F12D0B0F5B3
:100A5000204F10D010E011E00021201D00F0A2FB7B
:100A600007000BE0022114F1240000F029FC07002C
:100A700004E003E002E001E0012007003800C0B21A
:100A8000002809D1DFF880120A6832F46042D4F8F5
:100A90009C0002430A6000E0B8462078000716D5A3
:100AA000D4F88000B0F5805F08D1022114F1240051
:100AB00000F006FC002801D001208046DFF860121B
:100AC0000A6832F44052D4F8800002430A60207869
:100AD000C00616D5D4F89400B0F5807F08D1022165
:100AE00014F1240000F0ECFB002801D00120804626
:100AF000DFF814120A6832F44072D4F8940002430A
:100B00000A602068000329D5D4F8A000002806D088
:100B1000B0F5803F09D0B0F5003F0DD00DE00021C9
:100B2000201D00F03FFB070009E0022114F1240022
:100B300000F0C6FB070002E001E0012007003800DA
:100B4000C0B2002809D1DFF8C0110A6832F440327F
:100B5000D4F8A00002430A6000E0B84620684003D1
:100B60002AD5D4F88400B0F5801F06D0B0F5001F58
:100B700009D0B0F5401F0DD00DE06148016851F477
:100B80000031016009E0012114F1240000F098FB1C
:100B9000070002E001E0012007003800C0B2002891
:100BA00009D1DFF87C110A6832F44012D4F88400CD
:100BB00002430A6000E0B8462068C00321D5E06C1B
:100BC000002803D0B0F5803F06D00BE04C48016808
:100BD00051F40031016007E00221201D00F0E2FA2B
:100BE000070001E0012007003800C0B2002807D14B
:100BF00046490A6832F48032E06C02430A6000E041
:100C0000B8462068800008D5022114F1240000F0C5
:100C100057FB002801D0012080462068800324D59E
:100C2000E06F002811D0B0F5807F06D0B0F5007FCE
:100C300009D0B0F5407F07D008E03148016851F491
:100C40000031016004E003E002E001E00120070060
:100C50003800C0B2002807D131490A6832F4407226
:100C6000E06F02430A6000E0B8462068C00206D583
:100C700024490A6822F00042206F02430A6020687B
:100C8000C00007D524490A6832F48042D4F8B40081
:100C900002430A602068800206D51A490A6832F0C9
:100CA0008072A06E02430A602068400009D51A498C
:100CB000086830F4004008600A68D4F8B8000243BD
:100CC0000A602068002806D510490A6832F04052B0
:100CD000206D02430A602068000207D510490A68A7
:100CE00032F44002D4F8880002430A604046C0B2A1
:100CF000002801D1002000E00120BDE8F2830000BF
:100D00002C44025850440258584402584C4402584B
:100D1000004802587044025810440258CFFFFF00A8
:100D20005444025880B500F0C5FDDFF8B016DFF876
:100D3000B0261268C2F30212895C11F01F01C8408C
:100D400002BD000030B486490A6812F00302096847
:100D5000C1F30531844B1B68C3F30013DFF88446ED
:100D60002468C4F3CC0404FB03F401EE104AB8EE8B
:100D7000411A002900F0EA80002A03D0022A70D02C
:100D80004FD38EE0DFF804442568AD0629D5DFF89F
:100D900008542468C4F3C104E54001EE905AB0EE53
:100DA000610AF8EE401A02EE101AB8EE422AC1EEBD
:100DB000821ADFF834462468E405E40D02EE104A96
:100DC000B8EE422ADFED652AC1EE222A32EE222A4F
:100DD000F7EE002A32EE222A61EE821AF0EE610A64
:100DE0001EE001EE901AF8EE611A9FED5E2AC2EE47
:100DF000211ADFF8F4452468E405E40D02EE104AF8
:100E0000B8EE422ADFED552AC1EE222A32EE222A1E
:100E1000F7EE002A32EE222A61EE821AF0EE610A23
:100E20005EE001EE901AF8EE611A9FED502AC2EED4
:100E3000211ADFF8B4452468E405E40D02EE104AF7
:100E4000B8EE422ADFED452AC1EE222A32EE222AEE
:100E5000F7EE002A32EE222A61EE821AF0EE610AE3
:100E60003EE001EE901AF8EE611A9FED412AC2EEC3
:100E7000211ADFF874452468E405E40D02EE104AF7
:100E8000B8EE422ADFED352AC1EE222A32EE222ABE
:100E9000F7EE002A32EE222A61EE821AF0EE610AA3
:100EA0001EE001EE901AF8EE611A9FED302AC2EEB4
:100EB000211ADFF834452468E405E40D02EE104AF7
:100EC000B8EE422ADFED252AC1EE222A32EE222A8E
:100ED000F7EE002A32EE222A61EE821AF0EE610A63
:100EE000DFF804452568C5F3462501EE905AF8EE73
:100EF000611AB7EE002A71EE821AC0EEA11AFCEE5A
:100F0000E11AC0ED001A2568C5F3064501EE905AB6
:100F1000F8EE611AB7EE002A71EE821AC0EEA11A3D
:100F2000FCEEE11AC0ED011A2468C4F3066401EE78
:100F3000904AF8EE611AB7EE002A71EE821AC0EEFE
:100F4000A11AFCEEE11AC0ED021A05E000240460CB
:100F5000002444600024846030BC704700000046D8
:100F6000284402580024744C2C4402580024744A2B
:100F700020BCBE4B30B4DFF874140A6812F00302D0
:100F80000968C1F30551DFF868341B68C3F3002317
:100F9000DFF860442468C4F3CC0404FB03F401EEDE
:100FA000104AB8EE411A002900F0E880002A03D068
:100FB000022A6ED04DD38CE0744C2568AD0628D53E
:100FC000754D2468C4F3C104E54001EE905AB0EEBB
:100FD000610AF8EE401A02EE101AB8EE422AC1EE8B
:100FE000821ADFF814442468E405E40D02EE104A86
:100FF000B8EE422ADFED662AC1EE222A32EE222A1C
:10100000F7EE002A32EE222A61EE821AF0EE610A31
:101010001EE001EE901AF8EE611A9FED5E2AC2EE14
:10102000211ADFF8D4432468E405E40D02EE104AE7
:10103000B8EE422ADFED562AC1EE222A32EE222AEB
:10104000F7EE002A32EE222A61EE821AF0EE610AF1
:101050005EE001EE901AF8EE611A9FED502AC2EEA2
:10106000211ADFF894432468E405E40D02EE104AE7
:10107000B8EE422ADFED462AC1EE222A32EE222ABB
:10108000F7EE002A32EE222A61EE821AF0EE610AB1
:101090003EE001EE901AF8EE611A9FED412AC2EE91
:1010A000211ADFF854432468E405E40D02EE104AE7
:1010B000B8EE422ADFED362AC1EE222A32EE222A8B
:1010C000F7EE002A32EE222A61EE821AF0EE610A71
:1010D0001EE001EE901AF8EE611A9FED302AC2EE82
:1010E000211ADFF814432468E405E40D02EE104AE7
:1010F000B8EE422ADFED262AC1EE222A32EE222A5B
:10110000F7EE002A32EE222A61EE821AF0EE610A30
:10111000DFF8E4422568C5F3462501EE905AF8EE63
:10112000611AB7EE002A71EE821AC0EEA11AFCEE27
:10113000E11AC0ED001A2568C5F3064501EE905A84
:10114000F8EE611AB7EE002A71EE821AC0EEA11A0B
:10115000FCEEE11AC0ED011A2468C4F3066401EE46
:10116000904AF8EE611AB7EE002A71EE821AC0EECC
:10117000A11AFCEEE11AC0ED021A05E00024046099
:10118000002444600024846030BC7047004402584E
:10119000000000460024744C0090D0030024744AE0
:1011A00020BCBE4B2DE9F84305000C000026DFF8FB
:1011B0003C92D9F8000010F00300032801D101206F
:1011C0007CE0DFF83882D8F8000030F08060C8F8A2
:1011D000000000F015F90700D8F80000000106D55E
:1011E00000F00EF9C01B0328F6D3032066E0D9F8FF
:1011F000000030F47C30296850EA0130C9F8000062
:101200006868401EC005C00DA968491E490211F456
:101210007E410843E968491E090411F4FE010843B0
:101220002969491E090611F0FE4108436E4908600C
:101230006F490A6832F0C002686902430A600A68AE
:1012400032F02002A86902430A60086830F01000FA
:101250000860644802686FF3CF02EB6952EAC30288
:101260000260086850F010000860002C04D1086883
:1012700050F4002008600AE0012C04D1086850F402
:101280008010086003E0086850F400100860D8F887
:10129000000050F08060C8F8000000F0B1F881460E
:1012A000D8F80000000107D400F0AAF8B0EB09005C
:1012B0000328F5D3032001E03000C0B2BDE8F2837B
:1012C0002DE9F84305000C000026DFF82091D9F83D
:1012D000000010F00300032801D101207CE0DFF8BA
:1012E0001C81D8F8000030F08050C8F8000000F0F1
:1012F00087F80700D8F80000800006D500F080F8D5
:10130000C01B0328F6D3032066E0D9F8000030F0B4
:101310007C70296850EA0150C9F800006868401ED6
:10132000C005C00DA968491E490211F47E41084359
:10133000E968491E090411F4FE0108432969491EA0
:10134000090611F0FE4108432B49086028490A6844
:1013500032F44062686902430A600A6832F400723B
:10136000A86902430A60086830F480700860214868
:1013700002686FF3CF02EB6952EAC30202600868A9
:1013800050F480700860002C04D1086850F480008C
:1013900008600AE0012C04D1086850F400000860DD
:1013A00003E0086850F080700860D8F8000050F042
:1013B0008050C8F8000000F023F88146D8F80000FB
:1013C000800007D400F01CF8B0EB09000328F5D327
:1013D000032001E03000C0B2BDE8F283745F0090EA
:1013E000204402583C4402583844025828440258C9
:1013F0002C440258444402584044025800440258C5
:1014000001480068704700BF2C1900202DE9F04109
:1014100004000D00002C01D101203DE1DFF86075D2
:10142000386810F00F00A8420BD23868000900019C
:1014300028433860386810F00F00A84201D001201E
:101440002AE1207840070DD5DFF85015086810F024
:1014500070002269904205D20A6832F07002206959
:1014600002430A60207800070DD5DFF834150868BC
:1014700010F070006269904205D20A6832F0700282
:10148000606902430A602078C0060DD5DFF81015A8
:10149000086810F4E060A269904205D20A6832F44C
:1014A000E062A06902430A60207880060DD5DFF86B
:1014B000F414086810F07000E269904205D20A68DE
:1014C00032F07002E06902430A60207880070DD58F
:1014D000DFF8C814086810F00F00E268904205D2E7
:1014E0000A6812091201E06802430A602078C00706
:1014F0004AD5DFF8A8140A6832F47062A068024383
:101500000A606068022806D1DFF87804006880036A
:101510001CD40120C0E06068032806D1DFF8640411
:101520000068800112D40120B6E06068012806D16D
:10153000DFF850040068C00508D40120ACE0DFF8F3
:1015400044040068400701D40120A5E0DFF8388496
:10155000D8F80010C908C90060680143C8F8001035
:10156000FFF74EFF0600D8F8000010F03800616861
:10157000B0EBC10F08D0FFF743FF801B41F2893168
:101580008842F0D3032087E0207880070DD5DFF86C
:101590000C14E0680A6812F00F02904205D20A6843
:1015A00012091201E06802430A60386810F00F0067
:1015B00085420BD23868000900012843386038683A
:1015C00010F00F00A84201D0012065E0207840070C
:1015D0000DD5DFF8C81320690A6812F07002904236
:1015E00005D20A6832F07002206902430A6020784E
:1015F00000070DD5DFF8A81360690A6812F07002C1
:10160000904205D20A6832F07002606902430A60B3
:101610002078C0060DD5DFF88813A0690A6812F497
:10162000E062904205D20A6832F4E062A0690243A7
:101630000A60207880060DD5DFF86813E0690A6833
:1016400012F07002904205D20A6832F07002E0692E
:1016500002430A6000F022F80700DFF85C13DFF8AD
:101660003C030268C2F303228A5C12F01F02D740D7
:10167000006810F00F00085C10F01F003900C14036
:10168000DFF810030160DFF808030760DFF80803E4
:10169000006800F0DFFCC0B2BDE8F08110B4DFF8F4
:1016A000E802006810F03800002806D0082813D09F
:1016B000102814D0182815D0F9E0DFF8C8422068A7
:1016C000800606D5DFF8C4022468C4F3C104E040F4
:1016D00001E0DFF8B802EBE0DFF8E002E8E0DFF875
:1016E000E002E5E0DFF8C002046814F00304220021
:1016F0000068C0F305100100DFF8B002006810F0C8
:1017000001000300DFF8AC020068C0F3CC0000FB6E
:1017100003F002EE100AB8EE422AB0EE421A002997
:1017200000F0C380002A03D0022A6FD04FD38CE090
:10173000DFF850020468A40629D5DFF8504200689B
:10174000C0F3C100C44002EE104AF0EE420AB8EE07
:10175000602A02EE901AF8EE622A82EE222ADFF860
:1017600050020068C005C00D02EE900AF8EE622A31
:101770009FED6B3A81EE033A72EE832AB7EE003AA0
:1017800072EE832A22EE222AF0EE421A1EE002EEC8
:10179000101AB8EE422ADFED632A82EE822ADFF8C1
:1017A00010020068C005C00D02EE900AF8EE622A31
:1017B0009FED5B3A81EE033A72EE832AB7EE003A70
:1017C00072EE832A22EE222AF0EE421A5BE002EE4B
:1017D000101AB8EE422ADFED542A82EE822A7448AB
:1017E0000068C005C00D02EE900AF8EE622A9FED77
:1017F0004C3A81EE033A72EE832AB7EE003A72EE6B
:10180000832A22EE222AF0EE421A3CE002EE101A5F
:10181000B8EE422ADFED452A82EE822A644800684B
:10182000C005C00D02EE900AF8EE622A9FED3C3A28
:1018300081EE033A72EE832AB7EE003A72EE832A03
:1018400022EE222AF0EE421A1DE002EE101AB8EE45
:10185000422ADFED352A82EE822A55480068C0050B
:10186000C00D02EE900AF8EE622A9FED2D3A81EE4D
:10187000033A72EE832AB7EE003A72EE832A22EE22
:10188000222AF0EE421A4A480068C0F34620401C63
:1018900002EE100AB0EE420AB8EE402A81EE822A29
:1018A000BCEEC22A12EE100A00E0002000E043481D
:1018B00010BC704780B5FFF7F1FE01003E48374A83
:1018C0001368C3F30323C35C13F01F03D940314BE8
:1018D000126812F00F02805C10F01F000A00C24074
:1018E0001A602B480160186802BD80B5FFF7E2FF5F
:1018F00031492B4A1268C2F30212895C11F01F01B0
:10190000C84002BD80B5FFF7D5FF2B49244A1268B5
:10191000C2F30222895C11F01F01C84002BD000021
:10192000000000460024744C0024744A20BCBE4BC6
:101930003F220260144A126812F007024260174AFE
:10194000136813F470638360136813F00F03C360AC
:10195000126812F070020261114A136813F07003EA
:101960004361126812F4E06282610E4A126812F05A
:101970007002C261024A126812F00F020A607047D8
:101980000020005200440258104402580090D00336
:101990000400002008000020000000201844025825
:1019A0001C44025820440258284402582C4402582F
:1019B0003044025834440258745F009000093D00DE
:1019C00040787D012DE9F0470400002C01D1012071
:1019D00025E32078C0076DD5DFF84806056815F0C7
:1019E0003805DFF84406D0F80090102D05D0182DEA
:1019F0000DD119F00300022809D1DFF83006006884
:101A0000800357D56068002854D1012007E360683F
:101A1000B0F5803F06D1DFF81406016851F480313B
:101A2000016026E0606800280AD1DFF8000601683E
:101A300031F480310160016831F48021016018E0E7
:101A40006068B0F5A02F0AD1DFF8E005016851F415
:101A500080210160016851F48031016009E0DFF804
:101A6000CC05016831F480310160016831F48021D6
:101A70000160606800280ED0FFF7C2FC0600DFF8A6
:101A8000AC050068800315D4FFF7BAFC801B6528FD
:101A9000F5D30320C3E2FFF7B3FC0600DFF88C05A3
:101AA0000068800306D5FFF7ABFC801B6528F5D3E3
:101AB0000320B4E22078800740F19780DFF86405C6
:101AC000056815F03805DFF86005D0F80090002DA6
:101AD00004D0182D32D119F0030F2FD1DFF84C05A7
:101AE0000068400704D5E068002801D1012096E293
:101AF00000F043FB41F20401884215D220694028DE
:101B000008D1DFF82C05016831F47C3151F4003143
:101B1000016012E0DFF81805016831F47C312269B8
:101B200051EA0231016008E0DFF80405016831F094
:101B3000FE41226951EA0261016056E0E068002836
:101B40003DD0DFF8E8A4DAF8001031F01901E068C0
:101B50000143CAF80010FFF753FC0600DAF8000052
:101B6000400706D4FFF74CFC801B0328F6D3032064
:101B700055E200F002FB41F20401884215D22069CF
:101B8000402808D1DFF8A804016831F47C3151F411
:101B90000031016012E0DFF89804016831F47C3113
:101BA000226951EA0231016008E0DFF8840401682B
:101BB00031F0FE41226951EA0261016015E0DFF86F
:101BC0006CA4DAF8000040084000CAF80000FFF7F3
:101BD00017FC0600DAF80000400706D5FFF710FCF6
:101BE000801B0328F6D3032019E22078C00640F1B9
:101BF0009680DFF83004056815F03805DFF8280412
:101C0000D0F80090082D05D0182D33D119F003001D
:101C100001282FD1DFF814040068C00504D5E0695D
:101C2000802801D00120FAE100F0A7FA41F2040176
:101C3000884215D2206A202808D1DFF8F403016811
:101C400031F0F84151F08041016012E0DFF8E0032B
:101C5000016831F0F841226A51EA8261016008E0CE
:101C6000DFF8D003016831F07C51226A51EA026149
:101C7000016054E0E06900283BD0DFF8B0A3DAF857
:101C8000000050F08000CAF80000FFF7B9FB060022
:101C9000DAF80000C00506D4FFF7B2FB801B03286A
:101CA000F6D30320BBE100F068FA41F20401884258
:101CB00015D2206A202808D1DFF87403016831F0BA
:101CC000F84151F08041016012E0DFF864030168DF
:101CD00031F0F841226A51EA8261016008E0DFF8E0
:101CE0005403016831F07C51226A51EA02610160BB
:101CF00015E0DFF838A3DAF8000030F08000CAF809
:101D00000000FFF77DFB0600DAF80000C00506D5ED
:101D1000FFF776FB801B0328F6D303207FE12078B2
:101D2000000726D56069002811D0C34D286850F0FF
:101D300001002860FFF764FB06002868800718D4BC
:101D4000FFF75EFB801B0328F7D3032067E1BA4D42
:101D50002868400840002860FFF752FB060028680A
:101D6000800706D5FFF74CFB801B0328F7D3032021
:101D700055E12078800626D5A069002811D0AB4D0A
:101D8000286850F480502860FFF73AFB0600286866
:101D9000800418D4FFF734FB801B0328F7D30320FB
:101DA0003DE1A24D286830F480502860FFF728FB01
:101DB00006002868800406D5FFF722FB801B032855
:101DC000F7D303202BE12078400764D5DFF86C922D
:101DD000D9F8000050F48070C9F80000FFF710FB3C
:101DE0000500D9F80000C00506D4FFF709FB401B29
:101DF0006528F6D3032012E1A068012805D1904898
:101E0000016851F00101016022E0A068002809D1B9
:101E10008B480168490849000160016831F00401FC
:101E2000016015E0A068052809D18548016851F0D6
:101E300004010160016851F00101016008E080487F
:101E40000168490849000160016831F0040101603E
:101E5000A06800280FD0FFF7D3FA06007848006882
:101E6000800718D4FFF7CCFA801B41F289318842F1
:101E7000F4D30320D3E0FFF7C3FA060070480068EC
:101E8000800708D5FFF7BCFA801B41F289318842F0
:101E9000F4D30320C3E0606A002800F0BF806148EB
:101EA000006810F03800182800F08A80606A022864
:101EB00074D1DFF87891D9F8000030F08070C9F85B
:101EC0000000FFF79DFA0500D9F80000800106D553
:101ED000FFF796FA401B0328F6D303209FE05249F0
:101EE0000A6858480240A06A0243E06A52EA0012B7
:101EF0000A60206B401EC005C00D616B491E49027F
:101F000011F47E410843A16B491E090411F4FE013E
:101F10000843E16B491E090611F0FE4108434A4996
:101F200008604A490868400840000860484802685C
:101F30006FF3CF02A36C52EAC30202600A6832F068
:101F40000C02206C02430A600A6832F00202606CE4
:101F500002430A60086850F480300860086850F452
:101F600000300860086850F480200860086850F06D
:101F700001000860D9F8000050F08070C9F8000036
:101F8000FFF73EFA0600D9F80000800146D4FFF7BB
:101F900037FA801B0328F6D3032040E0234D28683E
:101FA00030F080702860FFF72BFA06002868800167
:101FB00034D5FFF725FA801B0328F7D303202EE042
:101FC000194800680700204800688046606A0128B8
:101FD00022D017F00300A16A88421DD1C7F3051073
:101FE000E16A884218D15FEAC850C00D216B491ED2
:101FF000884211D1C8F34620616B491E88420BD13B
:10200000C8F30640A16B491E884205D1C8F306609B
:10201000E16B491E884201D0012000E00020BDE8AC
:10202000F08700BF10440258284402580044025868
:10203000044402580C4402587444025800480258A0
:10204000704402580CFCFFFF304402582C440258E4
:10205000344402582DE9F0418AB00500102D1BD2FE
:1020600000222900372000F0FAF8372000F009F9A3
:10207000274805602748016851F020010160006889
:1020800010F020000090009801A902A8FFF750FC72
:10209000079C002C06D101E0012025E0FFF725FC7C
:1020A000060002E0FFF721FC46001B48B6FBF0F7F4
:1020B0007F1EDFF868801A48C8F8000040F2E73059
:1020C000C8F80C00C8F804700020C8F81000002000
:1020D000C8F80800404600F035F9002803D1404612
:1020E00000F06DF900E001200AB0BDE8F0810B4876
:1020F0000168C968490849000068C160704707481D
:102100000168C96851F001010068C16070470000B2
:1021100000000020E844025840420F0078180020D8
:102120000014004010B5032000F093F8FFF7B6FA52
:102130000400DFF85000DFF850100A68C2F30322F1
:10214000825C12F01F02D440096811F00F01405C5C
:1021500010F01F002100C140DFF830000160DFF8FF
:10216000300004600F20FFF775FF002801D0012028
:1021700002E000F0DBFA002010BDDFF81800006874
:10218000000C7047745F009018440258080000204B
:10219000040000200010005C10B410F00703DFF80A
:1021A0007C4122684FF6FF010A40DFF8741151EAC2
:1021B00003210A43226010BC7047DFF86001006809
:1021C000C0F3022070470000010009B2002909D4C1
:1021D000012210F01F018A40524903001BB25B0923
:1021E00041F82320704710B4020012B2002A05D42F
:1021F0000A014D4B040024B21A5508E00A014B4B6A
:10220000040024B214F00F04234403F8042C10BC7F
:10221000704770B4030013F00704D4F107000528D9
:1022200001D3042001E0D4F10700251D072D01D2C0
:10223000002500E0E51E012616FA00F0401E0140D0
:10224000A94016FA05F56D1E2A401143080070BC1E
:10225000704710B504002000FFF79EFF10BDF8B5D1
:1022600004000D001600FFF7A8FF07003200290048
:102270003800FFF7CEFF0100200000B2FFF7B3FFE8
:10228000F1BD10B50400200000B2FFF79DFF10BDA6
:10229000BFF35F8F2648016831F480310160002070
:1022A00024490860704750F00101224A116020491A
:1022B0000A6852F480320A60BFF34F8FBFF36F8F0A
:1022C000704741781C4A1160017800291ED041688E
:1022D0001A4A1160017BC27A120652EA0172817AAF
:1022E00052EAC142417B52EA8142817B52EA414239
:1022F000C17B52EA0142417A52EA0122017A52EA52
:10230000410201780A430E490A6005E000210B4AA8
:10231000116000210A4A1160704700000CED00E0D6
:102320000000FA0500E100E000E400E018ED00E044
:1023300024ED00E094ED00E098ED00E09CED00E07D
:10234000A0ED00E010B50400002C01D1012035E023
:1023500094F83D00002805D1002084F83C002000BE
:1023600000F0C6F9022084F83D00211D206800F02D
:102370004BF9012084F84800012084F83E00012038
:1023800084F83F00012084F84000012084F84100D7
:10239000012084F84200012084F84300012084F8E1
:1023A0004400012084F84500012084F84600012003
:1023B00084F84700012084F83D00002010BD010092
:1023C00091F83D00012801D0012043E0022081F86E
:1023D0003D000868C06850F001000B68D8600868CC
:1023E000DFF8743098421CD00868B0F1804F18D0E4
:1023F0000868DFF86830984213D00868DFF860306A
:1024000098420ED00868DFF85C30984209D008681E
:10241000DFF85430984204D00868DFF85030984212
:1024200011D108688368DFF8480003401A00062AC3
:102430000FD0B2F5803F0CD00868006850F0010062
:102440000B68186005E00868006850F001000B6830
:1024500018600020704700000000014000040040A8
:1024600000080040000C004000040140001800403B
:102470000700010010B504002068006980071AD524
:102480002068C068800716D57FF0020021680861C7
:10249000012020772068806910F0030F03D020000E
:1024A00000F054F905E0200000F051F9200000F0A0
:1024B0004FF9002020772068006940071AD520686E
:1024C000C068400716D57FF004002168086102202B
:1024D00020772068806910F4407F03D0200000F04E
:1024E00035F905E0200000F032F9200000F030F965
:1024F000002020772068006900071AD52068C0688E
:10250000000716D57FF008002168086104202077B5
:102510002068C06910F0030F03D0200000F016F906
:1025200005E0200000F013F9200000F011F9002070
:10253000207720680069C0061AD52068C068C006E8
:1025400016D57FF0100021680861082020772068E8
:10255000C06910F4407F03D0200000F0F7F805E0D8
:10256000200000F0F4F8200000F0F2F800202077BE
:1025700020680069C0070AD52068C068C00706D572
:102580007FF0010021680861200000F018FA20683F
:10259000006900060AD52068C068000606D57FF0ED
:1025A000800021680861200000F026FA2068006998
:1025B000C0050AD52068C068000606D57FF4807083
:1025C00021680861200000F018FA206800694006C0
:1025D0000AD52068C068400606D57FF04000216813
:1025E0000861200000F00AFA2068006980060AD518
:1025F0002068C068800606D57FF020002168086149
:10260000200000F0FCF910BD10B40468DFF8C03001
:10261000984212D0B0F1804F0FD0DFF8B82090422E
:102620000BD0DFF8B420904207D0DFF8B020904202
:1026300003D0DFF8AC20904203D134F070044A6834
:10264000144398421ED0B0F1804F1BD0DFF8842095
:10265000904217D0DFF88020904213D0DFF87C2022
:1026600090420FD0DFF8782090420BD0DFF8742032
:10267000904207D0DFF87020904203D0DFF86C2042
:10268000904203D134F44074CA68144334F0800497
:102690004A69144304608A68C2620A688262984286
:1026A0000FD0DFF83C2090420BD0DFF8382090426A
:1026B00007D0DFF83420904203D0DFF8302090427A
:1026C00001D10A6902630122426110BC7047000017
:1026D000000001400004004000080040000C0040E1
:1026E0000004014000400140004401400048014016
:1026F000704730B4002513E050F8042BD30744BFD3
:10270000A9F101039A18091F042942F8045BFAD2BF
:1027100013468C0744BF15809B1CC90748BF1D701A
:1027200050F8041B0029E7D130BC704781B006483F
:10273000016851F002010160006810F00200009091
:10274000009801B0704700BFF444025870477047CA
:10275000704730B40EE00268436802440830DC077A
:1027600044BFA9F10104E31852F8045B43F8045B89
:10277000091FF9D150F8041B0029ECD130BC704777
:1027800038B500F0BEF892490868800312D4BFF350
:102790004F8FBFF36F8F00208E4A1060BFF34F8FB3
:1027A000BFF36F8F086850F400300860BFF34F8F9D
:1027B000BFF36F8F0868C00325D40020864B1860D4
:1027C000BFF34F8F85480368C3F34E34C3F3C9008A
:1027D000020043F6E07010EA441050EA8270804D27
:1027E00028601000421E0028F3D12000441E00285B
:1027F000ECD1BFF34F8F086850F480300860BFF30E
:102800004F8FBFF36F8FFFF78DFC00F00BF800F0D8
:10281000F7F800F065F900F0E7F9FFF768FC00F061
:102820006FFAFEE710B59CB04C21002209AC2000E5
:1028300000F08AFA2021002201AC200000F084FA86
:10284000022000F0B5FA002000906648016851F4BB
:1028500040410160016811F44041009162490A68F9
:1028600052F001020A60096811F00101009100991B
:1028700001688904FCD500F0C7FAFFF77EFC5B48CD
:10288000016831F018010160052009905FF4803083
:102890000A9001200B900220129002201390052034
:1028A0001490C0201590022016900220179002204C
:1028B00018900820199000201A9000201B9009A859
:1028C000FFF780F8002801D000F094F83F20019035
:1028D00003200290002003900820049040200590DF
:1028E000402006904FF4806007904020089004211B
:1028F00001A8FEF78BFD002801D000F07BF81CB08A
:1029000010BD1FB5102100226C46200000F01CFAFB
:10291000FFF7BEFC01208DF8000000208DF80100BB
:102920005FF01040019018208DF8080000208DF80D
:10293000090000208DF80A0003208DF80B0000200C
:102940008DF80C0000208DF80D0001208DF80E0090
:1029500001208DF80F006846FFF7B3FC01208DF8C9
:1029600001005FF00050019010208DF808006846CB
:10297000FFF7A7FC02208DF801005FF010500190D6
:1029800012208DF808006846FFF79BFC03208DF8A5
:1029900001005FF0405001906846FFF792FC042070
:1029A0008DF801005FF0605001900F208DF8080055
:1029B0006846FFF786FC0420FFF775FC1FBD10B5C5
:1029C000040020680A49884201D100F025FA10BDB0
:1029D00014ED00E050EF00E084ED00E080ED00E059
:1029E00060EF00E0184802582C0400587044025868
:1029F0000014004072B6FEE770477047704770479A
:102A000038B586B014220021684600F011FA31482A
:102A1000016851F004010160016811F004010591A1
:102A20000599016851F080010160016811F0800191
:102A300005910599016851F001010160016811F0EB
:102A4000010105910599016851F0080101600168D3
:102A500011F0080105910599016851F0020101602A
:102A6000006810F00200059005981B4C012202211D
:102A7000200000F0F7FA194D00222021280000F074
:102A8000F1FA0122C021280000F0ECFA01200090A8
:102A900000200190012002906946200000F0D2F948
:102AA000022000900120019000200290002003905D
:102AB0006946200000F0C6F9E02000900120019056
:102AC00000200290022003906946280000F0BAF925
:102AD00007B030BDE044025800000258000402581C
:102AE00038B586B01422002101A800F0A1F9042213
:102AF0000021684600F09CF9384C394820600020DD
:102B000060607F20A060FF20E06000202061002046
:102B1000A0610020E06100206061200000F0CCFA9C
:102B2000002801D0FFF766FF45F251050121200082
:102B300000F084FCA8422FD02A000121200000F0E0
:102B400077FC00208DF8040000208DF8050000209F
:102B50008DF806000020049000200590002201A9B5
:102B6000200000F003FB002801D0FFF743FF052001
:102B70008DF8000001208DF8010001208DF8020081
:102B800015208DF8030000226946200000F069FB43
:102B9000002801D0FFF72EFF07B030BD18B5AFB049
:102BA0000400BC220021684600F042F920680C496C
:102BB000884211D15FF4800000904FF480702C9017
:102BC0006846FDF769FB002801D0FFF713FF0548B1
:102BD000016851F40041016030B010BDF8180020C8
:102BE000004000587044025810B5404C40482060E6
:102BF0005FF4E13060600020A0600020E060002011
:102C000020610C2060610020A0610020E0610020B4
:102C10002062002060620020A062200000F016FC0C
:102C2000002801D0FFF7E6FE0021200001F055F852
:102C3000002801D0FFF7DEFE0021200001F078F827
:102C4000002801D0FFF7D6FE200001F023F800286D
:102C500001D0FFF7CFFE10BD18B5B5B004001422A7
:102C6000002101A800F0E4F8BC22002106A800F031
:102C7000DFF820681E49884235D1022006900020E6
:102C8000239006A8FDF708FB002801D0FFF7B2FE4D
:102C90001848016851F480210160006810F4802018
:102CA000009000981448016851F008010160006824
:102CB00010F00800009000984FF44070019002203E
:102CC000029000200390022004900720059001A9A3
:102CD0000A4800F0B7F8002200212720FFF7BFFACA
:102CE0002720FFF7CEFA36B010BD0000E81600200E
:102CF00000480040E8440258E0440258000C0258E2
:102D000010B50E4C206810F10F3F0AD05FF0F03084
:102D1000206001F077F801F0AFF809480168491C1C
:102D200001605FF0F03020600648006801F0E6F8CE
:102D30000020206001F0BEF910BD00BF0C00002093
:102D4000941900207019002062F30F2262F31F42D1
:102D5000401810F0030308D0C91A1FD3DB0748BF7F
:102D600000F8012D28BF20F8022D130030B41446BE
:102D70001546103928BF20E93C00FAD8490728BF7A
:102D800020E90C0048BF40F8042D890028BF20F836
:102D9000022D48BF00F8012D30BC7047C91818BF7C
:102DA00000F8012DCB0728BF00F8012D7047000067
:102DB00038B50400DFF848000168490708D4006806
:102DC00010F00700A04201D0012018E0002016E01A
:102DD0000168C908C90021430160FEF711FB050025
:102DE000DFF820000068800408D4FEF709FB401BD0
:102DF00040F2E9318842F3D3012000E0002032BDE7
:102E00000C480258044802580248016851F4807185
:102E1000016070470048025803480168034A12786D
:102E200089180160704700BF2C1900201000002095
:102E300010B5044610460A4601462046FFF784FFB7
:102E4000204610BDF8B504000025DFF8346208689C
:102E5000E840002800F005810127D1F800C017FAEA
:102E600005F010EA0C0C6246002A00F0F880486871
:102E7000012808D04868022805D04868112802D0E7
:102E8000486812281FD1D4F808C05FF0030E28004C
:102E9000C0B240001EFA00FE3CEA0E0CD1F80CE075
:102EA0002800C0B240001EFA00FE5EEA0C0CC4F816
:102EB00008C06068AF40B8434F68C7F30017AF4021
:102EC000384303006360E7685FF0030C2800C0B27A
:102ED00040001CFA00F08743D1F808E02800C0B297
:102EE00040001EFA00FE5EEA0707E7604868022815
:102EF00002D0486812281ED12800C00804EB8000C8
:102F0000036A5FF00F0E15F00700C0B280001EFAD2
:102F100000FE33EA0E03D1F810E015F00700C0B24E
:102F200080001EFA00FE5EEA03031F002800C008AE
:102F300004EB8000076223682800C0B240001CFA3E
:102F400000FC33EA0C0391F804C01CF0030C2800C9
:102F5000C0B240001CFA00FC5CEA0303236048682E
:102F6000C0007CD5DFF81C01076857F00207076036
:102F7000006810F0020000900098DFF80C71280043
:102F8000800857F820C05FF00F0E15F00300C0B2A4
:102F900080001EFA00FE3CEA0E0CDFF8F0008442CE
:102FA00001D100232DE03A48844201D1012328E0D9
:102FB0003848844201D1022323E03748844201D1BA
:102FC00003231EE03548844201D1042319E034482C
:102FD000844201D1052314E03248844201D1062302
:102FE0000FE03148844201D107230AE02F48844290
:102FF00001D1082305E02E48844201D1092300E0D5
:103000000A2315F00300C0B28000834053EA0C0C81
:103010002800800847F820C0306890434B68DB03E5
:1030200000D510433060736893434F68BF0300D5E9
:10303000134373605FF0B04738689043D1F804C021
:103040005FEACC2C00D5104338601A4F3B6893439D
:10305000D1F804C05FEA8C2C00D513433B606D1C93
:10306000F5E6F1BD1300DBB2002B03D00B009BB2E1
:10307000836103E00B009BB21B0483617047000077
:1030800080000058F4440258080400580000025818
:103090000004025800080258000C025800100258A0
:1030A0000014025800180258001C02580020025850
:1030B000002402580400005838B504000125002CF3
:1030C00051D094F82100002805D1002084F8200078
:1030D0002000FFF763FD022084F82100CA20216848
:1030E0004862532021684862200000F03AF9050048
:1030F0002800C0B200282CD120688168DFF80003C6
:10310000014020688160206881686268206902430C
:10311000A0690243114320688160A068E16851EA18
:10312000004120680161200000F03DF90500280001
:10313000C0B200280DD12068C06C800880002168D2
:10314000C8642068C16CE269606902431143206869
:10315000C164FF20216848622800C0B2002802D163
:10316000012084F821002800C0B232BD2DE9F047CB
:1031700005000E00140095F82000012801D102205E
:103180006DE0012085F82000022085F82100CA208A
:1031900029684862532029684862280000F0E1F855
:1031A00080464046C0B200284AD1002C20D1286871
:1031B0008068400601D40020F070307800F02AF9D1
:1031C0008246707800F026F98146B07800F022F946
:1031D0005FFA8AFA5FFA89F95FEA092959EA0A4926
:1031E000C0B250EA0909F07859EA80594F4610E018
:1031F00028688068400601D40020F070307871782B
:10320000090251EA0041B0780143F07851EA805157
:103210000F00DFF8F00138402968086028688068EE
:1032200030F480202968886028688168F2683069F5
:103230000243114328688160280000F0B4F88046FA
:10324000FF20296848624046C0B2002802D1012010
:1032500085F82100002085F820004046C0B2BDE876
:10326000F0872DE9F04105000E00140095F82000CC
:10327000012801D1022058E0012085F82000022019
:1032800085F82100002C07D17078C00604D570782D
:1032900010F0EF000A307070002C16D1F07800F0BA
:1032A000B9F88046707800F0B5F80700B07800F003
:1032B000B1F85FFA88F8FFB23F0257EA0847C0B298
:1032C0000743307857EA403709E0F07877783F02D3
:1032D00057EA0047B0780743307857EA4037CA20AA
:1032E00029684862532029684862280000F039F8AC
:1032F00080464046C0B2002808D1DFF80C013840B3
:1033000029684860280000F04EF88046FF202968B0
:1033100048624046C0B2002802D1012085F8210051
:10332000002085F820004046C0B2BDE8F08138B5E5
:1033300004002068C06830F0A0002168C860FEF773
:103340005FF805002068C068800608D4FEF758F8CA
:10335000401B40F2E9318842F4D3032000E0002012
:1033600032BD70B5040000262068C068400617D43E
:103370005FF0FF302168C860FEF742F80500206862
:10338000C06840060CD4FEF73BF8401B40F2E93120
:103390008842F4D303200600032084F82100EEE7DE
:1033A0003000C0B270BD70B5040000251748016838
:1033B00031F040010160164E306880060AD42000CA
:1033C000FFF7B5FF002817D0032084F82100032061
:1033D000050011E0306830F0200030602000FFF779
:1033E000A6FF002804D0032084F821000320050054
:1033F000306850F0200030602800C0B270BD00007E
:10340000BFFF8FFF7F7F7F003FFFFF000C40005812
:10341000084000580100002208000300DBB20A2B1C
:1034200002D3521C0A38F8E750EA0210C0B27047C3
:103430000368503313EB81031A6070470200106871
:10344000503010EB810000687047000010B5040098
:10345000002C01D1012037E0A0690028FFD1D4F869
:103460008400002805D1002084F880002000FFF7A8
:10347000F3FB2420C4F88400206800684008400062
:1034800021680860200000F020F8012801D1012007
:103490001AE0A06A002802D0200000F0D6FA2068C6
:1034A000406830F49040216848602068806830F0BF
:1034B0002A00216888602068006850F001002168B7
:1034C0000860200000F02EFB10BD2DE9F84F86B0FB
:1034D00004000026DFF8781720688842FFD0A26831
:1034E0002069024360690243E0690243206803687F
:1034F000DFF86007034013432068036020684368D7
:1035000033F44053E068034320684360D4F81880E4
:103510002068884202D0206A50EA08082068826841
:10352000DFF83407024058EA02022068826020680F
:10353000C26A12091201606A02432068C2622068EE
:10354000DFF8182790421FD1DFF81407006810F049
:10355000380000280AD008280AD010280AD01828D5
:103560000AD020280AD028280AD00BE0012724E11D
:10357000042722E1082720E110271EE120271CE173
:1035800040271AE1802718E12068DFF8D82690420A
:103590001DD1DFF8CC06006810F00700002808D025
:1035A00002280AD007D304280BD008D305280AD054
:1035B0000BE0002701E10427FFE00827FDE01027CA
:1035C000FBE02027F9E04027F7E08027F5E02068BE
:1035D000DFF8942690421DD1DFF88406006810F0D1
:1035E0000700002808D002280AD007D304280BD0EF
:1035F00008D305280AD00BE00027DEE00427DCE032
:103600000827DAE01027D8E02027D6E04027D4E0CA
:103610008027D2E02068DFF8542690421DD1DFF8E1
:103620004006006810F00700002808D002280AD0E1
:1036300007D304280BD008D305280AD00BE00027B5
:10364000BBE00427B9E00827B7E01027B5E0202742
:10365000B3E04027B1E08027AFE02068DFF8102614
:1036600090421DD1DFF8F805006810F0070000282F
:1036700008D002280AD007D304280BD008D3052885
:103680000AD00BE0002798E0042796E0082794E092
:10369000102792E0202790E040278EE080278CE0E2
:1036A0002068DFF8D02590421FD1DFF8B40500680C
:1036B00010F0380000280AD008280AD010280AD0B4
:1036C00018280AD020280AD028280AD00BE0012781
:1036D00073E0042771E008276FE010276DE02027D2
:1036E0006BE0402769E0802767E02068DFF88825E5
:1036F00090421DD1DFF86805006810F0070000282F
:1037000008D002280AD007D304280BD008D30528F4
:103710000AD00BE0002750E004274EE008274CE0D9
:1037200010274AE0202748E0402746E0802744E071
:103730002068DFF8482590421DD1DFF82405006895
:1037400010F00700002808D002280AD007D3042868
:103750000BD008D305280AD00BE000272DE0042762
:103760002BE0082729E0102727E0202725E0402725
:1037700023E0802721E0206888421DD1DFF8000582
:10378000006810F00700002808D002280AD007D3EC
:1037900004280BD008D305280AD00BE002270CE040
:1037A00004270AE0082708E0102706E0202704E0A5
:1037B000402702E0802700E08027206888426FD100
:1037C0003800C0B202280AD004280CD0082810D033
:1037D000102814D0202822D0402823D025E0FDF73F
:1037E000A1FA814625E003A8FDF7ACFADDF81090B8
:1037F0001FE06846FDF7BEFBDDF8049019E0DFF836
:1038000084040168890607D5DFF87C940068C0F35A
:10381000C10039FA00F901E0DFF86C9409E0DFF843
:103820006C9406E04FF4004903E05FF000090120CA
:103830000600B9F1000F00F0F980DFF85414606A57
:1038400031F81000B9FBF0F0824662680320424371
:10385000924505D362684FF480504243524502D2EC
:1038600001200600E2E0606A31F81000B9FBF0F2D6
:103870004FF48073606840080021E3FB0201626836
:10388000002300F077FC0500B5F5407F05D3B5F5C2
:10389000801F02D22068C560C8E001200600C5E094
:1038A000E069B0F5004F66D13800C0B200280CD0F6
:1038B00001280ED0042810D0082814D0102818D0C1
:1038C000202826D0402827D029E0FEF70EF8814690
:1038D00029E0FEF717F8814625E003A8FDF732FA44
:1038E000DDF810901FE06846FDF744FBDDF804901A
:1038F00019E0DFF890030168890607D5DFF888939F
:103900000068C0F3C10039FA00F901E0DFF87893EC
:1039100009E0DFF8789306E04FF4004903E05FF038
:10392000000901200600B9F1000F00F07F80DFF8E8
:103930006003616A30F81100B9FBF0F06168490872
:1039400011EB40016068B1FBF0F080B20500102D72
:103950000ED3B5F5803F0BD24FF6F0712940C5F379
:10396000420001438B46584680B22168C8605DE042
:10397000012006005AE03800C0B200280CD001280F
:103980000ED0042810D0082814D0102818D02028D1
:1039900026D0402827D029E0FDF7A7FF814629E05F
:1039A000FDF7B0FF814625E003A8FDF7CBF9DDF870
:1039B00010901FE06846FDF7DDFADDF8049019E08D
:1039C000DFF8C0020168890607D5DFF8BC920068FD
:1039D000C0F3C10039FA00F901E0DFF8AC9209E068
:1039E000DFF8A89206E04FF4004903E05FF0000919
:1039F00001200600B9F1000F18D0DFF89402616AC7
:103A000030F81100B9FBF0F0616810EB510061680B
:103A1000B0FBF1F080B20500102D05D3B5F5803F65
:103A200002D22068C56001E0012006000120A4F850
:103A30006A000120A4F86800002020670020606769
:103A40003000C0B207B0BDE8F08F90F82810C90769
:103A500007D501684A6832F40032C16A0A43016836
:103A60004A6090F82810890707D501684A6832F43F
:103A70008032016B0A4301684A6090F828104907B8
:103A800007D501684A6832F48022416B0A43016815
:103A90004A6090F82810090707D501684A6832F48F
:103AA0000042816B0A4301684A6090F82810C906F9
:103AB00007D501688A6832F48052C16B0A430168F5
:103AC0008A6090F82810890607D501688A6832F460
:103AD0000052016C0A4301688A6090F82810490678
:103AE00013D501684A6832F48012416C0A430168B8
:103AF0004A60416CB1F5801F07D101684A6832F411
:103B0000C002816C0A4301684A6090F828100906D7
:103B100007D501684A6832F40022C16C0A43016883
:103B20004A60704738B504000020C4F88C00FDF7E7
:103B300067FC05002068006800070DD57FF07E4017
:103B400000902B0000225FF40011200000F023F809
:103B5000002801D003201DE02068006840070DD533
:103B60007FF07E4000902B0000225FF48001200057
:103B700000F011F8002801D003200BE02020C4F849
:103B800084002020C4F888000020E066002084F82B
:103B90008000002032BD2DE9F04105000E00904666
:103BA0001F00069C2868C0693040B04201D1012046
:103BB00000E000204146C9B2884246D114F1010F0D
:103BC000F0D0FDF71DFCC01B844201D3002C16D1A0
:103BD0002868006830F4D070296808602868806818
:103BE00040084000296888602020C5F88400202013
:103BF000C5F88800002085F88000032026E02868AA
:103C000000684007CED52868C0690005CAD54FF4C2
:103C10000060296808622868006830F4D07029685C
:103C20000860286880684008400029688860202073
:103C3000C5F884002020C5F888002020C5F88C0035
:103C4000002085F88000032000E00020BDE8F0811E
:103C5000000C0058F369FFCFFFF4FF110010014082
:103C6000544402580044004000480040004C0040CA
:103C7000005000400014014000780040007C0040EB
:103C800058440258004402580090D00300093D00F7
:103C9000345F0090010091F88000012801D10220DA
:103CA0001AE0012081F880002420C1F8840008680F
:103CB000026808680068400840000B68186032F02D
:103CC000005200204866086802602020C1F8840085
:103CD000002081F880000020704770B504000D00BE
:103CE00094F88000012801D1022020E0012084F80E
:103CF00080002420C4F884002068066820680068DA
:103D000040084000216808602068806820F060401A
:103D1000284321688860200000F035F8206806609C
:103D20002020C4F88400002084F88000002070BDAA
:103D300070B504000D0094F88000012801D1022024
:103D400020E0012084F880002420C4F8840020684A
:103D50000668206800684008400021680860206804
:103D6000806830F06060284321688860200000F09F
:103D70000AF8206806602020C4F88400002084F837
:103D80008000002070BDF0B4416E002906D10121F1
:103D9000A0F86A100121A0F868102DE010210A0097
:103DA00010210B0001688968490E11F007010C0011
:103DB00001688968490F0D00104E114F9C465FFA4B
:103DC0008CFC2900C9B2795C01FB0CFC2900C9B24A
:103DD000715C9CFBF1F1A0F86A1094465FFA8CFCD0
:103DE0002100C9B2795C01FB0CFC2100C9B2715CF5
:103DF0009CFBF1F1A0F86810F0BC7047E85F009000
:103E0000E05F009072B61448144A106014480168CC
:103E100041F0010101604FF0E0201249C0F8081D97
:103E200011481049096801604FF0E0200F494161D5
:103E30004FF0070101610021C0F8181D0C49C0F8BE
:103E40001C1D0C49C0F8201D704701B500F0AAFAEE
:103E5000BDE80140704700001C19002070190020C7
:103E6000001000E000000090741900208FD00300C3
:103E7000000000FF0000FF4080B500F0EFFA00F006
:103E800043FB002011490860002011490860002010
:103E90001049086000201049086000200F490860A0
:103EA00000200F49086000200E49086000200E49DC
:103EB000086000200D49086000200D4908600020BE
:103EC0000C49086000200C49086001BD4019002021
:103ED00044190020481900204C19002050190020D6
:103EE000541900206019002064190020681900206E
:103EF0006C190020581900205C19002018B587B0F3
:103F00000400B420069001200590002004900220B7
:103F10000390022002904FF40060019055480090F9
:103F200000230FF269025449544800F069FBB420A1
:103F3000069001200590002004901E2003901E2072
:103F400002904FF4806001904D48009000230FF2E2
:103F500089024C494C4800F053FBB42006900120E4
:103F60000590002004901F2003901F2002904FF422
:103F7000806001904548009000230FF2C902444937
:103F8000444800F03DFB08B010BD000010B504002F
:103F900000F00EF8FEF7B3F800F0FAFB00F05EF860
:103FA00000F05DF800F0F8FB012000F0F7FBF9E706
:103FB00038B5394C00202070022000F0EFFB374D5F
:103FC00000202860642000F0E9FB2868344908607C
:103FD0000120207031BD000070B504002E4800782B
:103FE000002803D1C82000F0D9FBF7E72C4D286842
:103FF0006421B0FBF1F028602868002802D129482C
:1040000000210160254E2968642041433160264823
:10401000316801600021316090ED000AB8EE400A7D
:10402000D5ED000AF8EE600A80EE200ADFED100AF6
:1040300030EEC00A1B4880ED000A642000F0AEFBA1
:10404000E5E70000EFF3108272B61100134A13681F
:104050005B1C13600A0082F31088F3E7704780B599
:10406000342300221149124800F0E6FB01BD000094
:104070000000C84218000020845F0090181400203F
:10408000180C0020945F0090801500201808002074
:10409000A45F0090CC140020D81900203019002013
:1040A00038190020341900203C190020B45F00901A
:1040B000C41800204FF000002A4A1060EFF314806B
:1040C00020F0040080F3148862B64FF080504FF067
:1040D000E021C1F8040DBFF34F8FBFF36F8FFEE7F0
:1040E0002148224A4FF00003016891B10360EFF3C9
:1040F000098C2CE9F00F1EF0100F01D12CED108A65
:104100001B4C4CF804ED2568C1F808C00DB18D6159
:10411000236072B61168B1B1016062B64F68144C89
:104120008D6907F101074F602560D1F808C05CF880
:1041300004EB1EF0100F01D1BCEC108ABCE8F00FAC
:104140008CF30988704772B61168016009B962B6CC
:10415000F9E74FF000674FF0E028C8F8047D62B639
:10416000DCE7704794190020781900207C190020A2
:10417000D4190020BBBBE1B1B2F5803F80F07E8056
:10418000022A1ED98C46B1FBF2F102FB11C31B04BB
:1041900043EA1043B3FBF2FC02FB1C3380B240EA5B
:1041A0000343B3FBF2F002FB103240EA0C40002361
:1041B0007047022A05D98446B0FBF2F002FB10C218
:1041C00070474AB105D100F0010249085FEA3000AA
:1041D000704700220023704700F0A4BB0B000200D0
:1041E000002100207047904271EB030CF6D3B3F529
:1041F000803F2FD2F0B5B3FA83F7B1FA81F4A7F17B
:104200000F0E3D1B5340CEF1200602FA0EF2F34191
:104210005340B5F10F0746D80F3C2C444140C4F140
:104220002006A040F1414140B1FBF3F603FB16111B
:10423000A2FB0645001BA94102D2761E80185941F7
:1042400080EA010221FA0EF362FA0EF200215A40CE
:104250003046F0BD30B4B1FBF3FC03FB1C11A2FBF4
:104260000C45001BA94103D2ACF1010C8018594147
:1042700030BC02460B46604600217047B2F1807F99
:1042800065D3F0B5B2FA82F7B1FA81F4C7F10F063F
:104290003D1B22FA06F307F1110EF24120355A4078
:1042A000B5F10F07B8D94140C4F12006A040F14153
:1042B0004140B1FBF3FC03FB1C11A2FB0C45001BAE
:1042C000A94103D2BCF1010C801859410F2F12D320
:1042D0000F3FC90341EA5041B1FBF3F603FB16114E
:1042E000A2FB0645D4EBC030A94102D2761E80184D
:1042F000594146EACC3C07B34140C7F12006B840DB
:10430000F1414140B1FBF3F603FB1611A2FB064558
:10431000001BA94102D2761E8018594180EA010291
:1043200021FA0EF3C7F1200462FA0EF20CFA07F03C
:104330005A402CFA04F13043F0BD80EA010221FA20
:104340000EF3002162FA0EF260465A40F0BD8C4630
:10435000B1FBF2F102FB11C31B0243EA1063B3FB92
:10436000F2FC02FB1C331B024CEA002043EA106300
:10437000B3FBF2FC02FB1C331B024CEA002043EAB5
:104380001063B3FBF2FC02FB1C331B024CEA00205F
:1043900043EA1063B3FBF2FC02FB1C324CEA002040
:1043A000002370472149086800F101000860204B94
:1043B0001A683AB1A2F101021A601AB91D4B4FF006
:1043C000010018601C490868026822B11B4B4FF0BD
:1043D00001021A6008E000F10400194B1A689042CB
:1043E00001D1184B18680860124B1A6812B91349AA
:1043F0000868C0B101B51149086808B100F094FA25
:104400000C4B1A686AB100F0A3FA0F48016841B971
:104410000E4801680E4A13680E480F4A994200D0B0
:104420000260BDE80140BFF34F8F7047A419002020
:10443000D4190020A8190020B4190020B8190020B0
:10444000B0190020AC190020941900207819002020
:104450007C19002004ED00E0000000102DE9F04779
:1044600000201D49086000201C4908600424002524
:104470001B4E2A0021003000FEF766FC04260027B0
:10448000DFF860803A0031004046FEF75DFC2020F6
:10449000154908605FF080085FF00009DFF84CA064
:1044A0004A4641465046FEF74FFC0020104908603E
:1044B00000201049086000200F49086000200F49C3
:1044C000086000200E4908600E48016851F08871AC
:1044D0000160BDE8F08700BF781900207C1900203A
:1044E000881900208C1900209019002078170020CE
:1044F00080190020841900209419002098190020A8
:10450000A01900209C1900202DE9F84386B0002056
:1045100028490860002028490860002027490860D1
:1045200000202749086000202649086080250026D1
:10453000254FB846320029004046FEF705FC2348C7
:10454000076023480760234817F17C010160016878
:10455000091D0160204F21483860DFF884804FF446
:104560008060C8F80000DFF87C900020C9F80000E7
:104570000020059000200490D9F800000390D9F89D
:1045800000000290D8F80000019038680090164BA7
:10459000164A1749174800F097FA0400002CE7D193
:1045A00000201549086000201449086007B0BDE8E4
:1045B000F08300BFA4190020D4190020A8190020FE
:1045C000B8190020C4190020F8170020AC190020E9
:1045D000B4190020B0190020C819002018100020BC
:1045E000CC190020D01900204D495441A55A009003
:1045F0004C5F009034160020BC190020C019002028
:104600002DE9FE4F8AB00600169C179FDDF86080EA
:104610000025002E02D10E20050095E01C98B4283C
:1046200002D00E2005008FE0EFF3108072B60690E6
:1046300051480168491C0160069981F310880022E5
:1046400091464E4A1268924622003A44521E0992FE
:10465000099A079200229346494909688B4525D259
:10466000564501D101218946B9F1010F1ED0DAF872
:104670000C108C4207D3DAF810108C4203D20021C0
:104680000C00012189460799DAF80C20914208D3E1
:104690000799DAF81020914203D200210C00012181
:1046A0008946DAF888A01BF1010BD5E7EFF31081FA
:1046B00072B606910168491E016006980090009844
:1046C00080F3108800F0D4FA564502D10E20050080
:1046D0003AE0002C02D10320050035E00B980028B9
:1046E00002D1032005002FE0C82F02D205200500CB
:1046F0002AE0B8F1200F02D30F20050024E019981A
:10470000804502D2182005001EE01B98022802D323
:104710001020050018E01B480068089008981A4906
:10472000884201D113200500184A1068EFF3058173
:104730000843002808D01168EFF305800143B1F168
:10474000F03F01D213200500002D10D11B980590D9
:104750001A98049019980390CDF808800197009456
:104760000C9B0B9A0A99300000F0AEF90500280066
:104770000DB0BDE8F08F00BF941900208019002013
:104780008419002078190020341600200C00002025
:1047900080B500F0D5FA01BD70470000F8B50400FF
:1047A000EFF3108672B620480568002D04D1310061
:1047B00081F31088132036E01C480068EFF3058170
:1047C0000843002804D0310081F3108813202AE028
:1047D0001748854204D1310081F31088132022E06C
:1047E000002C04D1310081F3108800201BE0114916
:1047F0000868002804D0310081F31088132012E0EB
:10480000042028630120A8630020C5F88400EC641C
:104810000868401C0860370087F31088280000F003
:10482000A3FAD5F88400F2BD781900200C0000200E
:1048300034160020941900202DE9F24F82B00500B3
:1048400016001F000024002D02D11C20040036E0B9
:10485000342F02D01C20040031E0EFF3108872B630
:104860002A480168491C0160414681F31088284AA2
:104870001268914600229246264909688A4506D266
:104880004D4504D0D9F820901AF1010AF4E7EFF36E
:10489000108B72B60168491E0160CDF804B0019812
:1048A00080F3108800F0E4F94D4502D11C2004008B
:1048B00005E0012E03D0002E01D01F200400002CA3
:1048C00018D115480068009000981449884201D119
:1048D00013200400124A1068EFF3058108430028F2
:1048E00008D01168EFF305800143B1F1F03F01D228
:1048F00013200400002C05D132000299280000F09A
:10490000D3FB04002000BDE8FE8F00BF94190020F7
:10491000581900205C190020781900203416002056
:104920000C0000207047000038B5EFF3108472B619
:1049300005480168491C0160250085F3108803487B
:1049400000F0F2FB31BD00BF9419002034160020A6
:104950002DE9F04155480468EFF3108672B6002C3B
:1049600036D020685249884232D1A068D4F8A810C5
:10497000884202D2A068C4F8A800E0680068B0F1DC
:10498000EF3F0AD12069D0F80100B0F1EF3F04D128
:10499000D4F8A800E168884209D2350085F3108870
:1049A000200000F04BFDEFF3108072B60600D4F843
:1049B000A80050F8040CB0F1EF3F09D0350085F3A2
:1049C0001088200000F04CFDEFF3108072B6060056
:1049D000300080F310880025EFF3108772B60021B5
:1049E000344A1160002C1BD0206B002818D1E069DC
:1049F000A061A06930490860206AA04210D0E06A36
:104A0000E16B88420CD12D48216AE26A40F82210FD
:104A10002B492C4A126850F82200086008680500EB
:104A2000380080F31088002D3ED0EFF3108672B668
:104A3000002D36D028681E49884232D1A868D5F8A2
:104A4000A810884202D2A868C5F8A800E8680068E3
:104A5000B0F1EF3F0AD12869D0F80100B0F1EF3F83
:104A600004D1D5F8A800E968884209D2B04688F395
:104A70001088280000F0E2FCEFF3108072B6060008
:104A8000D5F8A80050F8040CB0F1EF3F09D0B046BB
:104A900088F31088280000F0E3FCEFF3108072B672
:104AA0000600300080F31088BDE8F08178190020FE
:104AB00044524854A8190020D41900207817002027
:104AC0007C190020901900202DE9FE4F86B00500CA
:104AD000DDF84C90159E169F5FF00008CDF80C9005
:104AE0005FF0EF0BDDF848A05A4603995046FEF7F9
:104AF0002BF95FEA99095FEA890ABAF1040A129868
:104B00000290DDF8089019F103095FEA99095FEA5C
:104B100089090298484501D0BAF1040ACDF84890B5
:104B2000B420049000200390AB46039A04995846A1
:104B3000FEF70AF90698A862079868640898A864BE
:104B40001298E860C5F814A01498E8621498C5F8A3
:104B50009400AF61EF612020C5F89C00129850448A
:104B6000401E059005982861EE63C5F89860032003
:104B7000286337486865AD653649280000F0B8FC01
:104B8000A868C5F8A800EFF3108B72B63248286009
:104B900032490868002806D131480560C5F88850B8
:104BA000C5F88C5012E02E48006800900098D0F8AC
:104BB0008C0001900098C0F88C500198C0F8885083
:104BC0000198C5F88C000098C5F888000868401C5A
:104BD000086024480168491C01601799012920D107
:104BE00021480168EFF305800143B1F1F03F09D39B
:104BF0001E4800680400002C06D0E06B8046E06A86
:104C0000E06301E000200400CDF80CB0039880F3CD
:104C10001088280000F088FA002C15D0C4F83C80D9
:104C200012E0CDF810B0049981F31088EFF31081F1
:104C300072B68B460168491E0160CDF80CB003982E
:104C400080F3108800F014F8002009B0BDE8F08F60
:104C5000115E0090315D0090445248548419002048
:104C600080190020941900200C0000207C190020DD
:104C70002DE9F0412D480568002D55D12C480068DC
:104C800006002C4800680400A6424DD0EFF31087C0
:104C900072B6002C36D020682749884232D1A068ED
:104CA000D4F8A810884202D2A068C4F8A800E0682E
:104CB0000068B0F1EF3F0AD12069D0F80100B0F1EF
:104CC000EF3F04D1D4F8A800E168884209D2B84681
:104CD00088F31088200000F0B1FBEFF3108072B66B
:104CE0000700D4F8A80050F8040CB0F1EF3F09D049
:104CF000B84688F31088200000F0B2FBEFF3108074
:104D000072B607003A0082F310885FF080500B4BB8
:104D10001860EFF30580002806D1EFF31080010042
:104D200062B6080080F31088BDE8F0819419002075
:104D3000781900207C1900204452485404ED00E00A
:104D40000648016851F08071016000200449086044
:104D50000448016851F0010101607047FCED00E07A
:104D6000041000E0001000E02DE9F84F86B00400C8
:104D7000C348D0F80080EFF3108A72B6002C36D00A
:104D80002068C049884232D1A068D4F8A81088426F
:104D900002D2A068C4F8A800E0680068B0F1EF3F54
:104DA0000AD12069D0F80100B0F1EF3F04D1D4F866
:104DB000A800E168884209D2D14689F31088200012
:104DC00000F03CFBEFF3108072B68246D4F8A800E6
:104DD00050F8040CB0F1EF3F09D0D14689F31088A8
:104DE000200000F03DFBEFF3108072B68246504683
:104DF00080F31088EFF3108972B644450FD1E06C50
:104E000002900298002807D0029810F1010F03D0F9
:104E100014F14C0000F08EFBE0699B490860DFF85C
:104E20006CB2DBF80000401ECBF80000A06B01283C
:104E300040F0C2800020A063E06A0500206A0700FD
:104E4000A74217D0606A03900398786203980762BC
:104E50008F4850F82510A1424FD140F825708D4958
:104E60000868002849D00120A84006000868B0431F
:104E7000086042E00020864941F825005FF0010CFF
:104E80001CFA05F28449086890430860814B186851
:104E9000002805D01CFA05FC62461868904318608B
:104EA0000020019008680090009800281CD1202064
:104EB0007A49086000207A490860484680F31088E3
:104EC000DBF8001000290ED15FF08050754E306085
:104ED000EFF30580002806D1EFF31080030062B6DF
:104EE000180080F31088C8E0009890FAA0F0B0FA9B
:104EF00080F6019830186949086069490868844259
:104F00005AD1664A624B106853F820000860DFF8F7
:104F100084E1DEF80000002837D0DBF80000401CF8
:104F2000CBF80000484680F31088EFF3108C72B67F
:104F3000E146DBF800C0BCF1010CCBF800C05FF02B
:104F4000000ACDF804A0DEF800A0CDF800A0DDF83E
:104F500000C09CFAACFCBCFA8CFC6646DDF804C0D0
:104F600016EB0C0C6546126853F825C0DCF83CC003
:104F700062450AD353F8250008600120A8400600C6
:104F8000DEF80000B043CEF80000484680F31088F9
:104F9000DBF8001000290ED15FF08050414B186003
:104FA000EFF30580002806D1EFF31080020062B60F
:104FB000100080F3108860E0494681F3108838487B
:104FC0000268904559D000680400EFF3108A72B669
:104FD000002C3AD020682B49884236D1A068D4F8FA
:104FE000A810884202D2A068C4F8A800E06800684F
:104FF000B0F1EF3F0AD12069D0F80100B0F1EF3FE6
:1050000004D1D4F8A800E16888420BD2CDF814A0EE
:10501000059880F31088200000F010FAEFF310805C
:1050200072B68246D4F8A80050F8040CB0F1EF3FF5
:105030000BD0CDF814A0059880F31088200000F064
:105040000FFAEFF3108072B68246514681F3108852
:10505000DBF800000490049800280ED15FF0805027
:10506000104A1060EFF30580002806D1EFF310809E
:10507000010062B6080080F3108807B0BDE8F08F29
:105080007819002044524854D41900209419002063
:10509000781700208C190020881900209019002012
:1050A0007C19002004ED00E02DE9F84F04000D000C
:1050B00016005FF034095FF0000AA34652464946E5
:1050C0005846FDF741FE65602661EFF3108172B628
:1050D000104820601048114A1060114A10680028DA
:1050E00004D110480460246264620AE00D4800683C
:1050F0000700786A80467C62C8F82040C4F82480A3
:1051000027621068401C10600A0082F3108800209B
:10511000BDE8F28F4554554DBD5D009098190020B3
:105120005C190020581900202DE9F84F84B00400C4
:10513000EFF3108772B6002C36D02068B64988424B
:1051400032D1A068D4F8A810884202D2A068C4F86E
:10515000A800E0680068B0F1EF3F0AD12069D0F8FC
:105160000100B0F1EF3F04D1D4F8A800E168884213
:1051700009D2B94689F31088200000F05FF9EFF3F7
:10518000108072B60700D4F8A80050F8040CB0F1F3
:10519000EF3F09D0B94689F31088200000F060F98C
:1051A000EFF3108072B60700390081F31088EFF337
:1051B000108972B6606E002804D014F14C0000F023
:1051C000F5F901E00020E064DFF850A2DAF8000011
:1051D000401ECAF80000A06B002840F0A480206B9D
:1051E000002800F0B280606B002840F0978000201B
:1051F0002063E06A80468A4850F828100D00002D90
:1052000040F0838040F8284024626462012111FA52
:1052100008F00090834A13680098034313608248A3
:105220000268904580F09180C0F800807F4A106845
:105230000600002E01D1146087E0F06B804580F0FD
:105240008480F06BF36A984207D0F06A8140009145
:1052500077490B68009803430B601460484680F35D
:1052600010881768EFF3108B72B6002F36D03868AD
:105270006949884232D1B868D7F8A810884202D26A
:10528000B868C7F8A800F8680068B0F1EF3F0AD125
:105290003869D0F80100B0F1EF3F04D1D7F8A80089
:1052A000F968884209D25C4684F31088380000F01F
:1052B000C5F8EFF3108072B68346D7F8A80050F80F
:1052C000040CB0F1EF3F09D05C4684F3108838003D
:1052D00000F0C6F8EFF3108072B68346594681F3AA
:1052E0001088DAF8000000280ED15FF08051514B91
:1052F0001960EFF30581002906D1EFF310810A0050
:1053000062B6110081F3108882E0686A019001980A
:1053100004626C6201986062256216E0002060639E
:105320000320206311E0206B01280ED0206B02289F
:105330000BD0606B002804D10020A0630020206304
:1053400003E000206063032020633B480768494670
:1053500081F3108835480268974259D000680400EC
:10536000EFF3108B72B6002C3AD020682A4988429D
:1053700036D1A068D4F8A810884202D2A068C4F838
:10538000A800E0680068B0F1EF3F0AD12069D0F8CA
:105390000100B0F1EF3F04D1D4F8A800E1688842E1
:1053A0000BD2CDF80CB0039880F31088200000F0E9
:1053B00045F8EFF3108072B68346D4F8A80050F891
:1053C000040CB0F1EF3F0BD0CDF80CB0039880F394
:1053D0001088200000F044F8EFF3108072B6834686
:1053E000594681F31088DAF80000029002980028EC
:1053F0000ED15FF080500F4A1060EFF30580002857
:1054000006D1EFF31080010062B6080080F3108827
:1054100005B0BDE8F08F00BF4452485494190020F5
:105420007817002088190020901900207C1900208E
:105430008C19002004ED00E07819002038B5040034
:10544000EFF3108572B605490868002802D02000E5
:1054500009688847280080F3108831BDA019002012
:10546000F0B4EFF3108572B6002839D01F4E0768EC
:10547000B74235D1C7683900002931D0D0F8A870BB
:105480003A00002A2CD02F0087F31088571ABF103B
:105490007F083C0001EB84073B001F68B7F1EF3F3A
:1054A00001D01A0000E01900022CEFD21F68B7F1FA
:1054B000EF3F01D11B1DF9E7EFF3108772B63D00F6
:1054C0000768B7420CD1C6689E4209D2D0F8A860DE
:1054D000B34205D21E68B6F1EF3F01D0C0F8A83044
:1054E0002E0086F31088F0BC704700BF4452485429
:1054F000026922F00702A2F144020D4B13604FF043
:10550000000353609360D360136153619361D3616F
:10551000136253629362D362136353634FF0FF339A
:105520009363D1634FF0807313648260704700000F
:10553000FDFFFFFFF0B4016800292FD011F1010F2A
:105540002CD08269002A29D1212902D31F221700D9
:1055500001E04A1E1700124A126802EB870213008C
:10556000104AD2F800C0634508D312689A1A921004
:1055700016000D4A126802EB860213001A68002A10
:1055800003D100614061186007E01A681400626985
:10559000150028616061046145618361F0BC70475A
:1055A000B4190020B0190020AC19002010B4816992
:1055B000002914D004692200904205D10C6884426D
:1055C0000BD100240C6008E04469230053611A6188
:1055D0000C68844201D191610A600024846110BC8E
:1055E000704700002DE9F04F89B006005FF02009F8
:1055F000EFF3108A72B6B068002800F04181F068BD
:105600000500A44800680690F0680699884208D012
:10561000A1480068002804D1504680F310881E215C
:105620008946B9F1200F40F03081B068401EB0606B
:10563000B068002805D0504680F3108800218946C4
:1056400023E1002D05D1504680F3108800218946C2
:105650001BE1D5F8A000401EC5F8A000D5F8A000B9
:10566000002803D10020C5F8A4000DE0F06A040072
:10567000306B0090009820630098C462D5F8A400B5
:10568000B04201D1C5F8A440B069002809D1306901
:10569000002806D10020F060504680F310880021D9
:1056A0008946B9F1200F40F0F08000200290D5F833
:1056B000940007003069012829D177480168491C06
:1056C0000160514681F3108820229046D5F8A4202D
:1056D0001400002C0FD02169012904D1A16A414591
:1056E00001D2A16A8846E46AD5F8A4108C42F0D1B0
:1056F00000210C00EDE7EFF3108172B68A460168D5
:10570000491E0160C5F89C80B84500D24746F06943
:1057100002281AD33069012817D1DFF87CB1DBF8F1
:105720000000401CCBF80000CDF820A0089880F3C2
:105730001088300000F0B2F8EFF3108072B68246A5
:10574000DBF80000401ECBF80000B069002826D12D
:10575000DFF844B1DBF80000401CCBF800005046F5
:1057600080F310882021B162F168C96AB94203D080
:105770003900F06800F012F9EFF3108072B682463B
:10578000DBF80000401ECBF800000020F060D3469C
:105790008BF31088FFF76CFA0020814675E0B06942
:1057A00005003069012805D1F0680290E86A70614F
:1057B0002020B062D5F8A00005900598002804D1FB
:1057C000C5F8A460F66236630AE0D5F8A4000400C8
:1057D000206B009026630098C66200983063F462E4
:1057E0000598401CC5F8A0000120B060F560F06984
:1057F000401EF061F06907900798002802D1002050
:10580000B0610BE0286F01900198B061686F04905F
:105810000498019948670198049908670020A866D0
:105820000020C5F884001C480168491C01605046EE
:1058300080F31088316901291CD1F069002811D04A
:10584000300000F02BF8EFF3108072B68246B0699A
:1058500003900398002802D00398C06AB0625046B3
:1058600080F310880298C06AB84203D039000298C9
:1058700000F094F82800FFF757FC0020814604E070
:10588000504680F310881E218946484609B0BDE87D
:10589000F08F00BF78190020941900202DE9FE4FE9
:1058A0000600EFF3108572B6D6F81CB0BBF1020FFC
:1058B00003D2280080F310886AE0BBF1020F10D1F8
:1058C000B0698146D9F870008246DAF82C00D9F820
:1058D0002C10884201D2C6F818A0280080F3108846
:1058E00056E0B0698146C846D8F8700007002A48DB
:1058F0000168491C016000210C00F96AD8F82C20CD
:10590000914200D2B846290081F31088EFF310824B
:1059100072B61500B269914502D001210C0004E075
:10592000F1698B4501D001210C00002C01D13F6FA2
:1059300009E0B1698946F1698B46C846D8F870100C
:105940000F0000210C004F45D7D10168491E0160AE
:10595000C84517D0D8F870008246D8F87400CAF845
:105960007400C0F870A0D9F874100091C8F8709055
:105970000099C8F874100099C1F87080C9F8748053
:10598000C6F818800195019880F31088FFF770F928
:105990000020BDE8FE8F00BF941900202DE9FE4FC6
:1059A00004000D00EFF3108B72B6206B00280DD0B1
:1059B000E562D4F89800A84203D2D4F89800E063D6
:1059C00000E0E563584680F3108861E0DFF8C480AA
:1059D000D8F800000190E06A07002F480168891C90
:1059E00001600E2020630120A0630020E064DA46FD
:1059F0008AF310882000FFF7B7F9EFF3108972B629
:105A0000E562D4F89800A84203D2D4F89800E06385
:105A100000E0E563CA468AF310882000FFF784FBA4
:105A2000EFF3108B72B6D8F800000600B4422CD009
:105A3000206B002829D1F06AE16A88420BD30198D3
:105A4000844222D1C8F80040AF421ED21348E16A16
:105A500040F8214019E0E06BE16A884215D2F06A13
:105A6000E16B884208D3C8F80040AF420DD20B4822
:105A7000E16A40F8214008E00121E06A814000919C
:105A800007490A68009802430A60584680F3108864
:105A9000BDE8F78F7C1900209419002078170020AA
:105AA0008C1900202DE9F14F84B0002704984F494C
:105AB000884240F09780EFF3108172B64C4A10682C
:105AC000006800900098002802D06846009B98610A
:105AD0000020136818601068001D10601068454BA6
