:0200000490006A
:10000000A8EA0020E52D03909529039097290390F5
:10001000992903909B2903909D29039000000000DB
:100020000000000000000000000000009F29039075
:10003000A129039000000000D15A0090C7560090FB
:10004000D9300390DD300390E1300390E530039028
:10005000E9300390ED300390F1300390F5300390D8
:10006000F9300390FD300390013103900531039086
:10007000093103900D310390113103901531039034
:10008000193103901D3103902131039025310390E4
:10009000293103902D310390313103903531039094
:1000A000393103903D310390413103904531039044
:1000B000493103904D3103905131039055310390F4
:1000C000593103905D3103906131039065310390A4
:1000D000693103906D310390713103907531039054
:1000E000793103907D31039000000000813103904D
:1000F00085310390893103908D31039091310390C4
:1001000095310390993103909D310390A131039073
:10011000A5310390A9310390AD310390A329039039
:10012000B1310390B5310390B9310390BD310390E3
:10013000C1310390C5310390C9310390CD31039093
:1001400000000000000000000000000000000000AF
:10015000D1310390D5310390D9310390DD31039033
:10016000E1310390E5310390E9310390ED310390E3
:10017000F1310390F5310390F9310390FD31039093
:100180000132039005320390093203900D3203903F
:100190001132039015320390193203901D320390EF
:1001A0002132039025320390293203902D3203909F
:1001B0003132039035320390393203903D3203904F
:1001C0004132039045320390493203904D320390FF
:1001D0005132039055320390593203905D320390AF
:1001E0006132039065320390693203906D3203905F
:1001F0007132039075320390793203907D3203900F
:100200008132039085320390893203908D320390BE
:100210009132039095320390993203909D3203906E
:10022000A1320390A5320390A93203900000000090
:10023000AD320390B132039000000000B53203905C
:10024000B9320390BD320390C1320390C53203909E
:10025000C9320390CD320390D1320390D53203904E
:10026000D9320390DD320390E1320390E5320390FE
:10027000E9320390ED320390F13203900000000068
:10028000F5320390F9320390FD3203900000000034
:10029000000000000133039010B4002203E0436B20
:1002A00043F82210521CB2F5807F0ED211000023B9
:1002B000082BF4D2CC0701D4490804E00C00DFF885
:1002C000281D91EA54015B1CF2E710BC7047F0B4A2
:1002D000036884681C440D68002309E0466BE75CF2
:1002E0006F4007F0FF0756F8276096EA15255B1C5C
:1002F0009342F3D35FF0FF3045400D60F0BC704790
:1003000010B402688368D35C1B068268521C82604A
:1003100002688468125D53EA02438268521C82605C
:1003200002688468125D53EA02238268521C82606C
:1003300002688468125D13438268521C82600B60FD
:1003400010BC70478268531C836003689A5C0A7013
:100350008268531C836003689A5C4A708268531CED
:10036000836003689A5C8A708268531C83600068AB
:10037000805CC8707047FEB504000D001600D4F80C
:10038000EC0100903EE0A068421CA2602268125C72
:10039000DFF8583C1F68D2B2086882403A431A60BE
:1003A000086808300860A068009988422ADB02A922
:1003B0002000FFF7A5FFD4F8F001029988422CD164
:1003C00069462000FFF79CFF5FF0FF30C4F8F001A2
:1003D000009A121D14F5F8712000FFF778FF01A9AB
:1003E0002000FFF7AFFF0422DFF8041C01A801F092
:1003F0004DF9002806D10099A06841180091009895
:10040000C4F8EC01DFF8EC1B0868A84207D2A0682A
:1004100062689042B7DB102006E0102004E0DFF8AD
:10042000CC0B006830600020FEBD30B400230024F7
:100430000AE0057815F001050A1B521E95402B4372
:10044000026852080260641C8C42F2D3036030BC24
:100450007047DFF8981B0A68C2400A60DFF8941BF7
:100460000A68101A0860704710B50400D4F8EC014F
:10047000A1680D31884201DA19206CE014F11401F1
:100480002000FFF73DFF14F118012000FFF738FFAF
:100490006069B0F5804F01DB1E205CE0A069B0F51B
:1004A000804F01DB1F2056E0A068411CA16021683D
:1004B000085C2077207F012807D0022805D0042877
:1004C00003D0082801D0102812D1A068411CA160D7
:1004D0002168085C2062206A00280BD002280DD019
:1004E000032807D0042810D0062814D0102032E0AA
:1004F000242030E0207F84F8240011E0207F0321B5
:1005000010FB01F084F824000AE0207FC0B2400014
:1005100084F8240004E0207FC0B2800084F8240026
:10052000A068411CA1602168085CA062A068411C11
:10053000A1602168085CE062A06A002802D1E06A3C
:10054000002801D0102006E0A068411CA1602168AD
:10055000085C2063002010BD2DE9F84F05000E0057
:10056000170098465FF0000A5FF000095FF0010B8A
:1005700008E014EB090914EB0A04A2465FEA4A0AF0
:100580001BF1010BBBF1100F29D256F82B0006EB23
:100590008B0151F8044C041B002CEFD0DBF1200040
:1005A00017FA00F000900098DBF12001C84000909D
:1005B00059466846FFF739FF14EB0A00401E0099C0
:1005C0008842D6D30A99C8F800B0009810EB090900
:1005D000B9EB0A0A55F82A000860002000E009205B
:1005E000BDE8F28FF8B504000D00160007270AE0F9
:1005F000092028600098B0F58070306002E0009813
:10060000C82827D37F1C0A2F29D2D7F1200014FA3B
:1006100000F000900098D7F12001C8400090390008
:100620006846FFF702FF072F09D100981828E9D282
:1006300007202860009810F5807030600FE0082FC8
:10064000D6D10098C028DAD2082028600098303827
:10065000306004E0082028600098583030600020A6
:10066000F2BD78B5B7B004000D0024A8DFF88819F2
:100670004C2201F02FF84C21002211AE300001F085
:1006800091F800261CE00320FFF7E3FE009810F02D
:100690000700009011A824A951F82610009A40F8EC
:1006A0002120009800280AD0009804EB8000D0F8A0
:1006B0008C00401C009904EB8101C1F88C00761C71
:1006C000AE4208D26A4603212000FFF754FE0028FC
:1006D000D9D0102045E001210DE004EB8100D0F8D5
:1006E0008C2004EB8100D0F88800821804EB810094
:1006F000C0F88C20491C1029EFD340215FF0FF3255
:1007000001AD280001F04EF8002127E011AA52F8AF
:100710002100002821D001A852F8213050F82330C0
:1007200013F1010F09D152F8213052F8215004EB96
:100730008505D5F8885040F8235052F8213050F8FC
:10074000233004EB8303D96352F8213052F821207F
:1007500050F82220521C40F82320491C1329D5D3DD
:10076000002038B070BD2DE9F04395B005000E00B3
:1007700017005FF000084FF490610022D5F8D440D4
:10078000200001F00FF880210022D5F894412000CC
:1007900001F008F8002411E0D5F89401A11B029A99
:1007A00040F82120029805EB8000D0F89801401C09
:1007B000029905EB8101C1F89801641CB8198442C3
:1007C00080F0D18018F1010804AA10212800FFF759
:1007D000D2FD002801D010203EE102A8009003AB1A
:1007E000049A15F18C0115F13C00FFF7B5FE0028C5
:1007F00040F0B7800398FFF72CFE0298102812D221
:10080000B442C9D20298D5F8D41041F82400029815
:1008100005EB8000D0F8D800401C029905EB81015F
:10082000C1F8D800C9E70298102858D101AA0221BE
:100830002800FFF7A0FD0220FFF70BFE019810F043
:10084000030001900198C01C0190002C23D0601E71
:10085000B04222D2D5F8D40000EB840050F8040C4A
:100860000290B44221D2029805EB8000D0F8D81053
:1008700001984118029805EB8000C0F8D810019843
:10088000411E0191002899D00298D5F8D41041F862
:100890002400641CF3E70020DEE0D5F89401611E1B
:1008A000891B50F821000290DBE7029805EB8000DD
:1008B000D0F8981101984118029805EB8000C0F813
:1008C00098110198411E019100283FF477AFD5F8A7
:1008D0009401A11B029A40F82120641CF1E70298C0
:1008E00011280FD101AA03212800FFF744FD03209E
:1008F000FFF7AFFD019810F0070001900198C01CB0
:1009000001900EE001AA07212800FFF734FD07201F
:10091000FFF79FFD019810F07F00019001980B30C8
:100920000190B4420AD2019881000022D5F8D40087
:1009300000EB8409484600F035FF0FE00198810084
:100940000022D5F8940100EB84007FF0030303FB41
:1009500006F300EB0309484600F024FF0198041950
:100960002CE7102078E00020C5F8D8000020C5F85A
:10097000980102211AE005EB8100D0F8D82005EBA0
:100980008100D0F8D400821805EB8100C0F8D8208F
:1009900005EB8100D0F8982105EB8100D0F8940197
:1009A000821805EB8100C0F89821491C1129E2D377
:1009B00040215FF0FF3422000DF11408404600F0A2
:1009C000F1FE00211DE0D5F8D40050F821000028E8
:1009D00016D005AA52F8203013F1010F05D105EB0E
:1009E0008003D3F8D43042F82030D5F8D03052F814
:1009F00020C043F82C1052F820305B1C42F8203005
:100A0000491CB142DFD3402105AE2200300000F086
:100A1000C9FE00211DE0D5F8940150F821000028FE
:100A200016D005AA52F8203013F1010F05D105EBBD
:100A30008003D3F8943142F8203052F8203005EB8F
:100A40008303C3F81C1152F820305B1C42F820309D
:100A5000491CB942DFD3002015B0BDE8F0832DE971
:100A6000F04186B005000C001600002005904FF400
:100A70009670019005E02869411C29610199EA6896
:100A8000115404AA10212800FFF775FC00280CD18E
:100A9000002C0CD001A8009005AB049A15F1D801E8
:100AA000D5F8D000FFF758FD06E01020D8E001AAE5
:100AB00005A90498FFF796FD0598FFF7CAFC019871
:100AC000B0F5807F05D22869401C8642D3D2102021
:100AD000C6E00198B0F5807F08D0019840F2091176
:100AE000884205D20198FE38029035E00020B7E038
:100AF00040F21D100199814228D2019FA7F20917E7
:100B0000BF087F1C02AA39002800FFF734FC380018
:100B1000FFF79FFC0299D7F12000814002910298D3
:100B2000D7F12001C840029001200299BA1C10FAA6
:100B300002F210FA07F70198A0F2091010F0030072
:100B400000FB0727FF1C7F18029705E001998142EF
:100B50001DD14FF481700290002C1AD004AA1021EC
:100B60002800FFF708FC01A8009005AB049A15F5D2
:100B7000CC7115F58E70FFF7EFFC0598FFF769FC57
:100B80000198042816D20198401C03904EE01020D2
:100B900066E004AA05212800FFF7EDFB0520FFF71A
:100BA00058FC049810F01F000190052101A8FFF7E0
:100BB0003CFCE5E701981E2825D2019F3F1F7F08D6
:100BC0007F1C03AA39002800FFF7D5FB3800FFF788
:100BD00040FC0399D7F12000814003910398D7F19D
:100BE0002001C8400390012003997A1C10FA02F2F8
:100BF00010FA07F7019810F0010000FB07277F1C8F
:100C00007F18039712E000202AE03A00E86829697B
:100C10000844039949420144E8682B6900EB030842
:100C2000404600F047FD28693F182F6102980028D0
:100C30003FF427AF03980299884205D2039F029997
:100C40000398091A029102E0029F0020029028698D
:100C50000399884203D3286938188642D5D21020D8
:100C600006B0BDE8F08110B50400206A042802D067
:100C7000206A062801D1102057E0206A03280DD1F0
:100C8000D4F8EC11A068091AC4F8E811D4F8E80106
:100C900040F2011188420EDB222046E0D4F8EC112C
:100CA000A068091A4910C4F8E811D4F8E80104282A
:100CB00001DB222039E0D4F8E8018000DFF8A41934
:100CC00009688847C4F8E401D4F8E401002801D198
:100CD00030202AE0002123E0A068421CA2602268A4
:100CE000105CD4F8E42142F82100206A032816D0D1
:100CF000D4F8E40150F821000002D4F8E42142F8CD
:100D00002100A068421CA260D4F8E42152F82120FE
:100D10002368185C0243D4F8E40140F82120491C00
:100D2000D4F8E8018142D7DB002010BDF8B586B0C9
:100D3000050004AA08212800FFF71DFB002801D0A8
:100D400010204EE10820FFF784FB05AA08212800A7
:100D5000FFF711FB002801D0102042E10820FFF727
:100D600078FB049911F00F010220049AC2F30312D8
:100D7000083210FA02F2059810F02000002804D181
:100D8000B2F1011F01DA082901D0102029E1AE6972
:100D9000696995F824004143C91D082091FBF0F0D2
:100DA0004643A86986193000DFF8B81809688847F3
:100DB000E86000202861E868002801D1302010E1B7
:100DC0006A4608212800FFF7D6FA00285CD100986F
:100DD00010F0060F62D10320FFF73BFBDFF88848D5
:100DE000207810F00700FFF734FB2068002807D0B8
:100DF000A8682168B0EBD100A8602068FFF729FB44
:100E00006868A968091D884240DB2868A968445CB5
:100E1000A868401CA8602868A968405C54EA0024BF
:100E2000A868401CA8602868A968405CA968491C9B
:100E3000A9602968AA68895C50EA0120A968491C50
:100E4000A96000194FF6FF71884221D1002C00F0F3
:100E5000AA802869201886421CD36868A96861188E
:100E6000884219DB22002868A9680144E8682B69D8
:100E700000EB0307380000F01DFCA8682018A860EC
:100E8000286924182C618EE01020AAE01920A8E01F
:100E90001020A6E01020A4E01920A2E0009810F095
:100EA000060002280BD10320FFF7D3FA32000021FD
:100EB0002800FFF7D4FD002875D0102091E000989D
:100EC00010F00600042840F089800320FFF7C1FAE3
:100ED00003AA05212800FFF74EFA0520FFF7B9FA0B
:100EE000039810F01F0000F20110039002AA0521E0
:100EF0002800FFF740FA002866D10520FFF7A9FA7D
:100F0000029810F01F00401C029001AA0421280042
:100F1000FFF731FA002859D10420FFF79AFA019817
:100F200010F00F00001D01904421002215F18C04E7
:100F3000200000F037FC5021002215F13C04200075
:100F400000F030FC4421002215F1D804200000F00C
:100F500029FC4FF48F610022D5F8D040200000F02A
:100F600021FC4421002215F5CC74200000F01AFC6D
:100F70007821002215F58E74200000F013FC0199F1
:100F80002800FFF76EFB002822D1029A039928005F
:100F9000FFF7E9FB00281DD1320001212800FFF7EF
:100FA0005EFD002818D10098C0077FF509AFD5F87D
:100FB000EC01A860DFF8B0060068FFF74AFA28697C
:100FC00086420DD010200CE010200AE0102008E02E
:100FD000102006E0102004E0102002E0102000E0C5
:100FE000002007B0F0BD00002083B8ED58A9002014
:100FF000783003905CA90020600F039080B5D0F892
:10100000EC118268121D914201DA192004E010F1FE
:101010003801FFF775F9002002BD30B4D0F8EC219B
:101020008168521A032192FBF1F1C0F8E011D0F867
:10103000E01140F20112914201DB222021E0002167
:101040001AE08268531C836003689A5C83685C1CA6
:1010500084600468E35C8468651C856005682C5DB9
:10106000D2B2DBB21B0253EA0243E4B22343D0F80C
:10107000DC2142F82130491CD0F8E0219142E0DB2C
:10108000002030BC704770B40B00DBB253FA80F321
:101090001400E4B21C1B0300DBB2E31A002B03D5DF
:1010A0000500EDB22D1B02E00500EDB2651B0B0043
:1010B000DBB2E31A002B03D50E00F6B2361B02E0BA
:1010C0000E00F6B2A61B1300DBB2E31A002B03D509
:1010D0001300DBB21C1B02E01300DBB2E41AAE42C9
:1010E00003DBAC4201DBC0B206E0B44202DB080025
:1010F000C0B201E01000C0B270BC70472DE9F047EB
:10110000050095F824706E697E43F61DF610FF1DEC
:10111000FF10002420E01EE0E86819EB0801891B9D
:10112000C91B425CE86819EB0801891B415CE8684F
:1011300019EB0803DB1BC05CFFF7A5FFE96819EB9F
:101140000802895C4018E96819EB0802885419F113
:101150000109B145E0DB641CA869844280F2BF80CC
:10116000E86806FB044110F8019006FB04F8320021
:10117000E86840442044411CE86800EB080A5046F7
:1011800000F060FBB9F1000FC5D0B9F1020F19D022
:1011900004D3B9F1040F75D02AD39EE039000EE0D4
:1011A000E86811EB0802825CE86811EB0803DB1BBE
:1011B000C05C8218E86811EB0803C254491CB142B4
:1011C000EEDBC8E7002CC6D000210EE0E86811EB8A
:1011D0000802825CE86811EB08039B1BC05C821864
:1011E000E86811EB0803C254491CB142EEDBB2E7D8
:1011F000002C14D13800B04243DAE96810EB080241
:10120000895CEA6810EB0803DB1BD25CD2B211EBFD
:101210005201EA6810EB0803D154401CEBE70020B0
:1012200010E0E96810EB0802895CEA6810EB08033B
:101230009B1BD25CD2B211EB5201EA6810EB08039F
:10124000D154401CB842ECDB380018E0E96810EBE0
:101250000802895CEA6810EB0803DB1BD25CEB68D0
:1012600010EB080CBCEB060C13F80C309A1892B279
:1012700052085118EA6810EB0803D154401CB042E0
:10128000E4DB68E7002C13D13900B142BFF663AF4D
:10129000E86811EB0802825CE86811EB0803DB1BCD
:1012A000C05C8218E86811EB0803C254491CECE7E3
:1012B00000210EE0E86811EB0802825CE86811EB9F
:1012C00008039B1BC05C8218E86811EB0803C2543A
:1012D000491CB942EEDBB9463BE7102004E029691E
:1012E000A869091A29610020BDE8F0872DE9F84FA7
:1012F000ADF5007D0F00904600245FF000095FF01F
:10130000000A0025082F01D21920A6E183469BF888
:101310000000892840F0A0819BF80100502840F08F
:101320009B819BF802004E2840F096819BF80300B9
:10133000472840F091819BF804000D2840F08C81F3
:101340009BF805000A2840F087819BF806001A28C0
:1013500040F082819BF807000A2840F07D81C14857
:101360000068002801D1302077E14FF4FA710022A3
:1013700003AE300000F016FA41F27810B94909685E
:1013800088470600002E01D1302066E110961AF53C
:10139000807A06EB8A0037901AF58F7A06EB8A007E
:1013A00038901AF5907A06EB8A0068901AF1200AB4
:1013B00006EB8A007A90CDF80CB0049708200590CF
:1013C00003A8FEF769FF0020A84908600020A6498D
:1013D00008600598001D0499884273DA01A903A8E2
:1013E000FEF78EFF5FF0FF307F900499059A019819
:1013F0008218121D91421DDB019A121D7FA903A8BC
:10140000FEF765FF694603A8FEF79CFF0599019862
:1014100041187E9104229649684600F037F959EA4E
:101420000000002808D15FF0010903A8FFF77EFC47
:1014300004003CE0192445E004228E49684600F08F
:1014400025F9002804D103A8FFF70EF804002EE0C8
:1014500004228949684600F019F9002804D103A83C
:10146000FFF7CCFD040022E004228449684600F026
:101470000DF9002804D103A8FFF7CFFD040016E002
:1014800004227F49684600F001F9002804D103A82E
:10149000FFF7E9FB04000AE004227A49684600F0FD
:1014A000F5F8002848D00599019841180591002CBD
:1014B00044D102A903A8FEF723FF02987F9988422E
:1014C00087D01024002C02D1002D00D11024002C34
:1014D00003D103A8FFF712FE0400002C40F0A68001
:1014E0000698C8F804000798C8F808000898A8F8F3
:1014F00018000998A8F81A00102088F802007D98B2
:10150000002808D098F8020050F0040088F8020083
:101510007C98C8F814000B9802285ED003282AD0C3
:10152000042816D0062864D19DF82800082806D182
:10153000F82088F8030005E00125C3E7C2E7FA2098
:1015400088F8030098F8020050F0040088F80200C0
:101550006CE09DF82800082803D1F52088F80300E6
:1015600002E0F62088F8030098F8020050F004002A
:1015700088F802005AE09DF82800012804D00228CB
:1015800006D0042808D00BE0F02088F803000AE019
:10159000F12088F8030006E0F22088F8030002E05A
:1015A000F32088F803007B988000C8F81000D8F872
:1015B00010002C4909688847C8F80C00D8F80C00BE
:1015C000002801D1302048E0D8F810207A99D8F8C6
:1015D0000C50280000F06EF828E09DF8280008283C
:1015E00003D1F72088F8030002E0F92088F803000F
:1015F0001CE09DF82800022811D004280BD00828F0
:1016000005D010280FD1F42088F803000EE0F32055
:1016100088F803000AE0F22088F8030006E0F120D1
:1016200088F8030002E0F02088F80300002C0DD0B9
:101630000698002803D006981349096888477C98C3
:10164000002803D07C9810490968884730000E496B
:1016500009688847200000E010200DF5017DBDE8F5
:10166000F08F000090A900205CA9002058A900205C
:10167000783003908030039088300390903003904E
:1016800098300390A030039094A9002004E010F853
:10169000013B6BB1491C521E52B10B7890F800C04F
:1016A0009C45F4D002D24FF0FF30704701207047C4
:1016B0000020704762B38B0708D0521E11F8013B1F
:1016C00000F8013B00F024808B07F6D1830740F03F
:1016D000208000BF103A07D330B4B1E83810103A78
:1016E000A0E83810F9D230BC530724BFB1E8081085
:1016F000A0E8081044BF51F8043B40F8043BD2076F
:1017000024BF31F8022B20F8022B44BF0B78037062
:101710007047121F17D35B0009D151F8043B20F822
:10172000023B1B0C121F20F8023BF6D20BE051F8D3
:10173000043B00F8013B1B0A20F8023B1B0C121F64
:1017400000F8013BF3D238BF121D521E24BF11F81E
:10175000013B00F8013BF8D87047F0B40400521A7E
:10176000521CA06BB4F9485003FB05F300EB430097
:1017700000EB4103A568E0686669276900210CE079
:101780001F809B1C03E00542FAD01E809B1C400872
:10179000002801D15FF00040491C9142F3DBE0607A
:1017A000F0BC704762F30F2262F31F42401810F042
:1017B000030308D0C91A1FD3DB0748BF00F8012D67
:1017C00028BF20F8022D130030B4144615461039F6
:1017D00028BF20E93C00FAD8490728BF20E90C00BF
:1017E00048BF40F8042D890028BF20F8022D48BFCB
:1017F00000F8012D30BC7047C91818BF00F8012D42
:10180000CB0728BF00F8012D704730B4002513E046
:1018100050F8042BD30744BFA9F101039A18091FFC
:10182000042942F8045BFAD213468C0744BF1580A2
:101830009B1CC90748BF1D7050F8041B0029E7D145
:1018400030BC704781423ABF53189842FFF732BF0D
:101850008018990707D0521E24BF13F8011D00F805
:10186000011DF6D8704781071BD1103A07D330B459
:1018700033E93210103A20E93210F9D230BC10327C
:10188000121F24BF53F8041D40F8041DF8D838BFB8
:10189000121D521E24BF13F8011D00F8011DF8D8B7
:1018A0007047121FF3D3C10709D153F8041D121F4B
:1018B00020F8041D4FEA31414180F6D2E7E753F8A2
:1018C000041D121F00F8041D4FEA3121A0F8011079
:1018D0004FEA3141C170F2D2D9E7B1F5807F02D32E
:1018E0004FF0FF3070470170012070470078401EB4
:1018F0008041C043C00F70472DE9F041040000262D
:1019000000252068000130D5606E002809D0B0F5B0
:10191000801F0DD0B0F5001F10D0B0F5401F14D0BF
:1019200014E0DFF8F009016851F4003101600EE0C5
:101930000221201D00F026FF060008E0022114F11C
:10194000240000F0A6FF060001E000E001263000C0
:10195000C0B2002808D1DFF8C0190A6832F440127A
:10196000606E02430A6000E035002068C0052ED595
:10197000606D002806D0022811D00AD3042816D0A2
:1019800014D315E0DFF88C09016851F400310160CF
:101990000FE00021201D00F0F5FE060009E0002107
:1019A00014F1240000F075FF060002E001E000E001
:1019B00001263000C0B2002808D1DFF85C190A689F
:1019C000D208D200606D02430A6000E03500206852
:1019D000800531D5A06D002809D040280ED0802880
:1019E00012D0C02817D0B0F5807F15D015E0DFF8F1
:1019F0002409016851F4003101600FE00021201D2D
:101A000000F0C0FE060009E0002114F1240000F0FF
:101A100040FF060002E001E000E001263000C0B215
:101A2000002808D1DFF8F0180A6832F4E072A06DDF
:101A300002430A6000E035002068400536D5D4F83E
:101A4000A40000280CD0B0F5001F10D0B0F5800F16
:101A500013D0B0F5C00F17D0B0F5000F15D015E0BA
:101A6000DFF8B008016851F4003101600FE0002197
:101A7000201D00F087FE060009E0002114F124007B
:101A800000F007FF060002E001E000E00126300060
:101A9000C0B2002809D1DFF884180A6832F4600265
:101AA000D4F8A40002430A6000E035002068000575
:101AB00036D5D4F8A80000280CD0B0F1807F10D023
:101AC000B0F1007F13D0B0F1407F17D0B0F1806F3C
:101AD00015D015E0DFF83C08016851F400310160D1
:101AE0000FE00021201D00F04DFE060009E000215E
:101AF00014F1240000F0CDFE060002E001E000E059
:101B000001263000C0B2002809D1DFF810180A6899
:101B100032F0E062D4F8A80002430A6000E0350029
:101B20002068800127D5A06C002814D0102804D08C
:101B3000202809D030280DD00EE0DFF8D807016842
:101B400051F40031016008E00221201D00F01AFE6E
:101B5000060002E001E000E001263000C0B20028EB
:101B600008D1DFF8BC170A6832F03002A06C0243DB
:101B70000A6000E035002068C00434D5E06D00281C
:101B80000CD0B0F5805F10D0B0F5005F13D0B0F589
:101B9000405F17D0B0F5804F15D015E0DFF874071F
:101BA000016851F4003101600FE00021201D00F0B8
:101BB000E9FD060009E0002114F1240000F069FEAF
:101BC000060002E001E000E001263000C0B200287B
:101BD00008D1DFF844170A6832F4E042E06D0243AE
:101BE0000A6000E035002068800432D5206E0028AD
:101BF0000FD0B0F5803F0DD0B0F5003F10D0B0F55C
:101C0000403F14D0B0F5802F12D0B0F5A02F10D0E7
:101C100010E010E00121201D00F0B4FD06000AE0F4
:101C2000012114F1240000F034FE060003E002E07C
:101C300001E000E001263000C0B2002808D1DFF842
:101C4000D8160A6832F4E022206E02430A6000E0EF
:101C500035002068400434D5D4F8AC0000280FD0FB
:101C6000B0F1805F0DD0B0F1005F10D0B0F1405FF7
:101C700014D0B0F1804F12D0B0F1A04F10D010E0CE
:101C800010E00121201D00F07DFD06000AE0012189
:101C900014F1240000F0FDFD060003E002E001E085
:101CA00000E001263000C0B2002809D1DFF86C1630
:101CB0000A6832F0E042D4F8AC0002430A6000E067
:101CC00035002068000426D5E06E002813D0B0F15E
:101CD000805F03D0B0F1005F07D00DE0DFF834067D
:101CE000016851F40031016007E00121201D00F07E
:101CF00049FD060001E000E001263000C0B20028E6
:101D000008D1DFF814160A6832F04052E06E024340
:101D10000A6000E035002068C00126D5606C00280C
:101D200013D002280AD002D303280DD00EE0DFF82A
:101D3000E405016851F40031016008E00221201D32
:101D400000F020FD060002E001E000E00126300086
:101D5000C0B2002808D1DFF8C8150A6892089200BE
:101D6000606C02430A6000E03500206840026DD5D7
:101D7000DFF8B085D8F8000050F48070C8F8000093
:101D800000F020FE0700D8F80000C00505D400F0E0
:101D900019FEC01B6528F6D303263000C0B2002808
:101DA00053D1DFF88475386810F44070D4F8B0105F
:101DB00011F4407188420BD0386830F440703968B3
:101DC00051F480313960396831F4803139603860DC
:101DD000D4F8B000B0F5807F0ED100F0F3FD80465E
:101DE0003868800708D400F0EDFDB0EB080041F240
:101DF00089318842F4D303263000C0B2002822D1B2
:101E0000D4F8B00010F44070B0F5407F0DD1DFF889
:101E10001C05016831F47C51D4F8B020DFF810358E
:101E200013EA12131943016005E0DFF800050168A9
:101E300031F47C5101603868D4F8B0100905090DFF
:101E40000843386002E0350000E035002078C00724
:101E50002DD5A06F00280AD0082809D010280DD051
:101E6000182812D0202811D0282810D010E010E017
:101E70000121201D00F086FC06000AE0012114F17A
:101E8000240000F006FD060003E002E001E000E0AF
:101E900001263000C0B2002808D1DFF898140A6883
:101EA00032F03802A06F02430A6000E0350020786B
:101EB00080072BD5606F002808D002280DD006D3EC
:101EC000042812D010D3052810D010E010E0012112
:101ED000201D00F057FC06000AE0012114F1240047
:101EE00000F0D7FC060003E002E001E000E001267C
:101EF0003000C0B2002808D1DFF838140A68D208D0
:101F0000D200606F02430A6000E03500207840078D
:101F10002DD5D4F89000002808D002280DD006D383
:101F2000042812D010D3052810D010E010E00121B1
:101F3000201D00F027FC06000AE0012114F1240016
:101F400000F0A7FC060003E002E001E000E001264B
:101F50003000C0B2002809D1DFF8C0130A68D208E7
:101F6000D200D4F8900002430A6000E035002078E7
:101F7000800634D5D4F88C0000280FD0B0F1805FF3
:101F80000DD0B0F1005F10D0B0F1405F14D0B0F1CF
:101F9000804F12D0B0F1A04F10D010E010E000211F
:101FA000201D00F0EFFB06000AE0022114F12400DE
:101FB00000F06FFC060003E002E001E000E0012613
:101FC0003000C0B2002809D1DFF868130A6832F087
:101FD000E042D4F88C0002430A6000E0350020782B
:101FE000400634D5D4F8980000280FD0B0F5806FA3
:101FF0000DD0B0F5006F10D0B0F5406F14D0B0F533
:10200000805F12D0B0F5A05F10D010E010E000218A
:10201000201D00F0B7FB06000AE0022114F12400A5
:1020200000F037FC060003E002E001E000E00126DA
:102030003000C0B2002809D1DFF8E0120A6832F49B
:10204000E052D4F8980002430A6000E0350020789E
:10205000000634D5D4F89C0000280FD0B0F5005FFE
:102060000DD0B0F5804F10D0B0F5C04F14D0B0F502
:10207000004F12D0B0F5204F10D010E010E000213A
:10208000201D00F07FFB06000AE0022114F124006D
:1020900000F0FFFB060003E002E001E000E00126A3
:1020A0003000C0B2002809D1DFF870120A6832F49B
:1020B0006042D4F89C0002430A6000E035002078BA
:1020C000000715D5D4F88000B0F5805F07D1022154
:1020D00014F1240000F0DDFB002800D00125DFF81A
:1020E00054120A6832F44052D4F8800002430A6065
:1020F0002078C00615D5D4F89400B0F5807F07D1BC
:10210000022114F1240000F0C4FB002800D00125B6
:10211000DFF808120A6832F44072D4F894000243DF
:102120000A602068000328D5D4F8A000002806D053
:10213000B0F5803F09D0B0F5003F0DD00DE0002193
:10214000201D00F01FFB060008E0022114F124000E
:1021500000F09FFB060001E000E001263000C0B265
:10216000002809D1DFF8B4110A6832F44032D4F8FB
:10217000A00002430A6000E035002068400329D532
:10218000D4F88400B0F5801F06D0B0F5001F09D048
:10219000B0F5401F0DD00DE05E48016851F40031EC
:1021A000016008E0012114F1240000F072FB060038
:1021B00001E000E001263000C0B2002809D1DFF8BC
:1021C00074110A6832F44012D4F8840002430A60A1
:1021D00000E035002068C00320D5E06C002803D063
:1021E000B0F5803F06D00BE04A48016851F4003159
:1021F000016006E00221201D00F0C4FA060000E0A4
:1022000001263000C0B2002807D145490A6832F4DF
:102210008032E06C02430A6000E0350020688000F4
:1022200007D5022114F1240000F033FB002800D070
:1022300001252068800323D5E06F002811D0B0F578
:10224000807F06D0B0F5007F09D0B0F5407F07D081
:1022500008E03048016851F40031016003E002E019
:1022600001E000E001263000C0B2002807D131496A
:102270000A6832F44072E06F02430A6000E0350001
:102280002068C00206D524490A6822F00042206F67
:1022900002430A602068C00007D524490A6832F466
:1022A0008042D4F8B40002430A602068800206D558
:1022B00019490A6832F08072A06E02430A602068F1
:1022C000400009D51949086830F4004008600A68E0
:1022D000D4F8B80002430A602068002806D51049E7
:1022E0000A6832F04052206D02430A602068000202
:1022F00007D510490A6832F44002D4F88800024336
:102300000A60EDB2002D01D1002000E00120BDE8FF
:10231000F08100002C44025850440258584402589E
:102320004C44025800480258704402581044025865
:10233000CFFFFF005444025880B500F084FDDFF861
:102340006016DFF860261268C2F30212895C11F091
:102350001F01C84002BD000010B481490B6813F092
:1023600003030968C1F305317F4A1268C2F3001400
:10237000DFF834261268C2F3CC02544300EE104A50
:10238000B8EE400A002900F0DE80002B03D0022BBB
:1023900068D049D384E0DFF8E82313689B0625D58D
:1023A000DFF8D8331268C2F3C102D34000EE903A8E
:1023B000F8EE600A01EE101AB8EE411AC0EE810A7A
:1023C000DFF8E8150968C905C90D01EE101AB8EE65
:1023D000411ADFED611A80EE210A31EE000AB7EEF4
:1023E000001A30EE010A20EE800A1CE000EE901A7E
:1023F000F8EE600A9FED591AC1EE200ADFF8AC151D
:102400000968C905C90D01EE101AB8EE411ADFEDD1
:10241000521A80EE210A31EE000AB7EE001A30EEB1
:10242000010A20EE800A58E000EE901AF8EE600AE9
:102430009FED4C1AC1EE200ADFF870150968C90536
:10244000C90D01EE101AB8EE411ADFED431A80EE05
:10245000210A31EE000AB7EE001A30EE010A20EE32
:10246000800A3AE000EE901AF8EE600A9FEDBF1A7B
:10247000C1EE200ADFF834150968C905C90D01EE5F
:10248000101AB8EE411ADFED341A80EE210A31EE4F
:10249000000AB7EE001A30EE010A20EE800A1CE0B6
:1024A00000EE901AF8EE600A9FED2E1AC1EE200A97
:1024B000DFF8F8140968C905C90D01EE101AB8EE65
:1024C000411ADFED251A80EE210A31EE000AB7EE3F
:1024D000001A30EE010A20EE800ADFF8D0140A68F4
:1024E000C2F3462200EE902AF8EE600AB7EE001A18
:1024F00070EE810AC0EE200AFCEEE00AC0ED000A90
:102500000A68C2F3064200EE902AF8EE600AB7EEBF
:10251000001A70EE810AC0EE200AFCEEE00AC0ED5F
:10252000010A0968C1F3066100EE901AF8EE600A2C
:10253000B7EE001A70EE810A80EE200ABCEEC00AE7
:1025400080ED020A05E000210160002141600021C8
:10255000816010BC70470000000000460024744CED
:10256000284402580024744A2C44025810B4DFF85E
:1025700040140B6813F003030968C1F30551DFF839
:1025800034241268C2F30024DFF82C241268C2F34A
:10259000CC02544300EE104AB8EE400A002900F085
:1025A000DD80002B03D0022B67D048D383E0DFF817
:1025B000D02113689B0624D5704B1268C2F3C10268
:1025C000D34000EE903AF8EE600A01EE101AB8EE31
:1025D000411AC0EE810ADFF8E4130968C905C90D84
:1025E00001EE101AB8EE411ADFED611A80EE210AF1
:1025F00031EE000AB7EE001A30EE010A20EE800A32
:102600001CE000EE901AF8EE600A9FED5A1AC1EE37
:10261000200ADFF8A8130968C905C90D01EE101AD0
:10262000B8EE411ADFED521A80EE210A31EE000AAF
:10263000B7EE001A30EE010A20EE800A58E000EEF4
:10264000901AF8EE600A9FED4C1AC1EE200ADFF8EE
:102650006C130968C905C90D01EE101AB8EE411ACC
:10266000DFED431A80EE210A31EE000AB7EE001AC0
:1026700030EE010A20EE800A3AE000EE901AF8EE01
:10268000600A9FED3A1AC1EE200ADFF8301309689C
:10269000C905C90D01EE101AB8EE411ADFED341A62
:1026A00080EE210A31EE000AB7EE001A30EE010A80
:1026B00020EE800A1CE000EE901AF8EE600A9FED12
:1026C0002E1AC1EE200ADFF8F4120968C905C90DF7
:1026D00001EE101AB8EE411ADFED251A80EE210A3C
:1026E00031EE000AB7EE001A30EE010A20EE800A41
:1026F000DFF8C8120A68C2F3462200EE902AF8EE0C
:10270000600AB7EE001A70EE810AC0EE200AFCEEF5
:10271000E00AC0ED000A0A68C2F3064200EE902A01
:10272000F8EE600AB7EE001A70EE810AC0EE200AD9
:10273000FCEEE00AC0ED010A0968C1F3066100EE93
:10274000901AF8EE600AB7EE001A70EE810A80EE79
:10275000200ABCEEC00A80ED020A05E000210160FB
:10276000002141600021816010BC704720BCBE4B3D
:10277000000000460024744C0024744A0090D003EA
:10278000004402582DE9F84305000C000026DFF84C
:102790002082D8F8000010F00300032801D10120A6
:1027A00075E0874F386830F08060386000F00AF9D3
:1027B00081463868000107D500F004F9B0EB090044
:1027C0000328F6D3032062E0D8F8000030F47C3010
:1027D000296850EA0130C8F800006868401EC0054A
:1027E000C00DA968491E490211F47E410843E968F9
:1027F000491E090411F4FE0108432969491E09060E
:1028000011F0FE410843694908606A490A6832F0DC
:10281000C002686902430A600A6832F02002A869AF
:1028200002430A60086830F0100008605E480268E1
:102830006FF3CF02EB6952EAC3020260086850F0FE
:1028400010000860002C04D1086850F400200860D3
:102850000AE0012C04D1086850F48010086003E0FD
:10286000086850F400100860386850F080603860E4
:1028700000F0A8F804003868000106D400F0A2F8BF
:10288000001B0328F7D3032001E03000C0B2BDE8ED
:10289000F2832DE9F84305000C000026DFF81081D3
:1028A000D8F8000010F00300032801D1012075E0E2
:1028B000434F386830F08050386000F083F881462C
:1028C0003868800007D500F07DF8B0EB09000328D8
:1028D000F6D3032062E0D8F8000030F07C7029685D
:1028E00050EA0150C8F800006868401EC005C00DDD
:1028F000A968491E490211F47E410843E968491E4E
:10290000090411F4FE0108432969491E090611F062
:10291000FE4108432949086026490A6832F44062AA
:10292000686902430A600A6832F40072A8690243C7
:102930000A60086830F4807008601F4802686FF30E
:10294000CF02EB6952EAC3020260086850F480705B
:102950000860002C04D1086850F4800008600AE088
:10296000012C04D1086850F40000086003E00868F6
:1029700050F080700860386850F08050386000F087
:1029800021F804003868800006D400F01BF8001B12
:102990000328F7D3032001E03000C0B2BDE8F28382
:1029A000642D0390204402583C4402583844025895
:1029B000284402582C4402584444025840440258C7
:1029C0000044025801480068704700BFE8A9002091
:1029D0002DE9F04104000E00002C01D101203AE164
:1029E000DFF82C55286810F00F00B0420BD2286891
:1029F0000009000130432860286810F00F00B04241
:102A000001D0012027E1207840070DD5DFF81C1503
:102A1000086810F070002269904205D20A6832F00E
:102A20007002206902430A60207800070DD5DFF8A4
:102A30000015086810F070006269904205D20A68BB
:102A400032F07002606902430A602078C0060DD53A
:102A5000DFF8DC14086810F4E060A269904205D247
:102A60000A6832F4E062A06902430A6020788006B6
:102A70000DD5DFF8C014086810F07000E2699042CC
:102A800005D20A6832F07002E06902430A602078D9
:102A900080070DD5DFF89414086810F00F00E26885
:102AA000904205D20A6812091201E06802430A60E6
:102AB0002078C00748D5DFF874140A6832F47062D1
:102AC000A06802430A606068022806D1DFF8440467
:102AD000006880031CD40120BDE06068032806D193
:102AE000DFF830040068800112D40120B3E0606890
:102AF000012806D1DFF81C040068C00508D40120B5
:102B0000A9E0DFF810040068400701D40120A2E02A
:102B1000DFF804743968C908C90060680143396086
:102B2000FFF750FF8046386810F038006168B0EB5E
:102B3000C10F09D0FFF746FFB0EB080041F2893121
:102B40008842F0D3032086E0207880070DD5DFF897
:102B5000DC13E0680A6812F00F02904205D20A689E
:102B600012091201E06802430A60286810F00F00A1
:102B700086420BD22868000900013043286028688B
:102B800010F00F00B04201D0012064E0207840072F
:102B90000DD5DFF8981320690A6812F07002904290
:102BA00005D20A6832F07002206902430A60207878
:102BB00000070DD5DFF8781360690A6812F070021B
:102BC000904205D20A6832F07002606902430A60DE
:102BD0002078C0060DD5DFF85813A0690A6812F4F2
:102BE000E062904205D20A6832F4E062A0690243D2
:102BF0000A60207880060DD5DFF83813E0690A688E
:102C000012F07002904205D20A6832F07002E06958
:102C100002430A6000F022F8DFF82C23DFF80C13DF
:102C20000B68C3F30323D35C13F01F03D840096878
:102C300011F00F01515C11F01F010200CA40DFF8D2
:102C4000E4120A60DFF8D8120860DFF8DC020068DE
:102C500000F0A6FCC0B2BDE8F0810000DFF8B802C9
:102C6000006810F03800002806D0082813D010287B
:102C700014D0182815D0E4E0DFF898120868800610
:102C800006D5DFF898020968C1F3C101C84001E028
:102C9000DFF88802D6E0DFF8B402D3E0DFF8B00254
:102CA000D0E0DFF89402026812F003020068C0F37B
:102CB0000510DFF888120B6813F00103DFF88412A7
:102CC0000968C1F3CC014B4300EE103AB8EE400A5C
:102CD000002800F0B480002A03D0022A66D048D32E
:102CE00081E0DFF830120A68920625D5DFF82C2241
:102CF0000968C1F3C101CA4000EE902AF8EE600AEB
:102D000001EE100AB8EE411AC0EE810ADFF8300277
:102D10000068C005C00D01EE100AB8EE411ADFEDE3
:102D2000641A80EE210A31EE000AB7EE001A30EE86
:102D3000010A60EE800A1BE000EE900AF8EE600ADD
:102D40009FED5C1AC1EE200A7D480068C005C00DE9
:102D500001EE100AB8EE411ADFED551A80EE210A95
:102D600031EE000AB7EE001A30EE010A60EE800A7A
:102D700055E000EE900AF8EE600A9FED4F1AC1EEA2
:102D8000200A6F480068C005C00D01EE100AB8EEB9
:102D9000411ADFED471A80EE210A31EE000AB7EE44
:102DA000001A30EE010A60EE800A38E000EE900A68
:102DB000F8EE600A9FED411AC1EE200A60480068F3
:102DC000C005C00D01EE100AB8EE411ADFED381A49
:102DD00080EE210A31EE000AB7EE001A30EE010A49
:102DE00060EE800A1BE000EE900AF8EE600A9FEDAC
:102DF000321AC1EE200A52480068C005C00D01EE2B
:102E0000100AB8EE411ADFED2A1A80EE210A31EEDF
:102E1000000AB7EE001A30EE010A60EE800A484858
:102E20000068C0F34620401C00EE100AB8EE400ACD
:102E300080EE800ABCEEC00A10EE100A00E000200E
:102E400000E04248704780B5FFF708FF3E49374A27
:102E50001368C3F30323CB5C13F01F03D840314B3B
:102E6000126812F00F02895C11F01F010200CA40C3
:102E70001A602B490860186802BD80B5FFF7E3FFB0
:102E800031492B4A1268C2F30212895C11F01F010A
:102E9000C84002BD80B5FFF7D6FF2B49244A12680F
:102EA000C2F30222895C11F01F01C84002BD00007C
:102EB000000000460024744C0024744A20BCBE4B21
:102EC0003F220260144A126812F007024260174A59
:102ED000136813F470638360136813F00F03C36007
:102EE000126812F070020261114A136813F0700345
:102EF0004361126812F4E06282610E4A126812F0B5
:102F00007002C2610248006810F00F00086070474C
:102F10000020005200440258104402580090D00390
:102F2000CC0A0020D00A0020C80A00201844025809
:102F30001C44025820440258284402582C44025889
:102F40003044025834440258642D039000093D0077
:102F500040787D0170B50400002C01D1012005E30B
:102F60002078C0076CD5DFF80806006810F038003C
:102F7000DFF800160968102805D018280DD111F0C7
:102F80000301022909D1DFF8F0050068800357D555
:102F90006068002854D10120E8E26068B0F5803F05
:102FA00006D1DFF8D405016851F48031016026E0D4
:102FB000606800280AD1DFF8C005016831F480316B
:102FC0000160016831F48021016018E06068B0F5AB
:102FD000A02F0AD1DFF8A005016851F4802101601B
:102FE000016851F48031016009E0DFF88C05016867
:102FF00031F480310160016831F480210160606842
:1030000000280ED0FFF7DEFC0500DFF86C05006835
:10301000800315D4FFF7D6FC401B6528F5D30320A9
:10302000A4E2FFF7CFFC0500DFF84C050068800341
:1030300006D5FFF7C7FC401B6528F5D3032095E2B2
:10304000207880073DD5DFF82805006810F03800AB
:10305000DFF820150968002804D0182851D111F094
:10306000030F4ED1DFF810050068400704D5E06873
:10307000002801D1012079E200F012FB41F20401A5
:10308000884215D22069402808D1DFF8F004016891
:1030900031F47C3151F40031016012E0DFF8DC04DE
:1030A000016831F47C31226951EA0231016008E0A3
:1030B000DFF8C804016831F0FE41226951EA02617B
:1030C00001602078C00640F19280DFF8A404006817
:1030D00010F03800DFF89C140968082807D0182879
:1030E00040F09E8011F00301012940F09980DFF843
:1030F00088040068C00555D5E069802852D00120B9
:1031000034E2E06800283AD0DFF86C64316831F0CE
:103110001901E06801433160FFF754FC0500306895
:10312000400706D4FFF74EFC401B0328F7D30320CB
:103130001CE200F0B5FA41F20401884215D2206980
:10314000402808D1DFF83404016831F47C3151F4AF
:103150000031016012E0DFF82404016831F47C31B1
:10316000226951EA0231016008E0DFF810040168C9
:1031700031F0FE41226951EA02610160A1E7DFF806
:10318000F8633068400840003060FFF71BFC050022
:103190003068400795D5FFF715FC401B0328F7D38F
:1031A0000320E3E100F07CFA41F20401884215D2E9
:1031B000206A202808D1DFF8C403016831F0F84103
:1031C00051F08041016012E0DFF8B003016831F096
:1031D000F841226A51EA8261016008E0DFF8A00349
:1031E000016831F07C51226A51EA02610160207865
:1031F000000773D5606900285ED0DFF88863306807
:1032000050F001003060FFF7DDFB050030688007FB
:1032100064D4FFF7D7FB401B0328F7D30320A5E1B5
:10322000E069002836D0DFF85063306850F0800045
:103230003060FFF7C7FB05003068C00506D4FFF714
:10324000C1FB401B0328F7D303208FE100F028FACD
:1032500041F20401884214D2206A202808D1DFF804
:103260001C03016831F0F84151F08041016010E029
:10327000C248016831F0F841226A51EA8261016076
:1032800007E0BF48016831F07C51226A51EA0261CF
:103290000160ACE7B84E306830F080003060FFF776
:1032A00091FB05003068C005A1D5FFF78BFB401BE3
:1032B0000328F7D3032059E1B24E3068400840009C
:1032C0003060FFF77FFB05003068800706D5FFF709
:1032D00079FB401B0328F7D3032047E120788006C1
:1032E00026D5A069002811D0A34E306850F4805034
:1032F0003060FFF767FB05003068800418D4FFF7E3
:1033000061FB401B0328F7D303202FE19A4E30685E
:1033100030F480503060FFF755FB050030688004C2
:1033200006D5FFF74FFB401B0328F7D303201DE111
:103330002078400760D5944E306850F4807030603B
:10334000FFF740FB05003068C00506D4FFF73AFBE5
:10335000401B6528F7D3032008E1A068012805D1A8
:103360008A48016851F00101016022E0A06800284C
:1033700009D186480168490849000160016831F0B7
:103380000401016015E0A068052809D17F480168A3
:1033900051F004010160016851F00101016008E091
:1033A0007A480168490849000160016831F0040168
:1033B0000160A06800280FD0FFF704FB05007348E8
:1033C0000068800718D4FFF7FDFA401B41F28931ED
:1033D0008842F4D30320C9E0FFF7F4FA05006B48F4
:1033E0000068800708D5FFF7EDFA401B41F28931EC
:1033F0008842F4D30320B9E0606A002800F0B58069
:103400005B48006810F03800182800F08380606A7C
:1034100002286DD1584D286830F080702860FFF781
:10342000D1FA06002868800106D5FFF7CBFA801B89
:103430000328F7D3032099E04E490A685448024014
:10344000A06A0243E06A52EA00120A60206B401E42
:10345000C005C00D616B491E490211F47E4108434D
:10346000A16B491E090411F4FE010843E16B491EDA
:10347000090611F0FE4108434649086046490868BC
:10348000400840000860454802686FF3CF02A36C13
:1034900052EAC30202600A6832F00C02206C024356
:1034A0000A600A6832F00202606C02430A6008682F
:1034B00050F480300860086850F4003008600868F4
:1034C00050F480200860086850F001000860286807
:1034D00050F080702860FFF775FA040028688001BA
:1034E00043D4FFF76FFA001B0328F7D303203DE016
:1034F000214D286830F080702860FFF763FA0400DF
:103500002868800131D5FFF75DFA001B0328F7D347
:1035100003202BE0174800681E490968626A012AE7
:1035200021D010F00302A36A9A421CD1C0F3051007
:10353000E26A904217D1C805C00D226B521E90421C
:1035400011D1C1F34620626B521E90420BD1C1F3E0
:103550000640A26B521E904205D1C1F30660E16B9A
:10356000491E884201D0012000E0002070BD00BF4C
:103570001044025828440258004402580444025897
:103580000C440258744402580048025870440258CF
:103590000CFCFFFF304402582C44025834440258BB
:1035A00010B58AB00400102C1DD200222100372053
:1035B00000F0DAF8372000F0E7F81F4804601F48F1
:1035C000016851F020010160006810F020000090B7
:1035D000009801A902A8FFF773FC0798002804D1FE
:1035E000FFF74BFC04E001201BE0FFF746FC400026
:1035F0001349B0FBF1F0401E124C1349216040F218
:10360000E731E1606060002020610020A0602000C0
:1036100000F018F9002803D1200000F050F900E074
:1036200001200AB010BD07480168C96851F00101C6
:103630000068C16070470000C80A0020E8440258D2
:1036400040420F0024A700200014004080B5032052
:1036500000F086F8FFF702FBDFF85010DFF850208B
:103660001368C3F30323CB5C13F01F03D840126825
:1036700012F00F02895C11F01F010200CA40DFF84E
:1036800034100A60DFF8301008600F20FFF788FF61
:10369000002801D0012002E000F0B6FA002002BDAF
:1036A000DFF818000068000C70470000642D0390DC
:1036B00018440258D00A0020CC0A00200010005CF8
:1036C00010F00700554B1A684FF6FF010A405449A5
:1036D00051EA00210A431A60704750480068C0F35D
:1036E00002207047010009B2002908D4012210F01D
:1036F0001F018A404B4900B2400941F82020704721
:10370000020012B2002A04D40901474A00B211543F
:1037100007E00901454A00B210F00F00104400F81C
:10372000041C704710B410F00700D0F10703052BFC
:1037300001D3042301E0D0F10703041D072C01D2BB
:10374000002000E0C01E012414FA03F35B1E1940A0
:10375000814014FA00F0401E1040084310BC70472E
:1037600080B5FFF7ADFF01BD70B504000D00160078
:10377000FFF7B3FF32002900FFF7D4FF010020005C
:1037800000B2FFF7BDFF70BD80B500B2FFF7AAFF22
:1037900001BDBFF35F8F2648016831F480310160BD
:1037A000002024490860704750F00100214908605A
:1037B0001F48016851F480310160BFF34F8FBFF3A0
:1037C0006F8F704741781C4A1160017800291ED024
:1037D00041681A4A1160017BC27A120652EA0172EC
:1037E000817A52EAC142417B52EA8142817B52EAAC
:1037F0004142C17B52EA0142417A52EA0122017AF6
:1038000052EA4102007802430D48026005E00020C0
:103810000A49086000200A49086070470CED00E082
:103820000000FA0500E100E000E400E018ED00E02F
:1038300024ED00E094ED00E098ED00E09CED00E068
:10384000A0ED00E010B50400002C01D1012035E00E
:1038500094F83D00002805D1002084F83C002000A9
:1038600000F0C4F9022084F83D00211D206800F01A
:1038700049F9012084F84800012084F83E00012025
:1038800084F83F00012084F84000012084F84100C2
:10389000012084F84200012084F84300012084F8CC
:1038A0004400012084F84500012084F846000120EE
:1038B00084F84700012084F83D00002010BD90F8F6
:1038C0003D10012901D0012042E0022180F83D1085
:1038D0000168C96851F001010268D1600168DFF830
:1038E000742091421CD00168B1F1804F18D001685A
:1038F000DFF86420914213D00168DFF86020914224
:103900000ED00168DFF85820914209D00168DFF835
:103910005420914204D00168DFF84C20914210D12C
:1039200001688A68DFF844100A40062A0FD0B2F511
:10393000803F0CD00168096851F001010068016006
:1039400005E00168096851F001010068016000208C
:1039500070470000000001400004004000080040E3
:10396000000C004000040140001800400700010066
:1039700010B504002068006980071AD52068C06867
:10398000800716D57FF002002168086101202077AA
:103990002068806910F0030F03D0200000F044F984
:1039A00005E0200000F041F9200000F03FF9002080
:1039B00020772068006940071AD52068C068400752
:1039C00016D57FF004002168086102202077206866
:1039D000806910F4407F03D0200000F025F905E055
:1039E000200000F022F9200000F020F900202077CC
:1039F0002068006900071AD52068C068000716D53E
:103A00007FF0080021680861042020772068C069E1
:103A100010F0030F03D0200000F006F905E02000AD
:103A200000F003F9200000F001F900202077206861
:103A30000069C0061AD52068C068C00616D57FF098
:103A4000100021680861082020772068C06910F400
:103A5000407F03D0200000F0E7F805E0200000F0F0
:103A6000E4F8200000F0E2F80020207720680069E8
:103A7000C0070AD52068C068C00706D57FF00100DE
:103A800021680861200000F0EDF920680069000657
:103A90000AD52068C068000606D57FF0800021683E
:103AA0000861200000F0FAF920680069C0050AD515
:103AB0002068C068000606D57FF480702168086120
:103AC000200000F0ECF92068006940060AD5206863
:103AD000C068400606D57FF04000216808612000DC
:103AE00000F0DEF92068006980060AD52068C06809
:103AF000800606D57FF0200021680861200000F0D4
:103B0000D0F910BD10B40468DFF8C030984212D06C
:103B1000B0F1804F0FD0DFF8B82090420BD0DFF823
:103B2000B420904207D0DFF8B020904203D0DFF8F5
:103B3000AC20904203D134F070044A681443984298
:103B40001ED0B0F1804F1BD0DFF88420904217D0F8
:103B5000DFF88020904213D0DFF87C2090420FD015
:103B6000DFF8782090420BD0DFF87420904207D025
:103B7000DFF87020904203D0DFF86C20904203D130
:103B800034F44074CA68144334F080044A6914431E
:103B900004608A68C2620A68826298420FD0DFF8C5
:103BA0003C2090420BD0DFF83820904207D0DFF85D
:103BB0003420904203D0DFF83020904201D10969CF
:103BC00001630121416110BC704700000000014009
:103BD0000004004000080040000C004000040140C8
:103BE0000040014000440140004801407047080087
:103BF000000A10F478400A00520912F4FC621043E3
:103C0000C1F3C4010843704781B00648016851F010
:103C100002010160006810F002000090009801B0FD
:103C2000704700BFF444025870477047704782687D
:103C3000521C8260426832B10268531C03601170EA
:103C40004168491E4160704738B500F0B9F88949AC
:103C50000868800312D4BFF34F8FBFF36F8F00202B
:103C6000854A1060BFF34F8FBFF36F8F086850F421
:103C700000300860BFF34F8FBFF36F8F0868C00339
:103C800024D400207D4A1060BFF34F8F7C48026827
:103C9000C2F34E33C2F3C90443F6E07010EA431096
:103CA00050EA8470774D28602000441E0028F3D12C
:103CB0001800431E0028EDD1BFF34F8F086850F461
:103CC00080300860BFF34F8FBFF36F8FFFF7BEFCEC
:103CD00000F00BF800F0E6F800F08AF900F0BCFA0A
:103CE00000F048FB00F086FBFEE710B59CB04C21CD
:103CF000002209AC2000FDF755FD2021002201AC77
:103D00002000FDF74FFD022000F098FB00200090FE
:103D10005D48016851F440410160016811F440417F
:103D200000915A490A6852F001020A60096811F0CC
:103D300001010091009901688904FCD5544801688B
:103D40008908890051F002010160012009905FF4A7
:103D500080300A90022012900220139005201490C7
:103D6000C020159002201690022017900220189073
:103D70000820199000201A9000201B9009A8FFF736
:103D8000E9F8002801D000F087F83F2001900320D7
:103D900002900020039008200490402005904020CD
:103DA00006904FF48060079040200890042101A8FD
:103DB000FEF70EFE002801D000F06EF81CB010BD1A
:103DC0001FB5102100226C462000FDF7EBFCFFF729
:103DD000E0FC01208DF8000000208DF801005FF06C
:103DE0000050019010208DF8080000208DF8090087
:103DF00000208DF80A0003208DF80B0000208DF8BC
:103E00000C0000208DF80D0001208DF80E0001201F
:103E10008DF80F006846FFF7D5FC01208DF80100F2
:103E20005FF01050019012208DF808006846FFF7EF
:103E3000C9FC02208DF801005FF0405001906846F7
:103E4000FFF7C0FC03208DF801005FF06050019087
:103E50000F208DF808006846FFF7B4FC0420FFF738
:103E6000A3FC1FBD80B500680A49884201D100F05B
:103E700011FB01BD14ED00E050EF00E084ED00E027
:103E800080ED00E060EF00E0184802582C04005874
:103E9000284402580014004072B6FEE7704770478D
:103EA0007047704770B586B014220021684600F054
:103EB000FDFA4B48016851F010010160016811F0F2
:103EC000100105910599016851F004010160016834
:103ED00011F0040105910599016851F0800101601C
:103EE000016811F0800105910599016851F0010107
:103EF0000160016811F0010105910599016851F017
:103F000002010160016811F0020105910599016843
:103F100051F008010160006810F008000590059854
:103F2000304C01225421200000F0E0FB2E4D0122F4
:103F30008221280000F0DAFB2C4E01224FF40351BD
:103F4000300000F0D3FB00222021300000F0CEFB37
:103F50005420009001200190012002900220039043
:103F60006946200000F0ACFA082000900020019083
:103F7000012002906946200000F0A2FA2020009063
:103F800000200190002002906946200000F098FA7D
:103F900082200090012001900020029000200390D8
:103FA0006946280000F08CFA4FF400500090012080
:103FB000019000200290002003906946300000F03C
:103FC0007FFAE02000900120019000200290022062
:103FD00003906946300000F073FA06B070BD00BF70
:103FE000E044025800100258000002580004025831
:103FF00030B58DB034220021684600F057FA8D4C60
:104000008D482060002060600020A0600020E060FB
:1040100000202061032060610320A0612E20E06168
:104020000F2020624FF4B7706062FF25A5624FF445
:10403000BB70E06240F207102063002084F8340077
:10404000002084F83500002084F83600200000F0BD
:1040500073FB002801D0FFF71FFF002000904FF4F2
:10406000A070019000210291F0210391022104919E
:104070000595002106914FF4C06107910721089131
:104080005FF0105109910A90F0200B9000208DF8FC
:10409000300000208DF8310000208DF83200002221
:1040A0006946200000F0D0FB002801D0FFF7F4FEA5
:1040B0000DB030BD18B5B5B004001422002168461B
:1040C00000F0F4F9BC22002106A800F0EFF9206806
:1040D0005949884240F0AB805FF0005006900520BF
:1040E0000F903C201090022011900220129032205C
:1040F00013904FF40060149000201590002016904B
:1041000006A8FDF7F9FB002801D0FFF7C5FE4B48D4
:10411000016851F008010160006810F00800059086
:1041200005984748016851F004010160016811F0E9
:10413000040105910599016851F0010101600168D0
:1041400011F0010105910599016851F0020101602A
:10415000016811F0020105910599016851F0100103
:104160000160016811F0100105910599016851F095
:1041700008010160006810F0080005900598C12052
:1041800000900220019000200290032003900E2056
:10419000049069462B4800F093F9782000900220A3
:1041A000019000200290032003900E2004906946A5
:1041B000254800F085F9032000900220019000209E
:1041C00002900320039009200490204C69462000AF
:1041D00000F076F94FF47840009002200190002022
:1041E0000290032003900E2004906946184800F0C6
:1041F00067F94FF470600090022001900020029057
:10420000032003900E2004906946200000F058F926
:104210004FF4816000900220019000200290032062
:1042200003900E20049069460A4800F049F936B020
:1042300010BD0000BCA3002000100050E444025850
:10424000E0440258000802580000025800040258D6
:1042500000100258000C025810B5414C4148206033
:104260005FF4E13060600020A0600020E06000208A
:1042700020610C2060610020A0610020E06100202E
:104280002062002060620020A062200000F024FC78
:10429000002801D0FFF700FE0021200001F0A6F861
:1042A000002801D0FFF7F8FD0021200001F0C8F838
:1042B000002801D0FFF7F0FD200001F075F800287C
:1042C00001D0FFF7E9FD10BD18B5B5B00400142208
:1042D000002101A800F0EAF8BC22002106A800F0A5
:1042E000E5F820681F4988422DD102200690002061
:1042F000239006A8FDF700FB002801D0FFF7CCFDB6
:104300001948016851F400210160006810F4002090
:10431000009000981548016851F0010101600068A3
:1043200010F00100009000984FF4C050019002205E
:10433000029000200390002004900620059001A91F
:104340000B4800F0BDF836B010BD01B54FF47A73DC
:1043500001226946024800F0FEFB009802BD000001
:1043600064A40020004C0040E8440258E044025895
:104370000000025810B51C4C1C48206000206060F2
:104380000220A0600020E060002060640220A064A1
:104390000020E06400202065002060650020A0650A
:1043A0000020E065200001F0A9F8002801D0FFF707
:1043B00073FD0121200001F0E5F8002801D0FFF78E
:1043C0006BFD10BD81B000680849884209D10848DA
:1043D000016851F010010160006810F010000090B9
:1043E000009801B0704700006CA600200010005239
:1043F000D444025810B50E4C206810F10F3F0AD07B
:104400005FF0F030206001F03BF901F073F90948EA
:104410000168491C01605FF0F030206006480068C8
:1044200001F0AAF90020206001F03CFB10BD00BFA4
:10443000D40A002050AA00202CAA002010B5DFF8D2
:104440004C100A68520708D4096811F0070181422C
:1044500001D0012018E0002016E00A68D208D2003E
:1044600010430860FEF7AEFA0400DFF8240000688D
:10447000800408D4FEF7A6FA001B40F2E931884216
:10448000F3D3012000E0002010BD00000C480258CA
:104490000448025803480168034A127889180160E9
:1044A000704700BFE8A90020A00B002010B504460B
:1044B00010460A4601462046FDF774F9204610BD15
:1044C000F8B402000025DFF8384236E05FF00A0C4D
:1044D00005E0DFF830329A42F8D15FF0090C15F0B0
:1044E0000303DBB29B001CFA03FC5CEA07072B000A
:1044F0009B0846F82370236883434E68F60300D573
:1045000003432360636883434E68B60300D50343C7
:1045100063605FF0B046336883434F68FF0200D5A5
:1045200003433360DFF8E061336883434F68BF02C1
:1045300001D51843030033606D1C0868E84000286B
:1045400000F0C9800126086816FA05F31840002813
:10455000F2D04B68012B08D04B68022B05D04B687A
:10456000112B02D04B68122B1CD197685FF0030C03
:104570002B00DBB25B001CFA03FC37EA0C07D1F816
:104580000CC02B00DBB25B001CFA03FC5CEA0707E3
:1045900097605368AE40B3434E68C6F30016AE4012
:1045A00033435360D76803262B00DBB25B0016FA57
:1045B00003F39F43D1F808C02B00DBB25B001CFA69
:1045C00003FC5CEA0707D7604B68022B02D04B68FC
:1045D000122B1DD12B00DB0802EB83031F6A5FF057
:1045E0000F0C15F00703DBB29B001CFA03FC37EA43
:1045F0000C07D1F810C015F00703DBB29B001CFAC2
:1046000003FC5CEA07072B00DB0802EB83031F6255
:1046100017682B00DBB25B009E40B7430E7916F0A3
:1046200003062B00DBB25B009E40374317604B68EC
:10463000DB007FF581AF354B1E6856F002061E6029
:104640001B6813F002030093009B314E2B009B0864
:1046500056F823705FF00F0C15F00303DBB29B00DC
:104660001CFA03FC37EA0C072A4B9A4202D15FF08E
:10467000000C34E7284B9A4202D15FF0010C2EE780
:10468000264B9A4202D15FF0020C28E7244B9A4253
:1046900002D15FF0030C22E7224B9A4202D15FF075
:1046A000040C1CE7204B9A4202D15FF0050C16E780
:1046B0001E4B9A4202D15FF0060C10E71C4B9A4247
:1046C00002D15FF0070C0AE71A4B9A427FF401AF60
:1046D0005FF0080C03E7F1BC7047006989B208423B
:1046E00001D0012000E00020C0B27047D2B2002A01
:1046F00002D089B2816102E089B209048161704708
:10470000800000580024025804000058F444025865
:10471000080400580000025800040258000802581B
:10472000000C0258001002580014025800180258D9
:10473000001C02580020025810B50400002C01D1C2
:10474000012080E094F8A100002805D1002084F821
:10475000A0002000FFF7AEFC022084F8A100206832
:10476000806920F0704021688861206881696268F2
:10477000A0680243E06802432069024311432068B5
:104780008161DFF84C1320688068084022689060DF
:104790006269120420688368A06902431A43206892
:1047A00082602068C06808402268D060E269120414
:1047B0002068C368206A02431A432068C2602068E8
:1047C0000069084022681061626A12042068036967
:1047D000A06A02431A4320680261206840690140D0
:1047E00020684161E16A090420684269206B014345
:1047F00011432068416194F83510090294F836009D
:1048000000042268D26A12F07F422368DA622268CA
:10481000D26A014394F83400014311432068C16215
:104820002068406B50F0060021684863206880696A
:1048300050F00100216888610020C4F8A400012024
:1048400084F8A100002010BD70B504000D00160012
:1048500094F8A000012801D102201DE0012084F875
:10486000A000022084F8A100342000FB06F02044C0
:10487000383029003422FCF72DFF320029002000B7
:1048800000F00BF8012021684862012084F8A100A3
:10489000002084F8A000002070BDF0B403004C6834
:1048A0001868C068C0F30B40041924041D688020F8
:1048B00000FB025584351E68802000FB02668436AA
:1048C000706810F4704068601D68802000FB02551D
:1048D00084350E681868C068C0F30B408619761CD2
:1048E00034436C60CC681868C0684005400D0419FA
:1048F00024041D68802000FB025584351E6880203A
:1049000000FB02668436B06810F47040A8601D6831
:10491000802000FB0255843588681E68F66876059D
:10492000760D3018401C0443AC601C68802000FBEE
:10493000024484341D68802000FB025584352869B8
:10494000C008C00020611C68802000FB0244843441
:104950000869206191F83140240291F832502D0409
:104960008E6936061F68802000FB02778437B8699D
:104970001F68802000FB027784370020B8611F6821
:10498000802000FB0277843791F8300004432C43E9
:104990003443BC611C68802000FB024484341D68E1
:1049A000802000FB025584356869000A00026061BE
:1049B0001C68802000FB02448434486960611C68E4
:1049C000802000FB024484341D68802000FB0255D7
:1049D0008435ED693F480540E5611C68802000FB97
:1049E00002448434CD69086A0543E5611C6880206F
:1049F00000FB02448434A06A1C68802000FB02444F
:104A000084340020A0621C68802000FB02448434AF
:104A1000486AA0620869002801D1042413E00869EB
:104A2000012801D103240EE00869042808D0086990
:104A3000022805D00869032802D00869072801D197
:104A4000022400E001241D68802000FB025584350B
:104A50001E68802000FB02668436F06A10F0E020B9
:104A6000E8621D68802000FB025584358E6A66432B
:104A70004F6808683F1A04FB07F4E41D54EA064433
:104A8000EC621C68802000FB024484341D68802096
:104A900000FB02558435286BC00AC00220631C68E5
:104AA000802000FB02448434C86A20631968802097
:104AB00000FB02118431096851F001011B6880205C
:104AC00000FB023284321160F0BC7047000000002D
:104AD00000F800F0F8F8FFFF10B50400002C01D139
:104AE000012037E0A0690028FFD1D4F88400002815
:104AF00005D1002084F880002000FFF7E5FB24208A
:104B0000C4F88400206800684008400021680860FC
:104B1000200000F08BF8012801D101201AE0A06AE2
:104B2000002802D0200000F018FB2068406830F414
:104B30009040216848602068806830F02A00216831
:104B400088602068006850F001002168086020003B
:104B500000F070FB10BD2DE9FC4106000D001400B3
:104B60001F00D6F8840020285DD1002D03D020003E
:104B700080B2002801D1012056E096F8800001287B
:104B800001D1022050E0012086F880000020C6F804
:104B90008C002120C6F88400FDF714FF8046A6F89B
:104BA0005440A6F85640B068B0F5805F04D1306933
:104BB000002801D1002401E02C000025002086F807
:104BC000800011E0207831688862641C07E0002CC6
:104BD000F8D12888C005C00D31688862AD1CB6F8D0
:104BE0005600401EA6F85600B6F8560000280AD017
:104BF0000097434600228021300000F054FB00283B
:104C0000E5D0032010E00097434600224021300009
:104C100000F049FB002801D0032005E02020C6F861
:104C20008400002000E00220BDE8F68170B586B067
:104C300004000025DFF8281720688842FFD0A2680A
:104C40002069024360690243E06902432068036807
:104C5000DFF8100703401A432068026020684268AA
:104C600032F44052E068024320684260A269206842
:104C7000884201D0206A024320688368DFF8E80692
:104C800003401A43206882602068C26A1209120138
:104C9000606A02432068C2622068DFF8D026904232
:104CA0001FD1DFF8CC06006810F0380000280AD0C9
:104CB00008280AD010280AD018280AD020280AD09C
:104CC00028280AD00BE0012024E1042022E108205A
:104CD00020E110201EE120201CE140201AE180206C
:104CE00018E12068DFF88C2690421DD1DFF880069D
:104CF000006810F00700002808D002280AD007D367
:104D000004280BD008D305280AD00BE0002001E1CD
:104D10000420FFE00820FDE01020FBE02020F9E067
:104D20004020F7E08020F5E02068DFF84C26904234
:104D30001DD1DFF83C06006810F00700002808D0FD
:104D400002280AD007D304280BD008D305280AD09C
:104D50000BE00020DEE00420DCE00820DAE0102098
:104D6000D8E02020D6E04020D4E08020D2E02068A7
:104D7000DFF8082690421DD1DFF8F405006810F036
:104D80000700002808D002280AD007D304280BD037
:104D900008D305280AD00BE00020BBE00420B9E0CE
:104DA0000820B7E01020B5E02020B3E04020B1E0BB
:104DB0008020AFE02068DFF8C82590421DD1DFF8E1
:104DC000B005006810F00700002808D002280AD0BB
:104DD00007D304280BD008D305280AD00BE0002005
:104DE00098E0042096E0082094E0102092E0202033
:104DF00090E040208EE080208CE02068DFF8842561
:104E000090421FD1DFF86805006810F038000028D4
:104E10000AD008280AD010280AD018280AD020283A
:104E20000AD028280AD00BE0012073E0042071E0AA
:104E300008206FE010206DE020206BE0402069E04A
:104E4000802067E02068DFF8402590421DD1DFF820
:104E50002005006810F00700002808D002280AD0BA
:104E600007D304280BD008D305280AD00BE0002074
:104E700050E004204EE008204CE010204AE02020C2
:104E800048E0402046E0802044E02068DFF8FC2431
:104E900090421DD1DFF8D804006810F00700002808
:104EA00008D002280AD007D304280BD008D305283D
:104EB0000AD00BE000202DE004202BE0082029E0A0
:104EC000102027E0202025E0402023E0802021E062
:104ED000206888421DD1DFF8B804006810F0070090
:104EE000002808D002280AD007D304280BD008D302
:104EF00005280AD00BE002200CE004200AE008207C
:104F000008E0102006E0202004E0402002E080209D
:104F100000E0802022688A4263D1C0B202280AD011
:104F200004280BD008280ED0102811D020281ED01D
:104F300040281FD021E0FDF7FFF920E003A8FDF78E
:104F40000BFA04981BE06846FDF710FB019816E089
:104F5000DFF840140868800606D5DFF83C040968CD
:104F6000C1F3C101C84001E0DFF82C0407E0DFF81D
:104F70002C0404E04FF4004001E00020012500284B
:104F800000F0DC80DFF81834616A33F81110B0FBF0
:104F9000F1F2666803214E43B24205D366684FF4CE
:104FA00080514E43964201D20125C7E0616A33F831
:104FB0001110B0FBF1F24FF48073606840080021DB
:104FC000E3FB02016268002300F0CCFDB0F5407104
:104FD000DFF8D023914202D22168C860AEE00125FB
:104FE000ACE0E169B1F5004F57D1C0B200280CD058
:104FF00001280DD004280ED0082811D0102814D074
:10500000202821D0402822D024E0FDF736FF23E0DD
:10501000FDF740FF20E003A8FDF79EF904981BE090
:105020006846FDF7A3FA019816E0DFF868130868F0
:10503000800606D5DFF860030968C1F3C101C840E6
:1050400001E0DFF8540307E0DFF8500304E04FF419
:10505000004001E00020012500286FD0DFF8401358
:10506000626A31F81210B0FBF1F06168490811EB87
:1050700040016068B1FBF0F080B24FF6F071B0F122
:1050800010028A4207D20140C0F34200014389B2B4
:105090002068C16052E0012550E0C0B200280CD069
:1050A00001280DD004280ED0082811D0102814D0C3
:1050B000202821D0402822D024E0FDF7DEFE23E086
:1050C000FDF7E8FE20E003A8FDF746F904981BE091
:1050D0006846FDF74BFA019816E0DFF8B812086849
:1050E000800606D5DFF8B0020968C1F3C101C840E7
:1050F00001E0DFF8A40207E0DFF8A00204E04FF4CB
:10510000004001E000200125002817D0DFF89012B0
:10511000626A31F81210B0FBF1F0616810EB5100D7
:105120006168B0FBF1F080B2B0F110014FF6F0729F
:10513000914202D22168C86000E001250120A4F854
:105140006A000120A4F86800002020670020606742
:105150002800C0B206B070BD000090F82810C90742
:1051600007D501684A6832F40032C16A0A4301680F
:105170004A6090F82810890707D501684A6832F418
:105180008032016B0A4301684A6090F82810490791
:1051900007D501684A6832F48022416B0A430168EE
:1051A0004A6090F82810090707D501684A6832F468
:1051B0000042816B0A4301684A6090F82810C906D2
:1051C00007D501688A6832F48052C16B0A430168CE
:1051D0008A6090F82810890607D501688A6832F439
:1051E0000052016C0A4301688A6090F82810490651
:1051F00013D501684A6832F48012416C0A43016891
:105200004A60416CB1F5801F07D101684A6832F4E9
:10521000C002816C0A4301684A6090F828100906B0
:1052200007D501684A6832F40022C16C0A4300685D
:105230004260704738B504000020C4F88C00FDF7C8
:10524000C1FB05002068006800070DD57FF07E4097
:1052500000902B0000225FF40011200000F023F8E2
:10526000002801D003201DE02068006840070DD50C
:105270007FF07E4000902B0000225FF48001200030
:1052800000F011F8002801D003200BE02020C4F822
:1052900084002020C4F888000020E066002084F804
:1052A0008000002032BD2DE9F04105000E0090463F
:1052B0001F00069C2868C0693040B04201D101201F
:1052C00000E000204146C9B2884246D114F1010FE6
:1052D000F0D0FDF777FBC01B844201D3002C16D120
:1052E0002868006830F4D0702968086028688068F1
:1052F00040084000296888602020C5F884002020EC
:10530000C5F88800002085F88000032026E0286882
:1053100000684007CED52868C0690005CAD54FF49B
:105320000060296808622868006830F4D070296835
:10533000086028688068400840002968886020204C
:10534000C5F884002020C5F888002020C5F88C000E
:10535000002085F88000032000E00020BDE8F081F7
:10536000000C0058F369FFCFFFF4FF11001001405B
:10537000544402580044004000480040004C0040A3
:10538000005000400014014000780040007C0040C4
:1053900058440258004402580090D00300093D00D0
:1053A000282A039000FD0F0090F88010012901D1F8
:1053B00002201AE0012180F880102421C0F8841016
:1053C00001680968026812685208520003681A608E
:1053D00031F0005100224266026811602021C0F8BD
:1053E0008410002180F880100020704738B5040038
:1053F00094F88000012801D1022020E0012084F8E7
:1054000080002420C4F884002068056820680068B3
:1054100040084000226810602068806820F06040EA
:10542000014320688160200000F034F820680560A6
:105430002020C4F88400002084F88000002032BDC1
:1054400038B5040094F88000012801D1022020E042
:10545000012084F880002420C4F8840020680568B6
:10546000206800684008400022681060206880685A
:1054700030F06060014320688160200000F00AF88D
:10548000206805602020C4F88400002084F8800093
:10549000002032BDF0B4416E002906D10121A0F8F0
:1054A0006A100121A0F8681021E010221023016881
:1054B0008C68640E14F0070401688D686D0F0D4E42
:1054C0000D4FDBB22900C9B2795C4B43EDB2715D7F
:1054D00093FBF1F1A0F86A10D2B22100C9B2795C55
:1054E0004A43E4B2315D92FBF1F1A0F86810F0BCE0
:1054F00070470000C0300390B830039010B504002E
:10550000002C01D101203CE094F86100002805D175
:10551000002084F860002000FEF754FF022084F889
:10552000610020680168DFF84C01014060680143B8
:10553000E0690143206801602068416BDFF83801B1
:105540000140A0680143A0690143206841632068CD
:10555000016C090C0904E0680143206801642068BB
:10556000406B30F44010216950EA0150616950EA03
:1055700041502168486300206066012084F8610082
:10558000002010BD30B44268B2F5403F01D04268FF
:10559000002A012905D11C2202FB01F20244D26A31
:1055A0000B2A90F86020012A01D102205FE001223D
:1055B00080F86020022280F861201C2202FB01F2A8
:1055C000024428325368946853EA0443146953EA46
:1055D0000453546953EA4453284C55680A2D02D0A9
:1055E0005568092D04D1D56815F07F452B4302E09D
:1055F000D56853EA0563002915D10168496A31EA83
:1056000004041C4301684C62116803689961516885
:105610000A2902D05168092922D1D16821F07F419D
:10562000026891621CE051680B2904D1916953EA28
:10563000814354F440240168C96931EA04041C43DD
:105640000168CC6111680368196151680A2902D0A8
:105650005168092904D1D16821F07F4102681162A3
:10566000012180F86110002180F86010002030BC1A
:1056700070470000BFFFF8FFF8FEFFFF0F0033FF89
:1056800072B61448144A10601448016841F00101D0
:1056900001604FF0E0201249C0F8081D1148104980
:1056A000096801604FF0E0200F4941614FF00701A8
:1056B00001610021C0F8181D0C49C0F81C1D0C49DF
:1056C000C0F8201D704701B500F064FBBDE8014043
:1056D000704700000CA900202CAA0020001000E058
:1056E0000000009030AA0020FF520700000000FFD9
:1056F0000000FF4080B500F0A9FB00F0F1FB0020A6
:105700001149086000201149086000201049086014
:1057100000201049086000200F49086000200F4950
:10572000086000200E49086000200E490860002033
:105730000D49086000200D49086000200C490860F0
:1057400000200C49086001BDFCA9002000AA00202F
:1057500004AA002008AA00200CAA002010AA0020F9
:105760001CAA002020AA002024AA002028AA002089
:1057700014AA002018AA002000B587B0B420069013
:105780000120059000200490022003900220029046
:105790004FF480500190A248009000230FF2650260
:1057A000A049A14800F00CFCB4200690012005900F
:1057B000002004901E2003901E2002904FF4806071
:1057C00001909A48009000230FF2A5029849994849
:1057D00000F0F6FBB4200690012005900020049014
:1057E0001F2003901F2002904FF480600190924888
:1057F000009000230FF2E1029049914800F0E0FB95
:1058000007B000BD80B500F01FF8FDF70CFF00F0F9
:1058100085FC00F06BF800F0ACF800F085FC01208E
:1058200000F088FCF9E780B500F0C5F841F2883057
:1058300000F080FCF8E780B5142000F07BFCFBE76B
:1058400080B500F0BFFC01BD38B57E4C0020207053
:10585000022000F06FFC7C4D00202860642000F0E6
:1058600069FC2868794908600120207031BD00007A
:1058700038B502E0C82000F05DFC724800780028CE
:10588000F8D0724C20686421B0FBF1F020602068F1
:10589000002802D16E48002101606B4D2168642010
:1058A000414329606B48296801600021296090ED1F
:1058B000000AB8EE400AD4ED000AF8EE600A80EE65
:1058C000200ADFED550A30EEC00A614880ED000A7B
:1058D000642000F02FFCE5E7EFF3108072B65A4920
:1058E0000A68521C0A6080F31088F5E700B587B09B
:1058F000B42006900120059000200490032003901E
:10590000032002904FF480500190534800900023F0
:10591000524A5349534800F053FBB42006900120EB
:1059200005900020049004200390042002904FF47E
:10593000805001904C48009000234C4A4C494D48FF
:1059400000F03EFBB420069001200590002004905A
:1059500005200390052002904FF4805001904648A6
:1059600000900023454A4649464800F029FB07B00D
:1059700000BD80B5342300224349444800F04EFC6A
:1059800001BD0EB410B5B3B0020035ABC9216846F5
:1059900000F0AAFC3D4C5FF0FF31200000F0C2FC9B
:1059A00069461EA000F0FCFC200000F00DFD33B0A5
:1059B00010BC5DF810FB7CB51B4D2C00344E300044
:1059C000FFF7DFFF224890ED000AB7EEC00A53EC64
:1059D000102B3048FFF7D5FF3000FFF7D2FF2E48DD
:1059E000FFF7CFFF2D48FFF7CCFF002C12D0A06AA5
:1059F00001902169D4F8A800091A00912369A068D0
:105A00001B1A6269E16A2648FFF7BBFFD4F8884099
:105A1000AC42EAD173BD00000000C842257300000B
:105A2000A8340020742D0390D09E002058840020BC
:105A3000842D039054A2002058800020942D0390C0
:105A4000A0A10020A3AA0020ECA90020F4A9002016
:105A5000F0A90020F8A90020A844002027580090B1
:105A6000A42D0390849F0020A86400203758009044
:105A7000B42D0390ECA00020A854002041580090C1
:105A8000C42D039038A00020D42D039014A800202A
:105A9000241A039078290390600B0390E41E03906E
:105AA000042303904FF000002A4A1060EFF31480A3
:105AB00020F0040080F3148862B64FF080504FF05D
:105AC000E021C1F8040DBFF34F8FBFF36F8FFEE7E6
:105AD0002148224A4FF00003016891B10360EFF3BF
