:0200000490006A
:1000000040600120E107119011F7109013F7109054
:1000100015F7109017F7109019F7109000000000D6
:100020000000000000000000000000001BF710901E
:100030001DF7109000000000D5730E904B6F0E90CE
:10004000150B1190190B11901D0B1190210B119094
:10005000250B1190290B11902D0B1190310B119044
:10006000350B1190390B11903D0B1190410B1190F4
:10007000450B1190490B11904D0B1190510B1190A4
:10008000550B1190590B11905D0B1190610B119054
:10009000650B1190690B11906D0B1190710B119004
:1000A000750B1190790B11907D0B1190810B1190B4
:1000B000850B1190890B11908D0B1190910B119064
:1000C000950B1190990B11909D0B1190A10B119014
:1000D000A50B1190A90B1190AD0B1190638F0E9091
:1000E000B10B1190B50B119000000000B90B1190ED
:1000F000BD0B1190C10B1190C50B1190C90B119044
:10010000CD0B1190D10B1190D50B1190D90B1190F3
:10011000DD0B1190E10B1190E50B11901FF7109082
:10012000E90B1190ED0B1190F10B1190F50B119063
:10013000F90B1190FD0B1190010C1190050C119011
:1001400000000000000000000000000000000000AF
:10015000090C11900D0C1190110C1190150C1190AF
:10016000190C11901D0C1190210C1190250C11905F
:10017000290C11902D0C1190310C1190350C11900F
:10018000390C11903D0C1190410C1190450C1190BF
:10019000490C11904D0C1190510C1190550C11906F
:1001A000590C11905D0C1190610C1190650C11901F
:1001B000690C11906D0C1190710C1190750C1190CF
:1001C000790C11907D0C1190810C1190850C11907F
:1001D000890C119029F710908D0C1190910C1190B1
:1001E000950C1190990C11909D0C1190A10C1190EF
:1001F000A50C1190A90C1190AD0C1190B10C11909F
:10020000B50C1190B90C1190BD0C1190C10C11904E
:10021000C50C1190C90C1190CD0C1190D10C1190FE
:10022000D50C1190D90C1190DD0C1190000000003C
:1002300033F71090E10C119000000000E50C1190D4
:10024000E90C1190ED0C1190F10C1190F50C11903E
:10025000F90C1190FD0C1190010D1190050D1190EC
:10026000090D11900D0D1190110D1190150D11909A
:10027000190D11901D0D1190210D1190000000001D
:10028000250D1190290D11902D0D119000000000E9
:1002900000000000310D11907D007C007C006C009E
:1002A0006B006B006B005A00000048007C007BA9CB
:1002B0006A985977000860B300000B30E000000E28
:1002C00002C0001CDECDEC60005908600000960BF7
:1002D00030008CECCECC0000E03B000003B06900A5
:1002E0000006808600000038000006DEB3006D695D
:1002F0005800B8380000BA3800005FA8000004DDDC
:100300006000003CE90000384F2000381F30A65A3A
:100310009C004BEE9100003800000038000004CD36
:1003200080004C001D10C400C3005A0087079000D5
:100330005A00862D10001D32D2B5000004BB45B115
:10034000BDB100001D2A60890000970E003C00032B
:10035000D00E003C000C400B5088007A0002BD908B
:10036000001AED70000000AB13E5000000D500B7E7
:1003700007B0009A05E206C0001DED3007A002CAD2
:100380006DA00B600B9000BB2E101F30000DD8002D
:100390000E500009F4000AD524AC8D43008DED8089
:1003A00008EDC6B5A401D30A802E107A00B600D499
:1003B00000E300D400B60079002E100A7001D27A52
:1003C000000C5005C000E300B600980089009800BA
:1003D000B700E305D00C507A00004A000039004C09
:1003E0008B9902AE3003C6900740B00004A0000015
:1003F00004A0000004A0004FFFFFFA0005B00000B9
:1004000004A0000004A0000E402E005A009600EF49
:10041000FF1000000009300D50000005D000000A58
:100420007000001E2000007B000000D5000004E0EA
:1004300000000A8000001E2000006B000000C600C3
:100440000003E00000099000000E300000007DEA8B
:100450001006D42BC00D6002F32F2000D64F0000F1
:10046000C85E0000B85F0000C83F1000D60E500202
:10047000F208D32BA0008EE900001B3006EF308D70
:100480006F30101F30001F30001F30001F30001F62
:1004900030001F30001F30001F3002AED9100A722A
:1004A0003CB0010004F1000003F1000009C00000AD
:1004B0008E30001BD30001DA10000BA000001F6279
:1004C00022212FFFFFF701AED80008525E70000016
:1004D00009B0000009A000015E3000EFE600001244
:1004E0005D90000004F1000004F10B424DA006CE27
:1004F000C70000004F500000CF500007AE50002E44
:100500002E5000C70E5009B00E506D100E50DFFF78
:10051000FFFE11111E6100000E5000000E504FFF33
:10052000FA005D2221006B0000007A0000008A00C2
:1005300000009EED91002225DB0000004F1000001E
:100540004F102224DA00AEEC70000008DE6000CB11
:1005500032A006D000000C7000000F6BEC402FC4DE
:1005600028E22F6000D71F4000B80C7000D605E5C8
:1005700029D0006DEB203FFFFFF7022225E20000AB
:10058000099000002E2000009A000001E3000007FF
:10059000C000000C7000002F3000006E0000009BB7
:1005A0000000008DEA1008D42BB00C6003F00A6044
:1005B00003D002B21A4003CFFE500DB339E24F1000
:1005C00000D73F1000C60CA328E1019EEB30008D40
:1005D000E91009C33CA01F3003F24F0000E52F20B3
:1005E00001E60CB11AE602CFE8E5000101F20000D5
:1005F00007C009426E3003CEB3000D500930000031
:1006000000000000000009300D500D6009300000AE
:1006100000000000000009301E105B009600000082
:1006200018500029E9103AE81000FD3000003AE9BE
:1006300020000029E910000018504FFFFFFA0000C9
:100640000000000000004FFFFFFA00000000B400AF
:1006500000006DC50000005CD6000000AF60006DBA
:10066000D6006DC50000B400000007CEB2001A33FA
:10067000BC0000004E0000008B000005E200003EC0
:1006800030000098000000A80000000000000058A2
:100690000000007B00000004ADDDA4000000AB30D2
:1006A000003B900009A0000000B7003D005CD8A00E
:1006B0002E008804D209A00D20A50A6006900D2006
:1006C000B50B4009701E009709904BA197004C0193
:1006D000AD81BC70000B80000000000001BA400238
:1006E0008500000005ACDB5000000000EC000000BD
:1006F00005CE3000000B7A8000001E26D000007D61
:1007000001E40000C800BA0002F4007E0008FFFF08
:10071000FF600D93333CB04F300006F29C000000A8
:10072000E79FFEC5009B339E309B000E709B000E22
:10073000609B019C009FFFE5009B236E809B000750
:10074000E09B0007E09B336E809FFEC7000005BE64
:10075000EB30009E84488006E30000000D8000001E
:10076000003F300000004F200000003F300000003C
:100770001E700000000AD200000001CD7348800006
:1007800018DED9209FFED920009B335AE6009B003B
:10079000006E309B00000CA09B000008D09B000066
:1007A00007E09B000008D09B00000C909B00007E9F
:1007B000209B335AE5009FFED920009FFFFC009B41
:1007C0003332009B0000009B0000009B0000009F54
:1007D000FFF7009B3331009B0000009B0000009B53
:1007E0003333009FFFFF009FFFFC9B33329B0000D1
:1007F0009B00009B00009FFFF79B33319B00009BF9
:1008000000009B00009B00000004BEEC70009E8472
:1008100036C106E30000000D800000003F300000FC
:10082000004F2004FFF53F300033F50E700000F557
:1008300009D10000F501CD7347F50007CEDB609BC1
:1008400000000D709B00000D709B00000D709B0060
:10085000000D709B00000D709FFFFFFF709B3333F6
:100860003D709B00000D709B00000D709B00000D03
:10087000709B00000D709B9B9B9B9B9B9B9B9B9BE2
:100880009B001F40001F40001F40001F40001F40F2
:10089000001F40001F30002F20004E0064C900BE22
:1008A000A1009B0007E29B005E409B03E7009B1DAD
:1008B00090009BCB00009EF500009BAE20009B0C9F
:1008C000D1009B01DB009B003E909B0005F79B0045
:1008D000009B00009B00009B00009B00009B000011
:1008E0009B00009B00009B00009B33329FFFFE9FFC
:1008F0006000000AF49EC000001EE49BE300007B41
:10090000F49AA90000D5F49A4E1005D1F49A0C700F
:100910000B70F49A06D02E10F49A00E48900F49A31
:10092000009AE300F49A002FC000F49A000B6000D4
:10093000F49F500005F09FE10005F09BE90005F0F1
:100940009A6F4005F09A0BD005F09A02E805F09AEC
:10095000007E25F09A000CB5F09A0003EAF09A00A8
:10096000008FF09A00000DF00007CEEA300000BEC4
:10097000734AE50008E200009E100E8000001E6031
:100980003F4000000C904F2000000BA03F300000C3
:100990000C900E7000001E6009E100009E1001CD59
:1009A000634AE4000008DEDA20009FFEC6009B33A5
:1009B0008E609B000AC09B0007E09B0009C09B0162
:1009C0006E609FFFE7009B3200009B0000009B00D1
:1009D00000009B0000000007CEEA300000BE734A12
:1009E000E50008E200009E100E8000001E603F40FF
:1009F00000000C904F2000000BA03F3000000C9036
:100A00000E7000001E6009E100009E1001CD634AD7
:100A1000E4000008DEDDD500000000007EA19FFE9E
:100A2000D700009B336E70009B0009C0009B00093B
:100A3000B0009B005E50009FFFD400009B36E50095
:100A4000009B007E10009B000D90009B0005E300C2
:100A50009B0000BB00007CED700AD535B01E600025
:100A6000000E70000009E70000008ED50000029E15
:100A700090000006F3000001F51C634AE109DEDA8C
:100A800020AFFFFFFB233BB3320009A0000009A009
:100A9000000009A0000009A0000009A0000009A0B2
:100AA000000009A0000009A0000009A000B9000092
:100AB0002F30B900002F30B900002F30B900002FBF
:100AC00030B900002F30B900002F30B900002F30AE
:100AD000AA00003F107E10008D001EC548E60002EF
:100AE000AEEC5000AC000004F25F100009C00E60D4
:100AF000000D600AB0003E1004E1008B0000E5002C
:100B0000D500009A03E100004E08A000000D5D50E2
:100B1000000008BE00000003F90000AC00008E10C9
:100B2000007D005F1000CE4000B9001F5001EA8038
:100B300000E5000C9005B6C004F10008D00972F180
:100B400007C00004F10D30D50B800000E53E009990
:100B50000E400000A97B005D3E0000006DB7001F45
:100B60009B0000002EE3000DE70000000DE00009EF
:100B7000F300003F60001E7009D000AC0001E804E3
:100B8000F300007E2C9000000CDE10000006F9003F
:100B900000000DCE2000008D1DA00003E504F40030
:100BA0000CB000AD007E20002E709D00004E202F66
:100BB0004000B9000AA002E20003E209A00000B868
:100BC0001E3000004E7A0000000CE300000007D049
:100BD00000000007D000000007D000000007D00090
:100BE000004FFFFFFF30033333D900000007D1006F
:100BF00000002E50000000CA00000007E1000000C5
:100C00002E50000000BB00000006E20000001E9312
:100C10003333009FFFFFFF307EE47A007A007A00D2
:100C20007A007A007A007A007A007A007A007A00F4
:100C30007EE30D40000008A0000002E1000000A7D4
:100C40000000004D0000000D50000007B000000142
:100C5000E2000000980000003E0000000C60000070
:100C600005C08EF300E300E300E300E300E300E3EC
:100C700000E300E300E300E300E38EF300079000ED
:100C8000000DD30000796B0001E20C40089004D005
:100C90001E1000B6DDDDDD301C5001C304BED800DF
:100CA00007523E6000000A90018BDFA01D9319A03F
:100CB0004F000BA03F627EA007DE89A0C8000000A5
:100CC000C8000000C8000000C87DEA10CD824DA019
:100CD000CB0005F1C80002F3C80002F2CA0006E02A
:100CE000CE725E70C89ED700006CEC2007E62550DF
:100CF0000E6000003F2000003F1000001E5000006A
:100D000008E52550008DEB200000008B0000008BD3
:100D10000000008B008DE88B08D527DB0E5000BB50
:100D20003F20008B3F10009B1F5000CB0AD429EBC3
:100D300001AED88B007DEA2007C329C00E3001F335
:100D40003FFFFFF53F2111101E50000009D514A0F0
:100D5000009EEB30007DE103F52004F0009FFFB022
:100D600016F11004F00004F00004F00004F0000498
:100D7000F00004F000008DE99B08D528EB0E600020
:100D8000BB3F20008B4F10009B1F5000CB0AD42983
:100D9000DB01AED79A000000C80A6239E103BEEA5F
:100DA00020C8000000C8000000C8000000C87DD7AF
:100DB00000CD727F40CB000D70C8000B80C8000BC7
:100DC00080C8000B80C8000B80C8000B80B764008F
:100DD000C8C8C8C8C8C8C8C8000B70000640000012
:100DE00000000C80000C80000C80000C80000C8047
:100DF000000C80000C80000C70000D50127E005E14
:100E0000C300C8000000C8000000C8000000C800FF
:100E1000BC10C809D100C86E2000CCE40000CAE7AD
:100E20000000C84E6000C806E400C8009E30C8C874
:100E3000C8C8C8C8C8C8C8C8C8C88ED42BEC20CE7B
:100E400062AEC42CB0CA002F7005E0C8000F500479
:100E5000F1C8000F4004F1C8000F4004F1C8000FB2
:100E60004004F1C8000F4004F1C87DD700CD727F67
:100E700030CB000D70C8000B80C8000B80C8000B81
:100E800080C8000B80C8000B80007CED700008E576
:100E900025E7001E50006E004F10003F203F10005D
:100EA0003F201E50006E0008E525E600007DEC6046
:100EB00000C87DEA10CD824DA0CB0005F1C800022C
:100EC000F3C80002F2CA0006E0CE725E70C89ED877
:100ED00000C8000000C8000000C8000000008DEA43
:100EE0009B08D527FB1E5000BB3F20008B3F100006
:100EF0009B1F4000CB0AD429CB01AED58B0000004C
:100F00008B0000008B0000008B000000C89E30CDDD
:100F10008300CC0000C80000C80000C80000C80062
:100F200000C8000003BEC30E71462F40000AE8202F
:100F3000004BE500009C3722BA1AED9103C0000572
:100F4000E000AFFFC016E11005E00005E00005E09D
:100F50000005E00004F420009EB0E5000D60E5000F
:100F60000D60E5000D60E5000D60E5000D60C70057
:100F70001F609D42AE601AED4D60AA0004E15E0064
:100F800009A00E500E5009A04E0004E0990000D5B3
:100F9000E300008BC000003F7000AA002F5008B093
:100FA0006D006F900B701F20ABD00E200C60D3E152
:100FB0003D000892D0B5790004D68079A50000EBF9
:100FC000302CD00000AE000DB0006E200C900B90C5
:100FD0005D1003E3D500009EA000008EA00003E496
:100FE000E4000C807D007E100D80AB0003F24E10FB
:100FF00008B00D600D5007C04D0001E2A80000A828
:10100000E200004EB000000E5000005D000013D65C
:1010100000009E8000005FFFFF600111AC00000433
:10102000E200001D700000AB000005E200001E7130
:1010300011009FFFFF70005D3000E40002F000022D
:10104000F00002E00007C0004E400006C00002F0C1
:101050000002F00002F00000E400005D30A7A7A746
:10106000A7A7A7A7A7A7A7A7A7A7A7A77C2009A067
:1010700004C004C004C002E3009E02E104C004C036
:1010800004C008A07C200AEC616B5C14AED30000A5
:101090000000BFFFFFFFFFFFFC2333333333333246
:1010A0008FFFFFFFFFFFF80000001F30000000006F
:1010B000000F2000000000000F2000000000000FC3
:1010C0002000000000000F2000000000000F2000A2
:1010D000000000000F2000000000000F20000000B2
:1010E00000000F2000000003337F1000000009FF04
:1010F000E80000000000000000000000000E4000BA
:10110000000000000E4000000000000E4000000043
:1011100000000E4000012113467EBBCDEFE78DCBD2
:10112000AE9543200000000E4000000000000E407D
:1011300000000000000E400000A400000E4000006F
:10114000E400000D800004E1000006EFFFFE8000D7
:101150000000022221008FFFFFFFFFFFF800007B4D
:101160000000000000007A0000000000008900007C
:1011700000000000AFFFFFFE000000C600004D00B1
:101180000000E300005C000006D000005B00000CE3
:101190006000007A0000AB00000089000AD1002145
:1011A00002D6006A00009FFFB0000000000121008D
:1011B0000000000000C4000000000000C400009F08
:1011C000FFFFFFFFFFF900000000D40000003B001C
:1011D00000E20000000C6002E000000004D206C043
:1011E000000000007D2C600000000008ED00000001
:1011F00000004CDE920000038DD6029EB7416C8346
:101200000000016AD50BFFFFFFFFFFA00122222291
:10121000222210000000000000000000000000007A
:10122000000000000000000001FFFFFFFFFF1000B2
:101230002222222222000000000000000000000004
:10124000000000000000000000000000000000009E
:1012500000008FFFFFFFFFFFF9122222222222212E
:10126000000004E0000000000004E00000000000B6
:1012700004E0000000000004E0000000000004FFA3
:10128000FFFF80000004E1111100000004E00000F5
:1012900000000004E0000000000004E00000000086
:1012A0000004E0000000000004E00000009FFFFFD9
:1012B000FFFFFFF9011111111111109FFFFFFFFF37
:1012C000FFF9111115F1111111000003F0000000D8
:1012D000000003F1000000000003FCA1000000007A
:1012E00003F19E6000000003F004DB20000003F027
:1012F000000970000003F0000000000003F000008F
:1013000000000003F0000000000003F00000009F58
:10131000FFFFFFFFFFFA0116B1111B61100005B0BE
:10132000000B50000005B0000B50000005B0000B92
:1013300050000006A0000B5000000790000B50006A
:10134000000B60000B5000001E10000B500000A9A5
:1013500000000B500008C000000B50004A100000B5
:101360000B50007FFFFFFFFFFFF70000004F400022
:1013700000000000C9000000000006E100000000BD
:10138000002ED80000000001C698691000000B90E4
:101390009807D50000BA0098002CA12C8000980076
:1013A00000978600009800000000000098000000F0
:1013B00000000098000000000E2000000000001F48
:1013C0001000000000002FFFFFFFFFFA004D00009B
:1013D000000000005B0000000000006FFFFFFFFF47
:1013E000A00000000000089000000000000880BF7E
:1013F000FFFFFFFF596000000000000B50000000DD
:1014000000001E20000000BEDCE8000000001211F9
:1014100000006FFFFFFFFFFFF6000000B5000000B7
:1014200000F000B400000001E000BFFFFF3003D077
:1014300000B500000004B000B400000005FFFFFF8D
:10144000FFFF800000000000097000000000000A9B
:101450006000000000000B5000000002102E200071
:1014600000001FFFE900000000000100000CFFFF6A
:10147000FFFFFA0000004C0000790000005B000054
:101480008800000079000098000000880000A70094
:101490000BFFFFFFFFF6000000B50000C5000000D5
:1014A000C40000C4000000E20000D3000000F1000E
:1014B00000E2000002E00000F100AFFFFFFFFFFFCD
:1014C000FA00000000000000000007B00000000C5F
:1014D000FFFFFFFFFFD000006C000000000000C60F
:1014E000000000009FFFFFFFFFFFFB000B800000DC
:1014F0000000000FFFFFFFFF200000000002C800F7
:10150000000982002D700000005CA5D500000000DD
:10151000005CC30000000000005C200000DFFFFF53
:10152000FFFD0000D30000003D0000D20000003DA0
:101530000000DEEEEEEEED0000D20000003D000007
:10154000D20000003D0000D20000003D0000DEEEB1
:10155000EEEEED0000D20000003D0000D2000000E1
:101560003D0000D20000003D00CFFFFFFFFFFFFB6A
:10157000000000000000007FFFFFFFFFFFF70000FA
:10158000006D100000000001D300000000000BD827
:10159000000000000098986910000008A09807D586
:1015A00000009B0098002CA11B90009800008787EA
:1015B00000009800000000000098000000000000FB
:1015C000980000007FFFFFFFFFFFF7000000000012
:1015D0000000000002E000690000C302E0006900B2
:1015E00000C302E00069009FFFFFFFFFFFF900C496
:1015F00002E000690000C302E000690000C302E0ED
:1016000000690000C302FFFFF90000C302E00069A7
:101610000000C3000000000000C300000000000044
:10162000CFFFFFFFFFF400000000000000000013E8
:101630004579BD10006FECB9864200006A000000D9
:101640000000006A0000000000006A0000000000C6
:10165000006FFFFFFFFFE0006A00006A0000006A01
:1016600000005A0000006A00005A0000006A0000F2
:101670005A0000006A00005A00009FFFFFFFFFFFB2
:10168000F9000000000000009FFFFFFFFFFFF900CE
:101690000000780000000000007800000009FFFF53
:1016A000FFFFFF80097000B6000780097001EA00A3
:1016B000078009700B97C207800972BA005D278006
:1016C000097B600004A78009700000000780097092
:1016D0000000000A80097000006FFE30000000006A
:1016E00001100000005C00C5000000005C00C500A7
:1016F0000000005C00C500000C105C00C501C10BBF
:10170000605C00C506B005D05C00C50C5000E35C11
:1017100000C53D0000995C00C5A700004A5C00C5FB
:10172000C10000005C00C5000000005C00C50000B6
:10173000BFFFFFFFFFFFFB000000000000000004F0
:10174000B0002D00000004A0002D00000005A00046
:101750003D0000000690004E0000000870005F2071
:1017600000000BD2009D6000001E6D20D5C000005F
:101770007A0596B0C30001D2001D205C000A8001EA
:10178000C6000AB12A0008600000A48EEEEEEEEE5C
:10179000EEE90000B4000000000003E000000000DB
:1017A0008FFFFFFFFFFFF8002E20000000000098D1
:1017B000001F00000002E1001F00000006FFFFFF05
:1017C000FFFFE00000002F100000001B201F04801E
:1017D0000002D9001F01C6002D80004F001D408768
:1017E00000DFFA0003D2000011100000580007804B
:1017F00000077000000D40000D3000006B00007A03
:10180000000001E30951E207700A903D2B702E3071
:101810004EDDE46EDDE6000008900008A000005BED
:1018200000006C000006E78C26E78AD10AA7410970
:10183000A75300000000000000009EEEEEEEEEEE6A
:10184000E904EEEEEEEEEE000000000029B5000027
:1018500000002BB400000EEEE86E7005A00000C47E
:101860006AC4AA100005B0693E6000001D2069042A
:10187000D30000C60069004D701B7000890001A7ED
:101880007600CFE4000000000000000000009FFF91
:10189000FFFFFFFFF90000000000000000112456C8
:1018A00089BD8009EDCBDC76420000000088000095
:1018B000000AEEEEEEEEEEA0000000880000009EB2
:1018C000EEEEEEEEEEE900002E400000000000C853
:1018D000004A00000009C0000AA000009D223568EF
:1018E000EA0006FFECBA876C9000000000000220BE
:1018F0009FFFFFFFFFFFF900005900860000000076
:1019000069008600000CEEEEEEEEEEC00C207700D3
:101910009503C00C209600B303C00C20DD31E80312
:10192000C00C25B3B99A93C00C5D305D1098C00C03
:101930009600B30003C00C2000000005B00C20008E
:10194000000EFE60000000000000007FFFFFFFFFB0
:10195000FFF902B00F20C4076000B80F10C44E207A
:10196000002A0F10C4A50000000F10C4000007FFDC
:10197000FFFFFFFFF807A000000000000790000035
:10198000000000097000000000000D3000000000A1
:10199000004D000000000000740000000000000086
:1019A000000088000000000000880000003EEEEE0D
:1019B000EEEEEEE300B30088004B00005E308804DA
:1019C000E600000670880A50009EEEEEEEEEEEE9AC
:1019D000005B02D1002B50005B006C4AC500005B2D
:1019E0000017EA0000005C8CF23BC630007C8520CA
:1019F0000038C799999999999999999999999900BC
:101A00000000CC000000000007CC60000000004E89
:101A100023E300000004E4005D2000006E4099060E
:101A2000E5001AD20099004DA278000099000196B5
:101A30000000009900000000000099000000000074
:101A400000990000000000009900000000000099CB
:101A50000000000A5000000005A001C90000008D30
:101A600040000AC2002CA10000008800B60000005F
:101A70000000990000000000009900000000000034
:101A8000990000000000009900000000000099008B
:101A90000000000000990000000000009900000014
:101AA0000000009900000000000A700B300A700866
:101AB000D10A7000CA0A70002A0A7000000B700078
:101AC00002BF70008EBC704DE60A705A100A70009A
:101AD000000A7000000A7000000880000000000882
:101AE000800000CFFFFFFFFFFDC4000990003DC450
:101AF000000880003DC4000880003DC4000880004C
:101B00003DCFFFFFFFFFFDC4000990003D0000082E
:101B10008000000000088000000000088000000035
:101B2000000088000000000000880000003FFFFF68
:101B3000FFFFFFF3000000880000000000008800A5
:101B4000000005FFFFFFFFFF5000000088000000BD
:101B5000000000880000009FFFFFFFFFFFF900006A
:101B600000880000000000008800000000000088DD
:101B70000000000000088000003EEEEEEEEEE33CC8
:101B800000088000C33C00088000C33EEEEEEEEE8D
:101B9000E3000008800000CEEEEEEEEEECC300089D
:101BA00080003CC3000880003CCEEEEEEEEEEC0080
:101BB0000008800000000008800000000A600A4061
:101BC00000001E0A604E1000001E0A60CFFFFFFBDF
:101BD0001E0A6AC17910001E0A6A1007A0001E0AB8
:101BE00060000000001E0A62FEEFEEF21E0A62D0E4
:101BF0000F00D21E0A62D00F00D21E0A62D00F0060
:101C0000D21E0A62FEEEEEE2000A62D00000D202AC
:101C100010000BD10002DC10003EC00004EA0000FE
:101C20005200005C0000000000005B000000005F4C
:101C3000FFFFFFFF200000006A000E200000006A86
:101C4000000E20000B7089000E2000007DD6000ED3
:101C500020000002FD600E20000009A2970E20580F
:101C6000006E20000E207A07D300000E51B76B20C3
:101C7000000007EEC2005FFFFFFFF800005B0000FE
:101C8000009800005B03A0009800005B00BB009878
:101C900000005B000B209800005B0000009800CF64
:101CA000FFFFFFFFFFFC0089000000980000B60066
:101CB0000000980002E200000098000AA000000066
:101CC000B8001B100004FFE4000000000021000029
:101CD00000B100D4000000007C10E3000000000808
:101CE00050E3000000000000F10000003FFFFFFF94
:101CF000FFFFD0000006C00005D000000B700005FB
:101D0000C000003E15B305B00000D6005C16B00060
:101D10001C90000007A005D90001102C702C400079
:101D20000AFFFC1000000000121000000000B200CA
:101D300000000000009A0000000000002B000000DE
:101D40001FFFFFFFFFFFF1000000990000000000EF
:101D500000880000000000008800000008FFFFFF6E
:101D6000FFFF8000000099000000000000880000D4
:101D70000000000088000000AFFFFFFFFFFFFA0037
:101D80000000000000009FFFFFFFFFFFF9000000C0
:101D9000000000000CEEEF25EEEEC00C200C2590AC
:101DA00002C00C200C259832C00C590C259682C01C
:101DB0000C2D2C2591D2C00C275C2590A4C00C20A2
:101DC0000C259002C00C200C259002C00C211D2572
:101DD0009105B00C3EEA0597EE5000B402B103B98C
:101DE00000003B10790140008FFFFFFFFFFFF9006B
:101DF00003D1001D1000003D308804C10007C3005E
:101E000088005C308918FFFFFF82A6000000880070
:101E10000000000000880000001FFFFFFFFFFFF12F
:101E200000000088000000000000880000000000A2
:101E30005D00005D00005C00005C00005C00006B69
:101E40000000890000C60005E1003E6007E6005B77
:101E500030002FFFFFFFFFF5000002F00002E3005B
:101E60000002E00009B0000003D0001E40000004A2
:101E7000C0007C00000006B0009FFFF20008900048
:101E80000000F1000C60000000F1002F20000001B4
:101E9000F0009C00000002E004E400000004D04ECA
:101EA000900004323C805900000BEED9000000A5E0
:101EB000000000000002E200000000000AFFFFFC3A
:101EC0000000006E30008A000004E50000D400002D
:101ED00009500006C000000000002E800000000035
:101EE00001DAE2000000003D907C10000007E600EF
:101EF00009C10005DB2000008E606B40000000047B
:101F0000C600012345678A600AFFEDFCBA873000EE
:101F10000001F0000000000001F0000000000001DE
:101F2000F0000000012357F89ACDE98FEDCBF87649
:101F30004320000001F0000000000001F0000094C8
:101F4000000001F00000D4000000F40003E10000F4
:101F5000008EFFFE8000000000111000000000B4A1
:101F6000000000000009C000000000007D201C30BF
:101F7000000006E300BC0000007E3007E30000091B
:101F8000D2003E700000790001DA00000000001C61
:101F9000C10680000000BE2001C600000AE3000068
:101FA0004E3002BE6469CEDAD103FFEB8630009575
:101FB00000010000000000000003B00000000094D9
:101FC00000C80069000089002B00A700003E000047
:101FD00000E300000B700006C0000004E1001D508B
:101FE0000000009A009B000000001C87D100000048
:101FF0000002EE30000000004CBCC40000027DB4C2
:10200000005CD8306C7200000038D5000000C100C0
:102010000000000000A90000000000003A000000DD
:102020000CFFFFFFFFFF500000000001BB1000008D
:1020300000004D800000000008D40000000005DA18
:102040001000000003BC4000000003CE6000000050
:10205000004D4CB51000000083006CEFFFFFF8004E
:10206000000001111110000004B000000000000881
:1020700090000000009EEEEEEEE6000097000000EB
:10208000B4000097000001D3000097000CFEA000F0
:10209000009EEEEEEEEEC0000000000004C0000066
:1020A00000000005B0AEEEEEEEEE56A0000000021D
:1020B000101B7000000009FFFC100000000012104F
:1020C000000005B000000000000C800000000000CF
:1020D0006FFFFFFFFFF703E706B00000002DA0062B
:1020E000B0000000690006FFFFFF70000006B000AE
:1020F0000000000006B0000000000006FFFFFFF334
:10210000000006B0000000000006B0000000000063
:1021100006B00000000011235679ACA01FEDCBCC17
:1021200076431000000079002B0000B7007901D73A
:1021300000002B507906800000000079000000CFDD
:10214000FFFFFFFFFFFC000000890000000000000F
:102150007900000000000079000000000000A800E5
:1021600000000008FFE30000000000110000000074
:102170000000123467ACB01FFFEDBA975310010096
:102180000390000000000000D500000000000039AE
:1021900000000008FFFFFFFFFF600000000028D9DB
:1021A0001000000039D8100000005CD600000001CB
:1021B0009DB4000000003D6C720000000084018DA1
:1021C000EEEEEEE80001234579CE1000EEDCBA8693
:1021D000420001E0000000000004C0006A000000AE
:1021E00006A0006A00000009FFFFFFFFFFF10000EA
:1021F000006B0000000009406A049000006D106A46
:1022000001C80004E4006A002D602E60008A00040A
:10221000E46800EFE5000076000001000000000027
:1022200014455689B900004EAA98765300004B0019
:1022300000000000004B0000000000004FEEEEEF39
:10224000EEE0004B00002D0000004B00002D0000D0
:10225000004B00002D0000004B00002D0000AEEFF1
:10226000FFEEEEEEEA017C50000000000B60000083
:1022700000000000000000000000001445689BEB17
:1022800000004EA988653200004B000000000000ED
:102290004B0000000000004FEEEEEFEEE0004B00C0
:1022A000002D0000004B00002D0000004B00002D11
:1022B0000000004B00002D0000AEEEEEEEFFFEEA47
:1022C0000000000006C600000000000018800001A9
:1022D000233579BD800AEDCBCC7642000000009713
:1022E000000000000000D30000007EEEEFEEFEEEE6
:1022F000E700007C10B70000017C800008C6106B6E
:1023000071D2001E17C60000E1001E00000005C0CB
:10231000001E0000007D30001E00000B8100001E2A
:102320000000000000000000000123345689BD9029
:1023300008BBBACC987640000000770000007DDD35
:10234000DDEEDDDDD9000000770000000004A0779D
:102350000A53B34DDDA0770ADB400006A0770A6080
:102360004716BDA0770960877924A07705EED200D3
:10237000000077000000000000770000000001234B
:102380004578AC900ADCBACB6431000000007700DD
:1023900000007DDFFDEEDDDDD900068077086000FE
:1023A0004DDD807708CCD3000781DD08926717CD1B
:1023B00089CD84EED379207A77B500000008B07714
:1023C0001C600004C8007701AB506A30007700043D
:1023D000B70DFFFFFFFFF700011111112CD2000014
:1023E000000003DB10000000004E8000000000062B
:1023F000E600000000008E400000000009D300004D
:102400000000009D20000000B307D200000000E3A0
:102410000D5000000001F10E7000000129C005DF21
:10242000FFFFFEEB2000001000000000003E000057
:10243000000000003E0000000100003E000048CF08
:1024400000003E37BED96E0026BFD951002E009A3B
:102450008E0000004D00003E0001009A00003E008A
:102460003FFFD300003E0000110068003E00000066
:102470000089002E20000001C60009FFFFFFFFB009
:102480000000011111100000006B000000000000AE
:102490006B0000000000006B000000005FFFFFFF0A
:1024A000FF000000008A002F0000000098001F00BD
:1024B000000000B6001F00000001E3001F00000044
:1024C00007B0001F0058004E20001F007A06E400ED
:1024D000001F31B76B2000000AEEC100068000002B
:1024E0000000000E5000000000008FFFFFFFFFF40F
:1024F00003E200000000000D700000000000396FD2
:10250000FFFFFFF10000000004CC5000000003BBFF
:102510004000000001AC400000C1004D600000011F
:10252000F100C700000029C0006EFFFFEEEB300095
:102530000000000000000000007800000000000023
:102540007800000000C4007800011000C4008B8BEC
:10255000DF4014DBCEEC752C40ACE83178000C3059
:1025600000C40078000D2000C40078001E1000C4D4
:1025700000788FE96800C4007800008900B7000087
:102580000001C6005EFFFFFFFEA00000000000008B
:10259000000DFFFFFFFFFF7001111111111B7000F3
:1025A0003A1000000A700005D600000B6000001B06
:1025B000A1000B6000000077000B50000000016BD1
:1025C0003C50000037CEA60C40059DE950000D4060
:1025D0000C940000000E3000000000007E0000009F
:1025E000008FFFE50000000014431000000003C44A
:1025F00000000000007C3004C200005C71117E50BD
:102600000002EEDCCFB20000000003C6000B400069
:10261000008910005E10006DB9ABDEF80000DA86AC
:10262000434DC00000000006EC1000000005CE8005
:102630000000036AEE820000001DB84000000000A8
:102640000000079000A700000007900006A000000F
:1026500007900000000BFFFFFFFFF5000000079050
:1026600000C3000000079000E2009FFFFFFFFFFF94
:10267000E0000007900002E0000007900002D00098
:102680000007902106C0000007908EFE4000000762
:1026900090000000000C20005A0000000C20005A9E
:1026A0000000000CEEE85A0000000C20005A000068
:1026B000000C20005A0000000C20005A00004EEED2
:1026C000EED05A00004A0001D05A00004A0001D062
:1026D0005A00484A0001D05A006A4EEEEED05C0023
:1026E000A74A0001D01CEEC10EEEEEEEEEEEF100B8
:1026F0000000000008A000097103D01C1000004B6E
:1027000033C0000002A72004B0000000049007902E
:1027100000009EEEEEEFEEEEE90000006E200000FD
:10272000000003D7D7000000006D401AB200015C22
:10273000A200005D501C9300000001B201358AD157
:102740006A00005DBCB4206A0000000880006A00D6
:1027500000000880006A0000AEEEEEEB6A000000A8
:102760000880006A0000000880006A00000FEEEE9A
:10277000E06A00000F0001E06A00000F0001E06A5B
:1027800000590FDDDDE05C00990F0001E01CEEC395
:10279000013469CA5A00005DB975205A000000076B
:1027A00050855A00000B02A1D15A00000760087042
:1027B0005A00002EEEEEF85A000000005B915A001D
:1027C000000004D3015A0000246AEDE85A00488C46
:1027D00099C2005A005A0005B0004C00A808FE70CB
:1027E000001CFFC200000000000000001C0001B03F
:1027F00000007DDEDD28FFFFF8001C002C0000003B
:102800002ECCCDB50000002A000D4BFFFF902ECC42
:10281000CD00006D202A000D0006D2002ECECD0086
:102820004D20002A1C0002E30039001C000C60004F
:102830005A8DDEDD6F1000A7001C0009EFFEB14FBE
:10284000FFFFFFFFFFD002222222229E8000000015
:10285000002CC30000000008E700000000005E201C
:1028600000000000005D0000000000005D000000AE
:102870000000005D0000000000005D00000000009E
:10288000005D0000000000009B000000000DFFE55F
:102890000000000001220000000002FFFFFFFFFE19
:1028A000000000000019E6000002B301BD30000086
:1028B000003D9DA000000000009E0000007FFFFF83
:1028C000FFFFFFE00111117A1116C00000007A002D
:1028D0000A700000007A000C200000007A0000005E
:1028E00000000099000000000DDDE400000000027F
:1028F00033100000000003C100000000004EEEEEA7
:10290000EF300009E50001A700006BDEEEEEEEEC13
:1029100000000000C4003C009EEEEEEEEEEEEA0089
:102920000000C4003C00000000C4003C0003EEEEC8
:10293000EEEEEC00000000C4000000000001D30037
:102940000000000CFFC000000000011000000000AB
:10295000000000770000008CCCCCDDCCCCC800009F
:10296000007700000000DBBBDDBBBE0000D00077BD
:10297000000E0009CFFFFFFFFE3000000077000BC4
:10298000308CCCCCDDCCCED900000077000B300AE7
:10299000CCCCDDCCCE30000000970000000001FF61
:1029A000D30000000000000000000008FFFFFFFF50
:1029B000FF800122222222221000000000000000DD
:1029C0000000000000000000000000000000000007
:1029D00000000000000000000000000000000000F7
:1029E000000000000000000000008FFFFFFFFFFF5D
:1029F000F81222222222222103FFFFFFFFFF4000C4
:102A00001111111111000000000000000000000071
:102A100000000000AFFFFFFFFFFFFB0111113F119E
:102A200011100000002F0000000000002F00000027
:102A30000000002F0000000000002F000000000038
:102A4000006E0000000009FFF900000000013210D4
:102A500000000009FFFFFFFFFFA00011116C111122
:102A6000000000005B0000000000005B00000000B0
:102A700000005B000000AFFFFFFFFFFFFB01111133
:102A80006C1111100000005B0000000000005B00F2
:102A900000000000005B0000000000007B00000060
:102AA0000006FFF70000000001321000000006FFE2
:102AB000FFFFFFFF600000000000000000000000BA
:102AC000000000AFFFFFFFFFFFFB000B70000000E6
:102AD00000002E0000000000006FFFFFFFFF10004D
:102AE000000000002E0000000000004D000000006B
:102AF00000006A000000001001C700000000FFFE97
:102B0000A0000000000000000005FFFFFFFFFF60C5
:102B100000000000000000000000000000000000B5
:102B20000000000000000000000000009FFFFFFF09
:102B3000FFFFFB00001E6000000000009B00000083
:102B4000000004E2005A0000001E500004B200021F
:102B5000CA2479CECD4007FEB8631003A000100050
:102B6000000000000EEFEEEEEEEEE0000E200000A2
:102B70000000001E0000000000003FEEEEEEF60038
:102B8000005B000000C5000089000000D40000A622
:102B9000000000E30000BEEEEEEEF20000000000D8
:102BA00001F1000000000002F0000000000002E05F
:102BB000006EEEEEEEEEEEE706FFFFFFFFFF7000A9
:102BC0000000000000000000000000000000000005
:102BD00000000000AFFFFFFFFFFFFB0002F1000C51
:102BE00050000002E0000C50000004D0000C500027
:102BF000000890000C5000002E20000C500004D55E
:102C000000000C50003C3000000C50003FFFFFFF64
:102C1000FFFFF200003E0000000000005C0000002A
:102C200000000079000000000CFFFFFFFFF800002B
:102C300000C5000088000000E3000088000001F1EA
:102C4000000088000003E0000088000005C00000CC
:102C500088000007A000008800AFFFFFFFFFFFFC17
:102C6000000000000000000001E0000B5000000127
:102C7000E0000B50000001E0000B50004FFFFFFF91
:102C8000FFFFF40002E0000B60000001E0000B50C9
:102C9000000002E0000B5000AFFFFFFFFFFFFB0052
:102CA00005C0000B6000000B70000B500001AA0073
:102CB000000B50001C6000000B50001EEEEEEEEE0C
:102CC000EEE10000000000000000DDDDDDDDDD00E4
:102CD00000D20000002D0000D20000002D0000DD19
:102CE000DDDDDDDD0000D20000002D0000D200009F
:102CF000002D0000DDDDDDDDDD0000D20000002D57
:102D000000000000000000007EEEEEEEEEEEE73F79
:102D1000FFFFFFFFFFF400005C00C5000000005C47
:102D200000C500000B205C00C501C009805C00C527
:102D300007B004D05C00C50C5000D45C00C53D0059
:102D4000008A5C00C5A700003B5C00C5C100000014
:102D50005C00C5000000005C00C50000BFFFFFFF75
:102D6000FFFFFB000000000000000000B300B30004
:102D7000000680B300B304B00680BEE8B48B100632
:102D800080B300BD70000680B301B4005718B8DDF1
:102D9000E8B400978C9641005CDDA10000000000C3
:102DA000000000DEEEEEEEEB000000000000000090
:102DB000000000000000005EEEEEEEEEEEE506EE36
:102DC000EEEEEEFE000000000019C5000000001845
:102DD000D600000DDDE27A0000000D10C2787DDD26
:102DE000E00D10C2780005A00D10C2783B2C300D0C
:102DF000DDD27806E9000D10009708DE500000EFE4
:102E0000D3B703B1000000000000009FFFFFFFFFE9
:102E1000FFF900000000000000000002B100000007
:102E2000000000BB0000000000001B1000008FFF2E
:102E3000FFFFFFFFF812222222222221000000B20F
:102E40000000000000008B0000000000000B1000DC
:102E500000AFFFFFFFFFFFFA01A8111111111000D1
:102E6000A7000000000000A7000000000000A7006D
:102E70000000000000A7000000000000A700000004
:102E8000000000A7000000000000AFFFFFFFFFF1FF
:102E900000000000000000000000B2000000000080
:102EA00000770000005FFFFFFFFFFFF5000000005C
:102EB000000000000000000000000008FFFFFF000D
:102EC00000000880000F0000000970000F000000E3
:102ED0000D40000F0000005D00000F003905E30009
:102EE000000F207A3B2000000AEED4000000B3005F
:102EF00000000000006A0000008FFFFFFFFFFFF8E6
:102F00000002B1002B2000002D700006D40004D573
:102F100000001C4D501B20B1008A02B100008B0242
:102F2000E2000000000ABC600000000005EE400066
:102F3000000048DB55CD84104D961000027AD30076
:102F40000000B10000000000008B0000007EEEEFEA
:102F5000EEEEEEE70001B9002B0000017E6000C834
:102F6000000003FECDEEA03B00000002C901D60028
:102F700000008D501C8000028D8104D800003C713F
:102F800002AD8D60000005BD6002AB2002D940009B
:102F90000005B0000000A40000000000005B00007D
:102FA000009FFFFFFFFFFFFA00005A0079000000BA
:102FB000006A0079000003B07900792B000980973E
:102FC00000790B803E10C4007902E37704D00079C9
:102FD0000077001D500079000003D6000099000022
:102FE0002C4003FFE400000000001100000000007E
:102FF00000940000000000007B0000007EEEEEEE7A
:10300000EEEEEA0004B200096000000063007B10ED
:103010000005EEEEEEEEEEE405B000000000000666
:10302000A00000000000079000000000000A6000FF
:10303000000000003E1000000000007500000000CD
:103040000000000000970000008DDDDDDDDDDDD833
:103050000000000000000000ADDDDDDDDA0000A5AD
:103060000000004A0000ADDDDDDDDA0000000000F8
:103070000000000DDDDDDDDDDF80000000037BC929
:10308000300000004D6200000000005C0000000005
:1030900001EFE70000000000000000000000000059
:1030A000860000000000003B0000007EEEEEEEEE29
:1030B000EEE80000000000000006EEEEEEEEEE602E
:1030C000069000770009600690007700096006EE20
:1030D000EEEEEEEE60069000770009600690007755
:1030E00000096006EEEEEEEEEE60069000000009CC
:1030F00060000000B40000008EFFFFFFFFFFE8004B
:10310000B40000005900009DDDDDDDD800000000A6
:103110000000000007DDDDDDDDFC000000000479BB
:1031200073000000006A000000AEEEEEEEEEEEEA84
:103130000000006A0000000000008900000000029A
:10314000EFD300000000000000000000000000A518
:103150000000009EEEEEEEEEEEEA00000000000041
:103160000000DEEEEEEEED0000D20000002D0000CB
:10317000DEEEEEEEED0000D2006A002D0000000051
:103180006A000000001B306A07800006C4006A0065
:103190007C30690000890002B10000BFE30000003C
:1031A00000000000000000000000A50000006DDD30
:1031B000DDDDDDDDD600000000000000007DCCCCB0
:1031C000CCD70000770000007700007DCCCCCCD7B6
:1031D00000002200000022006EDDDDDDDDDDE6689E
:1031E00000000000008623ADDDDEDDD932000000E6
:1031F0002D0000000000105C0000000000BFE70090
:103200000000000000A40000005EFFFFFFFFFFE5DC
:1032100000480000009400004EDDDDDDE4000048C1
:103220000000009400000000000000003EEEEEEE02
:10323000EEEEE33D0000000000D30000FDDDEB00FA
:10324000000003D0004B0039026D60003C00896D26
:103250009300000BEEC2000000940000000000008C
:103260007B0000000EEEEEEEEEEEE00007700008D0
:1032700060000002D1005C1000AEEEEEEEEEEEEA71
:103280000000005B0000000EEEEEEEEEEEE000004F
:10329000005B000000002B105B07900005D5108A32
:1032A000007D303B21FFE50003B10000010000007C
:1032B00000000000760000006CFFFFFFFFFFC7006A
:1032C000770000006800007DBBBBBBD80000000099
:1032D000000000003ECCCCCCCCCCE43B00123456F9
:1032E00072A4009BBAE8765100000001E3456785AF
:1032F0006CDDCBE9876542000000E20000C1000000
:10330000007CCCCC80000000860000006CCCCCCCD3
:10331000CCCCC7002C0002C000004CDEC6BDECD8EF
:1033200000003D63368068004ECD839E60592800C2
:103330002C03C3892C590DD63A100009E300000074
:1033400042000A3000149DDC12C7005BA9C4AFDE46
:1033500080000005E930038BC4000010000000006D
:103360000000008A0000000000009800000000003B
:1033700000B7000000000000EA000000000004EDBB
:103380001000000000098860000000001E22D0002C
:10339000000000A9009800000006D1001E500000A7
:1033A0006E300004E50009E30000004E916A100051
:1033B000000002B5000001C10000099000004D00AE
:1033C0000001D500000BF400009AD40009B0D4002D
:1033D0004A00D4000000D4000000D4000000D40053
:1033E0000000D400000B3CFFFFFF90003E011111D4
:1033F0004E5000A9000001D80003F400000BA0000B
:103400000CE300009C000089C30006D1000061C3EA
:10341000003E30000000C301D600005800C30AA0DF
:1034200000006A00C32E1000008900C34D10000286
:10343000C600C30AEEEEFEA000C3000110000000AB
:103440000B40006A0000004E10006A000000A90056
:10345000006A000003E500006A00000DE58FFFFF31
:10346000FFFC8AB501117B111161B500006A0000F3
:1034700000B500006A000000B500006A000000B559
:1034800000006A000000B500006A000000B50000FE
:103490006A0000000C3000000000003D0000000049
:1034A00000009809FFFFFFF100E50111111110075D
:1034B000F500000000001EE500000000009AB500C5
:1034C0000000000061B5000000000000B500000031
:1034D000000000B5000000000000B5000000000082
:1034E00000B57FFFFFFFFB00000111111111001C4F
:1034F0000007900000007A000790000000D45FFFF2
:10350000FFFFF405F100088000C30DF10009700011
:10351000D38BD1000B6000D261D1000D3000E200EE
:10352000D1003E0000E100D100990000F100D1047B
:10353000E10000F000D15D401105D000D4C3008F40
:10354000FE6000000000011000000B4FFFFFFFFCB9
:10355000004D000007900000B7000007900004F441
:1035600000000790000DE400000790009BB40000ED
:1035700007900061B4000007900000B400000790BD
:103580000000B4000007900000B4000007900000A5
:10359000B400222A800000B4009FFD20000000003B
:1035A0000000000004FFFFFFFFFFF904C00000005F
:1035B000000004C0000880000004C0000880000073
:1035C00004C00009B0000004C0000CD0000005B029
:1035D000001D750000069000872B0000097002D0C6
:1035E0000960000D301D4001C3005C03D500002DB3
:1035F00060831C30000001A6000C8EEEEEEED000C1
:103600005C08700006C001D405A00009800AF00221
:10361000D0000D408DF000D3003E0072F0007A0023
:10362000B70000F0001E35D00000F00006DE4000BC
:1036300000F00002ED200000F0005E69D30000F011
:103640002AD3007E9100F1B7000002A7000780098D
:10365000700000000D4009700000007B0009700040
:103660000002E50009BB20000BF400099AE7008C7A
:10367000C40009705EB262B400097001A600B40013
:103680000970000000B4000970000000B400097067
:10369000000000B4000970000000B40009700000D0
:1036A000001C0079000000007A007800000000D4BF
:1036B0009FFFFFF10005F1009700E1000DF100967A
:1036C00000E1008BD100A500E10061D100C400E160
:1036D0000000D101E100E10000D106B000E14900A5
:1036E000D10D4000E15A00D1BA0000E28800D5A017
:1036F00000009FE300000000000000000B34FFFF0B
:10370000F400003D04B000B40000A704B000B40011
:1037100003F104B000B4000CF104B000B4008CE17B
:1037200005B000B40063E106A000B40000E1088029
:1037300000B40000E10C5000B41A00E13E1000B4E7
:103740003C00E2C80000B56A00E3A000007FE4008E
:10375000000000000000000000BC000000000006A7
:10376000CC60000000004E22D200000003D3005DB8
:103770002000006D31C305D4001AC1005A003DA2DB
:103780009700000000019803FFFFFFFFFA000011FF
:10379000111115E400000000004E4000000000057B
:1037A000E500000000000A500000000000CD00000D
:1037B0000000000ABB9000000000AC01C90000003E
:1037C0003CA0001BB20029E60000007E817912D0E7
:1037D000001E02A70003D0001E00000004C0001E4F
:1037E00000000006A0001E0000000B60001E00008C
:1037F000009B00001E0000079000001E0000001D3E
:103800003FFFFFFF00007B0096005C0000D50096A4
:1038100000C40005F200A605C0001DE200B509FFC6
:10382000F299D200C40000D261D200E20000E100AF
:10383000D202E00000E100D207A00000F000D21E9A
:10384000400001E000D3BA001107C000D4B1006FFE
:10385000FE4000000000001000000F000096000075
:10386000001F0000960000001E0000A60000001EC1
:103870000000A60000002E4000CA0000004DD40049
:10388000EC000000683E53BA300000A50499659032
:103890000001E0003D00C300088001D4005C003D51
:1038A000101C600009C28400950000009600000111
:1038B000CE10000000002D88C200000006D6006D6A
:1038C000500005CA200002BC407A4F00000004B638
:1038D000001F000028B000001F038CB50000001F6F
:1038E000EB72000000001F1000000B10001F000012
:1038F000000E10000E4000006D000007EFFFFFD427
:103900000000000000000000000001CD10000000D9
:10391000002D88C200000007D5006D600006D91098
:103920000002BC508A5FFFFFFFB4B7002E00000505
:10393000A000002E0000069000002E00000A70007B
:10394000002E005FFC12A0002E00000004B0001E3C
:103950003000001A800007EFFFFFEA10000B46FF5F
:10396000FFFFF0004D0000001BA000D60000009DEE
:103970001009F3000008E3007EE300000E7000630E
:10398000C3AFFFFFFFFA00C300000E200000C3001A
:10399000000E100000C300000E100000C300000E57
:1039A000100000C300325E000000C300EFE600001C
:1039B0000000000000000000087000690000000D19
:1039C00020006900000079000069000001E40000A7
:1039D0006900000BF38EEEEEEEEB7CC30000690095
:1039E0000062B3000069000000B30000690000003D
:1039F000B3000069000000B3000069000000B300DC
:103A00000069000000B33EEEEEEEE6000B300087EA
:103A10000000004D0E1087001000B60E109A9DF0A9
:103A200004E13EADEB52E00DE3CE618701E09BE0A7
:103A30000E108702D071E00E108704C000E00E1057
:103A400087EE6000E00E1087002700E00E10870070
:103A50005B00E00D500000A800E006EFFFFFC10092
:103A6000000000000000000A4000088000002E1046
:103A70000008800000A8DFFFFFFFFA03E100000854
:103A800070000CF00A300960008BF008800B4000D9
:103A900061F002D10E100000F000896B000000F010
:103AA000000CE4000000F0004EDB200000F02AD4FF
:103AB00007EA4000F2C6000006C6000B300000888E
:103AC00000004D000000880000B7CFFFFFFFF804A2
:103AD000F400000088000CE4000000880099C4088D
:103AE0006000880060C402E300880000C400680031
:103AF000880000C4000000880000C40000008800A6
:103B000000C4000000A70000C40008FFD1000000AE
:103B10000001220000000B3000890000004D000071
:103B200089000000B70E208901F104F10E208901FF
:103B3000F10DF10E208901F19AE10E208901F17158
:103B4000E10E208901F100E10E208901F100E10E72
:103B5000208901F100E10E208901F100E10EFFFF53
:103B6000FFF100E100000001F1000000CD000000C5
:103B700000000ABB9000000000AC01C90000002C4E
:103B8000A0001BB10008E60000008E817910000043
:103B90000002A7009FFFFFFFF80000000088000060
:103BA0000000000088000000000000880000000005
:103BB0000000880000003FFFFFFFFFFFF300000050
:103BC00000000000000B3AFFFFFFF2003D0003E0A1
:103BD00000E200A70002D000F103F20943D000F197
:103BE0000CF20D34C001F08BC22E05B001F071C291
:103BF0006A079002E000C2760A6002E000C2000E8E
:103C00002003D000C2006B0004C000C201E3000921
:103C1000A000C21C705FFD3000C2680001100000EF
:103C20000A5012356891003E1BEDDEA87100A80015
:103C3000004C000003E400004C00000DE47FFFFF97
:103C4000FFFC9BB400005C000071B400004C00005D
:103C500000B400004C000000B400004C000000B4B0
:103C600000004C000000B400004C000000B4000054
:103C70004C0000000C2078000000004D00D5000032
:103C80000000A704EEEEEEE902E40C500000000C88
:103C9000E47B000000007CB495EEEEEF2062A4000F
:103CA0000005D50000A400008B100000A4001B80BC
:103CB000005800A401C500007900A408A00001C5B7
:103CC00000A404DFFFFEA000000000000000000BC5
:103CD000400D43A000004E000D408A0000B7000CCC
:103CE00050095004F4024CA8ACD71DE4CDBDB65326
:103CF00010AAC40006A0000070C40003D000000099
:103D0000C40000E3000000C4000098005800C40094
:103D1000003E208900C4000007D5C500C400000093
:103D20007EC000000000000000000000CD00000088
:103D3000000009AA9000000000AB00B90000002CB0
:103D400090000AB20007D503A0006D81791000B978
:103D50000001A70000001B10000003FFFFFFFFFA97
:103D6000000002400018C3000004DB44C80000004B
:103D70000005DF50000000000007C100000A600CD1
:103D8000100069000A6009A00069000A6001E300F0
:103D900079000A6000760079000A60000000970050
:103DA0000A60000000B5000A60000000E1000A603F
:103DB000184007C0000A77EB203ED6000CFC4004F8
:103DC000D63E501B50019D4004E400001C710000D1
:103DD00077000C2000000000005D0DFFFFFFF400E5
:103DE000A8011111111001E3000000000008F30008
:103DF000000000001EE3000000000099C308FFFF60
:103E0000FFC061C3001111111000C30000000000C9
:103E100000C3000000000000C3000000000000C359
:103E20009FFFFFFFFC00000111111110000A400468
:103E3000A00000001E1C30D405B0007A0B506807AB
:103E4000A000D40980000A7006F105C0000E201DF4
:103E5000E100E2005C0099D1008900C50060D1005A
:103E60002E36C00000D10006DE300000D10003ED88
:103E7000200000D1005E58E30000D12AC3006E91FB
:103E800000D3C6000001A600076000000000000D7E
:103E90003000940000005B0003D1000000B5000C6E
:103EA000404A0005F3009801D5000DE306B00B90E1
:103EB000008AC34C007C000061C3B105E200000031
:103EC000C3003E40A20000C302E6004B0000C35EF8
:103ED00090122A7000C38FFEDCCBD300C300000019
:103EE0000047000C1840000000005C03E18FFFF168
:103EF00000C500850001F105F10D300000F11DE164
:103F00000D300000F198E10D300000F160E10D305E
:103F10000000F100E10D300000F100E10D30000083
:103F2000F100E10D300000F100E10D300003F00080
:103F3000E10D301FFE80000000000110000059025A
:103F40006B60000000A53E824EEEE001E13B004ABE
:103F500000E008D03B004A00E01ED03B004A00E0F1
:103F600098D03B004A00E061D03B004A00E001D01D
:103F70003B004A00E001D03B087A00E001D04DB69A
:103F80004A03D001D068004BEE7001D000004A0017
:103F900000001C1000780000006B0000780000009A
:103FA000D53FFFFFFFF406F23D008900C41DE23C4F
:103FB000007800C498D23C007800C470D23C0078ED
:103FC00000C400D23FFFFFFFF400D23D008900C4CF
:103FD00000D2000078000000D2000078000000D27B
:103FE000000078000000672D004B000000A42D00A9
:103FF0004B000001E02D004B009407E02D004B0921
:10400000B11DE02FFF6CAB0098E02D004F900062D7
:10401000E02D004C000001E02D004B000001E02DE0
:10402000004B003901E02D197B005A01E02ED85DCC
:10403000009801E04A201CFFD200000000000000B0
:10404000000B3077000000003D00D300000000A707
:1040500005EEEEEEE003E30D506900000CF32A00DC
:104060006900008BC3000069000071C38EEEEEEEA4
:10407000EA00C3000069000000C3000069000000FE
:10408000C3000069000000C3000069000000C30015
:1040900000690000000C10000E1000006C00C20E41
:1040A000100000C604D00E100005F30AEEEFEEE596
:1040B0001DE34E100E100098C357000E100060C391
:1040C00000000E100000C3AEEEEFEEEB00C30000E8
:1040D0000E100000C300000E100000C300000E1000
:1040E0000000C300000E1000002C0002E6000000DB
:1040F00089000B8D200000D300A904D20006F02C0B
:1041000070004D601DE2B4000001A797E000C300FD
:10411000D30060E000C300D30000E000D200D30071
:1041200000E001E000D30000E007B000D30000E0B1
:104130003E3000D30000E0860000D300000A502388
:10414000579BD2002E1EDCCD742000A800004C002E
:104150000003E400004C00000DF400004C00009B44
:10416000B400004C000071B48FFFFFFFFC00B400EE
:10417000005C000000B400004C000000B400004CE3
:10418000000000B400004C000000B44FFFFFFFF936
:1041900000000000000000000B20000C0000003DAB
:1041A000005909800000B601D401D60003E00A904E
:1041B000002C800CE09B000001978BE3BFEEEEEB40
:1041C0000072E00078005A0001E00096005A0001F9
:1041D000E000D200690001E006B000790001E05D76
:1041E0002100A60001E1B209FEB1000000000000BC
:1041F0000000001D1000B20000007B00006A0000FB
:1042000000D6CFFFFFFFFC05F200790000001DF291
:1042100000780000009AD2008FFFFFD061D200A684
:104220000003D000D200D30003C000D203E000049A
:10423000C000D20B800005A000D28D00100A8000C3
:10424000D3B200AFFD20000000000010000000000D
:10425000CE00000000000ABAA000000000BB00BAB7
:104260000000003D900009C20019E5005B006E816E
:104270008910005B0001A7005B005B000000005B91
:10428000005FFFFD00005B005B000000005B005B67
:10429000000000005B005B0000002FFFFFFFFFFF3E
:1042A000F3000A5001B00000003E1000A50000001D
:1042B000984EEEEEEEE203E400000000000DE40094
:1042C000EEEEF2009CB400E100D20071B400E00018
:1042D000D20000B401E000D20000B405C000D22931
:1042E00000B40B7000D23B00B58D0000D27900B64F
:1042F000B200009ED3000C6EEFEEEE60005C000F8B
:1043000000096001D4000F0009600AE2EEEFEEEE52
:10431000EB8DE0000E00096073E0001E00096001F3
:10432000E0002D00096001E0AEEEEEEE6001E0007D
:104330007800096001E001D200000001E01C70007B
:10434000000001E0A600000000001C6FFFFFFFF46A
:10435000007A003D00000000C4004C00000004F2A0
:10436000005B0000000CF200690000005BD25EEE12
:10437000EEEE5093D20087000B5010D20096000B47
:104380005000D200A5000B5000D200B4000B50002A
:10439000D200C3000B5000D200D2000B5000D3EE6D
:1043A000FEEEEEEA000C2000870000004C000087C3
:1043B000000000B6AFFFFFFFF804F3000087000025
:1043C0000CF300008700008BD33EEDDDDEB071C33F
:1043D00003C0000C4000C300A7007A0000C3001C0B
:1043E00068B00000C30004FE200000C3039D7AE70C
:1043F0002000C3AA500038C6000A4000D3000000C5
:104400002E1000D3691000A80000D3088003E1003B
:1044100000D200000CF0EFFFFFFFFA8BF00001F577
:10442000000061F00004EA000000F0000B6D2000C5
:1044300000F0004D06A00000F003E300B90000F01A
:104440006D40001CA100F3B2000001A60007800926
:1044500072A200000D4009702B20007C0008800033
:104460000002E6023AB8ABD50BF67DBCC643108C11
:10447000A60005B000B162A60003C00B9000A60024
:1044800001E1BA0000A60000CD800000A60007EC04
:10449000005800A606D91C708700A69920008BC280
:1044A000000B4000C20000002E1000C2000000A857
:1044B000DEEEFEEEE503E10007EC00000CF0000B81
:1044C000CB20008BF00057C6900071F000C1C2C233
:1044D0000000F00780C25A0000F03D00C20B6000EF
:1044E000F1D400C202E400F58000C2005800F000E0
:1044F00000C20000000001CD10000000002C99C196
:1045000000000006E6007D400005CB200003CB4004
:104510007A4880003C05B6000970004D0000000B91
:1045200060006F3000001EE8009E8000006D3D813D
:10453000E7E10001E7028BA0AA001CA002CB001C4F
:10454000A189000750000198000A400E13B3000033
:104550002E100E102B2000A8000F10000003E1FF0A
:10456000FFFFFFF80CF0002E4C00008BF0004C4CCD
:10457000000061F000794C000000F000C44C000025
:1045800000F004D04C005700F00D504C007900F0C2
:10459000A9004D00B700F4A0001CFFD100F00000FE
:1045A000000000000A5000D30000001E1000D300DD
:1045B0000000980000D3000002E4A400D202B20C74
:1045C000F44E20E32D808BB40771F6860071B400A1
:1045D00005CB000000B4000B4C300000B4005B04BD
:1045E000C00000B404D200AA0000B46D30000BB1CA
:1045F00000B7B1000000A6000002DD1000000000BE
:104600003D67C200000007D3006E600005D81000AF
:1046100002BD61892CFFFFFFB4A80000000000006C
:10462000004FFFFFFFFFFFF400001D3000000000FF
:1046300000A500590000000561123CA000005EEDDD
:10464000BA878A0000A20000000920001C1EEEEEBE
:10465000EEE5007B0E1000085000D50E1B200D204B
:1046600005F10E17B069001DF10E10B8D2009AD1F5
:104670000E101EA00061D10E102ED00000D10E1021
:10468000C7B90000D10E1AA02E4000D10E3B000683
:104690007000D10E1000000000D10DEEEEEEE6002D
:1046A0000001CE10000000002D87D300000007D6C7
:1046B000005E810005CA208802AE827A96008800DA
:1046C00079B6003E108802E3000009A0880B800044
:1046D0000001A0881A0000000000880000005FFFB1
:1046E000FFFFFFFFF60000009800000000000088B8
:1046F000000000000C1004C00000004C0004C000CA
:10470000000096CEEEFEEEE001E30004C0000008DB
:10471000F34EEEFEEE601EE30004C0000099C300FD
:1047200004C0000070C6EEEEFEEEF100C30004C04F
:1047300000E000C30004C003E000C30004CAFE6040
:1047400000C30004C00000000C2007900000006CB3
:104750003EEFEEEEE300C6001E00000005F3005B36
:104760000000001DE3DEEEEEEEEB9AC301E2000076
:104770000061C304EEEEEED000C30000001D600037
:10478000C3059101C70000C3004C7C800000C3003A
:10479000007E400000C3000002B200001C0EEEEEDE
:1047A000EEE8007A000000960000D4078000960032
:1047B00005F10B300096001DE11D0000960098D118
:1047C0003EEEEFFEEB60D100004CA60000D10004ED
:1047D000C2960000D1006C10960000D12B9000967C
:1047E0000000D3B40000B60000D10000EFD20000FA
:1047F000000000010000000C1078000000004C02D6
:10480000E500000000A61CFFFFFFFB01E3BC2690B3
:10481000000008E330079000001BC35FFFFFFFF1BB
:1048200095C300087000F160C3000B5001F000C395
:10483000002E0001F000C301C70002E000C32C906D
:104840001006C000C3B6009FFE400000000000102C
:104850000000000000000000000A31E0000000003D
:104860002D01E00004A000A701E0006D4003E2017B
:10487000E01AB1000CF201E0B500008AD201E000BC
:10488000000061C2BEFEEFEEE900C201E00D1000C3
:1048900000C201E007900000C201E000C60000C2B3
:1048A00002E8C61C8000C205C84101A6000B300109
:1048B000DA0000004D000AAD500000B7009B02D4A2
:1048C0000004F22BA0002D800CE2B60000019798A6
:1048D000E104C0004A0060E104C007C20000E10436
:1048E000C4CA000000E104EC4001C000E104C000C3
:1048F00002D000E103D10008B0000000AEFFED409F
:10490000000B3002E80000004D000B8D300000B7B6
:1049100001B904D30004F34D70004D701DF6B300CF
:104920000001A79AD308EEEEEE0061D30870002DC7
:104930000000D30870005C0000D30873FFE600009D
:10494000D3087001008500D308900001D500D3037F
:10495000DFFFFEB000000000000000000B20088018
:104960000000002D390880000000880C58700000FD
:1049700000E3048970000006F2DFFFFFFFF21DE292
:10498000000B5000E198D2000E4600F170D2004DAD
:104990001D40F000D200A70491F000D206C0000232
:1049A000E000D25D201106C000D4B2007FFE4000BE
:1049B000000000001000000C2003A00000006C00AC
:1049C00000A5000000C66FFFFFFFF605F36A0000B8
:1049D00000A61DF369000000A68BC30000000000C4
:1049E00061C3000000000000C3000000000000C31D
:1049F000000000000000C3000000000000C3000031
:104A000000000000C3BFFFFFFFF9000001111111FA
:104A100010001C0000C30000007B0004D000000058
:104A2000D40AFFFFFFE006F10A600002E02EE10A6F
:104A3000600002E0A7E10A600002E070E10AEEEE29
:104A4000EEE000E10A600002E000E10A600002E03E
:104A500000E10A600002E000E10AFFFFFFE000E180
:104A60000A600002E0001D1000B50000007B00009D
:104A7000B5000000D6FFFFFFFFFB06F20000B60006
:104A8000001EE20000B50000A8D20000B5000070D2
:104A9000D21FFFFFFFB000D21F000005B000D21FE1
:104AA000000005B000D21F000005B000D21FEEEEDE
:104AB000EEB000D21F000005B0001C1BEEEEEED0E1
:104AC000007B0B300001D000D50B300001D005F287
:104AD0000BEEEEEED01DF20B300001D09AD20C2876
:104AE00070000061D20D287006A000D20E0875C8B3
:104AF0000000D23B08EA205700D2870870007700F8
:104B0000D4D1079000B500D86002CEED90000A50D5
:104B100000970000001E2C409701B2009804B09747
:104B20000BA002E40000973A000CF45FFFFFFFF3D4
:104B30008BB4000097000071B4000097000000B42F
:104B4000000097000000B4DFFFFFFFFB00B400008F
:104B500097000000B4000097000000B40000970028
:104B600000000B3001E70000004D00099D1000001F
:104B7000B7005C07B00004F204D100A9000DF16D8C
:104B800025A10AB29BE5A10089007961E10000003E
:104B9000000000E18FFFFFFFB000E10000007D306A
:104BA00000E109A52BA10000E10039EC100000E1B3
:104BB000000017C000001C000094000000790000F5
:104BC00094000000D35EDDEEDDF005D059009400C6
:104BD000E00DD059009400E08BD05EDDEDDDF07289
:104BE000D059009400E001D059009400E001D05E5B
:104BF000DDEEDDF001D059009400E001D00000941A
:104C0000000001D00000940000001C3FFFFFFFF0F7
:104C1000007B00000000F000D500000000F005F16E
:104C20008FFFFFF3F01DF100000000F09AD10000AB
:104C30000000F071D10EEEEE30F000D10E000C301D
:104C4000F000D10E000C30F000D10EEEEE20F0009E
:104C5000D10E000002E000D100000EFEA000000016
:104C6000000000000067000B200B4000A44B08A0D0
:104C70000B4001E04B01E40C4007D04B00760C30B8
:104C80001ED04B00000D2099D04B00000E1062D0BA
:104C90004B00003D0002D04B06B2790002D05EED21
:104CA00082E80002D07B500B9D5002D00002BA0374
:104CB000E302D0000B60007600670D0000000000EA
:104CC000B40E0008EEF101D4EFEE5850C108B00E5A
:104CD000095850C11EB00D095850C19AB01D09584D
:104CE00050C163B02C094850C102B03A0A4850C1C3
:104CF00002B0680A4850C102B0B40B3850C102B4C7
:104D0000C01D28EEF102BA29EA0850C1001C1FFF9D
:104D1000FFFFF0007A0F007700F000D40F0077005B
:104D2000F006F10F007700F01EF10F007700F09908
:104D3000E10FEEEEEEF071E10F007700F000E10F11
:104D4000007700F000E10F007700F000E10F00773E
:104D500000F000E10FFFFFFFF000E10F000000F0A6
:104D6000000B4AEEEEEEA0002E1A500005A000A89F
:104D70000A500005A003E10A500005A00CF00AEE5D
:104D8000EEEEA08BF00A500005A071F00A5000056D
:104D9000A000F00A500005A000F00AEEEEEEA00020
:104DA000F00A500005A000F0000000000000F0DE56
:104DB000EEEEEEEB001D1001C20000007B00007A59
:104DC000000000D4CFFFFFFFF806F1000000000054
:104DD0001EE10A3000087099E10890000D5061E171
:104DE00003E0003E0000E100D400790000E100890A
:104DF00000C40000E1003B02D00000E10000088098
:104E00000000E2FFFFFFFFFC0000000000000000C8
:104E10000B2012357AD4005C0FDDDE963000B50F22
:104E2000002C000005D00F002D00001DC00F001E3B
:104E30000000ABC00FEEEFEEE972C00F000D1000E6
:104E400001C00F000B400001C00F0388800001C0AB
:104E50000F7D32D01A01C01FB2B1AB6B01C0390057
:104E6000590AE5000A5000B30000001E1000690056
:104E70000000984FFFFFFFF502E600007800000CED
:104E8000E600007800008B96000078000071960E16
:104E9000FFFFFFE000960000780000009600007819
:104EA00000000096000078000000960000780000E6
:104EB0000096BFFFFFFFFB00000000000000003A6B
:104EC00000096000000088000D30000000D2FFFFE4
:104ED000FFFFF905E000880000000CE000D20000B0
:104EE000006CE005A0000000B4E00CFFFFFFF01133
:104EF000E06A001E000001E1E3001E000001EA90EC
:104F0000001E000001E310001E000001E000001E72
:104F1000000001E06EEEEFEEEA003B0001D0000081
:104F200000870006A0000000E1CFFFFFFFF907E0C7
:104F3000003C0000001EE000B2000000A9E006FEF8
:104F4000EEEEE071E03CE00001E001E1C2E00001D2
:104F5000E001E740E00001E001E000E00001E001E5
:104F6000E000EEEEEEE001E000E00001E0001C00F9
:104F700000E0000000690000E0000000C5EEEFFF67
:104F8000EEE605D0001CEC10000DD00068E86000D3
:104F90009AD000C3E4B00072D004C0E0C30001D0D6
:104FA0000B50E06A0001D06B00E00C5001D2D2EE51
:104FB000FEE5E301D84000E0005801D00000E00029
:104FC0000001D00000E00000001C6FFFFFFFFC00AC
:104FD0007B000000079000D4000000078006F10F5E
:104FE000EEE907801EF10E005907809AE10E005984
:104FF000078071E10E0059078000E10FEEE907809C
:1050000000E10E0000078000E1000000078000E1E1
:105010000000111A7000E100007FEC200000000089
:10502000000000000C1000B20000006B00008800BF
:105030000000C55EEEEEEEE605F359000000961D99
:10504000E359000000009AC30690001A5071C3068D
:105050009005D90000C30694CC400000C306EC5074
:10506000009300C306A00000C400C305B00003E124
:1050700000C301CEFFFD60000001CE100000000063
:105080002DA8C200000007E9008E500005CE600088
:1050900005EC507C8DFFFFFFC7C70000000000003B
:1050A000004FFFFFFFFFFFF4000000790000000049
:1050B0001B407900000005D800790A70002C4000E0
:1050C0009801AC300000EFD30004C20000000000E3
:1050D0000000000000CD00000000000A75A00000E4
:1050E0000000A700690000002B500004A20007BDCB
:1050F000FFFFFFCB707800007A0000870000006996
:105100000000004FFFFFFFFFFFF4002C407A0981F1
:105110000005D70069019D402C4011990004C20090
:1051200000EFD4000000000A4000690000003E04C7
:105130009069000000A7098068000004E30DEEEE0E
:10514000EEE41DF35D007800009AC377008700004D
:1051500071C3AEEEEEEEEA00C30001DC100000C346
:10516000000975800000C3007B00B50000C31AB0C1
:10517000001C7000C3B700000198002C00770C20C1
:1051800000008800770C200000D2EEEEEEEEC006A4
:10519000C000770C23C01DC000770C23C08BC0EE6D
:1051A000EEEEEEC072C1E0860C200001C3EEEEEE22
:1051B000EEE601C000D20C20A501C005B00C30C441
:1051C00001C03D200C8FC001C0B3000C2000000CBA
:1051D0002087000000006C00E300000000C605EE20
:1051E000EEEEEA05F30D44C000001DF38B04C00091
:1051F000009DD3A204EEEEE372C30004C0000000E1
:10520000C30004C0000000C30004EEEEE500C300CC
:1052100004C0000000C30004C0000000C30004C0BC
:105220000000000A30B3000000002D03E000000081
:1052300000A709EEEEEEF403E22E100000C30CF21C
:10524000A8000000C38BD3BCEEEE50C261C20B308D
:105250000950D200C20B300950D100C20BEEEE5003
:10526000E100C20B300000F000C200002105D000B8
:10527000C20000EFFE5000000000001000000C6EA5
:10528000EEEEEEE0005C000000000000C600000052
:10529000000004F2CEEEEEEEE91DF2000860000020
:1052A0008BD2000E30000061D2EEEEEEEFEA00D2BB
:1052B00000C400880000D206E403E10000D20039F7
:1052C000DE600000D2026CB8DA3000D2BB7200059A
:1052D000B4000A3095000000002D06EEEEEEC0008E
:1052E000A75DC3002D5003E3B22D44D6000CF2009D
:1052F00004EE40008BD215AD89D83061C4D950007E
:1053000016B800C2001DB8510000C2000269C500F5
:1053100000C20BA510000000C2026AEB610000C2CF
:105320000000049C10000A504A000000001E10B645
:10533000000000009804FFFFFFF802E41D50000089
:10534000C50CF439006903B08BB40000690000712A
:10535000B402C0690C3000B40C506905D100B469C6
:105360000069008700B4000069000000B4000099E3
:10537000000000B400EFE4000000000001000000A5
:10538000001C4EEEEEEEE100794B009600D100D30A
:105390004B009600D105F04EEEEEEEE10DF04B0025
:1053A0009600D19AF04A009600D161F04EEEEEEEF2
:1053B000E100F058009600D100F076009600D10090
:1053C000F0B3009600D100F2D0009601E100F37036
:1053D0000096EFB000000000000000000BAEFEEEF3
:1053E000EEE7003D00E000000000A602D000000053
:1053F00003F203EEEEE5000CF205900095008AD270
:10540000077A00950071C2095880950000C20B30E0
:10541000D3950000C20D1057952A00C20E0001A5B9
:105420003B00C24E8BE8966900C25C84104EE300DC
:10543000000000000000000001CE10000000002C61
:1054400097D200000006D6005D600005CA20000269
:10545000AC507A5FFFFFFFF6A700000000000000DD
:1054600000A401C0002C00007B00C4008900000ED5
:10547000307A00D3000008602B05C0000000000057
:105480000B50005FFFFFFFFFFFF500000000000072
:1054900000000A3006900000002D00069000000079
:1054A000A70006EEEEA003E400069000000CE40066
:1054B000069000008BB6EEEEEEEEEB61B4000681D6
:1054C000000000B40006CE700000B4000682AD50AB
:1054D00000B400068003B300B4000680000000B4EE
:1054E00000068000000095DDDDDDDE3000D1D0005B
:1054F000000B3003C0D6DDED9B300990D005800B4A
:10550000301E90D4EDED8B309C90D485858B30652A
:1055100090D485858B300490D485858B300492B4EB
:1055200085858B3904958485868A4B049A3485CE8B
:10553000487A049900058004F7000000000000414B
:10554000001C000C2000000069000C20000000C3BB
:105550005EEEEEA1B205D0000C201C800DC0000C48
:1055600022C7008CC6EEEEEEEEE973C0002AB20050
:105570000002C04AD4004B2002C8A8B16CC500028A
:10558000C004ED9300C002C004C00005D002C000FA
:10559000BEEEED5000000000000000000B33B10033
:1055A0004B00003D008802D40000A78EEEFEEEE521
:1055B00003E30000B500000CF30000B500009AC33F
:1055C0002EEEEEEEA071C30000B5000000C3000097
:1055D000B5000000C3EEEEFEEEE900C30000B5002A
:1055E0000000C30000B5000000C30000B5000000CB
:1055F0001C5EEEFEEEE8007A0001E1000000D4003F
:1056000005B0000006F10AEEEEEEE01EF10A5000D1
:1056100001E09AE10A500001E071E10AEDDDDDE010
:1056200000E10A500001E000E10A500001E000E161
:105630000A500001E000E10AEEEEEEE000E10A505F
:105640000001E0000C2000870000005C2EEEEEEE72
:10565000E100C6000087000004F200008700001D82
:10566000F29EEEEEEEE98BD2000000000061D20067
:105670000078000000D2000078000000D23EEEEE7C
:10568000EEE300D2000078000000D20000780000B5
:1056900000D2BEEEEEEEEC000CBEEDDDDED3007A05
:1056A0000860001D0002E20860001D000BF008ED1C
:1056B000DDDD008CF00860001D0072F00860001D48
:1056C0000000F008EDDDDD0000F00860001D0000C6
:1056D000F00860001D0100F0098579BFD700F3ECE8
:1056E000A8643D0000F00000001D00000C2000B583
:1056F0000000005C0000B5000000C6EEEEFEEEEA21
:1057000005F20000B500001DF20000B500008BD2CC
:105710006EEEEEEEE061D2000000000000D20FEE6F
:10572000EEEEA000D20F000005A000D20F00000591
:10573000A000D20FEEEEEEA000D20F000005A000F8
:105740000C104A096000004B004A09600000B5B225
:105750004A0960B204E0894A0966C00CE01B5A0994
:105760006B208BE0005A09700072E003E909EA300F
:1057700001E06CA70965C301E2A1B309600001E083
:1057800004C009603901E04D2009707901E3B200DD
:1057900004EFD3001C1001B00000007B0000A40047
:1057A0000000D5AEEEEEEEE705F200A300B1001D5D
:1057B000F206C0006C109AD24D200008B061D2945D
:1057C000B100B3A200D2008905C00000D2001C8E37
:1057D000300000D20006FB000000D204AC6AD510F5
:1057E00000D2AA500038C1000B2058058000003CB0
:1057F00000C501E00000B505D000970003E01D6082
:10580000001D200CE0BFEEEEEED18BE2AD30000DBE
:10581000A772E00CEEEEEE2001E00C30000D20014E
:10582000E00CEEEEEE2001E00C30000D2001E00C6B
:1058300030001E2001E00C308FFB00000000000152
:105840000000002C0000B40000007AEEEEEEEEEA5C
:1058500000D20000B4000005C06EDDEEDDE00DC03A
:105860006900B400E08BC06900B400E073C06DDD76
:10587000EEDDE002C00400E100E002C009A4C000C7
:105880000002C000AE80000002C006DAEC74100214
:10589000C3C82005ADF700000000000000002C3E4A
:1058A000EEEEEE8000793C0000078000D33C000063
:1058B000078005D03EEEEEEE801DC03C0000078064
:1058C0009CC0000000000073C00D21D0590002C030
:1058D0000D21D0590002C00E01D0590002C03C0178
:1058E000D0592A02C0B501D05A4B02C58000001C15
:1058F000D5000B8EEEEEEEE4003E000C4000000002
:10590000A7008800740003F107A0013B000CF01E03
:10591000EEDCBB409BF001009500B071F0000095FB
:10592000009100F05EEEEEEEE100F0000095000068
:1059300000F0000095000000F0000095000000F16C
:10594000EEEEEEEEEB000A4008600000003E006E56
:10595000EEEEF200A807B10009A003E4780A71AAEC
:10596000000CE40001DE60008BB4028CC400007106
:10597000B48A54EEEEE900B4003A0001D400B40752
:10598000A5902C6000B478009CD40000B40038C707
:10599000100000B46B84000000002C0004A0000084
:1059A0000089CEEFEEEEE500D300B803C20006D0CA
:1059B0003C90003C601EC3C7DDDDD4989BC0000056
:1059C00000000073C1DDEDDDDDD402C005A00000E4
:1059D0000002C007DDDDDE2002C00000000E100264
:1059E000C00000004E0002C0000EEFE60000000004
:1059F00001000000005900000000C200B5CEEEE634
:105A000000C201E007700000C208D00B4003B0C222
:105A10002DD01EEEC3B0C297D07904A3B0C260D11E
:105A2000DA4873B0C200D651CE23B0C200D000898C
:105A300003B0C200D003D10000C200D04D3000003E
:105A4000D200D1B20004FFC000000000000000003E
:105A50000B3000780000003D2EEEEEEEE200A700D5
:105A60000078000003F100007800000CF0BEEEEEBC
:105A7000EEEB9BF0000000000071F00000007800E9
:105A800000F0AEEEEEEEEB00F0000000780000F06B
:105A900006C200780000F0006400980000F00005E5
:105AA000FFE30000000000110000002B0000A50033
:105AB0000000780770A5000000D22EEEEEEEC006C2
:105AC000C09700A500000DC00000A500009BC0EE1F
:105AD000EEFEEEE873C0000ADD200002C00088A6DA
