:0200000490006A
:100000001075002085630090496300904B63009059
:100010004D6300904F63009051630090000000001A
:10002000000000000000000000000000536300908A
:100030005563009000000000854900909B450090AA
:10004000A1630090A5630090A9630090AD63009048
:10005000B1630090B5630090B9630090BD630090F8
:10006000C1630090C5630090C9630090CD630090A8
:10007000D1630090D5630090D9630090DD63009058
:10008000E1630090E5630090E9630090ED63009008
:10009000F1630090F5630090F9630090FD630090B8
:1000A0000164009005640090096400900D64009064
:1000B0001164009015640090196400901D64009014
:1000C0002164009025640090296400902D640090C4
:1000D0003164009035640090396400903D64009074
:1000E0004164009045640090000000004964009065
:1000F0004D640090516400905564009059640090E4
:100100005D64009061640090656400906964009093
:100110006D64009071640090756400905763009066
:10012000796400907D640090816400908564009003
:10013000896400908D6400909164009095640090B3
:1001400000000000000000000000000000000000AF
:10015000996400909D640090A1640090A564009053
:10016000A9640090AD640090B1640090B564009003
:10017000B9640090BD640090C1640090C5640090B3
:10018000C9640090CD640090D1640090D564009063
:10019000D9640090DD640090E1640090E564009013
:1001A000E9640090ED640090F1640090F5640090C3
:1001B000F9640090FD640090016500900565009071
:1001C000096500900D65009011650090156500901F
:1001D000196500901D6500902165009025650090CF
:1001E000296500902D65009031650090356500907F
:1001F000396500903D65009041650090456500902F
:10020000496500904D6500905165009055650090DE
:10021000596500905D65009061650090656500908E
:10022000696500906D6500907165009000000000A8
:100230007565009079650090000000007D65009074
:100240008165009085650090896500908D650090BE
:100250009165009095650090996500909D6500906E
:10026000A1650090A5650090A9650090AD6500901E
:10027000B1650090B5650090B96500900000000080
:10028000BD650090C1650090C5650090000000004C
:1002900000000000C96500902DE9F14FB2B0994609
:1002A000924600230691CDE900333C9A0F930DF15D
:1002B0004A0114914A7011E0329E57462C4617F8B5
:1002C000011B0698B0470028069000F026810F9881
:1002D000401C641E0F90F2D13296AA449AF8000096
:1002E000252808D10021002209910A920B910C9235
:1002F0000D910E920FE06A464FF0FF31504601F02B
:100300007FF8050002D10F9800F066BED4D5012514
:10031000E3E741F001011AF8010F2028F9D0232862
:100320000CD02B2804D02D2805D0302809D00BE084
:1003300041F00201EFE741F00401ECE741F0080170
:10034000E9E741F01001E6E72A280FD1D9F80020AB
:1003500052F8040BC9F800200028119003D5404240
:10036000119041F004010AF1010A14E01192DFF842
:10037000EC3B0AE01198984205DA00EB800402EBAE
:100380004402303A11920AF1010A9AF80020A2F1CF
:1003900030000A28EED39AF800002E2803D04FF040
:1003A000FF32109229E01AF8010F2A2809D1D9F852
:1003B000000050F8042BC9F8000010920AF1010A5D
:1003C0001BE02D280CBF0AF1010A00200022109228
:1003D000DFF8882B0BE040B9109B934205DA03EB62
:1003E000830504EB4504303C10940AF1010A9AF8A5
:1003F0000040A4F130030A2BEDD3ADF848100FF6FE
:1004000060309AF8001001F005F808B11AF8010BF5
:100410008DF84A009DF84A00682805D19AF8000036
:1004200068280CD1622106E06C2804BF9AF800000D
:100430006C2804D171218DF84A100AF1010A1FA815
:1004400008901AF801BBBBF125012DD01C3900F032
:100450006181091F022940F25D810E392AD0491FAE
:1004600000F0B384093900F05581891E00F04985F8
:10047000491E00F0F584491E022940F24B81091FF4
:1004800000F0EE84491F00F0BA80491E00F09D8400
:10049000491E65D0C91E21D0891E00F09684C91E50
:1004A00000F0938400F04CBD25238DF87C300121B1
:1004B00009912AE06C208DF84A00D9F8000050F824
:1004C000042BC9F80000002A43D114994878002869
:1004D0003DD04FF0FF340FF6902012E09DF84A0017
:1004E0006C28EAD0D9F8000050F8044BC9F8000095
:1004F0000794D4B91499487898B14FF0FF340FF6A7
:10050000842000F0A1FF201A07D132981FAA04A965
:1005100000F065FD00287FF5E1AE4FF0FF3000F000
:100520005BBD0FF67C200790EFE7109D002D04D5F2
:10053000204600F0A9FF044607E02A46204600F0C6
:10054000CBFF002814BF041B2C460A94DDE70FF6EE
:100550005422329804A900F0C8FD0028D5D5DCE764
:10056000D9F8001051F8040BC9F8001020F000046D
:10057000002121F0FF351FABCDE904450793DDE9EC
:10058000042308993C2413B90AB9109898B102F0D1
:100590000F053035641EEEB23A2EA8BF273512097A
:1005A00042EA03721B090D5508BF002A03D00798C1
:1005B0000D19A842EBD308190790C4F13C0210981A
:1005C0000A92824209DABDF84810821A4FF6EF709B
:1005D00001400C92ADF8481097E7002895D59DF89A
:1005E000480000F0140010288FD1119B09990C9835
:1005F0005B1A1B1A9A1A002A87DD0C9285E7149958
:10060000487820B14FF0FF340FF69C1079E79DF841
:100610004A00622862D0682819D06A2840D06C2825
:1006200006D071284DD074282DD07A281ED064E0D1
:10063000D9F8001051F8040BC9F8001020B94FF098
:10064000FF340FF67C105CE70F9901605DE7D9F885
:10065000001051F8040BC9F8001020B94FF0FF3416
:100660000FF65C104DE70F9901804EE7D9F80010A6
:1006700051F8040BC9F800100028E5D14FF0FF3401
:100680000FF63C103DE7D9F8001051F8040BC9F8FB
:1006900000100028D8D14FF0FF340FF6241030E7B7
:1006A000D9F8001051F8040BC9F8001020B94FF028
:1006B000FF340FF60C1024E70F9AD317C0E900237C
:1006C00023E7D9F8001051F8040BC9F800100028EE
:1006D000F2D14FF0FF340FF6E80012E7D9F800101E
:1006E00051F8040BC9F8001020B94FF0FF340FF691
:1006F000D00006E70F99017007E7D9F8001051F80C
:10070000040BC9F8001000289ED14FF0FF340FF6FB
:10071000B000F6E6D9F80020D21D22F00702C9F891
:100720000020D2E900010832C9F80020CDE9040117
:10073000C80F02D009982D210AE0BDF848008107B2
:1007400002D509982B2103E0C00705D5099820217F
:100750001FAA1154401C0990DDE9042309991FA820
:10076000CDE92E2308444BF020016129079015ACF8
:100770000BD01099002902D50621109105E001BF88
:100780004BF02001672901221092DDE90423590072
:100790004915491C10D11A030ED0ABF16105032194
:1007A0001A2D0A9102D20FF6A43101E00FF6A03102
:1007B000032200F0BDFEA8E659004915491C0AD1E4
:1007C0001A0308D1ABF1610503211A2D0A9116D342
:1007D0000FF68431ECE7DDE90401CDE93001DDE914
:1007E000302323F00047B7F5801F22F000060DD21A
:1007F0000022002F08BF002E029203D116E00FF650
:100800005431D5E702AA00F0E7FE0FE0DFF8EC0A6A
:10081000DFF8EC1A00EB17500290DDE930234FF0BF
:10082000FF301940DFF8DC7A10403943CDE904018C
:100830004BF0200061280DD1079830210170821CF7
:10084000BBF1610F07920CBF7821582141700998C4
:10085000801C0990DDE9040120F0000231F0004322
:1008600008BF002A02D10026002571E14BF02008C4
:10087000B8F1610F40F0BE801098002847BF2121D9
:100880000391401C0390039FDDE92E017F1C002291
:100890000023DDE9044500F0D7FE02998DF85420CD
:1008A00038BF85F00045091F002F02910DF1550654
:1008B0005DDDDFF8541ACDE9302140F2FF732E934D
:1008C000204629460022002300F0D6FE4FD24800E1
:1008D000400D00F11C0215D0002A13DD2E9B9A4218
:1008E0000ADBDDE9300121F0004205F0004002435F
:1008F000DDE93001114611E06FF31E5141EA02516A
:1009000020460BE024F0000035F0004108BF00282D
:100910000FBF29461C22294600F0C6FE04460D469C
:1009200000F044FFFF1F002F804609DD00F045FF67
:1009300002460B462046294600F046FF04460D4677
:10094000F01D0721B8F1000F0CDD491E5EBF08F055
:100950000F0200F8012D4FEA2818F3D502E000221B
:1009600000F8012D491EFAD5C61D002FA8DC0DF197
:100970005500361A03988642D8BF304600280DF13C
:10098000550430D4B04206DA0DF155010A5C082A4C
:10099000A8BF0F2100DA0021024615AB134400E086
:1009A000401E13F80159521E8D42F9D00F2904D16F
:1009B0000DF155018B5C5B1C8B54002A04D5029908
:1009C000091D15AC401C0291411E0CD46218ABF1FC
:1009D0003A0613783033DDB23A2DA8BFF318491E1A
:1009E00002F80139F5D51099002940F1AF80421E77
:1009F0001092ABE00299DFF8142947F29750414377
:100A000091FBF2F2DDE92E45029225F00045D2F18C
:100A1000070204DD2046294600F04CFC0BE0524260
:100A20000020DFF8EC1800F045FC02460B4620469B
:100A3000294600F0D2FE0446B8F1660F109806BFB2
:100A4000029F0A3706273F18142FC8BF14273020EB
:100A50008DF854000D460020DFF8B818CDE92E01BE
:100A60000DF15506002F33DD2046294600F0BEFE6D
:100A700001460A4606F1080304200A26B2FBF6F6F0
:100A800006EB860EA2EB4E02303203F8012C0A224E
:100A9000B6FBF2F202EB820EA6EB4E063036401E9B
:100AA00003F8026DE9D1083F002F03F10806D9DDF4
:100AB000084600F0A2FE02460B462046294600F0FA
:100AC00083FEDDE92E2300F09FFE04460D46CBE7B2
:100AD0000DF15500361A0DF1550404E00298401E40
:100AE000761E0290641C20783028F7D0B8F1660F8B
:100AF00002D10299491C04E0B8F1650F0CBF012135
:100B00000021109808188642B8BF701E00281DD416
:100B1000B04204DA215C3429C8BF392100DC30211D
:100B20000246631E9D1800E0401E15F80169521E22
:100B30008E42F9D0392902D1A15C491CA154002A66
:100B400004D50299491C1C46401C02910646029D90
:100B500000F05AFC406A0778DDF8408030B2002887
:100B600002DC01260FF2F4744BF02000662808BF67
:100B70006D1C16D0672846D128B210F1040F48DB4F
:100B8000404546DA9DF848006D1C010703D430B299
:100B90004045B8BF804628B2B8EB000848BF4FF0C8
:100BA00000080FFA85FB07980A99BBF1000F00F3C4
:100BB000B2804A1C0A9230234354B8F1000F03DC80
:100BC0009DF84800010704D50A98411C0A9107992D
:100BD0000F5418EB0B0FB8BFC8F100052DB26842D7
:100BE0000D90A84432B29045B8BF4646079B0A987C
:100BF00036B20B9632462146184400F099FCA8EB19
:100C000006000E90CBE0BBF1610F17D14FF0700BD7
:100C100019E030B2404504DA9DF848100A0758BF81
:100C20008046B8F1010848BF4FF00008BBF1670FDC
:100C300014BF4FF0450B4FF0650B04E0BBF1410FC3
:100C400008BF4FF0500B0A98411C0A91B8F1000FF1
:100C5000079914F8012B0A5403DC9DF8480001079A
:100C60001AD50A98411C0A91B8F1000F07990F5440
:100C700012DD761E30B2804507980A9BB8BF464603
:100C800032B22146184400F053FC0A9936B271186A
:100C90000A91A8EB06000D9007980A9908442AB219
:100CA000002A80F800B003D42B224270811C04E09B
:100CB0002D2141701546811C6D4200202EAA0A2468
:100CC00009E02B4693FBF4F505EB8506A3EB460301
:100CD00002F8013B401C2DB2002DF2DC012806DC9D
:100CE0004BF02002652A04BF302201F8012B0028B6
:100CF0002EAA08D1302001F8010B06E0401E135C3B
:100D0000303301F8013B0028F8DC079A0A981044B8
:100D1000091A0B9143E0084431B22AB2914219DA20
:100D200032B2214600F004FC0A9936B27118ABEBDE
:100D30000606B8F1000F0A910D9603DC9DF84800F5
:100D4000020704D5079847540B99491C0B91CDF81D
:100D5000388024E0214600F0EBFB0A98761B5844CB
:100D6000B8F1000F0A9003DC9DF848100A0703D57C
:100D7000411C0A9107990F5430B2804507980A9B8D
:100D8000B8BF464632B204EB0B01184400F0D0FB6A
:100D90000A9836B230180A90A8EB06000D909DF81C
:100DA000480000F0140010287FF4AFAB099A0A99AC
:100DB0000D988A180B9982180E988A188218119823
:100DC0008242BFF6A2AB821A17E49DF84A0062285D
:100DD00008D068280ED06A2814D06C281FD071283B
:100DE00010D01CE0D9F8001051F8040BC9F800101D
:100DF000C0B21AE0D9F8001051F8040BC9F800107D
:100E000080B212E0D9F80020D21D22F00702C9F802
:100E10000020D2E900010832C9F8002006E0D9F824
:100E2000001051F8040BC9F800100021CDE90401AD
:100E30009DF8480001075AD5DDE90423002B08BFBF
:100E4000002A54D04BF02000782850D109981FA9CF
:100E500030220A54401C431C099301F800B046E0BC
:100E60009DF84A00622808D068280ED06A2814D05D
:100E70006C281FD0712810D01CE0D9F8001051F850
:100E8000040BC9F8001040B21AE0D9F8001051F86C
:100E9000040BC9F8001000B212E0D9F80020D21DEE
:100EA00022F00702C9F80020D2E900010832C9F88F
:100EB000002006E0D9F8001051F8040BC9F8001022
:100EC000C117CDE90401002902D509982D210AE0B6
:100ED000BDF84800810702D509982B2103E0C0071F
:100EE00005D5099820211FAA1154401C09901FA85C
:100EF00009990144079104A8594600F056F9FFF7F3
:100F000004BB9DF84A006C280BD001210991D9F847
:100F1000000050F8041BC9F800008DF87C10FFF7A2
:100F2000F4BAD9F8000050F8041BC9F80000159174
:100F30004FF0FF3210920021169115AAFFF709BB5E
:100F400025210122BBF1000F8DF87C1009923FF49E
:100F5000DCAA8DF87DB00221FFF7AABACBCCCC0C6D
:100F6000686A6C747A4C00007072696E74665F73A4
:100F70003A2062616420256C7320617267756D652B
:100F80006E7400007072696E74665F733A206261FD
:100F90006420257320617267756D656E74000000B2
:100FA00000000000000000007072696E74665F73DC
:100FB0003A20256E20646973616C6C6F77656400FC
:100FC0007072696E74663A2062616420256E2061D9
:100FD0007267756D656E740033B0BDE8F08F2DE9F2
:100FE000FC410F46064690467A6B7869396ABC6ABE
:100FF000121AB869521A796A121AF869521A121A30
:1010000097F83800141B41070FD42020002C8DF8CE
:1010100000000ADD254601236A463946304600F0C5
:101020007DF900285DD16D1EF5D17B6942463946B8
:10103000304600F073F9002853D130208DF80000BD
:101040003D6A002D09DD01236A463946304600F02D
:1010500065F9002845D16D1EF5D1BB69FA6839469E
:10106000304600F05BF900283BD130208DF80000BD
:101070007D6A002D08DD01236A463946304600F0BE
:101080004DF970BB6D1EF6D1F868B969FB6942185D
:101090003946304600F042F918BB30208DF8000088
:1010A000BD6A002D08DD01236A463946304600F04E
:1010B00035F9B0B96D1EF6D197F8380041070DD556
:1010C0002020002C8DF8000008DD01236A463946F7
:1010D000304600F023F920B9641EF6D10020BDE8A7
:1010E000F6814FF0FF30BDE8F6812DE9F8470D4657
:1010F000A3B02F6B002F8246904648BF6FF0004789
:1011000000F08BFB696B401801AA0021C2E90011B5
:10111000812828BF4FF0FF3044D289461EE0A74205
:1011200030DB6869201881280BD30021696303AA8A
:1011300029465046FFF753FF5FEA000922D40020FA
:10114000686103AB6E6922466946981900F0F0F9B0
:10115000A6196E6158F8040BA0B13F1B002F11DDDA
:10116000D8F8001001AA684600F04CF90446002C9B
:1011700005D4D8F800000028D1D1641ECFD54FF097
:10118000FF390EE0B9F1000F504604D103AA2946F9
:10119000FFF725FF8146B9F1000F02D100206861F9
:1011A0006863484624B0BDE8F0872DE9FC43074654
:1011B0006F293E6908BF082405D041F02000782837
:1011C00014BF0A2410243C25D7E90023642918BF42
:1011D00069299046994605D1002B03D5D8F100081E
:1011E00069EB4909B9F1000F08BFB8F1000F0CD144
:1011F000386B50B9082C39D197F83800010735D52C
:1012000030203B2586F83B0030E08DF8001040464A
:1012100049462246E31700F005FB3032D0B26D1E7E
:101220003A28019504DB9DF80000A0F151018A18CD
:101230007255404649462246E31700F0F3FA8046CD
:101240005FEA010908BFB8F1000F03D0F86871190F
:101250008842DCD3082C09D197F83800010705D55E
:10126000705D302802D06D1E30207055C5F13C02F3
:10127000BA617119F960386B824208DA821A3A62EF
:101280004FF6EF70398F01403987BDE8F3830028AE
:101290000ED597F8380000F01400102808D17B6BA9
:1012A0007969386A5B1A1B1A9A1A002AC8BF3A620F
:1012B000BDE8F3832DE9D04306460F4614464FF0B0
:1012C0000008DFF8549012E0E00707D542464B468D
:1012D0003046394600F098FA06460F4640464946E1
:1012E00042464B4600F090FA641080468946002C36
:1012F000EAD130463946BDE8D083000002FCFFFF4A
:10130000FFFF0F800000E03F0000F07FA08601009B
:101310000000F03F84D7974100002440F8B505460F
:101320000E4617461C4600205CB117F8011BB0683A
:10133000A847B06030B1F06A401CF0620020641E23
:10134000F3D1F2BD4FF0FF30F2BD00006E616E00D0
:101350004E414E00696E6600494E4600300030B482
:10136000002513E050F8042BD30744BFA9F1010373
:101370009A18091F042942F8045BFAD213468C0715
:1013800044BF15809B1CC90748BF1D7050F8041B43
:101390000029E7D130BC70471C48704770B45368CF
:1013A000D41801E05B1C491E042B08DA00291FBF7A
:1013B000057804F8015B10F8016B002EF2D1536040
:1013C00070BC704738B514461D4661B1FFF7E6FFA3
:1013D00061686A6B204690476FF00102811A02D063
:1013E000491E01D001E003E005E00021616032BD4B
:1013F0006FF0010032BD4FF0FF3032BDDA6B1047A5
:10140000024BDFE7014BF9E701487047500000202D
:1014100018000020C9B202788A421AB11CBF10F825
:10142000012FF9E718BF00207047B1F5807F02D384
:101430004FF0FF3070470170012070470078401E68
:101440008041C043C00F704780B500B906A0054970
:101450000B681BB122220021984701E000F065FAD9
:10146000222002BD0C550020636F6E737472616997
:101470006E742068616E646C65723A2062616420EB
:101480006D6573736167650000F10103810704D026
:1014900010F8011B820781B1FAD10268A2F1013173
:1014A000914311F0803104BF50F8042FF6E709BAD8
:1014B000B1FA81F100EBD100401CC01A704782687C
:1014C000521C8260426832B10268531C0360117082
:1014D0004168491E41607047C9B2830706D0521E59
:1014E00022D310F8013B9942F7D11FE0083A13D3F9
:1014F00002F1040241EA012141EA014150F8043BB2
:10150000121F21BF4B40A3F1013C2CEA030C1CF03D
:10151000803FF3D0C9B2001F083210F8013B521EC1
:1015200028BF91EA030FF8D818BF0120401E70476A
:1015300062B38B0708D0521E11F8013B00F8013B43
:1015400000F024808B07F6D1830740F0208000BF95
:10155000103A07D330B4B1E83810103AA0E8381088
:10156000F9D230BC530724BFB1E80810A0E8081036
:1015700044BF51F8043B40F8043BD20724BF31F884
:10158000022B20F8022B44BF0B7803707047121F08
:1015900017D35B0009D151F8043B20F8023B1B0C28
:1015A000121F20F8023BF6D20BE051F8043B00F882
:1015B000013B1B0A20F8023B1B0C121F00F8013BE9
:1015C000F3D238BF121D521E24BF11F8013B00F8A0
:1015D000013BF8D870472E0010B5144600F002F811
:1015E000226010BDC1F30A5343B14A0012F5001F37
:1015F00028D2A3F2FE32A1EB0251704750EA410C0F
:1016000020D001F0004C31EA0C01B1FA81F204BFA4
:10161000B0FA80F3D2180B3AB2F120032CBF00FAD3
:1016200003F1914041EA0C013EBFC2F1200C20FAC7
:101630000CF319439040524240F2FD33D21A01EBB1
:1016400003517047002270474FF4001C1CEB410F00
:1016500094BF1CEB430F09E041EA030C50EA4C0C29
:1016600052EA0C0C03D2994208BF9042704714BF53
:101670008B428242704743004FF4001C1CEB410F29
:1016800094BF1CEB430F09E041EA030C50EA4C0CF9
:1016900052EA0C0C03D28B4208BF8242704714BF3F
:1016A000994290427047000041EC100B104600B583
:1016B00000F004F851EC100B00BD0000020030EE09
:1016C000101B40F2FF7C37D41CEA115313D0634542
:1016D0006BD09B18634504D201EB025120EE101B26
:1016E000704701F0004141EA0C51002041EC100B21
:1016F000AFF30080704710EE100B50EA410054D059
:10170000B2F57F7F08D202EB5C010905002041ECB5
:10171000110B20EE010B70474FF0FE41002341EC0E
:10172000113B20EE010BB2F57E7230EE101B4FEA3A
:10173000410342EB5353CDE752421CEA115316D0FA
:10174000634532D09A4204D2A1EB025120EE101B25
:1017500070475B1ED21AA1EB035120EE101B372AF3
:101760000CD3002001F0004141EC100BC0E710EE5B
:10177000100B50EA410018D0372AF2D2C2EB5C02BB
:101780001105002041EC110BF1EE100A20F01F01B1
:1017900021F4F851E1EE101A20EE010BF1EE101ACF
:1017A000E1EE100A11F0080FA2D1704741EC100BC6
:1017B000BDEEC00B10EE100A704700EE100AB8EE36
:1017C000C00B51EC100B704741EC100B43EC112B8C
:1017D00030EE410B51EC100B704741EC100B43EC19
:1017E000112B80EE010B51EC100B704741EC100BEC
:1017F000BCEEC00B10EE100A704700EE100AB8EEF7
:10180000400B51EC100B704741EC100B43EC112BCB
:1018100020EE010B51EC100B704780B5FFF7BCFDBB
:10182000006C02BDD3BBD9B1B2F5803F5BD2022AB6
:101830001ED98C46B1FBF2F102FB11C31B0443EA33
:101840001043B3FBF2FC02FB1C3380B240EA0343BB
:10185000B3FBF2F002FB103240EA0C400023704769
:10186000022A05D98446B0FBF2F002FB10C2704791
:101870004AB105D100F0010249085FEA3000704723
:1018800000220023704700F053B80B000200002133
:1018900000207047F7D3002200237047904271EB7D
:1018A000030CF2D370B5B1FA81F4B3FA83F52C1BB3
:1018B000A340C4F1200532FA05F63343A2405FF09D
:1018C0000046E64002E05B085FEA3202841A71EBF0
:1018D000030524BF204629467641F4D302000B00BD
:1018E0003000002170BD70B5B1FA81F4B2FA82F512
:1018F000C4F120046419B4F12006DAD3B2405FF0D9
:101900000044F440002502E052085FEA3303C61A9F
:1019100071EB020E24BF3046714664416D41F3D332
:1019200002000B002000290070BD012000F002B869
:101930007047000080B5AFF30080024A1100182004
:10194000ABBEFBE7260002002DE9F0470446002667
:101950002068B046DFF84857010122D5626E4AB1CF
:10196000B2F5801F0BD0B2F5001F15D0B2F5401FA5
:1019700009D014E0EB6943F40033EB6105E0022188
:1019800000F085FB064630000AD1296C606E21F418
:1019900040110143296404E000F07CFBF2E70126DA
:1019A000B0462068C1051CD5626D042A17D8DFE84F
:1019B00002F0030E1205050000F05EFB30000FD1AF
:1019C000296C606DC90840EAC101296409E000F092
:1019D0005DFB0646F2E7002100F054FBF9E7012623
:1019E000B0462068810520D5A26D4AB1402A12D0A8
:1019F000802A14D0C02A18BFB2F5807F02D012E02E
:101A000000F03AFB30000FD1296CA06D21F4E07199
:101A10000143296409E000F039FB0646F2E70021A2
:101A200000F030FBF9E70126B046206804F1840796
:101A3000410523D53A6A62B1B2F5001F14D0B2F560
:101A4000800F15D0B2F5C00F18BFB2F5000F02D04D
:101A500012E000F011FB30000FD1A96C386A21F4BC
:101A600060010143A96409E000F010FB0646F2E7BB
:101A7000002100F007FBF9E70126B04620680105C8
:101A800023D57A6A62B1B2F1807F14D0B2F1007FBF
:101A900015D0B2F1407F18BFB2F1806F02D012E0D2
:101AA00000F0EAFA30000FD1A96C786A21F0E06109
:101AB0000143A96409E000F0E9FA0646F2E70021D3
:101AC00000F0E0FAF9E70126B046206881011AD556
:101AD000A26C42B1102A04D0202A0DD0302A02D0A4
:101AE0000FE000F0C9FA30000CD1E96BA06C21F0D6
:101AF00030010143E96306E0022100F0C8FA06461E
:101B0000F1E70126B0462068C10423D5E26D62B139
:101B1000B2F5805F14D0B2F5005F15D0B2F5405F2A
:101B200018BFB2F5804F02D012E000F0A5FA3000E5
:101B30000FD1296CE06D21F4E0410143296409E0F3
:101B400000F0A4FA0646F2E7002100F09BFAF9E75C
:101B50000126B0462068810422D5226E92B1B2F5EA
:101B6000803F0BD0B2F5003F15D0B2F5403F1CBF0F
:101B7000B2F5802FB2F5A02F04D00FE0012100F0C4
:101B800086FA064630000AD1296C206E21F4E02145
:101B90000143296404E000F074FAF2E70126B0463C
:101BA0002068410422D5BA6A92B1B2F1805F0BD0AD
:101BB000B2F1005F15D0B2F1405F1CBFB2F1804FAF
:101BC000B2F1A04F04D00FE0012100F060FA064608
:101BD00030000AD1A96CB86A21F0E0410143A96440
:101BE00004E000F04EFAF2E70126B0462068010456
:101BF0001AD5E26E42B1B2F1805F03D0B2F1005F5C
:101C00000BD00FE000F038FA30000CD1296CE06EF8
:101C100021F040510143296406E0012100F037FA28
:101C20000646F1E70126B0462068C10118D5626C6E
:101C3000032A13D8DFE802F004020D0400F01CFAB6
:101C400030000CD1E96B606C890840EA8101E963DE
:101C500006E0022100F01BFA0646F1E70126B04635
:101C6000206841023FD5DFF82496D9F8002042F4DD
:101C70008072C9F8002000F0F7FB8246D9F8000016
:101C8000C10506D400F0F0FBA0EB0A006528F5D3EF
:101C900027E0300026D1286EF96A00F4407001F484
:101CA000407188420BD0286E296E41F4803129663C
:101CB0002A6E20F4407022F480322A662866F86A80
:101CC000B0F5807F2BD100F0CFFB8146286E8107D5
:101CD00025D400F0C9FBA0EB090041F28932904203
:101CE000F4D30326B0462178CA0738D5A06F68B16F
:101CF000082807D010282DD018281CBF20282828F5
:101D000004D02AE0012100F0C2F90646300025D1B6
:101D1000696CA06F21F03801014369641FE0F86A23
:101D200000F44071B1F5407F09D12A68DFF86C15E5
:101D300001EA101122F47C520A432A6003E0286869
:101D400020F47C502860296EF86AC0F30B00014330
:101D50002966C8E700F095F9D7E70126B046217853
:101D60008A0719D5606F052814D8DFE800F007034B
:101D700010070707012100F08AF9064630000AD152
:101D8000696C606FC90840EAC101696404E000F051
:101D900078F9F2E70126B04621784A0719D5F868A4
:101DA000052814D8DFE800F0070310070707012112
:101DB00000F06DF9064630000AD1A96CF868C90830
:101DC00040EAC101A96404E000F05BF9F2E70126F2
:101DD000B04621788A0621D5B86888B1B0F1805F15
:101DE0000BD0B0F1005F14D0B0F1405F1CBFB0F178
:101DF000804FB0F1A04F03D00EE000F047F9064647
:101E000030000AD1696CB86821F0E041014369648F
:101E100004E000F03FF9F2E70126B04621784A06D7
:101E200021D5786988B1B0F5806F0BD0B0F5006F1F
:101E300014D0B0F5406F1CBFB0F5805FB0F5A05F67
:101E400003D00EE000F022F9064630000AD1A96C5A
:101E5000786921F4E0510143A96404E000F01AF923
:101E6000F2E70126B04621780A0621D5B86988B183
:101E7000B0F5005F0BD0B0F5804F14D0B0F5C04F77
:101E80001CBFB0F5004FB0F5204F03D00EE000F0BE
:101E9000FDF8064630000AD1A96CB86921F460410A
:101EA0000143A96404E000F0F5F8F2E70126B0462A
:101EB00021780A0710D5D4F88000B0F5805F04D1EE
:101EC00000F0E8F808B14FF00108696CD4F8800020
:101ED00021F44051014369642178CA060ED538695E
:101EE000B0F5807F04D100F0D5F808B14FF00108BB
:101EF000A96C386921F440710143A96421680A037F
:101F000019D5F86930B1B0F5803F0FD0B0F5003F7A
:101F100003D00EE000F0BAF8064630000AD1A96CF2
:101F2000F86921F440310143A96404E000F0B2F8FB
:101F3000F2E70126B04621684A031BD53868B0F5A0
:101F4000801F06D0B0F5001F0ED0B0F5401F02D0A4
:101F50000EE000F08CF830000BD1696C386821F489
:101F600040110143696405E000F08BF80646F2E792
:101F70000126B0462168CA0317D5E06C18B1B0F548
:101F8000803F0BD00FE000F072F830000CD1E96B0D
:101F9000E06C21F480310143E96306E0022100F0A6
:101FA00076F80646F1E70126B04621688A0004D596
:101FB00000F070F808B14FF0010821688A0318D5C5
:101FC000E06F58B1B0F5807F06D0B0F5007F18BF44
:101FD000B0F5407F02D00AE000F049F8300007D1A8
:101FE000696CE06F21F440710143696401E00126EE
:101FF000B0462268D00205D5296C206F21F000413F
:10200000014329642168CA0005D52B68386B23F485
:10201000804303432B6021688A0205D52B6CA06E98
:1020200023F0807303432B6421684A0007D52B6893
:1020300023F400432B602968786B014329602268F0
:10204000002A05D5EB6B206D23F040530343EB636F
:1020500021680A0205D56B6C786823F440030343BA
:102060006B645FEA080018BF0120BDE8F087E969EA
:1020700041F40031E9617047E86940F40030E861FB
:102080007047012104F1240000F062B90021201DF5
:1020900000F008B9022104F1240000F059B9000051
:1020A0001044025880B500F068FBDFF8B423DFF875
:1020B000B4131368C3F30212895C01F01F01C84016
:1020C00002BD000030B500F082F8C2F30015DA6BF3
:1020D000C1F3053100F088F81DD000F07EF802D081
:1020E000022C06D008E000F0B5F8996B00F04CF82F
:1020F00007E09FED652A01E09FED652A996B00F0EE
:1021000053F8996B00F095F8996B00F083F8996B90
:1021100000F073F801E000F031F82BE030B500F08A
:1021200056F8C2F300255A6CC1F3055100F05CF873
:102130001DD000F052F802D0022C06D008E000F0CA
:1021400089F8196C00F020F807E09FED4F2A01E0B4
:102150009FED4F2A196C00F027F8196C00F069F810
:10216000196C00F057F8196C00F047F801E000F026
:1021700005F800BF80ED020A30BD000000229FED8F
:10218000450A026042607047F7EE001AC1F3080189
:1021900001EE101AB8EE411A31EE000A70EE211A63
:1021A00020EEA10A70470000DFED3B1AC2EE200AC4
:1021B000C1F3080101EE101AB8EE411A00EE211A1F
:1021C000B7EE000A31EE000A20EE800A7047DFF811
:1021D0008C329C6A996ADA6A704714F0030400EE44
:1021E000901AF8EE600A7047C2F3CC0255430029FA
:1021F00000EE105AB8EE400A7047C1F3066100EED7
:10220000901AF8EE600A70EE810A80EE200ABCEEA9
:10221000C00A7047C1F3064100EE901AF8EE600A5A
:1022200070EE810AC0EE200AFCEEE00AC0ED010A61
:102230007047B7EE001AC1F3462100EE901AF8EE8F
:10224000600A70EE810AC0EE200AFCEEE00AC0EDE2
:10225000000A704719689FED101A20EE010A8A06DD
:102260000CD51968DFF8F041C1F3C101CC4001EE93
:10227000104AB8EE411AC1EE200A70479FED082AB5
:10228000C2EE200A7047000020BCBE4B0048025836
:102290000024744A0000000000000039CFFFFF0056
:1022A0000024744CF8B500F0CEF801D10120F2BD45
:1022B000286820F0806000F0BFF807462968080110
:1022C00006D500F0D1F8C01B0328F7D30320F2BDD8
:1022D000A86A316820F47C3040EA013000F094F8BC
:1022E000A863E96A706921F0C00100F0A8F8B0693C
:1022F00021F0200100F0A3F821F01001E962E86B61
:1023000000F07CF8E863E86A40F01000E8621CB96D
:10231000E86A40F4002004E0012C04D1E86A40F4AB
:102320008010E86203E0E96A41F40011E96228687C
:1023300040F0806000F080F804462968080105D468
:1023400000F092F8001B0328F7D3BFE70020F2BD8E
:10235000F8B500F078F801D10120F2BD286820F02E
:10236000805000F069F807462968880006D500F01B
:102370007BF8C01B0328F7D30320F2BDA86A31689D
:1023800020F07C7040EA015000F03EF82864E96AD1
:10239000706921F4406100F052F8B06921F40071D5
:1023A00000F04DF821F48071E962686C00F026F8C5
:1023B0006864E86A40F48070E8621CB9E86A40F436
:1023C000800004E0012C04D1E86A40F40000E862D7
:1023D00003E0E96A41F08071E962286840F08050CA
:1023E00000F02AF804462968880005D400F03CF87B
:1023F000001B0328F7D3BFE70020F2BDF1696FF39C
:10240000CF0040EAC1007047A862B1687068F26806
:10241000491E4902401EC0F30800521E01F47E41CD
:1024200012040843316902F4FE021043491E0906F2
:1024300001F0FE4108437047286000F015B80143E1
:10244000E962E96A70470646044DA86A0C4600F046
:1024500003000328704700000090D0030044025896
:10246000204402588C60009001484068704700BFCB
:10247000000000202DE9F0410400884656D0DFF826
:10248000BC63306800F00F00404502D200F0EBF86A
:102490007AD12078DFF8A853410706D52069AA69C8
:1024A00002F07002824200F0D7F82078010706D5CA
:1024B0006069EA6902F07002824200F0C6F8207892
:1024C000C10606D5A069EA6902F4E062824200F022
:1024D000B5F82078810606D5E0692A6A02F0700214
:1024E000824200F0A4F82078810706D5E068AA6946
:1024F00002F00F02824200F093F82078C10731D534
:10250000AA69A06822F470620243AA616068022886
:1025100002D129688A0308E0032802D129688A01C8
:1025200003E0012803D12968CA0503D42CE02B68F5
:10253000590729D52A69D20840EAC2002861FFF765
:1025400093FF07462869616800F03800B0EBC10FBF
:1025500008D0FFF789FFC01B41F289329042F1D3C6
:1025600003205BE02078810706D5E068AA6902F0C5
:102570000F02904200F054F8306800F00F008045E0
:1025800004D200F070F801D0012047E02078410724
:1025900006D52069AA6902F07002904200F05CF84A
:1025A0002078010706D56069EA6902F0700290425E
:1025B00000F04BF82078C10606D5A069EA6902F45C
:1025C000E062904200F03AF82078810606D5E06992
:1025D0002A6A02F07002904200F029F800F04EF8EA
:1025E000AA69DFF87012C2F303228B5CAC69DFF8D2
:1025F000545204F00F04095D03F01F03D840DFF8C4
:10260000483201F01F0120FA01F21A602860DFF859
:1026100040020068BDE8F04100F086BBBDE8F081F3
:1026200004D2A969090940EA0110A861704704D2DF
:10263000296A21F0700108432862704704D2E969D1
:1026400021F4E0610843E861704704D2E96921F0B0
:1026500070010843E861704704D2A96921F0700154
:102660000843A86170473168090948EA01113160DF
:10267000326802F00F0242457047000030B5704BDF
:102680007248196911F0380104D010290AD01829AC
:102690000AD069E01A68940667D51968C1F3C101C8
:1026A000C84030BD6D4830BD9C6A996ADD6A5A6B7E
:1026B00005F00105C1F30511C2F3CC025543002911
:1026C00000EE105AB8EE400A4CD014F0030400EEAD
:1026D000901AF8EE600A02D0022C20D022E019688D
:1026E0009FED521A20EE010A8A0608D51968C1F337
:1026F000C101C84000F03CF8C1EE200A03E09FEDA4
:102700004C2AC2EE200A186BF7EE001A00F02EF8E1
:1027100031EE000A70EE211A20EEA10A13E09FEDBF
:10272000452A01E09FED442A186BDFED401AC2EE06
:10273000200A00F01BF800EE211AB7EE000A31EE75
:10274000000A20EE800A186BC0F34620401C00EE01
:10275000900AF8EE600A80EE200ABCEEC00A10EE85
:10276000100A30BD002030BD3D4830BDC0F3080028
:1027700001EE100AB8EE411A704738B5FFF77EFF38
:10278000384A0146136833482E4DC3F30323C45C13
:10279000126802F00F02835C04F01F04E1402A4C2F
:1027A00003F01F0321FA03F02060296032BD80B5D9
:1027B000FFF7E3FF00F00FF8C3F3021206E080B565
:1027C000FFF7DBFF00F007F8C3F30222895C01F09A
:1027D0001F01C84002BD244A1E491368704710B546
:1027E0003F2202601C4A136803F0070343609468A9
:1027F00004F470648460936803F00F03C36094680A
:1028000004F070040461D36803F070034361D4687A
:1028100004F4E0648461126902F07002C261074846
:10282000036803F00F030B6010BD000000000039C7
:102830000024744C20BCBE4B0024744A002000527B
:10284000004402580C000020100000200090D0032B
:10285000080000208C6000901044025840787D01F0
:1028600000093D00184402581C440258F8B5040001
:102870002BD02078DFF8A454C10711D52869A96AA4
:1028800000F03800102805D0182804BF01F003011B
:1028900002296BD129688A0302D56068002814D008
:1028A000217841F20406880720D52869A96A10F02A
:1028B000380005D0182808BF11F0030F40F0A180A0
:1028C00029684A0703D5E068002800F0238200F059
:1028D000A6FAB04280F08E802069402840F08380C4
:1028E000686820F47C3040F4003068602178C806C5
:1028F00022D52869A96A00F03800082806D01828CF
:1029000004BF01F00301012940F0B5802868C1052A
:1029100003D5E269802A40F0FD8100F080FAB042E0
:1029200080F0A180206A202840F09680686820F01E
:10293000F84040F08040686021780A0740F1D58077
:102940006069002800F0C180696F41F0010169678A
:10295000FFF78AFD0646686F810700F1C680FFF722
:1029600083FD801B0328F6D30320F2BD6068B0F519
:10297000803F0FD038B9296821F480312960286858
:1029800020F4802009E0B0F5A02F08D1296841F497
:1029900080212960286840F48030286007E02A6898
:1029A00022F480322A60296821F48021296060683D
:1029B00060B1FFF759FD0646296888033FF570AFFF
:1029C000FFF752FD801B6528F6D3CDE7FFF74CFDDE
:1029D0000646286881037FF563AFFFF745FD801B3E
:1029E0006528F6D3C0E7696821F47C3141EA0031FB
:1029F00069607BE76868216920F0FE4040EA016079
:102A000073E7E068C0B1296821F019010843286024
:102A1000FFF72AFD07462868410705D4FFF724FD84
:102A2000C01B0328F7D39FE700F0F9F9B042E1D2C9
:102A300020694028D7D153E7286840084000286023
:102A4000FFF712FD074629684807D2D5FFF70CFDAE
:102A5000C01B0328F7D387E7696821F0F84141EAF2
:102A60008061696068E7E868216A20F07C5040EA8C
:102A70000160E86060E7E069B8B1296841F0800171
:102A80002960FFF7F1FC07462868C10505D4FFF768
:102A9000EBFCC01B0328F7D366E700F0C0F9B04297
:102AA000E1D2206A2028D7D140E7286820F08000B2
:102AB0002860FFF7D9FC06462968C805DAD5FFF774
:102AC000D3FC801B0328F7D34EE7686F4008400013
:102AD0006867FFF7C9FC0646686F810705D5FFF7F1
:102AE000C3FC801B0328F7D33EE721788A0621D553
:102AF000A06978B1296841F480512960FFF7B4FCDE
:102B000006462868810415D4FFF7AEFC801B032815
:102B1000F7D329E7286820F480502860FFF7A4FC49
:102B200006462968880405D5FFF79EFC801B03280C
:102B3000F7D319E72078410748D5794F3A6842F42E
:102B400080723A60FFF790FC06463868C10505D4EC
:102B5000FFF78AFC801B6528F7D305E7A0680128EA
:102B600004D1286F40F00100286713E008B9286FEE
:102B700009E00528286F06D140F004002867296F76
:102B800041F0010105E0400840002867296F21F06D
:102B900004012967A06841F2893658B1FFF764FC47
:102BA0000746286F810711D4FFF75EFCC01BB042B7
:102BB000F7D3D9E6FFF758FC0746286F810705D5FC
:102BC000FFF752FCC01BB042F7D3CDE6606A002885
:102BD00000F0A280296901F03801182974D0022878
:102BE000286820F08070286062D1FFF73DFC06461F
:102BF0002968880105D5FFF737FC801B0328F7D328
:102C0000B2E6A86AA26A4749E36A0840104340EA6C
:102C10000310A862616B206BA26B491E4902401E23
:102C2000C0F30800521E01F47E4112040843E16B18
:102C300002F4FE021043491E090601F0FE4108435A
:102C40002863E86A40084000E862696BA06C6FF393
:102C5000CF0141EAC0016963E96A206C21F00C01EF
:102C60000143E962E96A606C21F002010143E96213
:102C7000E96A41F48031E962E86A40F40030E862D0
:102C8000E96A41F48021E962E86A40F00100E86203
:102C9000296841F080712960FFF7E6FB0446286847
:102CA000810139D4FFF7E0FB001B0328F7D35BE673
:102CB000FFF7DAFB0446296888012DD5FFF7D4FB1E
:102CC000001B0328F7D34FE60128A96A2A6B21D0FD
:102CD000A36A01F00300984202BFC1F30510E16A44
:102CE000884217D1236BC2F308005B1E984201BFD4
:102CF000C2F34620616B491E88420BD1A16BC2F31F
:102D00000640491E884201BFC2F30660E16B491EBE
:102D1000884201D00120F2BD0020F2BD00440258DB
:102D2000004802580CFCFFFF10B50446102C8AB076
:102D300035D200222146372000F09AF8372000F0E3
:102D4000B5F81F4804601F48016841F02001016088
:102D5000026801A902F020020092009802A8FFF781
:102D60003EFD079810B9FFF722FD02E0FFF71FFDB7
:102D70004000154B154C164940F2E732B0FBF3F01A
:102D80002160401E60600021E26020462161A16058
:102D900000F0E2F818B9204600F0EBF800E001205E
:102DA0000AB010BD09480068C16849084900C160FF
:102DB000704706480068C16841F00101C160704772
:102DC00008000020E844025840420F0054540020FC
:102DD0000014004038B50320134D00F03CF8FFF715
:102DE0004DFC124A12491368C3F30323CC5C1268EA
:102DF00002F00F02895C04F01F04E0400D4C01F06A
:102E00001F0120FA01F3236028600F20FFF78CFFD9
:102E100008B1012032BD00F041FA002032BD064861
:102E20000068000C704700000C0000201844025895
:102E30008C600090100000200010005C090102006E
:102E400002D43E48815470473D4B02F00F021A44B1
:102E500002F8041C70473B4B4FF6FF021968000252
:102E600000F4E06011400843374908431860704798
:102E700070B5344B1C68C4F302230124C3F1070569
:102E8000052D2EBF0F2504FA05F56D1E1E1D072EFC
:102E900034BF0023DB1E2940994004FA03F35B1E74
:102EA0001A401143BDE87040C8E70000010007D494
:102EB000012200F01F018A40244B400943F82020E2
:102EC0007047BFF35F8F22480022016821F48031F0
:102ED0000160026770471E4940F0010008670868FA
:102EE00040F480300860BFF34F8FBFF36F8F70479F
:102EF00010B54378174A13600178D9B1446854601B
:102F0000C37A017B447B1B0643EA0173817A43EA5F
:102F1000C143817B43EA8443C47B43EA4143417A12
:102F200043EA0443047A007843EA012343EA440372
:102F3000034301E051600023936010BD00E400E012
:102F400018ED00E00CED00E00000FA0500E100E003
:102F500024ED00E098ED00E038B5040001D1012037
:102F600032BD00F061F818B900F05AF800F094F999
:102F700038E010B590F83D10012901D0012010BDB6
:102F8000022280F83D200168CB6843F00103CB604A
:102F9000016800F023F818BFB1F1804F10D000F0A5
:102FA00055F81CBFDFF86800814209D000F04AF8EC
:102FB0001FBFDFF860209142DFF85C40A14208D1DA
:102FC00000F048F818BFB2F5803F04D000F035F8A3
:102FD00001E000F02DF8002010BD2168DFF83C0072
:102FE000814270470220211D6870206800F0EFF8D0
:102FF00001202873A870E87028716871A871E871C1
:1030000028726872A872E8726870002032BD0000F1
:10301000000800400004014000180040000001408A
:10302000002120462970704704F13C0568787047FC
:10303000086840F00100086070470A6842F0010229
:103040000A607047DFF8183099427047DFF81420A3
:10305000914270478A68DFF810000240062A7047E4
:10306000000C0040000400400700010010B50446B9
:10307000206801698A0715D5C368990712D56FF0D2
:103080000202012302612377806910F0030F2046BA
:1030900002D000F013F903E000F011F900F094F809
:1030A00000202077206801694A0715D5C3685907B1
:1030B00012D56FF00402022302612377806910F4B5
:1030C000407F204602D000F0F9F803E000F0F7F866
:1030D00000F07AF800202077206801690A0715D5EA
:1030E000C368190712D56FF0080204230261237721
:1030F000C06910F0030F204602D000F0DFF803E0B3
:1031000000F0DDF800F060F8002020772068016909
:10311000CA0615D5C368D90612D56FF01002082368
:1031200002612377C06910F4407F204602D000F08E
:10313000C5F803E000F0C3F800F046F8002020775F
:1031400020680169CA0708D5C368D90705D56FF09B
:1031500001020261204600F0AEF9206801690A060A
:1031600008D5C368190605D56FF0800202612046B4
:1031700000F0B6F920680169CA0508D5C3681906C8
:1031800005D56FF480720261204600F0AAF920682C
:1031900001694A0608D5C368590605D56FF0400293
:1031A0000261204600F09EF9206801698A060AD56E
:1031B000C368990607D56FF0200202612046BDE87A
:1031C000104000F090B910BD204600F08DB9DFF836
:1031D000A8C0DFF8A83060452DE9F043D0F800E042
:1031E000DFF89C4018BFB0F1804FDFF89850DFF84F
:1031F0009860DFF89870DFF89880DFF8989007D033
:10320000484518BF404503D0984218BFB8420ED178
:1032100060454A682EF0700E18BFB0F1804F42EA48
:103220000E0E0CD048451CBF4045984207D0B8420E
:1032300018BFB04203D0A84218BFA04204D1CB6847
:103240002EF4407243EA020E4A692EF080031A43BC
:10325000604502608B68C3620A6818BFB842826228
:1032600004D0B0421CBFA842A04201D10969016349
:1032700001224261BDE8F08300000140000C0040E3
:10328000004801400044014000400140000401406A
:1032900000080040000400407047000081B006486C
:1032A000016841F002010160006800F00200009036
:1032B000009901B0704700BFF4440258704770474E
:1032C00038B584B06846002100220023002480E83D
:1032D0001E00FFF7F6FD01214FF010438DF800109E
:1032E00018218DF80810032201218DF80140019367
:1032F00068468DF809408DF80A408DF80B20ADF82E
:103300000C408DF80E108DF80F10FFF7F1FD012124
:103310004FF000528DF80110102100F062F80221E8
:103320004FF010528DF80110122100F05AF80321CD
:103330004FF040528DF8011068460192FFF7D8FD1A
:1033400004214FF060528DF801100F2100F049F870
:103350000420FFF7C0FD5B4A5B491068830309D472
:1033600000F03AF80C6000F037F8106840F40030D4
:1033700000F031F81368DC031ED400201067BFF39F
:103380004F8FD36EC3F34E34C3F3C90543F6E070D9
:1033900000EA441040EA857008612846451E00286E
:1033A000F4D12046441E0028EED1BFF34F8F1068A1
:1033B00040F4803000F00FF8FFF70CFD00F017F834
:1033C00000F094F800F0DEF800F052F9FFF7EAFCA4
:1033D00000F0D6F9FEE71060BFF34F8FBFF36F8F99
:1033E0007047019268468DF80810FFF781BD80B5DF
:1033F0009CB04C2109A800F0E5F9202101A800F0BB
:10340000E1F9022000F0E2F9002000902F48016865
:1034100041F44041016002682D4902F440420092AB
:103420000B6843F001030B60096801F00101009192
:10343000009A01688B04FCD500F0ECF9FFF7EFFC73
:103440002448052201684FF4803321F018010160FF
:10345000012109920222129209A8139205220B91CE
:10346000C0211492022215910821169217921892E7
:1034700000220A9319911A921B92FFF7F7F908B1EB
:1034800072B6FEE73F2103220191082102924022F9
:10349000049140210592002306914FF48062089127
:1034A0000421039301A80792FEF7E4FF08B172B666
:1034B000FEE71DB000BD00680749884208BF00F064
:1034C000B1B9704714ED00E050EF00E01848025821
:1034D0002C040058704402580014004072B6FEE7F5
:1034E00070477047704770477047000010B586B04E
:1034F0001422002101A800F09DF92048204C026808
:1035000042F004020260016801F004010091009A97
:10351000036843F080030360016801F080010091BB
:10352000009A036843F001030360016801F00101A0
:103530000091009A0368012243F0080303600068C9
:1035400000F00800009000992046022100F065FA82
:103550000121002201912046039101A9029200F06D
:1035600073F90221012201910023029201A9039320
:103570002046049300F068F906B010BDE0440258FC
:103580000000025838B586B01422002101A800F0CE
:1035900051F9042200216846324C00F04BF93248C0
:1035A000002120607F22FF236160A2602046E3604B
:1035B0002161A161E161616100F04EFA08B1FFF79C
:1035C0008DFF0121204645F2510500F0BCFBA842C9
:1035D00026D02A460121204600F0AEFB0021002221
:1035E000ADF8041020468DF80610049101A905924B
:1035F00000F07DFA08B1FFF771FF052101228DF877
:10360000001015218DF8012020468DF8022000229F
:103610008DF80310694600F0CEFA08B1FFF75EFF9F
:1036200007B030BD18B5AFB00446BC2200216846D3
:1036300000F000F923680C4A934210D14FF4800146
:103640004FF48074009168462C94FEF77DF908B120
:10365000FFF744FF0548016841F40041016030B0C4
:1036600010BD0000D05400200040005870440258A3
:1036700010B54FF4E1313E4C3E48616020600022BD
:103680000C21A260E260204622616161A261E261D8
:1036900022626262A26200F05DFB08B1FFF71EFFCA
:1036A0000021204600F0F9FE08B1FFF717FF0021C6
:1036B000204600F0FDFE08B1FFF710FF204600F0A5
:1036C000CFFE18B1BDE81040FFF708BF10BD18B518
:1036D000B5B004461422002101A800F0ABF8BC22CA
:1036E000002106A800F0A6F82168224A914231D1B3
:1036F00002230024069306A82394FEF725F908B1B7
:10370000FFF7ECFE1C48816841F4802181608268EB
:1037100002F4802200920099036843F008030360DA
:1037200002684FF44073154802F0080200920099B5
:103730000222019307210292059101A903940492A8
:1037400000F082F8002200212720FFF791FB2720BC
:10375000FFF7ACFB36B010BD01B54FF47A73012210
:103760006946034800F036FB009802BD00000000E7
:103770007453002000480040E0440258000C0258F6
:1037800038B50D4D4FF0F034286810F10F3F08D0D8
:103790002C6000F0DFFE00F017FF08480168491CAC
:1037A00001602C600648006800F024FF00212960B9
:1037B000BDE8314001F0D0B814000020DC520020F8
:1037C00004550020002201F027B9000038B5DFF8C9
:1037D0004040A1684A0708D4A36803F00703834266
:1037E00001D0012032BD002032BDA168C90840EAE5
:1037F000C100A060FEF738FE054620688104F2D4BF
:10380000FEF732FE401B40F2E9329042F5D3E8E782
:10381000044802580248016841F480710160704711
:10382000004802580248416802788A18426070478E
:103830000000002010B5044610460A460146204606
:1038400001F004F9204610BD2DE9F84F00274FF094
:10385000B042DFF8D031DFF8D08105460E4635E0C2
:10386000DFF8C841A54214BF0A2409248C4044EA69
:103870000E046F4941F82C401C68C14301EA040C56
:103880007468E40348BF40EA0C0CC3F800C05C68ED
:1038900001EA040C7468A40348BF40EA0C0CC3F8A6
:1038A00004C0146801EA040C7468E40248BF40EAEA
:1038B0000C0CC2F800C0546801EA040C716889025B
:1038C00048BF40EA0C0CC2F804C07F1C316831FAD2
:1038D00007F000F0A0800124BC4014EA0100F4D0FD
:1038E0004FEA470C032101FA0CF16FEA010E7168EF
:1038F000012918BF022903D0112918BF122912D19A
:10390000A968D6F80C900EEA010109FA0CF949EA07
:103910000101A960696821EA04047168C1F300111A
:10392000B9400C436C60E968B4680EEA010104FA1E
:103930000CF42143E9607468B900022C18BF122C02
:1039400014D1FC0801F01C0905EB84044FF00F0BA7
:103950000BFA09FBD4F820A02AEA0B0AD6F810B01B
:103960000BFA09F949EA0A09C4F820902C680EEA12
:10397000040E347904F0030404FA0CF444EA0E044F
:103980002C607468E400A0D5D8F800404FEA970C8A
:1039900001F00C014FF00F0E0EFA01FE44F002048C
:1039A000C8F80040D8F8004004F002040094009CDD
:1039B0001F4C54F82C4024EA0E0E1E4CA54208BFA2
:1039C000002427D01C4CA54208BF012422D01B4C48
:1039D000A54208BF02241DD0194CA54208BF0324EC
:1039E00018D0184CA54208BF042413D0164CA54289
:1039F00008BF05240ED0154CA54208BF062409D0E7
:103A0000134CA54208BF072404D0124CA5427FF4F2
:103A100027AF08242AE7BDE8F18F02B909048161C4
:103A20007047000080000058F444025800240258F7
:103A30000804005800000258000402580008025808
:103A4000000C0258001002580014025800180258C6
:103A5000001C02580020025838B504460120002CF2
:103A600044D094F8211029B90022204684F820205F
:103A7000FFF7D8FD0221CA2284F8211020685323C1
:103A80004262216820464B6200F0FDF8010025D11A
:103A90002168DFF87C028A6802408A6022689368A5
:103AA00065682169A0690D4305432B439360E06875
:103AB0002168A26840EA02400861204600F001F94E
:103AC00001000BD12168CA6C92089200CA64226876
:103AD000D36CE56961690D432B43D3642368FF22EE
:103AE00005005A6204BF012184F8211032BDF8B5E7
:103AF00005460E4695F820001446012801D1022003
:103B0000F2BD0121022085F82010CA2285F821008B
:103B10002B6853215A6228684162284600F0B3F8A6
:103B2000010039D12868A4B9806841065CBF002231
:103B3000F270307800F0F4F800F03AF80402B0784F
:103B400044EA074400F0ECF80443F07844EA805477
:103B50000EE0816848065CBF0022F270747831780C
:103B6000F278240244EA0144B1780C4344EA8254D6
:103B70002968DFF8A00104400C602868826822F4FC
:103B80008022826029688B68F2683069024313439F
:103B90008B60284600F095F82A68FF2103005162E7
:103BA00004BF012485F82140002185F82010F2BDD2
:103BB00007467078B4E0F8B504460E4694F8200045
:103BC000012801D10220F2BD0121022084F8201039
:103BD00084F8210075789ABBE80603D505F0EF0557
:103BE0000A357570F07800F09BF8FFF7E1FF0502E9
:103BF000B07845EA074500F093F80543307845EA88
:103C000040352268CA2153205162236858622046F9
:103C100000F039F8010007D12168DFF8FC00054009
:103C200020464D6000F04DF82368FF2201005A62E3
:103C300004BF012584F82150002184F82010F2BD32
:103C4000F2782D02B07845EA02453178054345EA1D
:103C50004135D6E738B504462068C16821F0A00197
:103C6000C160FEF701FC05462068C1688A0608D4D9
:103C7000FEF7FAFB401B40F2E9318842F4D30320FF
:103C800032BD002032BD70B5044600252068C168F1
:103C90004A0614D44FF0FF33C360FEF7E5FB064637
:103CA00009E0FEF7E1FB801B40F2E931884224BFC6
:103CB000032584F821502168CA685006F1D52846AA
:103CC00070BD70B50446154D6868002620F04000B0
:103CD000686029688A0608D42046FFF7BBFFA0B1B8
:103CE0000320032684F821000FE02968204621F0F4
:103CF00020012960FFF7AEFF18B10320032684F8E6
:103D00002100296841F020012960304670BD000083
:103D1000BFFF8FFF7F7F7F003FFFFF0008400058FD
:103D2000002101E0491C0A38C2B20A2AFAD240EA4C
:103D30000110C0B270470000006800F1500303EBAF
:103D400081031A607047006800F1500202EB8102A3
:103D50001068704738B5040009D004F1800569681F
:103D600009B900F01FF800F022F8012801D1012064
:103D700032BDA06A08B100F02AF800F00BF822F07A
:103D80002A02826000F01DF8FFE72046BDE83240BD
:103D900000F0C0BA2068416821F490414160206879
:103DA00082687047002028702046FFF790BC2421CD
:103DB000696020680268520852000260204600F0E4
:103DC00065B82068016841F0010101607047204634
:103DD00000F03CBA2DE9FC47054605F18004606817
:103DE00088461746994620284DD1B8F1000F14BFD8
:103DF000002F012048D02078012844D005F1540636
:103E0000012121700022E26021206060FEF72CFB7E
:103E1000378082467780A968B1F5805F04BF286942
:103E200000280EBF474640460027002180462170EB
:103E30000FE018F8012B826208E0B8F1000F286843
:103E4000F7D137F8021BC1F3080181627288511E55
:103E500071807088CDF800905346002807D000226A
:103E60008021284600F085FA0028E6D005E00022EF
:103E70004021284600F07DFA08B1032004E020200C
:103E80006060002000E00220BDE8F6872DE9F041E7
:103E900086B004462168DFF88C0500250E68A2680C
:103EA0002369064060691643E2691E4306431643D0
:103EB000DFF874250E604B68E06823F44053034339
:103EC00091424B60A669DFF864051CBF236A1E435C
:103ED0008F6807403E438E60CB6A606ADFF850759A
:103EE0000FF228561B09B94240EA0313CB62DFF8F0
:103EF000443548D1586D10F0380000F09D800828F6
:103F000000F0D38010284BD018285AD0202800F079
:103F10006A80282800F07A804FF0800C9142DFF808
:103F20001805DFF818E54FF4004840F0E980BCF1CF
:103F3000020F14D0BCF1040F00F0BA80BCF1080FDE
:103F400000F0BB80BCF1100F00F0BC80BCF1200F72
:103F500000F0C080BCF1400F00F0BE805CE1FEF7D5
:103F6000A1F8002800F05981616A36F81120B0FBF1
:103F7000F2F6626802EB42039E4203D31103B142A0
:103F800080F0AC8048E1DFF8B80481420BD100F04A
:103F900058F9C1D8DFE807F075890415273ABBE75F
:103FA0004FF0080CBAE7DFF89C0481420CD100F016
:103FB00048F9B1D8DFE807F065790405172AABE7BF
:103FC000EEE74FF0100CA9E7DFF87C0481420DD139
:103FD00000F037F9A0D8DFE807F0546805040619A7
:103FE0009AE7EEE7DCE74FF0200C97E7DFF85C0498
:103FF00081420ED100F025F9F2D8DFE807F04256F1
:104000000605040788E7EEE7DBE7C9E74FF0400C59
:1040100084E7DFF83C04814211D15F6D17F0380767
:104020000AD0082F41D0102FBAD0182FC9D0202F76
:10403000D9D0282FEAD06FE74FF0010C6EE7DFF8F8
:10404000140481420CD100F0FCF8F4D8DFE807F04A
:10405000192D070605045FE7D8E7C4E7B1E79FE736
:10406000DFF8F40381420ED100F0EBF8F3D8DFE87B
:1040700007F0081C070605044EE7C7E7B3E7A0E70B
:104080008EE7AC464AE79142F6D1986D00F0070002
:10409000052804D8DFE800F00809070605043BE717
:1040A000B4E7A0E78DE77BE759E74FF0040C35E76D
:1040B00003A8FEF707F8049853E76846FEF72EF8C2
:1040C00001984EE719688A0605D51F68C7F3C10134
:1040D000C84046E7704647E7404645E7500800219C
:1040E00010EB062051EB16610023FDF79BFBA0F5BA
:1040F0004076DFF868138E421DD22768F8608CE0A6
:10410000E1694FF6F077B1F5004F45D1BCF1000FF2
:1041100012D0BCF1010F26D0BCF1040F26D0BCF1A7
:10412000080F28D0BCF1100F2AD0BCF1200F2FD0DF
:10413000BCF1400F2ED06FE0FEF739FB00286CD0A9
:1041400000F078F84E0806EB4006B6FBF1F080B2BE
:10415000A0F11001B9425FD20740C0F3420007430B
:104160002068C76059E0FEF72AFBE7E703A8FDF7E0
:10417000A9FF0498E2E76846FDF7D0FF0198DDE764
:1041800019688A06DCD51968C1F3C101C840D5E7B2
:104190007046D5E74046D3E7BCF1000F12D0BCF122
:1041A000010F20D0BCF1040F20D0BCF1080F22D0A9
:1041B000BCF1100F24D0BCF1200F29D0BCF1400F6E
:1041C00028D029E0FEF7F3FA38B300F033F800EB1B
:1041D0005100B0FBF1F080B2A0F11001B9421BD246
:1041E0002268D06019E0FEF7EAFAEDE703A8FDF7D0
:1041F00069FF0498E8E76846FDF790FF0198E3E758
:1042000019688A06E1D51968C1F3C101C840DBE726
:104210007046DAE74046D8E7012504F1680001213D
:104220000023418001808360C360284606B0BDE85A
:10423000F0810000626A616836F81230B0FBF3F07A
:1042400070475F6D07F00707052F704710B590F8AE
:104250002810CA0706D502685368C16A23F40033E0
:104260000B43536090F82820910706D502685368E5
:10427000016B23F480330B43536090F828205107DF
:1042800006D502685368416B23F480230B435360C7
:1042900090F82820110706D502685368816B23F433
:1042A00000430B43536090F82820D10606D50268DE
:1042B0009368C16B23F480530B43936090F82820DC
:1042C000910606D502689368016C23F400530B43F2
:1042D000936090F82820510610D502685368416C0D
:1042E00023F480130B435360436CB3F5801F05D157
:1042F0005468816C24F4C0040C43546090F8282066
:10430000110606D501684A68C06C22F400220243F7
:104310004A6010BDF8B5044604F1800500206FF036
:104320007E47E860FEF7A0F82168064608680207A5
:1043300008D50097334600224FF40011204600F0C4
:1043400018F860B9206801684A070AD50097334613
:1043500000224FF48001204600F00BF808B1032042
:10436000F2BD202000226860A8600020E26628706C
:10437000F2BD2DE9F04105460E4690461F46069CCB
:104380002868C1693140B1420CBF0120002040457E
:1043900039D114F1010FF3D0FEF766F8C01B844247
:1043A00000D39CB928680023016821F4D071016012
:1043B00028682021826852085200826005F180003E
:1043C0004160816003700320BDE8F08128680168C6
:1043D0004A07D5D5C3691905D2D54FF400620262E8
:1043E00028682022036823F4D0730360286881685A
:1043F00049084900816005F1800042608260C26026
:1044000000220270DFE70020DEE70000010002006A
:104410000400060008000A000C0010002000400004
:1044200080000001F369FFCF000C0058FFF4FF117A
:1044300000100140004402580090D00300093D00E4
:104440000044004000480040004C00400050004044
:104450000014014000780040007C004000FD0F0087
:1044600010B500F180010A78012A01D1022010BDA7
:10447000012324220B704A600268136814686408E0
:104480006400146000224266006823F00053036059
:1044900020234B6000200A7010BD70B500F01FF89B
:1044A00001D1022070BD00F020F822F0604209E046
:1044B00070B500F014F801D1022070BD00F015F8BD
:1044C00022F0606211438160204600F01BF82068F2
:1044D000202100220660002069602A7070BD044619
:1044E00004F18005287801287047012224202A70D1
:1044F00068602068066803685B085B0003602068EA
:104500008268704730B5416E11B90121012214E073
:10451000016800BF0FF22C040CA38A688968520E50
:1045200002F00702490F655CA45C595C9A5C2D019E
:10453000240195FBF1F194FBF2F268304180028096
:1045400030BD00000101010307010000080402045E
:104550000801010172B61448144A10601448016839
:1045600041F0010101604FF0E0201249C0F8081D40
:1045700011481049096801604FF0E0200F4941617E
:104580004FF0070101610021C0F8181D0C49C0F867
:104590001C1D0C49C0F8201D704701B500F060FAE1
:1045A000BDE8014070470000F4540020045500208D
:1045B000001000E000000090085500208FD003009C
:1045C000000000FF0000FF4080B500F0A5FA00F0F9
:1045D000C3FA07480021016041608160C160016148
:1045E0004161016241628162C1628161C16101BD5B
:1045F000A0540020F0B587B00225B4200121AE4CB4
:10460000069000224FF48057059104F590600492C3
:10461000002303950FF26502CDF80850ACA1019775
:104620004FF48066009004F1140000F0DFFAB42328
:104630000122069300211E2004F5914305920FF2FA
:10464000B9120491A6A10390029004F5667000933C
:10465000002300F070F800F069F81F2304F589408A
:10466000CDF81410A2A104920FF2E51200F059F84F
:1046700004F5397000F05FF807B0F0BD50B587B0B1
:104680008D4C0021022021704FF4805600F04EFB2B
:1046900000226420626000F049FB60680121E06054
:1046A0002170FEF786FBB42201200692032104F557
:1046B000A45205900023009203910FF2810202910F
:1046C0008FA1049304F1C80000F035F800F02EF833
:1046D000042304F5525005918CA104920FF2D102EB
:1046E00000F01FF804F50C7000F025F800F01EF83B
:1046F000052304F51250059188A104920FF2BD0222
:1047000000F00FF804F5BE7000F015F83423002215
:1047100086A104F24C4000F049FB012000F006FBAA
:10472000FBE703930293002300907047B42001211C
:10473000069000227047019600F058BAFEB500BFFF
:104740007EA7554D5C4E284606F1140400F08AF809
:1047500096ED020A3846B7EEC00A53EC102B00F073
:1047600081F8284600F07EF805F1440000F07AF860
:1047700005F1940000F076F82046A0B10369816A43
:1047800000F188040191226A9A1A009281684269B4
:104790005B1AC16A05F1D00000F064F8206806F1E8
:1047A00014018842E9D141F2883000F0BFFACAE72B
:1047B00080B5142000F0BAFAFBE7000010B5374CC2
:1047C0002DED048B82B09FED368B9FED379B9FEDD7
:1047D000383B9FED3B5B38EE038B39EE059B8DED4F
:1047E000009B53EC182B204600F03CF84FF4FA7075
:1047F00000F09CFAEBE7000010B52F4C02E0C82057
:1048000000F094FA20780028F9D0E1686422B1FB26
:10481000F2F0E06008B90023A3605043606094EDBB
:10482000010A002084ED040A6060D4ED030A6420CC
:10483000B8EE400AF8EE600AC0EE200A9FED221A98
:1048400031EE601A84ED021A00F070FAE7E700001A
:104850001948EFF3108172B64268521C426081F32E
:104860001088F6E70EB410B5B3B0024635ABC921D7
:104870006846124C00F0F6FA4FF0FF31204600F087
:104880000FFB694611A000F03BFB204600F04CFBFB
:1048900033B010BC5DF810FBBC5E009080620090ED
:1048A0009A9999999999F13FC74B378941E001400D
:1048B000956479E17FFDA53DE00000202C050020F6
:1048C000956479E17FFDB5BD0000C8422573000005
:1048D000417070205461736B2053746172740000D6
:1048E000417070205461736B205354415400000098
:1048F000417070205461736B2049444C45000000A6
:10490000417070204D73702050726F0041707020A4
:104910005461736B20557365724946004170702075
:104920005461736B20434F4D000000004170705084
:1049300072696E746653656D700000004F532043BA
:104940005055205573616765203D2025352E326610
:1049500025250D0A000000004FF000002A4A1060D3
:10496000EFF3148020F0040080F3148862B64FF057
:1049700080504FF0E021C1F8040DBFF34F8FBFF31B
:104980006F8FFEE72148224A4FF00003016891B182
:104990000360EFF3098C2CE9F00F1EF0100F01D12A
:1049A0002CED108A1B4C4CF804ED2568C1F808C0AA
:1049B0000DB18D61236072B61168B1B1016062B64C
:1049C0004F68144C8D6907F101074F602560D1F8DD
:1049D00008C05CF804EB1EF0100F01D1BCEC108A8B
:1049E000BCE8F00F8CF30988704772B6116801605B
:1049F00009B962B6F9E74FF000674FF0E028C8F850
:104A0000047D62B6DCE77047DC520020C85200200B
:104A1000CC520020904D002000B500BF13009646F8
:104A20009446103928BFA0E80C50FAD85FEA417CC0
:104A300028BF0CC048BF40F8042BC90728BF20F886
:104A4000022B48BF00F8012B00BD00004018491C94
:104A50001CBFB1F1010100F8012DF9D17047000030
:104A60002149086800F101000860204B1A683AB13A
:104A7000A2F101021A601AB91D4B4FF00100186033
:104A80001C490868026822B11B4B4FF001021A60F2
:104A900008E000F10400194B1A68904201D1184B4C
:104AA00018680860124B1A6812B913490868C0B137
:104AB00001B51149086808B100F052FA0C4B1A68A8
:104AC0006AB100F05DFA0F48016841B90E4801680B
:104AD0000E4A13680E480F4A994200D00260BDE8A2
:104AE0000140BFF34F8F7047604D0020904D002074
:104AF000644D0020704D0020744D00206C4D00204E
:104B0000684D0020DC520020C8520020CC5200200A
:104B100004ED00E00000001010B50E4C002004F180
:104B2000240220601060002104F12800616001600F
:104B300020222261802104F12C00FEF743FE002296
:104B4000A260E2606261E069A261226240F0887066
:104B5000E06110BDC852002070B586B01B4C00202B
:104B60000025206080212063194E6060606104F19F
:104B700034002562FEF726FE04F1340204F134030A
:104B8000A26004F1B40004F5B471E5624FF48062F0
:104B90002361E06010A56162A262E06A00210390D7
:104BA000636A0290A06A05913246049129460190F9
:104BB00004F1B4000093074B00F080FA0028ECD118
:104BC0000021A061E16106B070BD0000604D0020D1
:104BD000B95D00904D49544153797374656D20540B
:104BE000696D657220546872656164002DE9F84F43
:104BF0000025002886B089461746984644D0169965
:104C0000B42941D1119E109CEFF3108172B6414A34
:104C1000AC4613685B1C136081F310883E49D1F8E1
:104C200000B0A1194B1E01460020009317E0DBF8ED
:104C30000C309C4205D3DBF810A054453CBF002447
:104C40000120DDF800E09E4505D3DBF810309E45DD
:104C50003CBF00240120DBF888B00CF1010C2F4B85
:104C60001B689C4503D2594501D00028DFD0EFF3E3
:104C700010808A4672B61168491E116080F3108850
:104C800000F0C0FADA4501D10E253FE00CB13A0040
:104C900001D103253AE0C82E38BF052536D3129F2F
:104CA000202F28BF0F2531D2DDF84CC0674538BF13
:104CB00018252BD3DDF854E0BEF1010F88BF102575
:104CC00024D81748174B01689942174B186808BF3A
:104CD0001325EFF30581084308D01968EFF3058029
:104CE0000143B1F1F03F38BF13250FD375B91498C4
:104CF000CDF814E004904346CDF80CC04946029725
:104D000050460196009400F0D9F90546284607B0B0
:104D1000BDE8F08FDC520020D0520020D452002099
:104D2000C8520020144E00201400002070B5EFF38C
:104D3000108372B619490C6814B983F3108817E010
:104D400017490968EFF30582114302D083F31088F5
:104D50000EE014498C4202D183F3108808E010B9A8
:104D600083F3108870BD104A116819B183F310885D
:104D7000132070BD0425012100262563A163C4F81A
:104D80008460E064156820466D1C156083F310880C
:104D900000F092FAD4F8840070BD00BFC852002021
:104DA00014000020144E0020DC5200202DE9F041B8
:104DB000044688461546002614B3342B20D1EFF361
:104DC000108172B621480268521C0260204A81F3A9
:104DD0001088204913680F68002101E03F6A491CD0
:104DE000994201D2BC42F9D1EFF3108172B6026848
:104DF000521E026081F3108800F004FABC4201D117
:104E00001C2620E0012D1CBF002D1F261BD112489F
:104E1000124A01689142124A106808BF1326EFF344
:104E20000581084308D01168EFF305800143B1F113
:104E3000F03F38BF132606D32EB92A4641462046F6
:104E400000F084FB06463046BDE8F081DC520020CD
:104E5000BC540020B8540020C8520020144E00203A
:104E60001400002008B584B00023039300290EBF6E
:104E700001930190491E0291009301A904AB0748D8
:104E800078441830FBF708FA019909B100220A703A
:104E9000002858BF039805B000BD00BF23C6FFFF20
:104EA00038B518B10268124B9A4201D01C2032BDAD
:104EB000104C59B12268EFF305831A4304D10E4A0E
:104EC0000E4D1368AB4201D1042032BD2268EFF3CE
:104ED00005831A4308D02368EFF305821343B3F127
:104EE000F03F01D2132032BDBDE8344000F05EBB7C
:104EF0004554554D14000020C8520020144E002087
:104F00000EB4C0B5024603A800210190009101AB88
:104F10000121044878440C30FBF7BEF906BC5DF86B
:104F200010FB00BF3D14000018B101680A4A91420D
:104F300001D01C207047094B1968EFF3058211431B
:104F400008D01A68EFF305810A43B2F1F03F01D2AD
:104F50001320704700F0AEBB4554554D140000209F
:104F6000EFF3108072B604490A68521C0A6080F39D
:104F70001088024800F07EBCDC520020144E002055
:104F800070B54748474E0468EFF3108072B67CB3A3
:104F90002168B1422CD1A168D4F8A820914238BF31
:104FA000C4F8A810E1680A68B2F1EF3F02BF2369B4
:104FB000D3F80120B2F1EF3F03D1D4F8A8308B42EF
:104FC00007D280F31088204600F090FDEFF31080A8
:104FD00072B6D4F8A81051F8042CB2F1EF3F07D004
:104FE00080F31088204600F08FFDEFF3108072B63A
:104FF00080F31088EFF3108100252B4B72B61D60F3
:10500000ACB1206B98B9E069284AA0611060206AB1
:10501000A0420CD0E26AE36B9A4208D1244B43F8D9
:1050200022002448026853F82250234B1D6081F36C
:105030001088A5B3EFF3108072B62968B1422CD165
:10504000A968D5F8A820914238BFC5F8A810E9682A
:105050000A68B2F1EF3F02BF2B69D3F80120B2F129
:10506000EF3F03D1D5F8A8308B4207D280F31088E8
:10507000284600F03BFDEFF3108072B6D5F8A8107B
:1050800051F8042CB2F1EF3F07D080F31088284686
:1050900000F03AFDEFF3108072B680F3108870BD17
:1050A000C852002044524854644D0020904D0020C6
:1050B000F4520020D8520020CC5200202DE9F14FAC
:1050C00082B015460C9F0D9E0C469B46EF224FF07A
:1050D000000A31463846FFF7B9FCB608B600F81C9E
:1050E000361F8008DDF83C80B7EB800F109FDDF89D
:1050F0003890CDF800B00195029D4FEA800B18BFA3
:10510000361FB4212846FEF75DFBAC620198686447
:105110000099A96405F18804C5F80CB020206E61DF
:105120000BEB0601C5F82C904A1EC4F80C902D49D3
:10513000AF61EF61606103202A61C5F83C80C4F86B
:1051400010802863284669652749AD6500F01AFD7F
:10515000A868264A2062264BEFF3108172B62A60B7
:105160001868244A18B915602E462F4606E01668BE
:10517000D6F88C70C6F88C50C7F88850119A6760C2
:105180002660401C18601C4803685B1C012A0360F1
:1051900019D11A480268EFF305800243B2F1F03FDB
:1051A00007D3174A14682CB1D4F83CA0E06AE06336
:1051B00000E0002481F31088284600F05BFB74B106
:1051C000C4F83CA00BE081F31088EFF3108172B6B5
:1051D0000268521E026081F3108800F013F800206C
:1051E000BDE8FE8F4D6200905961009044524854D2
:1051F000D4520020D0520020DC52002014000020A5
:10520000CC52002027490868002800D0704710B50C
:10521000254A264910680C68A04242D0EFF310805E
:1052200072B684B3226822498A422CD1A168D4F88C
:10523000A820914238BFC4F8A810E1680A68B2F10A
:10524000EF3F02BF2369D3F80120B2F1EF3F03D152
:10525000D4F8A8308B4207D280F31088204600F0A3
:1052600045FCEFF3108072B6D4F8A81051F8042C66
:10527000B2F1EF3F07D080F31088204600F044FCE5
:10528000EFF3108072B680F310884FF08050094918
:105290000860EFF3058020B9EFF3108062B680F369
:1052A000108810BDDC520020C8520020CC520020D3
:1052B0004452485404ED00E02DE9FE4F04009948A3
:1052C00001680191EFF3108072B630D02268964BDE
:1052D0009A422CD1A168D4F8A820914238BFC4F8D2
:1052E000A810E1680A68B2F1EF3F02BF2369D3F862
:1052F0000120B2F1EF3F03D1D4F8A8308B4207D29E
:1053000080F31088204600F0F1FBEFF3108072B6B6
:10531000D4F8A81051F8042CB2F1EF3F07D080F375
:105320001088204600F0F0FBEFF3108072B680F397
:105330001088EFF3108872B6019884420BD1E06CAC
:1053400000281EBF10F1010F04F14C0000F03CFCDE
:10535000E06976490860764D764E2A684FF08057AE
:10536000521E2A60A06B744A012857D10021E06ABE
:10537000A163236A0093012303FA00F16FEA010A93
:105380000099DFF8B8C1DFF8B8E1DFF8B891A142C1
:1053900017D0DDF800B0616ACBF82410DDF800B05A
:1053A000C1F820B059F82010A14235D1009949F830
:1053B0002010DEF8000078B30AEA0000CEF8000002
:1053C0002AE0002149F820105F4908680AEA000035
:1053D0000860DEF8001019B10AEA0101CEF80010E9
:1053E000A0B920210023CCF80010136088F31088A6
:1053F0002868002802BF3760EFF30580002804D139
:10540000EFF3108062B680F3108889E090FAA0F084
:10541000B0FA80F0CCF8000011688C4236D1DCF88C
:10542000004059F824001060DEF80000F0B129684F
:10543000491C296088F31088EFF3108872B62C6835
:10544000641E2C60DEF80000DCF800C090FAA0F1C9
:10545000B1FA81F159F82140D4F83C90CC4505D3FC
:105460008B40146020EA0303CEF8003088F31088E4
:105470002868002802BF3760EFF3058000284FD16D
:10548000EFF3108062B680F3108849E088F310884B
:1054900014680198A04243D0EFF3108072B684B331
:1054A0002168214A91422CD1A168D4F8A8309942B0
:1054B00038BFC4F8A810E1680A68B2F1EF3F02BF34
:1054C0002369D3F80120B2F1EF3F03D1D4F8A8301B
:1054D0008B4207D280F31088204600F007FBEFF3E1
:1054E000108072B6D4F8A81051F8042CB2F1EF3F36
:1054F00007D080F31088204600F006FBEFF3108001
:1055000072B680F310882868002802BF3760EFF376
:105510000580002804D1EFF3108062B680F3108874
:10552000BDE8F78FC852002044524854904D0020E7
:10553000DC52002004ED00E0CC520020D8520020C4
:10554000F0520020F4520020EC52002070B50D46BD
:10555000044616463421FEF735F965600E4A266189
:105560000E4BEFF3108172B622600D4803600D4AB6
:1055700010680D4B18B91C602346254603E01B68D4
:105580005D6A5C622C626562401C236210600020D0
:1055900081F3108870BD00BF4554554D0D610090DA
:1055A000E0520020BC540020B8540020F8B5EFF3BE
:1055B000108672B63C4A1468826804F18405DAB930
:1055C0000121C4608160A4B10169012903D1E26AAB
:1055D000202142618162296A19B10A6B0863D06295
:1055E00002E02862014602460263C162E869401C8B
:1055F000E86186F3108806E0C368A34205D1521C17
:10560000826086F310880020F2BD002948D0274F21
:105610003A6812B186F3108844E0254AA266E06633
:10562000EA6A521CEA62C2691AB984612467646733
:105630000BE0D0F818C0C4F870C0DCF874E0C4F80F
:1056400074E0CEF87040CCF87440521CC2610D2258
:1056500022630122A263E1643968491C396086F340
:1056600010880269012A16D1E16A826A914288BFD4
:10567000114603F12C028162E16A166F03F12C00DE
:10568000B14288BF31460167E16A006881423CBF90
:10569000184600F0C9FA2046FFF70EFE2868F2BD52
:1056A00086F310881D20F2BDC8520020DC52002075
:1056B0009D6000902DE9F041EFF31083054672B62E
:1056C000A868002800F0CC80684CEA682168684E21
:1056D0008A4204D0316811B983F31088C2E0401EB9
:1056E000A86002D083F31088B8E012B983F3108861
:1056F000B9E09432D068401ED06006D0E86A296BC9
:105700000163C8621169A94200D11061A9692869C1
:10571000002908BF002803D1E86083F31088A2E0C5
:1057200000270128D2F800801CD130682021401CBD
:10573000306083F310881369184648B10469012C5E
:1057400003D1846A8C4298BF2146C06A9842F4D142
:10575000EFF3108372B63068401E414530609160AF
:1057600098BF8846E969012910D92A69012A0DD113
:1057700031682846491C316083F3108800F0B8FA7C
:10578000EFF3108372B63268521E3260AC69CCB946
:1057900030682021401C306083F31088E868A962DB
:1057A000C26A42451CBF414600F03EFAEFF310804A
:1057B00072B63168491E3160EF6080F31088FFF7E0
:1057C00021FD4BE02869012804D1EF68E06A20211F
:1057D0006861A96204F18401C86918B90D622A469A
:1057E000AC4605E00A6AD2F830C01563CCF82C50FC
:1057F000C5F830C0401CEA62C8610120A860E869B1
:10580000EC60401EE86108BFA86104D0206FA86169
:10581000626F426710670020A06608603168491C0B
:10582000316083F310882B69012B14D1E86958B1DA
:10583000284600F05DFAEFF3108172B6A86908B14E
:10584000C06AA86281F31088F96A414503D04146D5
:10585000384600F0E9F9204600F00CF8002002E09C
:1058600083F310881E20BDE8F08100BFC8520020DD
:10587000DC5200202DE9F84304008A4DEFF310803C
:1058800072B627D02168A94224D100F022F938BF8E
:10589000C4F8A81000F018F902BF2369D3F801205A
:1058A000B2F1EF3F03D1D4F8A8308B4207D280F396
:1058B0001088204600F01AF9EFF3108072B600F05D
:1058C0000DF907D080F31088204600F01DF9EFF3A2
:1058D000108072B680F31088EFF3108972B6606E94
:1058E00020B104F14C0000F051FA00E0E0646E4E8B
:1058F0006E4F31684FF080586D4A491E3160A06B81
:10590000216B00287BD1002923D0606B002840F058
:105910007F800021674B2163E16A53F82100002852
:1059200067D143F82140DFF890C12462012364620B
:10593000DCF800E003FA01F040EA0E00CCF80000C9
:105940005E48D0F800C0614566D20160106808B9B1
:10595000146061E0D0F83CC061455DD2C06A844506
:1059600006D057498340D1F800C043EA0C030B60CE
:10597000146089F310881468EFF3108072B63CB39A
:105980002168A94224D100F0A4F838BFC4F8A810B7
:1059900000F09AF802BF2369D3F80120B2F1EF3F7B
:1059A00003D1D4F8A8308B4207D280F31088204668
:1059B00000F09CF8EFF3108072B600F08FF807D07B
:1059C00080F31088204600F09FF8EFF3108072B645
:1059D00080F310883068002802BFC7F80080EFF31A
:1059E000058000285BD1EFF3108062B680F3108849
:1059F00055E0416A0C624462616220620CE0012958
:105A000018BF022908D0606B10B90021A16302E021
:105A100000200321606321632A4B186889F31088F2
:105A20001468A0423BD0EFF3108072B63CB32168FB
:105A3000A94224D100F04DF838BFC4F8A81000F0F6
:105A400043F802BF2369D3F80120B2F1EF3F03D13D
:105A5000D4F8A8308B4207D280F31088204600F09B
:105A600045F8EFF3108072B600F038F807D080F3F5
:105A70001088204600F048F8EFF3108072B680F3EB
:105A800010883068002802BFC7F80080EFF3058057
:105A9000002804D1EFF3108062B680F31088BDE8CF
:105AA000F183000044524854DC52002004ED00E031
:105AB000CC520020F4520020EC520020D85200209A
:105AC000F0520020C8520020E1680A68B2F1EF3FAE
:105AD0007047A168D4F8A82091427047D4F8A81064
