:020000040800F2
:1000000090120020DD300008B5300008B73000083D
:10001000B9300008BB300008BD3000080000000007
:10002000000000000000000000000000BF300008D9
:10003000C130000800000000C3300008C5300008CF
:10004000093100080D310008113100081531000890
:10005000193100081D310008213100082531000840
:10006000293100082D3100083131000835310008F0
:10007000393100083D3100084131000845310008A0
:10008000493100084D310008513100085531000850
:10009000593100085D310008613100086531000800
:1000A000693100086D3100087131000875310008B0
:1000B000793100087D310008813100088531000860
:1000C000893100088D310008913100089531000810
:1000D000993100089D310008A1310008A5310008C0
:1000E000A9310008AD31000800000000B13100085E
:1000F000B5310008B9310008BD310008C131000830
:10010000C5310008C9310008CD310008D1310008DF
:10011000D5310008D9310008DD310008E13100088F
:10012000E5310008E9310008ED310008F13100083F
:10013000F5310008F9310008FD31000801320008EE
:1001400000000000000000000000000000000000AF
:1001500005320008093200080D320008113200088B
:1001600015320008193200081D320008213200083B
:1001700025320008293200082D32000831320008EB
:1001800035320008393200083D320008413200089B
:1001900045320008493200084D320008513200084B
:1001A00055320008593200085D32000861320008FB
:1001B00065320008693200086D32000871320008AB
:1001C00075320008793200087D320008813200085B
:1001D00085320008893200088D320008913200080B
:1001E00095320008993200089D320008A1320008BB
:1001F000A5320008A9320008AD320008B13200086B
:10020000B5320008B9320008BD320008C13200081A
:10021000C5320008C9320008CD320008D1320008CA
:10022000D5320008D9320008DD3200080000000095
:10023000E1320008E532000800000000E932000861
:10024000ED320008F1320008F5320008F9320008FA
:10025000FD320008013300080533000809330008A7
:100260000D33000811330008153300081933000856
:100270001D3300082133000825330008000000006A
:10028000293300082D330008313300080000000036
:1002900000000000353300082DE9F041040000267D
:1002A00000252068000130D5606E002809D0B0F527
:1002B000801F0DD0B0F5001F10D0B0F5401F14D036
:1002C00014E0DFF8F009016851F4003101600EE03C
:1002D0000221201D00F000FD060008E0022114F1BB
:1002E000240000F080FD060001E000E0012630005F
:1002F000C0B2002808D1DFF8C0190A6832F44012F1
:10030000606E02430A6000E035002068C0052ED50B
:10031000606D002806D0022811D00AD3042816D018
:1003200014D315E0DFF88C09016851F40031016045
:100330000FE00021201D00F0CFFC060009E00021A5
:1003400014F1240000F04FFD060002E001E000E09F
:1003500001263000C0B2002808D1DFF85C190A6815
:10036000D208D200606D02430A6000E035002068C8
:10037000800531D5A06D002809D040280ED08028F6
:1003800012D0C02817D0B0F5807F15D015E0DFF867
:100390002409016851F4003101600FE00021201DA3
:1003A00000F09AFC060009E0002114F1240000F09E
:1003B0001AFD060002E001E000E001263000C0B2B4
:1003C000002808D1DFF8F0180A6832F4E072A06D56
:1003D00002430A6000E035002068400536D5D4F8B5
:1003E000A40000280CD0B0F5001F10D0B0F5800F8D
:1003F00013D0B0F5C00F17D0B0F5000F15D015E031
:10040000DFF8B008016851F4003101600FE000210D
:10041000201D00F061FC060009E0002114F1240019
:1004200000F0E1FC060002E001E000E001263000FF
:10043000C0B2002809D1DFF884180A6832F46002DB
:10044000D4F8A40002430A6000E0350020680005EB
:1004500036D5D4F8A80000280CD0B0F1807F10D099
:10046000B0F1007F13D0B0F1407F17D0B0F1806FB2
:1004700015D015E0DFF83C08016851F40031016047
:100480000FE00021201D00F027FC060009E00021FC
:1004900014F1240000F0A7FC060002E001E000E0F7
:1004A00001263000C0B2002809D1DFF810180A6810
:1004B00032F0E062D4F8A80002430A6000E03500A0
:1004C0002068800127D5A06C002814D0102804D003
:1004D000202809D030280DD00EE0DFF8D8070168B9
:1004E00051F40031016008E00221201D00F0F4FB0E
:1004F000060002E001E000E001263000C0B2002862
:1005000008D1DFF8BC170A6832F03002A06C024351
:100510000A6000E035002068C00434D5E06D002892
:100520000CD0B0F5805F10D0B0F5005F13D0B0F5FF
:10053000405F17D0B0F5804F15D015E0DFF8740795
:10054000016851F4003101600FE00021201D00F02E
:10055000C3FB060009E0002114F1240000F043FC75
:10056000060002E001E000E001263000C0B20028F1
:1005700008D1DFF844170A6832F4E042E06D024324
:100580000A6000E035002068800432D5206E002823
:100590000FD0B0F5803F0DD0B0F5003F10D0B0F5D2
:1005A000403F14D0B0F5802F12D0B0F5A02F10D05E
:1005B00010E010E00121201D00F08EFB06000AE093
:1005C000012114F1240000F00EFC060003E002E01B
:1005D00001E000E001263000C0B2002808D1DFF8B9
:1005E000D8160A6832F4E022206E02430A6000E066
:1005F00035002068400434D5D4F8AC0000280FD072
:10060000B0F1805F0DD0B0F1005F10D0B0F1405F6D
:1006100014D0B0F1804F12D0B0F1A04F10D010E044
:1006200010E00121201D00F057FB06000AE0012127
:1006300014F1240000F0D7FB060003E002E001E023
:1006400000E001263000C0B2002809D1DFF86C16A6
:100650000A6832F0E042D4F8AC0002430A6000E0DD
:1006600035002068000426D5E06E002813D0B0F1D4
:10067000805F03D0B0F1005F07D00DE0DFF83406F3
:10068000016851F40031016007E00121201D00F0F4
:1006900023FB060001E000E001263000C0B2002884
:1006A00008D1DFF814160A6832F04052E06E0243B7
:1006B0000A6000E035002068C00126D5606C002883
:1006C00013D002280AD002D303280DD00EE0DFF8A1
:1006D000E405016851F40031016008E00221201DA9
:1006E00000F0FAFA060002E001E000E00126300026
:1006F000C0B2002808D1DFF8C8150A689208920035
:10070000606C02430A6000E03500206840026DD54D
:10071000DFF8B085D8F8000050F48070C8F8000009
:1007200000F0F6FB0700D8F80000C00505D400F083
:10073000EFFBC01B6528F6D303263000C0B20028AB
:1007400053D1DFF88475386810F44070D4F8B010D5
:1007500011F4407188420BD0386830F44070396829
:1007600051F480313960396831F480313960386052
:10077000D4F8B000B0F5807F0ED100F0C9FB804600
:100780003868800708D400F0C3FBB0EB080041F2E2
:1007900089318842F4D303263000C0B2002822D128
:1007A000D4F8B00010F44070B0F5407F0DD1DFF800
:1007B0001C05016831F47C51D4F8B020DFF8103505
:1007C00013EA12131943016005E0DFF80005016820
:1007D00031F47C5101603868D4F8B0100905090D76
:1007E0000843386002E0350000E035002078C0079B
:1007F0002DD5A06F00280AD0082809D010280DD0C8
:10080000182812D0202811D0282810D010E010E08D
:100810000121201D00F060FA06000AE0012114F118
:10082000240000F0E0FA060003E002E001E000E04E
:1008300001263000C0B2002808D1DFF898140A68F9
:1008400032F03802A06F02430A6000E035002078E1
:1008500080072BD5606F002808D002280DD006D362
:10086000042812D010D3052810D010E010E0012188
:10087000201D00F031FA06000AE0012114F12400E5
:1008800000F0B1FA060003E002E001E000E001261A
:100890003000C0B2002808D1DFF838140A68D20846
:1008A000D200606F02430A6000E035002078400704
:1008B0002DD5D4F89000002808D002280DD006D3FA
:1008C000042812D010D3052810D010E010E0012128
:1008D000201D00F001FA06000AE0012114F12400B5
:1008E00000F081FA060003E002E001E000E00126EA
:1008F0003000C0B2002809D1DFF8C0130A68D2085E
:10090000D200D4F8900002430A6000E0350020785D
:10091000800634D5D4F88C0000280FD0B0F1805F69
:100920000DD0B0F1005F10D0B0F1405F14D0B0F145
:10093000804F12D0B0F1A04F10D010E010E0002195
:10094000201D00F0C9F906000AE0022114F124007C
:1009500000F049FA060003E002E001E000E00126B1
:100960003000C0B2002809D1DFF868130A6832F0FD
:10097000E042D4F88C0002430A6000E035002078A1
:10098000400634D5D4F8980000280FD0B0F5806F19
:100990000DD0B0F5006F10D0B0F5406F14D0B0F5A9
:1009A000805F12D0B0F5A05F10D010E010E0002101
:1009B000201D00F091F906000AE0022114F1240044
:1009C00000F011FA060003E002E001E000E0012679
:1009D0003000C0B2002809D1DFF8E0120A6832F412
:1009E000E052D4F8980002430A6000E03500207815
:1009F000000634D5D4F89C0000280FD0B0F5005F75
:100A00000DD0B0F5804F10D0B0F5C04F14D0B0F578
:100A1000004F12D0B0F5204F10D010E010E00021B0
:100A2000201D00F059F906000AE0022114F124000B
:100A300000F0D9F9060003E002E001E000E0012641
:100A40003000C0B2002809D1DFF870120A6832F411
:100A50006042D4F89C0002430A6000E03500207830
:100A6000000715D5D4F88000B0F5805F07D10221CA
:100A700014F1240000F0B7F9002800D00125DFF8B8
:100A800054120A6832F44052D4F8800002430A60DB
:100A90002078C00615D5D4F89400B0F5807F07D132
:100AA000022114F1240000F09EF9002800D0012555
:100AB000DFF808120A6832F44072D4F89400024356
:100AC0000A602068000328D5D4F8A000002806D0CA
:100AD000B0F5803F09D0B0F5003F0DD00DE000210A
:100AE000201D00F0F9F8060008E0022114F12400AE
:100AF00000F079F9060001E000E001263000C0B204
:100B0000002809D1DFF8B4110A6832F44032D4F871
:100B1000A00002430A6000E035002068400329D5A8
:100B2000D4F88400B0F5801F06D0B0F5001F09D0BE
:100B3000B0F5401F0DD00DE05E48016851F4003162
:100B4000016008E0012114F1240000F04CF90600D6
:100B500001E000E001263000C0B2002809D1DFF832
:100B600074110A6832F44012D4F8840002430A6017
:100B700000E035002068C00320D5E06C002803D0D9
:100B8000B0F5803F06D00BE04A48016851F40031CF
:100B9000016006E00221201D00F09EF8060000E042
:100BA00001263000C0B2002807D145490A6832F456
:100BB0008032E06C02430A6000E03500206880006B
:100BC00007D5022114F1240000F00DF9002800D00F
:100BD00001252068800323D5E06F002811D0B0F5EF
:100BE000807F06D0B0F5007F09D0B0F5407F07D0F8
:100BF00008E03048016851F40031016003E002E090
:100C000001E000E001263000C0B2002807D13149E0
:100C10000A6832F44072E06F02430A6000E0350077
:100C20002068C00206D524490A6822F00042206FDD
:100C300002430A602068C00007D524490A6832F4DC
:100C40008042D4F8B40002430A602068800206D5CE
:100C500019490A6832F08072A06E02430A60206867
:100C6000400009D51949086830F4004008600A6856
:100C7000D4F8B80002430A602068002806D510495D
:100C80000A6832F04052206D02430A602068000278
:100C900007D510490A6832F44002D4F888000243AC
:100CA0000A60EDB2002D01D1002000E00120BDE876
:100CB000F08100002C440258504402585844025815
:100CC0004C440258004802587044025810440258DC
:100CD000CFFFFF00544402582DE9F84305000C00F3
:100CE0000026DFF81882D8F8000010F0030003286F
:100CF00001D1012075E0854F386830F080603860A0
:100D000000F006F981463868000107D500F000F9C7
:100D1000B0EB09000328F6D3032062E0D8F8000006
:100D200030F47C30296850EA0130C8F80000686867
:100D3000401EC005C00DA968491E490211F47E413C
:100D40000843E968491E090411F4FE0108432969B2
:100D5000491E090611F0FE410843674908606849C9
:100D60000A6832F0C002686902430A600A6832F019
:100D70002002A86902430A60086830F01000086089
:100D80005C4802686FF3CF02EB6952EAC30202606B
:100D9000086850F010000860002C04D1086850F476
:100DA000002008600AE0012C04D1086850F480108B
:100DB000086003E0086850F400100860386850F0DC
:100DC0008060386000F0A4F804003868000106D4A0
:100DD00000F09EF8001B0328F7D3032001E0300049
:100DE000C0B2BDE8F2832DE9F84305000C000026EF
:100DF000DFF80881D8F8000010F00300032801D1C3
:100E0000012075E0414F386830F08050386000F0C4
:100E10007FF881463868800007D500F079F8B0EB9C
:100E200009000328F6D3032062E0D8F8000030F070
:100E30007C70296850EA0150C8F800006868401EBC
:100E4000C005C00DA968491E490211F47E4108433E
:100E5000E968491E090411F4FE0108432969491E85
:100E6000090611F0FE4108432749086024490A6831
:100E700032F44062686902430A600A6832F4007220
:100E8000A86902430A60086830F4807008601D4851
:100E900002686FF3CF02EB6952EAC302026008688E
:100EA00050F480700860002C04D1086850F4800071
:100EB00008600AE0012C04D1086850F400000860C2
:100EC00003E0086850F080700860386850F0805087
:100ED000386000F01DF804003868800006D400F087
:100EE00017F8001B0328F7D3032001E03000C0B23D
:100EF000BDE8F2833C440258384402582844025862
:100F00002C440258444402584044025800440258B9
:100F100001480068704700BF880000202DE9F041BB
:100F200004000E00002C01D101203AE1DFF87454D6
:100F3000286810F00F00B0420BD2286800090001A9
:100F400030432860286810F00F00B04201D0012023
:100F500027E1207840070DD5DFF86414086810F009
:100F600070002269904205D20A6832F0700220694E
:100F700002430A60207800070DD5DFF8481408689E
:100F800010F070006269904205D20A6832F0700277
:100F9000606902430A602078C0060DD5DFF824148A
:100FA000086810F4E060A269904205D20A6832F441
:100FB000E062A06902430A60207880060DD5DFF860
:100FC0000814086810F07000E269904205D20A68BF
:100FD00032F07002E06902430A60207880070DD584
:100FE000DFF8DC13086810F00F00E268904205D2C9
:100FF0000A6812091201E06802430A602078C007FB
:1010000048D5DFF8BC130A6832F47062A068024366
:101010000A606068022806D1DFF88C03006880034C
:101020001CD40120BDE06068032806D1DFF87803F6
:101030000068800112D40120B3E06068012806D165
:10104000DFF864030068C00508D40120A9E0DFF8D8
:1010500058030068400701D40120A2E0DFF84C7378
:101060003968C908C900606801433960FFF750FF5B
:101070008046386810F038006168B0EBC10F09D0C5
:10108000FFF746FFB0EB080041F289318842F0D308
:10109000032086E0207880070DD5DFF82413E06870
:1010A0000A6812F00F02904205D20A681209120172
:1010B000E06802430A60286810F00F0086420BD2F5
:1010C00028680009000130432860286810F00F00EC
:1010D000B04201D0012064E0207840070DD5DFF850
:1010E000E01220690A6812F07002904205D20A6884
:1010F00032F07002206902430A60207800070DD5A3
:10110000DFF8C01260690A6812F07002904205D2DE
:101110000A6832F07002606902430A602078C006F3
:101120000DD5DFF8A012A0690A6812F4E0629042BF
:1011300005D20A6832F4E062A06902430A602078AE
:1011400080060DD5DFF88012E0690A6812F070029F
:10115000904205D20A6832F07002E06902430A60E8
:1011600000F022F8DFF87422DFF854120B68C3F3A2
:101170000323D35C13F01F03D840096811F00F015B
:10118000515C11F01F010200CA40DFF82C120A6006
:10119000DFF820120860DFF82402006800F04AFC43
:1011A000C0B2BDE8F0810000DFF80002006810F076
:1011B0003800002806D0082813D0102814D018288A
:1011C00015D0E4E0DFF8E0110868800606D5DFF806
:1011D000E0010968C1F3C101C84001E0DFF8D001B6
:1011E000D6E0DFF8FC01D3E0DFF8F801D0E0DFF86B
:1011F000DC01026812F003020068C0F30510DFF89A
:10120000D0110B6813F00103DFF8CC110968C1F3AA
:10121000CC014B4300EE103AB8EE400A002800F033
:10122000B480002A03D0022A66D048D381E0DFF8D8
:1012300078110A68920625D5DFF874210968C1F390
:10124000C101CA4000EE902AF8EE600A01EE100AD1
:10125000B8EE411AC0EE810ADFF878010068C005D7
:10126000C00D01EE100AB8EE411ADFED4A1A80EE09
:10127000210A31EE000AB7EE001A30EE010A60EEE4
:10128000800A1BE000EE900AF8EE600A9FED421A19
:10129000C1EE200A4F480068C005C00D01EE100ADB
:1012A000B8EE411ADFED3B1A80EE210A31EE000A5A
:1012B000B7EE001A30EE010A60EE800A55E000EE4B
:1012C000900AF8EE600A9FED351AC1EE200A4148F7
:1012D0000068C005C00D01EE100AB8EE411ADFED3E
:1012E0002D1A80EE210A31EE000AB7EE001A30EE18
:1012F000010A60EE800A38E000EE900AF8EE600A1B
:101300009FED271AC1EE200A32480068C005C00DC3
:1013100001EE100AB8EE411ADFED1E1A80EE210A26
:1013200031EE000AB7EE001A30EE010A60EE800AD4
:101330001BE000EE900AF8EE600A9FED181AC1EE6D
:10134000200A24480068C005C00D01EE100AB8EE5E
:10135000411ADFED101A80EE210A31EE000AB7EED5
:10136000001A30EE010A60EE800A1A480068C0F3E5
:101370004620401C00EE100AB8EE400A80EE800ABB
:10138000BCEEC00A10EE100A00E0002000E0144895
:1013900070470000000000460024744C0024744A8A
:1013A00020BCBE4B0020005200440258104402589A
:1013B0000090D0030400002008000020000000205E
:1013C000184402581C440258204402582844025829
:1013D0002C4402583044025834440258CC3000089F
:1013E00000093D0040787D0170B50400002C01D15A
:1013F000012005E32078C0076CD5DFF808060068F7
:1014000010F03800DFF800160968102805D01828F9
:101410000DD111F00301022909D1DFF8F0050068B0
:10142000800357D56068002854D10120E8E2606845
:10143000B0F5803F06D1DFF8D405016851F4803162
:10144000016026E0606800280AD1DFF8C005016865
:1014500031F480310160016831F48021016018E0CD
:101460006068B0F5A02F0AD1DFF8A005016851F43B
:1014700080210160016851F48031016009E0DFF8EA
:101480008C05016831F480310160016831F48021FC
:101490000160606800280ED0FFF73AFD0500DFF814
:1014A0006C050068800315D4FFF732FD401B6528EA
:1014B000F5D30320A4E2FFF72BFD0500DFF84C0570
:1014C0000068800306D5FFF723FD401B6528F5D390
:1014D000032095E2207880073DD5DFF828050068D5
:1014E00010F03800DFF820150968002804D018280B
:1014F00051D111F0030F4ED1DFF8100500684007FD
:1015000004D5E068002801D1012079E200F0E8FA72
:1015100041F20401884215D22069402808D1DFF841
:10152000F004016831F47C3151F40031016012E0C3
:10153000DFF8DC04016831F47C31226951EA0231C0
:10154000016008E0DFF8C804016831F0FE4122695B
:1015500051EA026101602078C00640F19280DFF814
:10156000A404006810F03800DFF89C14096808280B
:1015700007D0182840F09E8011F00301012940F0A7
:101580009980DFF888040068C00555D5E069802897
:1015900052D0012034E2E06800283AD0DFF86C64D1
:1015A000316831F01901E06801433160FFF7B0FCA8
:1015B00005003068400706D4FFF7AAFC401B03284B
:1015C000F7D303201CE200F08BFA41F204018842B9
:1015D00015D22069402808D1DFF83404016831F4BD
:1015E0007C3151F40031016012E0DFF8240401681D
:1015F00031F47C31226951EA0231016008E0DFF800
:101600001004016831F0FE41226951EA0261016073
:10161000A1E7DFF8F8633068400840003060FFF76A
:1016200077FC05003068400795D5FFF771FC401B3B
:101630000328F7D30320E3E100F052FA41F204015A
:10164000884215D2206A202808D1DFF8C403016837
:1016500031F0F84151F08041016012E0DFF8B00351
:10166000016831F0F841226A51EA8261016008E0C4
:10167000DFF8A003016831F07C51226A51EA02616F
:1016800001602078000773D5606900285ED0DFF81C
:101690008863306850F001003060FFF739FC0500C6
:1016A0003068800764D4FFF733FC401B0328F7D36E
:1016B0000320A5E1E069002836D0DFF850633068E8
:1016C00050F080003060FFF723FC05003068C00553
:1016D00006D4FFF71DFC401B0328F7D303208FE13E
:1016E00000F0FEF941F20401884214D2206A202859
:1016F00008D1DFF81C03016831F0F84151F0804156
:10170000016010E0C248016831F0F841226A51EAF4
:101710008261016007E0BF48016831F07C51226AB4
:1017200051EA02610160ACE7B84E306830F08000E9
:101730003060FFF7EDFB05003068C005A1D5FFF76D
:10174000E7FB401B0328F7D3032059E1B24E306872
:10175000400840003060FFF7DBFB05003068800781
:1017600006D5FFF7D5FB401B0328F7D3032047E13D
:101770002078800626D5A069002811D0A34E3068B5
:1017800050F480503060FFF7C3FB050030688004E0
:1017900018D4FFF7BDFB401B0328F7D303202FE12C
:1017A0009A4E306830F480503060FFF7B1FB05008E
:1017B0003068800406D5FFF7ABFB401B0328F7D346
:1017C00003201DE12078400760D5944E306850F426
:1017D00080703060FFF79CFB05003068C00506D4C0
:1017E000FFF796FB401B6528F7D3032008E1A068AC
:1017F000012805D18A48016851F00101016022E009
:10180000A068002809D1864801684908490001609C
:10181000016831F00401016015E0A068052809D1D4
:101820007F48016851F004010160016851F0010135
:10183000016008E07A4801684908490001600168D0
:1018400031F004010160A06800280FD0FFF760FBB1
:10185000050073480068800718D4FFF759FB401B48
:1018600041F289318842F4D30320C9E0FFF750FBED
:1018700005006B480068800708D5FFF749FB401B4F
:1018800041F289318842F4D30320B9E0606A00282C
:1018900000F0B5805B48006810F03800182800F0B0
:1018A0008380606A02286DD1584D286830F08070BE
:1018B0002860FFF72DFB06002868800106D5FFF79A
:1018C00027FB801B0328F7D3032099E04E490A68C1
:1018D00054480240A06A0243E06A52EA00120A60D9
:1018E000206B401EC005C00D616B491E490211F4FA
:1018F0007E410843A16B491E090411F4FE0108430F
:10190000E16B491E090611F0FE4108434649086093
:1019100046490868400840000860454802686FF37F
:10192000CF02A36C52EAC30202600A6832F00C02D2
:10193000206C02430A600A6832F00202606C0243C3
:101940000A60086850F480300860086850F400307D
:101950000860086850F480200860086850F00100B2
:101960000860286850F080702860FFF7D1FA040002
:101970002868800143D4FFF7CBFA001B0328F7D374
:1019800003203DE0214D286830F080702860FFF78B
:10199000BFFA04002868800131D5FFF7B9FA001BAF
:1019A0000328F7D303202BE0174800681E49096875
:1019B000626A012A21D010F00302A36A9A421CD164
:1019C000C0F30510E26A904217D1C805C00D226B22
:1019D000521E904211D1C1F34620626B521E9042BA
:1019E0000BD1C1F30640A26B521E904205D1C1F348
:1019F0000660E16B491E884201D0012000E0002012
:101A000070BD00BF104402582844025800440258D8
:101A1000044402580C4402587444025800480258C6
:101A2000704402580CFCFFFF304402582C4402580A
:101A30003444025810B5040011490878002801D137
:101A400001201BE04FF47A700978B0FBF1F00D49EA
:101A50000968B1FBF0F000F0C0F8002801D00120C7
:101A60000CE0102C09D2002221005FF0FF3000F0C2
:101A7000A4F805480460002000E0012010BD00BF6C
:101A80000C000020040000200000002080B503208E
:101A900000F08FF8FFF788FBDFF85010DFF85020D8
:101AA0001368C3F30323CB5C13F01F03D840126801
:101AB00012F00F02895C11F01F010200CA40DFF82A
:101AC00034100A60DFF8301008600F20FFF7B2FF13
:101AD000002801D0012002E000F092F8002002BDB1
:101AE000DFF818000068000C70470000CC300008D8
:101AF0001844025808000020040000200010005C78
:101B000010F00700374B1A684FF6FF010A403649BC
:101B100051EA00210A431A60704732480068C0F356
:101B200002207047020012B2002A04D409012F4A91
:101B300000B2115407E009012D4A00B210F00F0065
:101B4000104400F8041C704710B410F00700D0F1E6
:101B50000703052B01D3042301E0D0F10703041D83
:101B6000072C01D2002000E0C01E012414FA03F368
:101B70005B1E1940814014FA00F0401E10400843DB
:101B800010BC704780B5411EB1F1807F01D30120A8
:101B90000EE0401E174908600F215FF0FF30FFF78D
:101BA000C1FF002014490860072014490860002084
:101BB00002BD80B5FFF7A4FF01BD70B504000D00A4
:101BC0001600FFF7AAFF32002900FFF7BDFF010052
:101BD000200000B2FFF7A6FF70BD80B5FFF7D2FF6F
:101BE00002BD00000CED00E00000FA0500E400E09A
:101BF00018ED00E014E000E018E000E010E000E084
:101C000081B00648016851F002010160006810F0DF
:101C100002000090009801B0704700BFF4440258E1
:101C200038B50400FFF774F90500002C01D101203C
:101C30004DE0206A402894F84100002807D1200098
:101C400000F0DCF941F28831200000F095F82068BE
:101C5000006830F47060A168491E50EA01202168D4
:101C60000860A06C00902B0000222021200000F0D2
:101C700085F80100C9B2002928D121680A68DFF877
:101C800050100A40616852EA0162E1680A43E16962
:101C90000A43216A0A4321680A6021684A68DFF81A
:101CA00034100A40216952EA014261690A43A1697C
:101CB0000A4321684A602168096851F001012268DD
:101CC000116000216164012184F84110C0B232BD6D
:101CD0002FFFFF00FEF8E0FFF8B506000C0015002E
:101CE000FFF716F90300A0690028E0690028206AC0
:101CF000002896F84000012801D102203BE0012095
:101D000086F8400096F8410001282ED1002070642A
:101D1000822086F84100B06C009000222021300023
:101D200000F02CF807003800C0B200281ED130683F
:101D3000016831F008016868014330680160686833
:101D400008280BD128683168086310203168C86002
:101D50003068006850F48010316808605FF04062BD
:101D60002100300000F032F800E00227002086F861
:101D700040003800C0B2F2BD816470472DE9F041E7
:101D800005000E0090461F00069C286880683042BF
:101D900001D0012000E000204146C9B2884212D0A3
:101DA00014F1010FF1D0FFF7B3F8C01B844201D347
:101DB000002CEAD1042085F84100686C50F0010045
:101DC0006864012000E00020BDE8F08110B44B6A97
:101DD000002B06D0B2F1406F03D08B6A5B1E046803
:101DE00023618B69002B79D00B6A002B3ED08B6866
:101DF0000468E361CB69002B20D0CC6A0B6B1C43D9
:101E00004B6B1C434B6A1C434B6954EA83440B697C
:101E10001C430B6A1C43CB681C43CB691C438B6976
:101E20001C430B681C43144303685C61B2F1406FB0
:101E300000F0C680496800688161C1E0CC6A0B6B24
:101E40001C434B6B1C434B6A1C434B6954EA834451
:101E50000B691C430B6A1C43CB691C438B691C43F5
:101E600009680C43224300684261A9E0CB69002B5A
:101E70001ED0CC6A0B6B1C434B6B1C434B6A1C4340
:101E80004B6954EA83440B6A1C43CB681C43CB69FF
:101E90001C438B691C430B681C43144303685C613F
:101EA000B2F1406F00F08C8049680068816187E082
:101EB000CC6A0B6B1C434B6B1C434B6A1C434B693A
:101EC00054EA83440B6A1C43CB691C438B691C4353
:101ED00009680C4322430068426171E00B6A002BE1
:101EE00039D08B680468E361CB69002B1DD0CC6AC4
:101EF0000B6B1C434B6B1C434B6A1C434B6954EAF2
:101F000083440B691C430B6A1C43CB681C43CB699D
:101F10001C438B691C43144303685C61B2F1406F3E
:101F20004ED04968006881614AE0CC6A0B6B1C4363
:101F30004B6B1C434B6A1C434B6954EA83440B694B
:101F40001C430B6A1C43CB691C4389690C43224325
:101F50000068426134E0CB69002B1BD0CC6A0B6B6C
:101F60001C434B6B1C434B6A1C434B6954EA834430
:101F70000B6A1C43CB681C43CB691C438B691C4315
:101F8000144303685C61B2F1406F19D0496800687E
:101F9000816115E04B6A002B12D0CC6A0B6B1C439D
:101FA0004B6B1C434B6A1C434B6954EA83440B6ADA
:101FB0001C43CB691C4389690C432243006842617E
:101FC00010BC704780B54648464901600121416018
:101FD000182181601021C160182101614FF4A061B6
:101FE0004161012181618021C16100210162FFF70E
:101FF00017FE002801D000F065F901BD18B5B5B095
:10200000040014220021684600F05EF9BC22002181
:1020100006A800F059F92068324988425DD15FF086
:10202000007006900020189006A8FEF735F90028E9
:1020300001D000F047F92C48016851F4804101605B
:10204000006810F48040059005982848016851F018
:1020500002010160016811F0020105910599016812
:1020600051F010010160016811F01001059105990E
:10207000016851F004010160006810F0040005904F
:102080000598042000900220019000200290032077
:102090000390092004906946154800F01FF94FF499
:1020A000F060009002200190002002900320039035
:1020B0000A20049069460F4800F010F94FF40060C0
:1020C000009002200190002002900320039009203C
:1020D00004906946084800F001F936B010BD0000D0
:1020E0001000002000500052D4440258E04402582E
:1020F00000040258001002580008025880B56648D3
:102100006649096801606649006808605FF0104030
:10211000006880F308880868804701BD38B56149C8
:102120000868800312D4BFF34F8FBFF36F8F002076
:102130005D4A1060BFF34F8FBFF36F8F086850F494
:1021400000300860BFF34F8FBFF36F8F0868C00384
:1021500024D40020554A1060BFF34F8F54480268C2
:10216000C2F34E33C2F3C90443F6E07010EA4310E1
:1021700050EA84704F4D28602000441E0028F3D19F
:102180001800431E0028EDD1BFF34F8F086850F4AC
:1021900080300860BFF34F8FBFF36F8FFFF776FC7F
:1021A00000F00DF800F0C4F9FFF70CFF00F0EAF9B9
:1021B00000F018FC00F0DEFBFFF7A0FFFEE780B5A3
:1021C0009CB04C22002109A800F07EF820220021BA
:1021D00001A800F079F8022000F028FC002000900F
:1021E0003548016851F440410160016811F44041F3
:1021F000009132490A6852F001020A60096811F040
:1022000001010091009901688904FCD500F03AFCB5
:10221000FFF766FC2A48016831F0180101600520CB
:1022200009905FF480300A9001200B9002201290F8
:102230000220139005201490C020159002201690C3
:1022400002201790022018900820199000201A9060
:1022500000201B9009A8FFF7C7F8002801D000F064
:1022600031F83F20019003200290002003900820C5
:10227000049040200590402006904FF48060079025
:1022800040200890042101A8FEF748FE002801D054
:1022900000F018F81DB000BD84000020040000907C
:1022A0008000002014ED00E050EF00E084ED00E03D
:1022B00080ED00E060EF00E0184802582C04005860
:1022C0007044025872B6FEE710B5044610460A463E
:1022D0000146204600F0DEFB204610BDF8B40200A7
:1022E0000025DFF8144236E05FF00A0C05E0DFF865
:1022F0000C329A42F8D15FF0090C15F00303DBB2FF
:102300009B001CFA03FC5CEA07072B009B0846F8BD
:102310002370236883434E68F60300D5034323608C
:10232000636883434E68B60300D5034363605FF080
:10233000B046336883434F68FF0200D503433360E0
:10234000DFF8BC61336883434F68BF0201D518438F
:10235000030033606D1C0868E840002800F0C98065
:102360000126086816FA05F318400028F2D04B68D9
:10237000012B08D04B68022B05D04B68112B02D0E3
:102380004B68122B1CD197685FF0030C2B00DBB25B
:102390005B001CFA03FC37EA0C07D1F80CC02B00D9
:1023A000DBB25B001CFA03FC5CEA0707976053682A
:1023B000AE40B3434E68C6F30016AE40334353609D
:1023C000D76803262B00DBB25B0016FA03F39F43AA
:1023D000D1F808C02B00DBB25B001CFA03FC5CEAFE
:1023E0000707D7604B68022B02D04B68122B1DD118
:1023F0002B00DB0802EB83031F6A5FF00F0C15F064
:102400000703DBB29B001CFA03FC37EA0C07D1F888
:1024100010C015F00703DBB29B001CFA03FC5CEA5A
:1024200007072B00DB0802EB83031F6217682B00F2
:10243000DBB25B009E40B7430E7916F003062B001B
:10244000DBB25B009E40374317604B68DB007FF5D3
:1024500081AF2C4B1E6856F002061E601B6813F0FD
:1024600002030093009B284E2B009B0856F8237014
:102470005FF00F0C15F00303DBB29B001CFA03FCAA
:1024800037EA0C07214B9A4202D15FF0000C34E787
:102490001F4B9A4202D15FF0010C2EE71D4B9A426E
:1024A00002D15FF0020C28E71B4B9A4202D15FF089
:1024B000030C22E7194B9A4202D15FF0040C1CE78F
:1024C000174B9A4202D15FF0050C16E7154B9A4262
:1024D00002D15FF0060C10E7134B9A4202D15FF075
:1024E000070C0AE7114B9A427FF401AF5FF0080C2A
:1024F00003E7F1BC70470000800000580024025838
:1025000004000058F444025808040058000002581F
:102510000004025800080258000C0258001002582B
:102520000014025800180258001C025800200258DB
:1025300081B01348016851F004010160016811F095
:10254000040100910099016851F080010160016867
:1025500011F0800100910099016851F002010160C1
:10256000016811F0020100910099016851F0100119
:102570000160006810F010000090009801B07047F2
:10258000E044025838B586B01422002101A8FFF7B4
:102590009BFE042200216846FFF796FE384C39481E
:1025A0002060002060607F20A060FF20E0600020AD
:1025B00020610020A0610020E06100206061200017
:1025C00000F0B8FA002801D0FFF77CFE45F2510573
:1025D0000121200000F056FCA8422FD02A00012142
:1025E000200000F049FC00208DF8040000208DF848
:1025F000050000208DF806000020049000200590C2
:10260000002201A9200000F0ECFA002801D0FFF719
:1026100059FE05208DF8000001208DF801000120F1
:102620008DF8020015208DF8030000226946200075
:1026300000F047FB002801D0FFF744FE07B030BD93
:1026400018B5AFB00400BC2200216846FFF73CFE7D
:1026500020680C49884211D15FF4800000904FF44B
:1026600080702C906846FDF717FE002801D0FFF718
:1026700029FE0548016851F40041016030B010BDE9
:102680005C000020004000587044025810B4002341
:1026900000E0521E002A0BD0C94B1B68034201D038
:1026A000012300E000230C00DBB2E4B2A342F0D12E
:1026B000002A01D0002000E0012010BC70472DE965
:1026C000F04105000C001600984600204FF6FF77F9
:1026D0003A0000212020FFF7D9FF002838D1002040
:1026E0003100C9B2890950EA01605FFA88F850EAFE
:1026F00088403100C9B20909C9B2090311F4405137
:1027000008433100C9B28908C9B2890211F4406195
:1027100008433100C9B2090211F440710843EDB217
:102720000543A848056016F00C0F01D0A6480460C8
:1027300016F0C00F0CD13A0001210220FFF7A6FFCE
:10274000C0B2002804D1A148016851F00201016023
:10275000BDE8F081F8B506000C009A4A1168DFF870
:1027600068C2DCF800309A4F651EDFF868E2CEF8E8
:10277000005031F0406151F08061944DD5F800E097
:102780005EF0020EC5F800E01160CCF8003003E006
:1027900039783170761C641E002C09D04FF6FF7218
:1027A00001210620FFF772FF0100C9B20029EFD016
:1027B0000100C9B2002918D18748016851F004010D
:1027C00001604FF6FF74220001210220FFF75EFF37
:1027D0000100C9B2002908D1286850F00200286021
:1027E000220000212020FFF751FFC0B2F2BDF8B552
:1027F00006000C00734A116873480068744F631E2A
:10280000744D2B6031F04061704D2B6853F0020322
:102810002B60116003E031783970761C641E002C47
:1028200009D04FF6FF7201210420FFF72FFF0100AE
:10283000C9B20029EFD00100C9B2002918D16648F9
:10284000016851F0040101604FF6FF74220001217C
:102850000220FFF71BFF0100C9B2002908D1286838
:1028600050F002002860220000212020FFF70EFF18
:10287000C0B2F2BD80B500218DF800100021C0B2B9
:10288000012804D009D3032805D002D305E0052090
:1028900004E0352002E0152000E005204F490978CA
:1028A000002906D00023C3220021C0B2FFF707FF92
:1028B00005E0002341220021C0B2FFF700FF012103
:1028C0006846FFF747FF9DF8000002BD02B50021F2
:1028D000C0B2012804D009D3032805D002D305E0F3
:1028E000012004E0312002E0112000E001203B49FA
:1028F0000978002906D00023C3220021C0B2FFF7C7
:10290000DEFE05E0002341220021C0B2FFF7D7FE22
:1029100001216846FFF76BFF01BD80B52F480078A5
:10292000002806D00023032200210620FFF7C7FE5F
:1029300005E00023012200210620FFF7C0FE01BDB3
:1029400010B50220FFF796FF0400A00708D4FFF798
:10295000E4FF54F002042100C9B20220FFF7B6FFE1
:102960000023012200213820FFF7A9FE01201B4986
:10297000087010BD80B590B04FF440700890EB2007
:1029800002904FF4406009904FF4405005905FF082
:1029900040700B900820079000200D9000200E90B2
:1029A00000200F9000200190002000906A4602A9AC
:1029B0000B48FFF791F9002800D0FEE711B000BDE9
:1029C0000850005214500052185000520C5000523F
:1029D0002050005210500052005000528C00002035
:1029E0001000002080B5FFF7ABFF0320FFF742FF88
:1029F0008DF800009DF80000C00707D4FFF78DFF99
:102A0000002303220021B720FFF759FEFFF785FFBF
:102A10000023C3220021C020FFF751FE30208DF893
:102A2000000001216846FFF7E2FE01BD10B5DFF8A6
:102A30004C100A68520708D4096811F00701814256
:102A400001D0012018E0002016E00A68D208D20068
:102A500010430860FEF75CFA0400DFF82400006809
:102A6000800408D4FEF754FA001B40F2E931884292
:102A7000F3D3012000E0002010BD00000C480258F4
:102A8000044802580248016851F48071016070479F
:102A90000048025862F30F2262F31F42401810F000
:102AA000030308D0C91A1FD3DB0748BF00F8012D64
:102AB00028BF20F8022D130030B4144615461039F3
:102AC00028BF20E93C00FAD8490728BF20E90C00BC
:102AD00048BF40F8042D890028BF20F8022D48BFC8
:102AE00000F8012D30BC7047C91818BF00F8012D3F
:102AF000CB0728BF00F8012D704730B4002513E044
:102B000050F8042BD30744BFA9F101039A18091FF9
:102B1000042942F8045BFAD213468C0744BF15809F
:102B20009B1CC90748BF1D7050F8041B0029E7D142
:102B300030BC704710B504000120002C4FD094F831
:102B40002100002805D1002084F820002000FFF794
:102B500077FD022084F82100CA20216848625320B2
:102B600021684862200000F025F90100C9B200295F
:102B70002BD120688168DFF8D40201402068816091
:102B800020688168626820690243A069024311439A
:102B900020688160A068E16851EA00412068016115
:102BA000200000F028F90100C9B200290DD12168E8
:102BB000C96C890889002268D1642168CA6CE369FC
:102BC00061690B431A432168CA64FF21226851627C
:102BD0000100C9B2002902D1012184F82110C0B23C
:102BE00010BDF8B505000E00140095F8200001286E
:102BF00001D1022064E0012085F82000022085F840
:102C00002100CA20296848625320296848622800A8
:102C100000F0D0F80100C9B2002943D1002C1BD12B
:102C200028688068400601D40020F070307800F0F9
:102C300017F90700707800F013F90400B07800F07D
:102C40000FF9FFB2E4B2240254EA0744C0B20443CD
:102C5000F07854EA80540FE028688068400601D478
:102C60000020F07030787478240254EA0044B07880
:102C70000443F07854EA8054DFF8D4010440286813
:102C800004602868806830F480202968886028689B
:102C90008168F26830690243114328688160280026
:102CA00000F0A9F8FF212A6851620100C9B2002989
:102CB00002D1012185F82110002185F82010C0B231
:102CC000F2BDF8B504000D0094F82000012801D1F0
:102CD000022054E0012084F82000022084F8210022
:102CE000002A07D16878C00604D5687810F0EF0094
:102CF0000A306870002A15D1E87800F0B1F80700B2
:102D0000687800F0ADF80600A87800F0A9F8FFB2E6
:102D1000F6B2360256EA0746C0B20643287856EAAB
:102D2000403609E0E8786E78360256EA0046A87820
:102D30000643287856EA4036CA2021684862532064
:102D400021684862200000F035F80100C9B200296E
:102D500007D1DFF80001064020684660200000F03F
:102D60004AF8FF21226851620100C9B2002902D14C
:102D7000012184F82110002184F82010C0B2F2BD96
:102D800038B504002068C06830F0A0002168C86031
:102D9000FEF7BEF805002068C068800608D4FEF77C
:102DA000B7F8401B40F2E9318842F4D3032000E039
:102DB000002032BD70B5040000252068C0684006C0
:102DC00016D45FF0FF302168C860FEF7A1F8060056
:102DD0000AE0FEF79DF8801B40F2E931884203D3F8
:102DE0000325032084F821002068C0684006F0D540
:102DF0002800C0B270BD70B50400002516480168F7
:102E000031F040010160154E3068800609D4200081
:102E1000FFF7B6FF002815D0032084F82100032512
:102E200010E0306830F0200030602000FFF7A8FF8D
:102E3000002803D0032084F821000325306850F0D7
:102E4000200030602800C0B270BD0000BFFF8FFFBF
:102E50007F7F7F003FFFFF000C4000580840005874
:102E6000002101E0491C0A380200D2B20A2AF9D234
:102E700050EA0110C0B270470068503010EB81007A
:102E8000026070470068503010EB810000687047A6
:102E90003048016851F4700101602F4A106810F049
:102EA0000F00072805D210680009000150F0070044
:102EB00010602A49086850F0010008600020284B83
:102EC00018600B68274803400B60106810F00F0073
:102ED000082805D310680009000150F007001060B1
:102EE0000020214A10600020204A10600020204A63
:102EF00010602048204A10602048214A1060214874
:102F0000214A10600022214B1A60214A10600022E1
:102F1000204B1A60204A10600020204A1060086888
:102F200030F48020086000201D4908601D480068BA
:102F3000000C0004B0F1005F02D201201A490860C1
:102F400043F2D200194908605FF000601849086038
:102F50007047000088ED00E0002000520044025855
:102F6000104402587FEDF6EA184402581C440258F7
:102F70002044025800020202284402580000FF01C7
:102F80002C44025880020101304402583444025853
:102F9000384402583C4402584044025844440258C1
:102FA000604402580010005C08810051004000524B
:102FB00008ED00E030B40EE00268436802440830D7
:102FC000DC0744BFA9F10104E31852F8045B43F89D
:102FD000045B091FF9D150F8041B0029ECD130BC67
:102FE0007047000010B5074979441831064C7C44FD
:102FF000163404E00A68081D114488470146A142BE
:10300000F8D110BD2C0000004C0000004EF6885195
:10301000CEF20001086840F470000860BFF34F8FE3
:10302000BFF36F8F4FF00070E1EE100A70470000A1
:10303000CBFAFFFF8000000010000020000000001D
:1030400075FFFFFF10000000A4000000000000203A
:103050000000000000F00DF8002801D0FFF7C2FFCB
:10306000AFF300800020AFF30080FFF757F800F0C7
:1030700002F80120704700F001B80000074638460A
:1030800000F002F8FBE7000080B5AFF30080024AD1
:1030900011001820ABBEFBE72600020003480168C0
:1030A000034A127889180160704700BF8800002029
:1030B0000C000020FEE7FEE7FEE7FEE7FEE77047B4
:1030C0007047704780B5FFF7E9FF01BD00000000C1
:1030D00001020304010203040607080901488047AE
:1030E00001480047912E0008FD3000081000000044
:1030F0000090D0030090D00301000000AFF30080E7
:10310000FFF784FFFFF7A6FFFFF7FEBFFFF7FEBF45
:10311000FFF7FEBFFFF7FEBFFFF7FEBFFFF7FEBFE3
:10312000FFF7FEBFFFF7FEBFFFF7FEBFFFF7FEBFD3
:10313000FFF7FEBFFFF7FEBFFFF7FEBFFFF7FEBFC3
:10314000FFF7FEBFFFF7FEBFFFF7FEBFFFF7FEBFB3
:04000005080030FDC2
:00000001FF
